{
	"contracts/StudyDemo/TestExtendS.sol": {
		"ElectricCar": {
			"abi": [
				{
					"inputs": [],
					"name": "batteryLevel",
					"outputs": [
						{
							"internalType": "uint256",
							"name": "",
							"type": "uint256"
						}
					],
					"stateMutability": "view",
					"type": "function"
				},
				{
					"inputs": [],
					"name": "driver",
					"outputs": [],
					"stateMutability": "nonpayable",
					"type": "function"
				},
				{
					"inputs": [],
					"name": "speed",
					"outputs": [
						{
							"internalType": "uint256",
							"name": "",
							"type": "uint256"
						}
					],
					"stateMutability": "view",
					"type": "function"
				}
			],
			"devdoc": {
				"kind": "dev",
				"methods": {},
				"version": 1
			},
			"evm": {
				"assembly": "    /* \"contracts/StudyDemo/TestExtendS.sol\":151:319  contract ElectricCar is Car {... */\n  mstore(0x40, 0x80)\n  callvalue\n  dup1\n  iszero\n  tag_1\n  jumpi\n  revert(0x00, 0x00)\ntag_1:\n  pop\n  dataSize(sub_0)\n  dup1\n  dataOffset(sub_0)\n  0x00\n  codecopy\n  0x00\n  return\nstop\n\nsub_0: assembly {\n        /* \"contracts/StudyDemo/TestExtendS.sol\":151:319  contract ElectricCar is Car {... */\n      mstore(0x40, 0x80)\n      callvalue\n      dup1\n      iszero\n      tag_1\n      jumpi\n      revert(0x00, 0x00)\n    tag_1:\n      pop\n      jumpi(tag_2, lt(calldatasize, 0x04))\n      shr(0xe0, calldataload(0x00))\n      dup1\n      0x6ecc5d62\n      eq\n      tag_3\n      jumpi\n      dup1\n      0x9d822510\n      eq\n      tag_4\n      jumpi\n      dup1\n      0xc20906ac\n      eq\n      tag_5\n      jumpi\n    tag_2:\n      revert(0x00, 0x00)\n        /* \"contracts/StudyDemo/TestExtendS.sol\":222:312  function driver() public override {... */\n    tag_3:\n      tag_6\n      tag_7\n      jump\t// in\n    tag_6:\n      stop\n        /* \"contracts/StudyDemo/TestExtendS.sol\":188:212  uint public batteryLevel */\n    tag_4:\n      tag_8\n      tag_9\n      jump\t// in\n    tag_8:\n      mload(0x40)\n      tag_10\n      swap2\n      swap1\n      tag_11\n      jump\t// in\n    tag_10:\n      mload(0x40)\n      dup1\n      swap2\n      sub\n      swap1\n      return\n        /* \"contracts/StudyDemo/TestExtendS.sol\":83:101  uint  public speed */\n    tag_5:\n      tag_12\n      tag_13\n      jump\t// in\n    tag_12:\n      mload(0x40)\n      tag_14\n      swap2\n      swap1\n      tag_11\n      jump\t// in\n    tag_14:\n      mload(0x40)\n      dup1\n      swap2\n      sub\n      swap1\n      return\n        /* \"contracts/StudyDemo/TestExtendS.sol\":222:312  function driver() public override {... */\n    tag_7:\n        /* \"contracts/StudyDemo/TestExtendS.sol\":267:281  super.driver() */\n      tag_16\n        /* \"contracts/StudyDemo/TestExtendS.sol\":267:279  super.driver */\n      tag_17\n        /* \"contracts/StudyDemo/TestExtendS.sol\":267:281  super.driver() */\n      jump\t// in\n    tag_16:\n        /* \"contracts/StudyDemo/TestExtendS.sol\":292:298  uint i */\n      0x00\n        /* \"contracts/StudyDemo/TestExtendS.sol\":301:302  0 */\n      0x00\n        /* \"contracts/StudyDemo/TestExtendS.sol\":292:302  uint i = 0 */\n      swap1\n      pop\n        /* \"contracts/StudyDemo/TestExtendS.sol\":256:312  {... */\n      pop\n        /* \"contracts/StudyDemo/TestExtendS.sol\":222:312  function driver() public override {... */\n      jump\t// out\n        /* \"contracts/StudyDemo/TestExtendS.sol\":188:212  uint public batteryLevel */\n    tag_9:\n      sload(0x01)\n      dup2\n      jump\t// out\n        /* \"contracts/StudyDemo/TestExtendS.sol\":83:101  uint  public speed */\n    tag_13:\n      sload(0x00)\n      dup2\n      jump\t// out\n        /* \"contracts/StudyDemo/TestExtendS.sol\":108:143  function driver() public virtual {} */\n    tag_17:\n      jump\t// out\n        /* \"#utility.yul\":7:84   */\n    tag_19:\n        /* \"#utility.yul\":44:51   */\n      0x00\n        /* \"#utility.yul\":73:78   */\n      dup2\n        /* \"#utility.yul\":62:78   */\n      swap1\n      pop\n        /* \"#utility.yul\":7:84   */\n      swap2\n      swap1\n      pop\n      jump\t// out\n        /* \"#utility.yul\":90:208   */\n    tag_20:\n        /* \"#utility.yul\":177:201   */\n      tag_24\n        /* \"#utility.yul\":195:200   */\n      dup2\n        /* \"#utility.yul\":177:201   */\n      tag_19\n      jump\t// in\n    tag_24:\n        /* \"#utility.yul\":172:175   */\n      dup3\n        /* \"#utility.yul\":165:202   */\n      mstore\n        /* \"#utility.yul\":90:208   */\n      pop\n      pop\n      jump\t// out\n        /* \"#utility.yul\":214:436   */\n    tag_11:\n        /* \"#utility.yul\":307:311   */\n      0x00\n        /* \"#utility.yul\":345:347   */\n      0x20\n        /* \"#utility.yul\":334:343   */\n      dup3\n        /* \"#utility.yul\":330:348   */\n      add\n        /* \"#utility.yul\":322:348   */\n      swap1\n      pop\n        /* \"#utility.yul\":358:429   */\n      tag_26\n        /* \"#utility.yul\":426:427   */\n      0x00\n        /* \"#utility.yul\":415:424   */\n      dup4\n        /* \"#utility.yul\":411:428   */\n      add\n        /* \"#utility.yul\":402:408   */\n      dup5\n        /* \"#utility.yul\":358:429   */\n      tag_20\n      jump\t// in\n    tag_26:\n        /* \"#utility.yul\":214:436   */\n      swap3\n      swap2\n      pop\n      pop\n      jump\t// out\n\n    auxdata: 0xa2646970667358221220cf141f5f23f4c5df1f146efbdea4adca6ef724018fef2322e67920566f17b30464736f6c634300081c0033\n}\n",
				"bytecode": {
					"linkReferences": {},
					"object": "6080604052348015600e575f5ffd5b5060f78061001b5f395ff3fe6080604052348015600e575f5ffd5b5060043610603a575f3560e01c80636ecc5d6214603e5780639d822510146046578063c20906ac146060575b5f5ffd5b6044607a565b005b604c6087565b6040516057919060aa565b60405180910390f35b6066608d565b6040516071919060aa565b60405180910390f35b60806092565b5f5f905050565b60015481565b5f5481565b565b5f819050919050565b60a4816094565b82525050565b5f60208201905060bb5f830184609d565b9291505056fea2646970667358221220cf141f5f23f4c5df1f146efbdea4adca6ef724018fef2322e67920566f17b30464736f6c634300081c0033",
					"opcodes": "PUSH1 0x80 PUSH1 0x40 MSTORE CALLVALUE DUP1 ISZERO PUSH1 0xE JUMPI PUSH0 PUSH0 REVERT JUMPDEST POP PUSH1 0xF7 DUP1 PUSH2 0x1B PUSH0 CODECOPY PUSH0 RETURN INVALID PUSH1 0x80 PUSH1 0x40 MSTORE CALLVALUE DUP1 ISZERO PUSH1 0xE JUMPI PUSH0 PUSH0 REVERT JUMPDEST POP PUSH1 0x4 CALLDATASIZE LT PUSH1 0x3A JUMPI PUSH0 CALLDATALOAD PUSH1 0xE0 SHR DUP1 PUSH4 0x6ECC5D62 EQ PUSH1 0x3E JUMPI DUP1 PUSH4 0x9D822510 EQ PUSH1 0x46 JUMPI DUP1 PUSH4 0xC20906AC EQ PUSH1 0x60 JUMPI JUMPDEST PUSH0 PUSH0 REVERT JUMPDEST PUSH1 0x44 PUSH1 0x7A JUMP JUMPDEST STOP JUMPDEST PUSH1 0x4C PUSH1 0x87 JUMP JUMPDEST PUSH1 0x40 MLOAD PUSH1 0x57 SWAP2 SWAP1 PUSH1 0xAA JUMP JUMPDEST PUSH1 0x40 MLOAD DUP1 SWAP2 SUB SWAP1 RETURN JUMPDEST PUSH1 0x66 PUSH1 0x8D JUMP JUMPDEST PUSH1 0x40 MLOAD PUSH1 0x71 SWAP2 SWAP1 PUSH1 0xAA JUMP JUMPDEST PUSH1 0x40 MLOAD DUP1 SWAP2 SUB SWAP1 RETURN JUMPDEST PUSH1 0x80 PUSH1 0x92 JUMP JUMPDEST PUSH0 PUSH0 SWAP1 POP POP JUMP JUMPDEST PUSH1 0x1 SLOAD DUP2 JUMP JUMPDEST PUSH0 SLOAD DUP2 JUMP JUMPDEST JUMP JUMPDEST PUSH0 DUP2 SWAP1 POP SWAP2 SWAP1 POP JUMP JUMPDEST PUSH1 0xA4 DUP2 PUSH1 0x94 JUMP JUMPDEST DUP3 MSTORE POP POP JUMP JUMPDEST PUSH0 PUSH1 0x20 DUP3 ADD SWAP1 POP PUSH1 0xBB PUSH0 DUP4 ADD DUP5 PUSH1 0x9D JUMP JUMPDEST SWAP3 SWAP2 POP POP JUMP INVALID LOG2 PUSH5 0x6970667358 0x22 SLT KECCAK256 0xCF EQ 0x1F PUSH0 0x23 DELEGATECALL 0xC5 0xDF 0x1F EQ PUSH15 0xFBDEA4ADCA6EF724018FEF2322E679 KECCAK256 JUMP PUSH16 0x17B30464736F6C634300081C00330000 "
				},
				"gasEstimates": {
					"creation": {
						"codeDepositCost": "49400",
						"executionCost": "97",
						"totalCost": "49497"
					},
					"external": {
						"batteryLevel()": "2425",
						"driver()": "156",
						"speed()": "2446"
					}
				},
				"methodIdentifiers": {
					"batteryLevel()": "9d822510",
					"driver()": "6ecc5d62",
					"speed()": "c20906ac"
				}
			},
			"storageLayout": {
				"storage": [
					{
						"astId": 3,
						"contract": "contracts/StudyDemo/TestExtendS.sol:ElectricCar",
						"label": "speed",
						"offset": 0,
						"slot": "0",
						"type": "t_uint256"
					},
					{
						"astId": 12,
						"contract": "contracts/StudyDemo/TestExtendS.sol:ElectricCar",
						"label": "batteryLevel",
						"offset": 0,
						"slot": "1",
						"type": "t_uint256"
					}
				],
				"types": {
					"t_uint256": {
						"encoding": "inplace",
						"label": "uint256",
						"numberOfBytes": "32"
					}
				}
			},
			"userdoc": {
				"kind": "user",
				"methods": {},
				"version": 1
			}
		}
	}
}