{
	"contracts/StudyDemo/ERC165.sol": {
		"ERC165Demo": {
			"abi": [
				{
					"inputs": [],
					"stateMutability": "nonpayable",
					"type": "constructor"
				},
				{
					"inputs": [
						{
							"internalType": "bytes4",
							"name": "interfaceId",
							"type": "bytes4"
						}
					],
					"name": "supportsInterface",
					"outputs": [
						{
							"internalType": "bool",
							"name": "",
							"type": "bool"
						}
					],
					"stateMutability": "view",
					"type": "function"
				},
				{
					"inputs": [],
					"name": "test",
					"outputs": [
						{
							"internalType": "bool",
							"name": "",
							"type": "bool"
						}
					],
					"stateMutability": "nonpayable",
					"type": "function"
				}
			],
			"devdoc": {
				"kind": "dev",
				"methods": {
					"supportsInterface(bytes4)": {
						"details": "Returns true if this contract implements the interface defined by `interfaceId`. See the corresponding https://eips.ethereum.org/EIPS/eip-165#how-interfaces-are-identified[ERC section] to learn more about how these ids are created. This function call must use less than 30 000 gas."
					}
				},
				"version": 1
			},
			"evm": {
				"assembly": "    /* \"contracts/StudyDemo/ERC165.sol\":125:904  contract ERC165Demo is IERC165 {... */\n  mstore(0x40, 0x80)\n    /* \"contracts/StudyDemo/ERC165.sol\":367:521  constructor() public {... */\n  callvalue\n  dup1\n  iszero\n  tag_1\n  jumpi\n  0x00\n  dup1\n  revert\ntag_1:\n  pop\n    /* \"contracts/StudyDemo/ERC165.sol\":398:438  _registerInterface(_INTERFACE_ID_ERC165) */\n  tag_4\n    /* \"contracts/StudyDemo/ERC165.sol\":292:302  0x01ffc9a7 */\n  0x01ffc9a7\n    /* \"contracts/StudyDemo/ERC165.sol\":417:437  _INTERFACE_ID_ERC165 */\n  0xe0\n  shl\n    /* \"contracts/StudyDemo/ERC165.sol\":398:416  _registerInterface */\n  shl(0x20, tag_5)\n    /* \"contracts/StudyDemo/ERC165.sol\":398:438  _registerInterface(_INTERFACE_ID_ERC165) */\n  0x20\n  shr\n  jump\t// in\ntag_4:\n    /* \"contracts/StudyDemo/ERC165.sol\":448:486  _registerInterface(this.test.selector) */\n  tag_6\n    /* \"contracts/StudyDemo/ERC165.sol\":467:485  this.test.selector */\n  shl(0xe0, 0xf8a8fd6d)\n    /* \"contracts/StudyDemo/ERC165.sol\":448:466  _registerInterface */\n  shl(0x20, tag_5)\n    /* \"contracts/StudyDemo/ERC165.sol\":448:486  _registerInterface(this.test.selector) */\n  0x20\n  shr\n  jump\t// in\ntag_6:\n    /* \"contracts/StudyDemo/ERC165.sol\":125:904  contract ERC165Demo is IERC165 {... */\n  jump(tag_7)\n    /* \"contracts/StudyDemo/ERC165.sol\":665:854  function _registerInterface(bytes4 interfaceId) internal {... */\ntag_5:\n    /* \"contracts/StudyDemo/ERC165.sol\":755:765  0xffffffff */\n  0xffffffff\n    /* \"contracts/StudyDemo/ERC165.sol\":740:765  interfaceId != 0xffffffff */\n  0xe0\n  shl\n    /* \"contracts/StudyDemo/ERC165.sol\":740:751  interfaceId */\n  dup2\n    /* \"contracts/StudyDemo/ERC165.sol\":740:765  interfaceId != 0xffffffff */\n  not(0xffffffffffffffffffffffffffffffffffffffffffffffffffffffff)\n  and\n  sub\n    /* \"contracts/StudyDemo/ERC165.sol\":732:797  require(interfaceId != 0xffffffff, \"ERC165: invalid interfaceid\") */\n  tag_9\n  jumpi\n  mload(0x40)\n  0x08c379a000000000000000000000000000000000000000000000000000000000\n  dup2\n  mstore\n  0x04\n  add\n  tag_10\n  swap1\n  tag_11\n  jump\t// in\ntag_10:\n  mload(0x40)\n  dup1\n  swap2\n  sub\n  swap1\n  revert\ntag_9:\n    /* \"contracts/StudyDemo/ERC165.sol\":843:847  true */\n  0x01\n    /* \"contracts/StudyDemo/ERC165.sol\":807:827  _supportedInterfaces */\n  0x00\n    /* \"contracts/StudyDemo/ERC165.sol\":807:840  _supportedInterfaces[interfaceId] */\n  dup1\n    /* \"contracts/StudyDemo/ERC165.sol\":828:839  interfaceId */\n  dup4\n    /* \"contracts/StudyDemo/ERC165.sol\":807:840  _supportedInterfaces[interfaceId] */\n  not(0xffffffffffffffffffffffffffffffffffffffffffffffffffffffff)\n  and\n  not(0xffffffffffffffffffffffffffffffffffffffffffffffffffffffff)\n  and\n  dup2\n  mstore\n  0x20\n  add\n  swap1\n  dup2\n  mstore\n  0x20\n  add\n  0x00\n  keccak256\n  0x00\n    /* \"contracts/StudyDemo/ERC165.sol\":807:847  _supportedInterfaces[interfaceId] = true */\n  0x0100\n  exp\n  dup2\n  sload\n  dup2\n  0xff\n  mul\n  not\n  and\n  swap1\n  dup4\n  iszero\n  iszero\n  mul\n  or\n  swap1\n  sstore\n  pop\n    /* \"contracts/StudyDemo/ERC165.sol\":665:854  function _registerInterface(bytes4 interfaceId) internal {... */\n  pop\n  jump\t// out\n    /* \"#utility.yul\":7:176   */\ntag_12:\n    /* \"#utility.yul\":91:102   */\n  0x00\n    /* \"#utility.yul\":125:131   */\n  dup3\n    /* \"#utility.yul\":120:123   */\n  dup3\n    /* \"#utility.yul\":113:132   */\n  mstore\n    /* \"#utility.yul\":165:169   */\n  0x20\n    /* \"#utility.yul\":160:163   */\n  dup3\n    /* \"#utility.yul\":156:170   */\n  add\n    /* \"#utility.yul\":141:170   */\n  swap1\n  pop\n    /* \"#utility.yul\":7:176   */\n  swap3\n  swap2\n  pop\n  pop\n  jump\t// out\n    /* \"#utility.yul\":182:359   */\ntag_13:\n    /* \"#utility.yul\":322:351   */\n  0x4552433136353a20696e76616c696420696e7465726661636569640000000000\n    /* \"#utility.yul\":318:319   */\n  0x00\n    /* \"#utility.yul\":310:316   */\n  dup3\n    /* \"#utility.yul\":306:320   */\n  add\n    /* \"#utility.yul\":299:352   */\n  mstore\n    /* \"#utility.yul\":182:359   */\n  pop\n  jump\t// out\n    /* \"#utility.yul\":365:731   */\ntag_14:\n    /* \"#utility.yul\":507:510   */\n  0x00\n    /* \"#utility.yul\":528:595   */\n  tag_19\n    /* \"#utility.yul\":592:594   */\n  0x1b\n    /* \"#utility.yul\":587:590   */\n  dup4\n    /* \"#utility.yul\":528:595   */\n  tag_12\n  jump\t// in\ntag_19:\n    /* \"#utility.yul\":521:595   */\n  swap2\n  pop\n    /* \"#utility.yul\":604:697   */\n  tag_20\n    /* \"#utility.yul\":693:696   */\n  dup3\n    /* \"#utility.yul\":604:697   */\n  tag_13\n  jump\t// in\ntag_20:\n    /* \"#utility.yul\":722:724   */\n  0x20\n    /* \"#utility.yul\":717:720   */\n  dup3\n    /* \"#utility.yul\":713:725   */\n  add\n    /* \"#utility.yul\":706:725   */\n  swap1\n  pop\n    /* \"#utility.yul\":365:731   */\n  swap2\n  swap1\n  pop\n  jump\t// out\n    /* \"#utility.yul\":737:1156   */\ntag_11:\n    /* \"#utility.yul\":903:907   */\n  0x00\n    /* \"#utility.yul\":941:943   */\n  0x20\n    /* \"#utility.yul\":930:939   */\n  dup3\n    /* \"#utility.yul\":926:944   */\n  add\n    /* \"#utility.yul\":918:944   */\n  swap1\n  pop\n    /* \"#utility.yul\":990:999   */\n  dup2\n    /* \"#utility.yul\":984:988   */\n  dup2\n    /* \"#utility.yul\":980:1000   */\n  sub\n    /* \"#utility.yul\":976:977   */\n  0x00\n    /* \"#utility.yul\":965:974   */\n  dup4\n    /* \"#utility.yul\":961:978   */\n  add\n    /* \"#utility.yul\":954:1001   */\n  mstore\n    /* \"#utility.yul\":1018:1149   */\n  tag_22\n    /* \"#utility.yul\":1144:1148   */\n  dup2\n    /* \"#utility.yul\":1018:1149   */\n  tag_14\n  jump\t// in\ntag_22:\n    /* \"#utility.yul\":1010:1149   */\n  swap1\n  pop\n    /* \"#utility.yul\":737:1156   */\n  swap2\n  swap1\n  pop\n  jump\t// out\n    /* \"contracts/StudyDemo/ERC165.sol\":125:904  contract ERC165Demo is IERC165 {... */\ntag_7:\n  dataSize(sub_0)\n  dup1\n  dataOffset(sub_0)\n  0x00\n  codecopy\n  0x00\n  return\nstop\n\nsub_0: assembly {\n        /* \"contracts/StudyDemo/ERC165.sol\":125:904  contract ERC165Demo is IERC165 {... */\n      mstore(0x40, 0x80)\n      callvalue\n      dup1\n      iszero\n      tag_1\n      jumpi\n      0x00\n      dup1\n      revert\n    tag_1:\n      pop\n      jumpi(tag_2, lt(calldatasize, 0x04))\n      shr(0xe0, calldataload(0x00))\n      dup1\n      0x01ffc9a7\n      eq\n      tag_3\n      jumpi\n      dup1\n      0xf8a8fd6d\n      eq\n      tag_4\n      jumpi\n    tag_2:\n      0x00\n      dup1\n      revert\n        /* \"contracts/StudyDemo/ERC165.sol\":527:659  function supportsInterface(bytes4 interfaceId) external view returns(bool) {... */\n    tag_3:\n      tag_5\n      0x04\n      dup1\n      calldatasize\n      sub\n      dup2\n      add\n      swap1\n      tag_6\n      swap2\n      swap1\n      tag_7\n      jump\t// in\n    tag_6:\n      tag_8\n      jump\t// in\n    tag_5:\n      mload(0x40)\n      tag_9\n      swap2\n      swap1\n      tag_10\n      jump\t// in\n    tag_9:\n      mload(0x40)\n      dup1\n      swap2\n      sub\n      swap1\n      return\n        /* \"contracts/StudyDemo/ERC165.sol\":860:902  function test() external returns (bool) {} */\n    tag_4:\n      tag_11\n      tag_12\n      jump\t// in\n    tag_11:\n      mload(0x40)\n      tag_13\n      swap2\n      swap1\n      tag_10\n      jump\t// in\n    tag_13:\n      mload(0x40)\n      dup1\n      swap2\n      sub\n      swap1\n      return\n        /* \"contracts/StudyDemo/ERC165.sol\":527:659  function supportsInterface(bytes4 interfaceId) external view returns(bool) {... */\n    tag_8:\n        /* \"contracts/StudyDemo/ERC165.sol\":596:600  bool */\n      0x00\n        /* \"contracts/StudyDemo/ERC165.sol\":619:639  _supportedInterfaces */\n      dup1\n        /* \"contracts/StudyDemo/ERC165.sol\":619:652  _supportedInterfaces[interfaceId] */\n      0x00\n        /* \"contracts/StudyDemo/ERC165.sol\":640:651  interfaceId */\n      dup4\n        /* \"contracts/StudyDemo/ERC165.sol\":619:652  _supportedInterfaces[interfaceId] */\n      not(0xffffffffffffffffffffffffffffffffffffffffffffffffffffffff)\n      and\n      not(0xffffffffffffffffffffffffffffffffffffffffffffffffffffffff)\n      and\n      dup2\n      mstore\n      0x20\n      add\n      swap1\n      dup2\n      mstore\n      0x20\n      add\n      0x00\n      keccak256\n      0x00\n      swap1\n      sload\n      swap1\n      0x0100\n      exp\n      swap1\n      div\n      0xff\n      and\n        /* \"contracts/StudyDemo/ERC165.sol\":612:652  return _supportedInterfaces[interfaceId] */\n      swap1\n      pop\n        /* \"contracts/StudyDemo/ERC165.sol\":527:659  function supportsInterface(bytes4 interfaceId) external view returns(bool) {... */\n      swap2\n      swap1\n      pop\n      jump\t// out\n        /* \"contracts/StudyDemo/ERC165.sol\":860:902  function test() external returns (bool) {} */\n    tag_12:\n        /* \"contracts/StudyDemo/ERC165.sol\":894:898  bool */\n      0x00\n        /* \"contracts/StudyDemo/ERC165.sol\":860:902  function test() external returns (bool) {} */\n      swap1\n      jump\t// out\n        /* \"#utility.yul\":88:205   */\n    tag_17:\n        /* \"#utility.yul\":197:198   */\n      0x00\n        /* \"#utility.yul\":194:195   */\n      dup1\n        /* \"#utility.yul\":187:199   */\n      revert\n        /* \"#utility.yul\":334:483   */\n    tag_19:\n        /* \"#utility.yul\":370:377   */\n      0x00\n        /* \"#utility.yul\":410:476   */\n      0xffffffff00000000000000000000000000000000000000000000000000000000\n        /* \"#utility.yul\":403:408   */\n      dup3\n        /* \"#utility.yul\":399:477   */\n      and\n        /* \"#utility.yul\":388:477   */\n      swap1\n      pop\n        /* \"#utility.yul\":334:483   */\n      swap2\n      swap1\n      pop\n      jump\t// out\n        /* \"#utility.yul\":489:609   */\n    tag_20:\n        /* \"#utility.yul\":561:584   */\n      tag_30\n        /* \"#utility.yul\":578:583   */\n      dup2\n        /* \"#utility.yul\":561:584   */\n      tag_19\n      jump\t// in\n    tag_30:\n        /* \"#utility.yul\":554:559   */\n      dup2\n        /* \"#utility.yul\":551:585   */\n      eq\n        /* \"#utility.yul\":541:603   */\n      tag_31\n      jumpi\n        /* \"#utility.yul\":599:600   */\n      0x00\n        /* \"#utility.yul\":596:597   */\n      dup1\n        /* \"#utility.yul\":589:601   */\n      revert\n        /* \"#utility.yul\":541:603   */\n    tag_31:\n        /* \"#utility.yul\":489:609   */\n      pop\n      jump\t// out\n        /* \"#utility.yul\":615:752   */\n    tag_21:\n        /* \"#utility.yul\":660:665   */\n      0x00\n        /* \"#utility.yul\":698:704   */\n      dup2\n        /* \"#utility.yul\":685:705   */\n      calldataload\n        /* \"#utility.yul\":676:705   */\n      swap1\n      pop\n        /* \"#utility.yul\":714:746   */\n      tag_33\n        /* \"#utility.yul\":740:745   */\n      dup2\n        /* \"#utility.yul\":714:746   */\n      tag_20\n      jump\t// in\n    tag_33:\n        /* \"#utility.yul\":615:752   */\n      swap3\n      swap2\n      pop\n      pop\n      jump\t// out\n        /* \"#utility.yul\":758:1085   */\n    tag_7:\n        /* \"#utility.yul\":816:822   */\n      0x00\n        /* \"#utility.yul\":865:867   */\n      0x20\n        /* \"#utility.yul\":853:862   */\n      dup3\n        /* \"#utility.yul\":844:851   */\n      dup5\n        /* \"#utility.yul\":840:863   */\n      sub\n        /* \"#utility.yul\":836:868   */\n      slt\n        /* \"#utility.yul\":833:952   */\n      iszero\n      tag_35\n      jumpi\n        /* \"#utility.yul\":871:950   */\n      tag_36\n      tag_17\n      jump\t// in\n    tag_36:\n        /* \"#utility.yul\":833:952   */\n    tag_35:\n        /* \"#utility.yul\":991:992   */\n      0x00\n        /* \"#utility.yul\":1016:1068   */\n      tag_37\n        /* \"#utility.yul\":1060:1067   */\n      dup5\n        /* \"#utility.yul\":1051:1057   */\n      dup3\n        /* \"#utility.yul\":1040:1049   */\n      dup6\n        /* \"#utility.yul\":1036:1058   */\n      add\n        /* \"#utility.yul\":1016:1068   */\n      tag_21\n      jump\t// in\n    tag_37:\n        /* \"#utility.yul\":1006:1068   */\n      swap2\n      pop\n        /* \"#utility.yul\":962:1078   */\n      pop\n        /* \"#utility.yul\":758:1085   */\n      swap3\n      swap2\n      pop\n      pop\n      jump\t// out\n        /* \"#utility.yul\":1091:1181   */\n    tag_22:\n        /* \"#utility.yul\":1125:1132   */\n      0x00\n        /* \"#utility.yul\":1168:1173   */\n      dup2\n        /* \"#utility.yul\":1161:1174   */\n      iszero\n        /* \"#utility.yul\":1154:1175   */\n      iszero\n        /* \"#utility.yul\":1143:1175   */\n      swap1\n      pop\n        /* \"#utility.yul\":1091:1181   */\n      swap2\n      swap1\n      pop\n      jump\t// out\n        /* \"#utility.yul\":1187:1296   */\n    tag_23:\n        /* \"#utility.yul\":1268:1289   */\n      tag_40\n        /* \"#utility.yul\":1283:1288   */\n      dup2\n        /* \"#utility.yul\":1268:1289   */\n      tag_22\n      jump\t// in\n    tag_40:\n        /* \"#utility.yul\":1263:1266   */\n      dup3\n        /* \"#utility.yul\":1256:1290   */\n      mstore\n        /* \"#utility.yul\":1187:1296   */\n      pop\n      pop\n      jump\t// out\n        /* \"#utility.yul\":1302:1512   */\n    tag_10:\n        /* \"#utility.yul\":1389:1393   */\n      0x00\n        /* \"#utility.yul\":1427:1429   */\n      0x20\n        /* \"#utility.yul\":1416:1425   */\n      dup3\n        /* \"#utility.yul\":1412:1430   */\n      add\n        /* \"#utility.yul\":1404:1430   */\n      swap1\n      pop\n        /* \"#utility.yul\":1440:1505   */\n      tag_42\n        /* \"#utility.yul\":1502:1503   */\n      0x00\n        /* \"#utility.yul\":1491:1500   */\n      dup4\n        /* \"#utility.yul\":1487:1504   */\n      add\n        /* \"#utility.yul\":1478:1484   */\n      dup5\n        /* \"#utility.yul\":1440:1505   */\n      tag_23\n      jump\t// in\n    tag_42:\n        /* \"#utility.yul\":1302:1512   */\n      swap3\n      swap2\n      pop\n      pop\n      jump\t// out\n\n    auxdata: 0xa2646970667358221220a765977e626e06163d2892734defad4c5a9d5d1824c3fd0b51d4d5328cb9fa3a64736f6c634300081a0033\n}\n",
				"bytecode": {
					"linkReferences": {},
					"object": "608060405234801561000f575f80fd5b506100266301ffc9a760e01b61004160201b60201c565b61003c63f8a8fd6d60e01b61004160201b60201c565b61018a565b63ffffffff60e01b817bffffffffffffffffffffffffffffffffffffffffffffffffffffffff1916036100a9576040517f08c379a00000000000000000000000000000000000000000000000000000000081526004016100a09061016c565b60405180910390fd5b60015f80837bffffffffffffffffffffffffffffffffffffffffffffffffffffffff19167bffffffffffffffffffffffffffffffffffffffffffffffffffffffff191681526020019081526020015f205f6101000a81548160ff02191690831515021790555050565b5f82825260208201905092915050565b7f4552433136353a20696e76616c696420696e74657266616365696400000000005f82015250565b5f610156601b83610112565b915061016182610122565b602082019050919050565b5f6020820190508181035f8301526101838161014a565b9050919050565b6101da806101975f395ff3fe608060405234801561000f575f80fd5b5060043610610034575f3560e01c806301ffc9a714610038578063f8a8fd6d14610068575b5f80fd5b610052600480360381019061004d9190610146565b610086565b60405161005f919061018b565b60405180910390f35b6100706100e9565b60405161007d919061018b565b60405180910390f35b5f805f837bffffffffffffffffffffffffffffffffffffffffffffffffffffffff19167bffffffffffffffffffffffffffffffffffffffffffffffffffffffff191681526020019081526020015f205f9054906101000a900460ff169050919050565b5f90565b5f80fd5b5f7fffffffff0000000000000000000000000000000000000000000000000000000082169050919050565b610125816100f1565b811461012f575f80fd5b50565b5f813590506101408161011c565b92915050565b5f6020828403121561015b5761015a6100ed565b5b5f61016884828501610132565b91505092915050565b5f8115159050919050565b61018581610171565b82525050565b5f60208201905061019e5f83018461017c565b9291505056fea2646970667358221220a765977e626e06163d2892734defad4c5a9d5d1824c3fd0b51d4d5328cb9fa3a64736f6c634300081a0033",
					"opcodes": "PUSH1 0x80 PUSH1 0x40 MSTORE CALLVALUE DUP1 ISZERO PUSH2 0xF JUMPI PUSH0 DUP1 REVERT JUMPDEST POP PUSH2 0x26 PUSH4 0x1FFC9A7 PUSH1 0xE0 SHL PUSH2 0x41 PUSH1 0x20 SHL PUSH1 0x20 SHR JUMP JUMPDEST PUSH2 0x3C PUSH4 0xF8A8FD6D PUSH1 0xE0 SHL PUSH2 0x41 PUSH1 0x20 SHL PUSH1 0x20 SHR JUMP JUMPDEST PUSH2 0x18A JUMP JUMPDEST PUSH4 0xFFFFFFFF PUSH1 0xE0 SHL DUP2 PUSH28 0xFFFFFFFFFFFFFFFFFFFFFFFFFFFFFFFFFFFFFFFFFFFFFFFFFFFFFFFF NOT AND SUB PUSH2 0xA9 JUMPI PUSH1 0x40 MLOAD PUSH32 0x8C379A000000000000000000000000000000000000000000000000000000000 DUP2 MSTORE PUSH1 0x4 ADD PUSH2 0xA0 SWAP1 PUSH2 0x16C JUMP JUMPDEST PUSH1 0x40 MLOAD DUP1 SWAP2 SUB SWAP1 REVERT JUMPDEST PUSH1 0x1 PUSH0 DUP1 DUP4 PUSH28 0xFFFFFFFFFFFFFFFFFFFFFFFFFFFFFFFFFFFFFFFFFFFFFFFFFFFFFFFF NOT AND PUSH28 0xFFFFFFFFFFFFFFFFFFFFFFFFFFFFFFFFFFFFFFFFFFFFFFFFFFFFFFFF NOT AND DUP2 MSTORE PUSH1 0x20 ADD SWAP1 DUP2 MSTORE PUSH1 0x20 ADD PUSH0 KECCAK256 PUSH0 PUSH2 0x100 EXP DUP2 SLOAD DUP2 PUSH1 0xFF MUL NOT AND SWAP1 DUP4 ISZERO ISZERO MUL OR SWAP1 SSTORE POP POP JUMP JUMPDEST PUSH0 DUP3 DUP3 MSTORE PUSH1 0x20 DUP3 ADD SWAP1 POP SWAP3 SWAP2 POP POP JUMP JUMPDEST PUSH32 0x4552433136353A20696E76616C696420696E7465726661636569640000000000 PUSH0 DUP3 ADD MSTORE POP JUMP JUMPDEST PUSH0 PUSH2 0x156 PUSH1 0x1B DUP4 PUSH2 0x112 JUMP JUMPDEST SWAP2 POP PUSH2 0x161 DUP3 PUSH2 0x122 JUMP JUMPDEST PUSH1 0x20 DUP3 ADD SWAP1 POP SWAP2 SWAP1 POP JUMP JUMPDEST PUSH0 PUSH1 0x20 DUP3 ADD SWAP1 POP DUP2 DUP2 SUB PUSH0 DUP4 ADD MSTORE PUSH2 0x183 DUP2 PUSH2 0x14A JUMP JUMPDEST SWAP1 POP SWAP2 SWAP1 POP JUMP JUMPDEST PUSH2 0x1DA DUP1 PUSH2 0x197 PUSH0 CODECOPY PUSH0 RETURN INVALID PUSH1 0x80 PUSH1 0x40 MSTORE CALLVALUE DUP1 ISZERO PUSH2 0xF JUMPI PUSH0 DUP1 REVERT JUMPDEST POP PUSH1 0x4 CALLDATASIZE LT PUSH2 0x34 JUMPI PUSH0 CALLDATALOAD PUSH1 0xE0 SHR DUP1 PUSH4 0x1FFC9A7 EQ PUSH2 0x38 JUMPI DUP1 PUSH4 0xF8A8FD6D EQ PUSH2 0x68 JUMPI JUMPDEST PUSH0 DUP1 REVERT JUMPDEST PUSH2 0x52 PUSH1 0x4 DUP1 CALLDATASIZE SUB DUP2 ADD SWAP1 PUSH2 0x4D SWAP2 SWAP1 PUSH2 0x146 JUMP JUMPDEST PUSH2 0x86 JUMP JUMPDEST PUSH1 0x40 MLOAD PUSH2 0x5F SWAP2 SWAP1 PUSH2 0x18B JUMP JUMPDEST PUSH1 0x40 MLOAD DUP1 SWAP2 SUB SWAP1 RETURN JUMPDEST PUSH2 0x70 PUSH2 0xE9 JUMP JUMPDEST PUSH1 0x40 MLOAD PUSH2 0x7D SWAP2 SWAP1 PUSH2 0x18B JUMP JUMPDEST PUSH1 0x40 MLOAD DUP1 SWAP2 SUB SWAP1 RETURN JUMPDEST PUSH0 DUP1 PUSH0 DUP4 PUSH28 0xFFFFFFFFFFFFFFFFFFFFFFFFFFFFFFFFFFFFFFFFFFFFFFFFFFFFFFFF NOT AND PUSH28 0xFFFFFFFFFFFFFFFFFFFFFFFFFFFFFFFFFFFFFFFFFFFFFFFFFFFFFFFF NOT AND DUP2 MSTORE PUSH1 0x20 ADD SWAP1 DUP2 MSTORE PUSH1 0x20 ADD PUSH0 KECCAK256 PUSH0 SWAP1 SLOAD SWAP1 PUSH2 0x100 EXP SWAP1 DIV PUSH1 0xFF AND SWAP1 POP SWAP2 SWAP1 POP JUMP JUMPDEST PUSH0 SWAP1 JUMP JUMPDEST PUSH0 DUP1 REVERT JUMPDEST PUSH0 PUSH32 0xFFFFFFFF00000000000000000000000000000000000000000000000000000000 DUP3 AND SWAP1 POP SWAP2 SWAP1 POP JUMP JUMPDEST PUSH2 0x125 DUP2 PUSH2 0xF1 JUMP JUMPDEST DUP2 EQ PUSH2 0x12F JUMPI PUSH0 DUP1 REVERT JUMPDEST POP JUMP JUMPDEST PUSH0 DUP2 CALLDATALOAD SWAP1 POP PUSH2 0x140 DUP2 PUSH2 0x11C JUMP JUMPDEST SWAP3 SWAP2 POP POP JUMP JUMPDEST PUSH0 PUSH1 0x20 DUP3 DUP5 SUB SLT ISZERO PUSH2 0x15B JUMPI PUSH2 0x15A PUSH2 0xED JUMP JUMPDEST JUMPDEST PUSH0 PUSH2 0x168 DUP5 DUP3 DUP6 ADD PUSH2 0x132 JUMP JUMPDEST SWAP2 POP POP SWAP3 SWAP2 POP POP JUMP JUMPDEST PUSH0 DUP2 ISZERO ISZERO SWAP1 POP SWAP2 SWAP1 POP JUMP JUMPDEST PUSH2 0x185 DUP2 PUSH2 0x171 JUMP JUMPDEST DUP3 MSTORE POP POP JUMP JUMPDEST PUSH0 PUSH1 0x20 DUP3 ADD SWAP1 POP PUSH2 0x19E PUSH0 DUP4 ADD DUP5 PUSH2 0x17C JUMP JUMPDEST SWAP3 SWAP2 POP POP JUMP INVALID LOG2 PUSH5 0x6970667358 0x22 SLT KECCAK256 0xA7 PUSH6 0x977E626E0616 RETURNDATASIZE 0x28 SWAP3 PUSH20 0x4DEFAD4C5A9D5D1824C3FD0B51D4D5328CB9FA3A PUSH5 0x736F6C6343 STOP ADDMOD BYTE STOP CALLER "
				},
				"gasEstimates": {
					"creation": {
						"codeDepositCost": "94800",
						"executionCost": "infinite",
						"totalCost": "infinite"
					},
					"external": {
						"supportsInterface(bytes4)": "2812",
						"test()": "330"
					},
					"internal": {
						"_registerInterface(bytes4)": "infinite"
					}
				},
				"methodIdentifiers": {
					"supportsInterface(bytes4)": "01ffc9a7",
					"test()": "f8a8fd6d"
				}
			},
			"storageLayout": {
				"storage": [
					{
						"astId": 23,
						"contract": "contracts/StudyDemo/ERC165.sol:ERC165Demo",
						"label": "_supportedInterfaces",
						"offset": 0,
						"slot": "0",
						"type": "t_mapping(t_bytes4,t_bool)"
					}
				],
				"types": {
					"t_bool": {
						"encoding": "inplace",
						"label": "bool",
						"numberOfBytes": "1"
					},
					"t_bytes4": {
						"encoding": "inplace",
						"label": "bytes4",
						"numberOfBytes": "4"
					},
					"t_mapping(t_bytes4,t_bool)": {
						"encoding": "mapping",
						"key": "t_bytes4",
						"label": "mapping(bytes4 => bool)",
						"numberOfBytes": "32",
						"value": "t_bool"
					}
				}
			},
			"userdoc": {
				"kind": "user",
				"methods": {},
				"version": 1
			}
		}
	}
}