{
	"data": {
		"bytecode": {
			"linkReferences": {},
			"object": "6080604052348015600e575f80fd5b5060f28061001b5f395ff3fe6080604052348015600e575f80fd5b5060043610603a575f3560e01c80636ecc5d6214603e5780639d822510146046578063c20906ac146060575b5f80fd5b6044607a565b005b604c6082565b6040516057919060a5565b60405180910390f35b60666088565b6040516071919060a5565b60405180910390f35b6080608d565b565b60015481565b5f5481565b565b5f819050919050565b609f81608f565b82525050565b5f60208201905060b65f8301846098565b9291505056fea26469706673582212206d04215518e7ebf79c520da86d239591d7175f686d740b92f8cffe42eac94b6864736f6c634300081a0033",
			"opcodes": "PUSH1 0x80 PUSH1 0x40 MSTORE CALLVALUE DUP1 ISZERO PUSH1 0xE JUMPI PUSH0 DUP1 REVERT JUMPDEST POP PUSH1 0xF2 DUP1 PUSH2 0x1B PUSH0 CODECOPY PUSH0 RETURN INVALID PUSH1 0x80 PUSH1 0x40 MSTORE CALLVALUE DUP1 ISZERO PUSH1 0xE JUMPI PUSH0 DUP1 REVERT JUMPDEST POP PUSH1 0x4 CALLDATASIZE LT PUSH1 0x3A JUMPI PUSH0 CALLDATALOAD PUSH1 0xE0 SHR DUP1 PUSH4 0x6ECC5D62 EQ PUSH1 0x3E JUMPI DUP1 PUSH4 0x9D822510 EQ PUSH1 0x46 JUMPI DUP1 PUSH4 0xC20906AC EQ PUSH1 0x60 JUMPI JUMPDEST PUSH0 DUP1 REVERT JUMPDEST PUSH1 0x44 PUSH1 0x7A JUMP JUMPDEST STOP JUMPDEST PUSH1 0x4C PUSH1 0x82 JUMP JUMPDEST PUSH1 0x40 MLOAD PUSH1 0x57 SWAP2 SWAP1 PUSH1 0xA5 JUMP JUMPDEST PUSH1 0x40 MLOAD DUP1 SWAP2 SUB SWAP1 RETURN JUMPDEST PUSH1 0x66 PUSH1 0x88 JUMP JUMPDEST PUSH1 0x40 MLOAD PUSH1 0x71 SWAP2 SWAP1 PUSH1 0xA5 JUMP JUMPDEST PUSH1 0x40 MLOAD DUP1 SWAP2 SUB SWAP1 RETURN JUMPDEST PUSH1 0x80 PUSH1 0x8D JUMP JUMPDEST JUMP JUMPDEST PUSH1 0x1 SLOAD DUP2 JUMP JUMPDEST PUSH0 SLOAD DUP2 JUMP JUMPDEST JUMP JUMPDEST PUSH0 DUP2 SWAP1 POP SWAP2 SWAP1 POP JUMP JUMPDEST PUSH1 0x9F DUP2 PUSH1 0x8F JUMP JUMPDEST DUP3 MSTORE POP POP JUMP JUMPDEST PUSH0 PUSH1 0x20 DUP3 ADD SWAP1 POP PUSH1 0xB6 PUSH0 DUP4 ADD DUP5 PUSH1 0x98 JUMP JUMPDEST SWAP3 SWAP2 POP POP JUMP INVALID LOG2 PUSH5 0x6970667358 0x22 SLT KECCAK256 PUSH14 0x4215518E7EBF79C520DA86D2395 SWAP2 0xD7 OR PUSH0 PUSH9 0x6D740B92F8CFFE42EA 0xC9 0x4B PUSH9 0x64736F6C634300081A STOP CALLER "
		},
		"gasEstimates": {
			"creation": {
				"codeDepositCost": "48400",
				"executionCost": "97",
				"totalCost": "48497"
			},
			"external": {
				"batteryLevel()": "2425",
				"driver()": "145",
				"speed()": "2446"
			}
		},
		"methodIdentifiers": {
			"batteryLevel()": "9d822510",
			"driver()": "6ecc5d62",
			"speed()": "c20906ac"
		}
	},
	"abi": [
		{
			"inputs": [],
			"name": "batteryLevel",
			"outputs": [
				{
					"internalType": "uint256",
					"name": "",
					"type": "uint256"
				}
			],
			"stateMutability": "view",
			"type": "function"
		},
		{
			"inputs": [],
			"name": "driver",
			"outputs": [],
			"stateMutability": "nonpayable",
			"type": "function"
		},
		{
			"inputs": [],
			"name": "speed",
			"outputs": [
				{
					"internalType": "uint256",
					"name": "",
					"type": "uint256"
				}
			],
			"stateMutability": "view",
			"type": "function"
		}
	]
}