{
	"data": {
		"bytecode": {
			"linkReferences": {
				"contracts/StudyDemo/FunctionDemo.sol": {
					"SafeMath": [
						{
							"length": 20,
							"start": 903
						}
					]
				}
			},
			"object": "6080604052348015600e575f80fd5b506109228061001c5f395ff3fe608060405234801561000f575f80fd5b5060043610610091575f3560e01c80637b292909116100645780637b2929091461011d578063a25f4d311461014d578063a69d27661461017d578063d3dc22e41461019b578063eee97206146101b957610091565b806320852f891461009557806328acc3ee146100b35780633b377b3c146100cf57806353308370146100ed575b5f80fd5b61009d6101e9565b6040516100aa91906105b1565b60405180910390f35b6100cd60048036038101906100c891906105f8565b6101f7565b005b6100d7610216565b6040516100e491906105b1565b60405180910390f35b61010760048036038101906101029190610656565b610226565b6040516101149190610690565b60405180910390f35b61013760048036038101906101329190610656565b610368565b6040516101449190610690565b60405180910390f35b610167600480360381019061016291906106a9565b6103f6565b6040516101749190610690565b60405180910390f35b61018561052d565b60405161019291906105b1565b60405180910390f35b6101a361053b565b6040516101b091906105b1565b60405180910390f35b6101d360048036038101906101ce9190610656565b610562565b6040516101e09190610690565b60405180910390f35b5f63eee9720660e01b905090565b805f806101000a81548163ffffffff021916908360e01c021790555050565b5f8054906101000a900460e01b81565b5f805f3073ffffffffffffffffffffffffffffffffffffffff165f8054906101000a900460e01b8560405160240161025e9190610690565b604051602081830303815290604052907bffffffffffffffffffffffffffffffffffffffffffffffffffffffff19166020820180517bffffffffffffffffffffffffffffffffffffffffffffffffffffffff83818316178352505050506040516102c89190610739565b5f604051808303815f865af19150503d805f8114610301576040519150601f19603f3d011682016040523d82523d5f602084013e610306565b606091505b50915091508161034b576040517f08c379a0000000000000000000000000000000000000000000000000000000008152600401610342906107a9565b60405180910390fd5b8080602001905181019061035f91906107db565b92505050919050565b5f73__$cceb8e573c1eb136120084cc9f2002b2ea$__63771602f78360056040518363ffffffff1660e01b81526004016103a3929190610857565b602060405180830381865af41580156103be573d5f803e3d5ffd5b505050506040513d601f19601f820116820180604052508101906103e291906107db565b5081826103ef91906108ab565b9050919050565b5f805f3073ffffffffffffffffffffffffffffffffffffffff1685856040516024016104229190610690565b604051602081830303815290604052907bffffffffffffffffffffffffffffffffffffffffffffffffffffffff19166020820180517bffffffffffffffffffffffffffffffffffffffffffffffffffffffff838183161783525050505060405161048c9190610739565b5f604051808303815f865af19150503d805f81146104c5576040519150601f19603f3d011682016040523d82523d5f602084013e6104ca565b606091505b50915091508161050f576040517f08c379a0000000000000000000000000000000000000000000000000000000008152600401610506906107a9565b60405180910390fd5b8080602001905181019061052391906107db565b9250505092915050565b5f637b29290960e01b905090565b5f7feee972066698d890c32fec0edb38a360c32b71d0a29ffc75b6ab6d2774ec9901905090565b5f81600261057091906108ab565b9050919050565b5f7fffffffff0000000000000000000000000000000000000000000000000000000082169050919050565b6105ab81610577565b82525050565b5f6020820190506105c45f8301846105a2565b92915050565b5f80fd5b6105d781610577565b81146105e1575f80fd5b50565b5f813590506105f2816105ce565b92915050565b5f6020828403121561060d5761060c6105ca565b5b5f61061a848285016105e4565b91505092915050565b5f819050919050565b61063581610623565b811461063f575f80fd5b50565b5f813590506106508161062c565b92915050565b5f6020828403121561066b5761066a6105ca565b5b5f61067884828501610642565b91505092915050565b61068a81610623565b82525050565b5f6020820190506106a35f830184610681565b92915050565b5f80604083850312156106bf576106be6105ca565b5b5f6106cc858286016105e4565b92505060206106dd85828601610642565b9150509250929050565b5f81519050919050565b5f81905092915050565b8281835e5f83830152505050565b5f610713826106e7565b61071d81856106f1565b935061072d8185602086016106fb565b80840191505092915050565b5f6107448284610709565b915081905092915050565b5f82825260208201905092915050565b7f6e6f7420737563636573730000000000000000000000000000000000000000005f82015250565b5f610793600b8361074f565b915061079e8261075f565b602082019050919050565b5f6020820190508181035f8301526107c081610787565b9050919050565b5f815190506107d58161062c565b92915050565b5f602082840312156107f0576107ef6105ca565b5b5f6107fd848285016107c7565b91505092915050565b61080f81610623565b82525050565b5f819050919050565b5f819050919050565b5f61084161083c61083784610815565b61081e565b610623565b9050919050565b61085181610827565b82525050565b5f60408201905061086a5f830185610806565b6108776020830184610848565b9392505050565b7f4e487b71000000000000000000000000000000000000000000000000000000005f52601160045260245ffd5b5f6108b582610623565b91506108c083610623565b92508282026108ce81610623565b915082820484148315176108e5576108e461087e565b5b509291505056fea2646970667358221220f3bb3540d631f08c236fa2187e67da3b6c662c2c07481798497e4c56d3e506a164736f6c634300081a0033",
			"opcodes": "PUSH1 0x80 PUSH1 0x40 MSTORE CALLVALUE DUP1 ISZERO PUSH1 0xE JUMPI PUSH0 DUP1 REVERT JUMPDEST POP PUSH2 0x922 DUP1 PUSH2 0x1C PUSH0 CODECOPY PUSH0 RETURN INVALID PUSH1 0x80 PUSH1 0x40 MSTORE CALLVALUE DUP1 ISZERO PUSH2 0xF JUMPI PUSH0 DUP1 REVERT JUMPDEST POP PUSH1 0x4 CALLDATASIZE LT PUSH2 0x91 JUMPI PUSH0 CALLDATALOAD PUSH1 0xE0 SHR DUP1 PUSH4 0x7B292909 GT PUSH2 0x64 JUMPI DUP1 PUSH4 0x7B292909 EQ PUSH2 0x11D JUMPI DUP1 PUSH4 0xA25F4D31 EQ PUSH2 0x14D JUMPI DUP1 PUSH4 0xA69D2766 EQ PUSH2 0x17D JUMPI DUP1 PUSH4 0xD3DC22E4 EQ PUSH2 0x19B JUMPI DUP1 PUSH4 0xEEE97206 EQ PUSH2 0x1B9 JUMPI PUSH2 0x91 JUMP JUMPDEST DUP1 PUSH4 0x20852F89 EQ PUSH2 0x95 JUMPI DUP1 PUSH4 0x28ACC3EE EQ PUSH2 0xB3 JUMPI DUP1 PUSH4 0x3B377B3C EQ PUSH2 0xCF JUMPI DUP1 PUSH4 0x53308370 EQ PUSH2 0xED JUMPI JUMPDEST PUSH0 DUP1 REVERT JUMPDEST PUSH2 0x9D PUSH2 0x1E9 JUMP JUMPDEST PUSH1 0x40 MLOAD PUSH2 0xAA SWAP2 SWAP1 PUSH2 0x5B1 JUMP JUMPDEST PUSH1 0x40 MLOAD DUP1 SWAP2 SUB SWAP1 RETURN JUMPDEST PUSH2 0xCD PUSH1 0x4 DUP1 CALLDATASIZE SUB DUP2 ADD SWAP1 PUSH2 0xC8 SWAP2 SWAP1 PUSH2 0x5F8 JUMP JUMPDEST PUSH2 0x1F7 JUMP JUMPDEST STOP JUMPDEST PUSH2 0xD7 PUSH2 0x216 JUMP JUMPDEST PUSH1 0x40 MLOAD PUSH2 0xE4 SWAP2 SWAP1 PUSH2 0x5B1 JUMP JUMPDEST PUSH1 0x40 MLOAD DUP1 SWAP2 SUB SWAP1 RETURN JUMPDEST PUSH2 0x107 PUSH1 0x4 DUP1 CALLDATASIZE SUB DUP2 ADD SWAP1 PUSH2 0x102 SWAP2 SWAP1 PUSH2 0x656 JUMP JUMPDEST PUSH2 0x226 JUMP JUMPDEST PUSH1 0x40 MLOAD PUSH2 0x114 SWAP2 SWAP1 PUSH2 0x690 JUMP JUMPDEST PUSH1 0x40 MLOAD DUP1 SWAP2 SUB SWAP1 RETURN JUMPDEST PUSH2 0x137 PUSH1 0x4 DUP1 CALLDATASIZE SUB DUP2 ADD SWAP1 PUSH2 0x132 SWAP2 SWAP1 PUSH2 0x656 JUMP JUMPDEST PUSH2 0x368 JUMP JUMPDEST PUSH1 0x40 MLOAD PUSH2 0x144 SWAP2 SWAP1 PUSH2 0x690 JUMP JUMPDEST PUSH1 0x40 MLOAD DUP1 SWAP2 SUB SWAP1 RETURN JUMPDEST PUSH2 0x167 PUSH1 0x4 DUP1 CALLDATASIZE SUB DUP2 ADD SWAP1 PUSH2 0x162 SWAP2 SWAP1 PUSH2 0x6A9 JUMP JUMPDEST PUSH2 0x3F6 JUMP JUMPDEST PUSH1 0x40 MLOAD PUSH2 0x174 SWAP2 SWAP1 PUSH2 0x690 JUMP JUMPDEST PUSH1 0x40 MLOAD DUP1 SWAP2 SUB SWAP1 RETURN JUMPDEST PUSH2 0x185 PUSH2 0x52D JUMP JUMPDEST PUSH1 0x40 MLOAD PUSH2 0x192 SWAP2 SWAP1 PUSH2 0x5B1 JUMP JUMPDEST PUSH1 0x40 MLOAD DUP1 SWAP2 SUB SWAP1 RETURN JUMPDEST PUSH2 0x1A3 PUSH2 0x53B JUMP JUMPDEST PUSH1 0x40 MLOAD PUSH2 0x1B0 SWAP2 SWAP1 PUSH2 0x5B1 JUMP JUMPDEST PUSH1 0x40 MLOAD DUP1 SWAP2 SUB SWAP1 RETURN JUMPDEST PUSH2 0x1D3 PUSH1 0x4 DUP1 CALLDATASIZE SUB DUP2 ADD SWAP1 PUSH2 0x1CE SWAP2 SWAP1 PUSH2 0x656 JUMP JUMPDEST PUSH2 0x562 JUMP JUMPDEST PUSH1 0x40 MLOAD PUSH2 0x1E0 SWAP2 SWAP1 PUSH2 0x690 JUMP JUMPDEST PUSH1 0x40 MLOAD DUP1 SWAP2 SUB SWAP1 RETURN JUMPDEST PUSH0 PUSH4 0xEEE97206 PUSH1 0xE0 SHL SWAP1 POP SWAP1 JUMP JUMPDEST DUP1 PUSH0 DUP1 PUSH2 0x100 EXP DUP2 SLOAD DUP2 PUSH4 0xFFFFFFFF MUL NOT AND SWAP1 DUP4 PUSH1 0xE0 SHR MUL OR SWAP1 SSTORE POP POP JUMP JUMPDEST PUSH0 DUP1 SLOAD SWAP1 PUSH2 0x100 EXP SWAP1 DIV PUSH1 0xE0 SHL DUP2 JUMP JUMPDEST PUSH0 DUP1 PUSH0 ADDRESS PUSH20 0xFFFFFFFFFFFFFFFFFFFFFFFFFFFFFFFFFFFFFFFF AND PUSH0 DUP1 SLOAD SWAP1 PUSH2 0x100 EXP SWAP1 DIV PUSH1 0xE0 SHL DUP6 PUSH1 0x40 MLOAD PUSH1 0x24 ADD PUSH2 0x25E SWAP2 SWAP1 PUSH2 0x690 JUMP JUMPDEST PUSH1 0x40 MLOAD PUSH1 0x20 DUP2 DUP4 SUB SUB DUP2 MSTORE SWAP1 PUSH1 0x40 MSTORE SWAP1 PUSH28 0xFFFFFFFFFFFFFFFFFFFFFFFFFFFFFFFFFFFFFFFFFFFFFFFFFFFFFFFF NOT AND PUSH1 0x20 DUP3 ADD DUP1 MLOAD PUSH28 0xFFFFFFFFFFFFFFFFFFFFFFFFFFFFFFFFFFFFFFFFFFFFFFFFFFFFFFFF DUP4 DUP2 DUP4 AND OR DUP4 MSTORE POP POP POP POP PUSH1 0x40 MLOAD PUSH2 0x2C8 SWAP2 SWAP1 PUSH2 0x739 JUMP JUMPDEST PUSH0 PUSH1 0x40 MLOAD DUP1 DUP4 SUB DUP2 PUSH0 DUP7 GAS CALL SWAP2 POP POP RETURNDATASIZE DUP1 PUSH0 DUP2 EQ PUSH2 0x301 JUMPI PUSH1 0x40 MLOAD SWAP2 POP PUSH1 0x1F NOT PUSH1 0x3F RETURNDATASIZE ADD AND DUP3 ADD PUSH1 0x40 MSTORE RETURNDATASIZE DUP3 MSTORE RETURNDATASIZE PUSH0 PUSH1 0x20 DUP5 ADD RETURNDATACOPY PUSH2 0x306 JUMP JUMPDEST PUSH1 0x60 SWAP2 POP JUMPDEST POP SWAP2 POP SWAP2 POP DUP2 PUSH2 0x34B JUMPI PUSH1 0x40 MLOAD PUSH32 0x8C379A000000000000000000000000000000000000000000000000000000000 DUP2 MSTORE PUSH1 0x4 ADD PUSH2 0x342 SWAP1 PUSH2 0x7A9 JUMP JUMPDEST PUSH1 0x40 MLOAD DUP1 SWAP2 SUB SWAP1 REVERT JUMPDEST DUP1 DUP1 PUSH1 0x20 ADD SWAP1 MLOAD DUP2 ADD SWAP1 PUSH2 0x35F SWAP2 SWAP1 PUSH2 0x7DB JUMP JUMPDEST SWAP3 POP POP POP SWAP2 SWAP1 POP JUMP JUMPDEST PUSH0 PUSH20 0x0 PUSH4 0x771602F7 DUP4 PUSH1 0x5 PUSH1 0x40 MLOAD DUP4 PUSH4 0xFFFFFFFF AND PUSH1 0xE0 SHL DUP2 MSTORE PUSH1 0x4 ADD PUSH2 0x3A3 SWAP3 SWAP2 SWAP1 PUSH2 0x857 JUMP JUMPDEST PUSH1 0x20 PUSH1 0x40 MLOAD DUP1 DUP4 SUB DUP2 DUP7 GAS DELEGATECALL ISZERO DUP1 ISZERO PUSH2 0x3BE JUMPI RETURNDATASIZE PUSH0 DUP1 RETURNDATACOPY RETURNDATASIZE PUSH0 REVERT JUMPDEST POP POP POP POP PUSH1 0x40 MLOAD RETURNDATASIZE PUSH1 0x1F NOT PUSH1 0x1F DUP3 ADD AND DUP3 ADD DUP1 PUSH1 0x40 MSTORE POP DUP2 ADD SWAP1 PUSH2 0x3E2 SWAP2 SWAP1 PUSH2 0x7DB JUMP JUMPDEST POP DUP2 DUP3 PUSH2 0x3EF SWAP2 SWAP1 PUSH2 0x8AB JUMP JUMPDEST SWAP1 POP SWAP2 SWAP1 POP JUMP JUMPDEST PUSH0 DUP1 PUSH0 ADDRESS PUSH20 0xFFFFFFFFFFFFFFFFFFFFFFFFFFFFFFFFFFFFFFFF AND DUP6 DUP6 PUSH1 0x40 MLOAD PUSH1 0x24 ADD PUSH2 0x422 SWAP2 SWAP1 PUSH2 0x690 JUMP JUMPDEST PUSH1 0x40 MLOAD PUSH1 0x20 DUP2 DUP4 SUB SUB DUP2 MSTORE SWAP1 PUSH1 0x40 MSTORE SWAP1 PUSH28 0xFFFFFFFFFFFFFFFFFFFFFFFFFFFFFFFFFFFFFFFFFFFFFFFFFFFFFFFF NOT AND PUSH1 0x20 DUP3 ADD DUP1 MLOAD PUSH28 0xFFFFFFFFFFFFFFFFFFFFFFFFFFFFFFFFFFFFFFFFFFFFFFFFFFFFFFFF DUP4 DUP2 DUP4 AND OR DUP4 MSTORE POP POP POP POP PUSH1 0x40 MLOAD PUSH2 0x48C SWAP2 SWAP1 PUSH2 0x739 JUMP JUMPDEST PUSH0 PUSH1 0x40 MLOAD DUP1 DUP4 SUB DUP2 PUSH0 DUP7 GAS CALL SWAP2 POP POP RETURNDATASIZE DUP1 PUSH0 DUP2 EQ PUSH2 0x4C5 JUMPI PUSH1 0x40 MLOAD SWAP2 POP PUSH1 0x1F NOT PUSH1 0x3F RETURNDATASIZE ADD AND DUP3 ADD PUSH1 0x40 MSTORE RETURNDATASIZE DUP3 MSTORE RETURNDATASIZE PUSH0 PUSH1 0x20 DUP5 ADD RETURNDATACOPY PUSH2 0x4CA JUMP JUMPDEST PUSH1 0x60 SWAP2 POP JUMPDEST POP SWAP2 POP SWAP2 POP DUP2 PUSH2 0x50F JUMPI PUSH1 0x40 MLOAD PUSH32 0x8C379A000000000000000000000000000000000000000000000000000000000 DUP2 MSTORE PUSH1 0x4 ADD PUSH2 0x506 SWAP1 PUSH2 0x7A9 JUMP JUMPDEST PUSH1 0x40 MLOAD DUP1 SWAP2 SUB SWAP1 REVERT JUMPDEST DUP1 DUP1 PUSH1 0x20 ADD SWAP1 MLOAD DUP2 ADD SWAP1 PUSH2 0x523 SWAP2 SWAP1 PUSH2 0x7DB JUMP JUMPDEST SWAP3 POP POP POP SWAP3 SWAP2 POP POP JUMP JUMPDEST PUSH0 PUSH4 0x7B292909 PUSH1 0xE0 SHL SWAP1 POP SWAP1 JUMP JUMPDEST PUSH0 PUSH32 0xEEE972066698D890C32FEC0EDB38A360C32B71D0A29FFC75B6AB6D2774EC9901 SWAP1 POP SWAP1 JUMP JUMPDEST PUSH0 DUP2 PUSH1 0x2 PUSH2 0x570 SWAP2 SWAP1 PUSH2 0x8AB JUMP JUMPDEST SWAP1 POP SWAP2 SWAP1 POP JUMP JUMPDEST PUSH0 PUSH32 0xFFFFFFFF00000000000000000000000000000000000000000000000000000000 DUP3 AND SWAP1 POP SWAP2 SWAP1 POP JUMP JUMPDEST PUSH2 0x5AB DUP2 PUSH2 0x577 JUMP JUMPDEST DUP3 MSTORE POP POP JUMP JUMPDEST PUSH0 PUSH1 0x20 DUP3 ADD SWAP1 POP PUSH2 0x5C4 PUSH0 DUP4 ADD DUP5 PUSH2 0x5A2 JUMP JUMPDEST SWAP3 SWAP2 POP POP JUMP JUMPDEST PUSH0 DUP1 REVERT JUMPDEST PUSH2 0x5D7 DUP2 PUSH2 0x577 JUMP JUMPDEST DUP2 EQ PUSH2 0x5E1 JUMPI PUSH0 DUP1 REVERT JUMPDEST POP JUMP JUMPDEST PUSH0 DUP2 CALLDATALOAD SWAP1 POP PUSH2 0x5F2 DUP2 PUSH2 0x5CE JUMP JUMPDEST SWAP3 SWAP2 POP POP JUMP JUMPDEST PUSH0 PUSH1 0x20 DUP3 DUP5 SUB SLT ISZERO PUSH2 0x60D JUMPI PUSH2 0x60C PUSH2 0x5CA JUMP JUMPDEST JUMPDEST PUSH0 PUSH2 0x61A DUP5 DUP3 DUP6 ADD PUSH2 0x5E4 JUMP JUMPDEST SWAP2 POP POP SWAP3 SWAP2 POP POP JUMP JUMPDEST PUSH0 DUP2 SWAP1 POP SWAP2 SWAP1 POP JUMP JUMPDEST PUSH2 0x635 DUP2 PUSH2 0x623 JUMP JUMPDEST DUP2 EQ PUSH2 0x63F JUMPI PUSH0 DUP1 REVERT JUMPDEST POP JUMP JUMPDEST PUSH0 DUP2 CALLDATALOAD SWAP1 POP PUSH2 0x650 DUP2 PUSH2 0x62C JUMP JUMPDEST SWAP3 SWAP2 POP POP JUMP JUMPDEST PUSH0 PUSH1 0x20 DUP3 DUP5 SUB SLT ISZERO PUSH2 0x66B JUMPI PUSH2 0x66A PUSH2 0x5CA JUMP JUMPDEST JUMPDEST PUSH0 PUSH2 0x678 DUP5 DUP3 DUP6 ADD PUSH2 0x642 JUMP JUMPDEST SWAP2 POP POP SWAP3 SWAP2 POP POP JUMP JUMPDEST PUSH2 0x68A DUP2 PUSH2 0x623 JUMP JUMPDEST DUP3 MSTORE POP POP JUMP JUMPDEST PUSH0 PUSH1 0x20 DUP3 ADD SWAP1 POP PUSH2 0x6A3 PUSH0 DUP4 ADD DUP5 PUSH2 0x681 JUMP JUMPDEST SWAP3 SWAP2 POP POP JUMP JUMPDEST PUSH0 DUP1 PUSH1 0x40 DUP4 DUP6 SUB SLT ISZERO PUSH2 0x6BF JUMPI PUSH2 0x6BE PUSH2 0x5CA JUMP JUMPDEST JUMPDEST PUSH0 PUSH2 0x6CC DUP6 DUP3 DUP7 ADD PUSH2 0x5E4 JUMP JUMPDEST SWAP3 POP POP PUSH1 0x20 PUSH2 0x6DD DUP6 DUP3 DUP7 ADD PUSH2 0x642 JUMP JUMPDEST SWAP2 POP POP SWAP3 POP SWAP3 SWAP1 POP JUMP JUMPDEST PUSH0 DUP2 MLOAD SWAP1 POP SWAP2 SWAP1 POP JUMP JUMPDEST PUSH0 DUP2 SWAP1 POP SWAP3 SWAP2 POP POP JUMP JUMPDEST DUP3 DUP2 DUP4 MCOPY PUSH0 DUP4 DUP4 ADD MSTORE POP POP POP JUMP JUMPDEST PUSH0 PUSH2 0x713 DUP3 PUSH2 0x6E7 JUMP JUMPDEST PUSH2 0x71D DUP2 DUP6 PUSH2 0x6F1 JUMP JUMPDEST SWAP4 POP PUSH2 0x72D DUP2 DUP6 PUSH1 0x20 DUP7 ADD PUSH2 0x6FB JUMP JUMPDEST DUP1 DUP5 ADD SWAP2 POP POP SWAP3 SWAP2 POP POP JUMP JUMPDEST PUSH0 PUSH2 0x744 DUP3 DUP5 PUSH2 0x709 JUMP JUMPDEST SWAP2 POP DUP2 SWAP1 POP SWAP3 SWAP2 POP POP JUMP JUMPDEST PUSH0 DUP3 DUP3 MSTORE PUSH1 0x20 DUP3 ADD SWAP1 POP SWAP3 SWAP2 POP POP JUMP JUMPDEST PUSH32 0x6E6F742073756363657373000000000000000000000000000000000000000000 PUSH0 DUP3 ADD MSTORE POP JUMP JUMPDEST PUSH0 PUSH2 0x793 PUSH1 0xB DUP4 PUSH2 0x74F JUMP JUMPDEST SWAP2 POP PUSH2 0x79E DUP3 PUSH2 0x75F JUMP JUMPDEST PUSH1 0x20 DUP3 ADD SWAP1 POP SWAP2 SWAP1 POP JUMP JUMPDEST PUSH0 PUSH1 0x20 DUP3 ADD SWAP1 POP DUP2 DUP2 SUB PUSH0 DUP4 ADD MSTORE PUSH2 0x7C0 DUP2 PUSH2 0x787 JUMP JUMPDEST SWAP1 POP SWAP2 SWAP1 POP JUMP JUMPDEST PUSH0 DUP2 MLOAD SWAP1 POP PUSH2 0x7D5 DUP2 PUSH2 0x62C JUMP JUMPDEST SWAP3 SWAP2 POP POP JUMP JUMPDEST PUSH0 PUSH1 0x20 DUP3 DUP5 SUB SLT ISZERO PUSH2 0x7F0 JUMPI PUSH2 0x7EF PUSH2 0x5CA JUMP JUMPDEST JUMPDEST PUSH0 PUSH2 0x7FD DUP5 DUP3 DUP6 ADD PUSH2 0x7C7 JUMP JUMPDEST SWAP2 POP POP SWAP3 SWAP2 POP POP JUMP JUMPDEST PUSH2 0x80F DUP2 PUSH2 0x623 JUMP JUMPDEST DUP3 MSTORE POP POP JUMP JUMPDEST PUSH0 DUP2 SWAP1 POP SWAP2 SWAP1 POP JUMP JUMPDEST PUSH0 DUP2 SWAP1 POP SWAP2 SWAP1 POP JUMP JUMPDEST PUSH0 PUSH2 0x841 PUSH2 0x83C PUSH2 0x837 DUP5 PUSH2 0x815 JUMP JUMPDEST PUSH2 0x81E JUMP JUMPDEST PUSH2 0x623 JUMP JUMPDEST SWAP1 POP SWAP2 SWAP1 POP JUMP JUMPDEST PUSH2 0x851 DUP2 PUSH2 0x827 JUMP JUMPDEST DUP3 MSTORE POP POP JUMP JUMPDEST PUSH0 PUSH1 0x40 DUP3 ADD SWAP1 POP PUSH2 0x86A PUSH0 DUP4 ADD DUP6 PUSH2 0x806 JUMP JUMPDEST PUSH2 0x877 PUSH1 0x20 DUP4 ADD DUP5 PUSH2 0x848 JUMP JUMPDEST SWAP4 SWAP3 POP POP POP JUMP JUMPDEST PUSH32 0x4E487B7100000000000000000000000000000000000000000000000000000000 PUSH0 MSTORE PUSH1 0x11 PUSH1 0x4 MSTORE PUSH1 0x24 PUSH0 REVERT JUMPDEST PUSH0 PUSH2 0x8B5 DUP3 PUSH2 0x623 JUMP JUMPDEST SWAP2 POP PUSH2 0x8C0 DUP4 PUSH2 0x623 JUMP JUMPDEST SWAP3 POP DUP3 DUP3 MUL PUSH2 0x8CE DUP2 PUSH2 0x623 JUMP JUMPDEST SWAP2 POP DUP3 DUP3 DIV DUP5 EQ DUP4 ISZERO OR PUSH2 0x8E5 JUMPI PUSH2 0x8E4 PUSH2 0x87E JUMP JUMPDEST JUMPDEST POP SWAP3 SWAP2 POP POP JUMP INVALID LOG2 PUSH5 0x6970667358 0x22 SLT KECCAK256 RETURN 0xBB CALLDATALOAD BLOCKHASH 0xD6 BALANCE CREATE DUP13 0x23 PUSH16 0xA2187E67DA3B6C662C2C07481798497E 0x4C JUMP 0xD3 0xE5 MOD LOG1 PUSH5 0x736F6C6343 STOP ADDMOD BYTE STOP CALLER "
		},
		"gasEstimates": {
			"creation": {
				"codeDepositCost": "467600",
				"executionCost": "503",
				"totalCost": "468103"
			},
			"external": {
				"double(uint256)": "infinite",
				"executeFunction(bytes4,uint256)": "infinite",
				"executeStoredFunction(uint256)": "infinite",
				"getDoubleSelector()": "404",
				"getDoubleSelecttorV2()": "345",
				"getSquareSelector()": "388",
				"setFunction(bytes4)": "24696",
				"square(uint256)": "infinite",
				"storedSelector()": "2508"
			}
		},
		"methodIdentifiers": {
			"double(uint256)": "eee97206",
			"executeFunction(bytes4,uint256)": "a25f4d31",
			"executeStoredFunction(uint256)": "53308370",
			"getDoubleSelector()": "d3dc22e4",
			"getDoubleSelecttorV2()": "20852f89",
			"getSquareSelector()": "a69d2766",
			"setFunction(bytes4)": "28acc3ee",
			"square(uint256)": "7b292909",
			"storedSelector()": "3b377b3c"
		}
	},
	"abi": [
		{
			"inputs": [
				{
					"internalType": "uint256",
					"name": "x",
					"type": "uint256"
				}
			],
			"name": "double",
			"outputs": [
				{
					"internalType": "uint256",
					"name": "",
					"type": "uint256"
				}
			],
			"stateMutability": "pure",
			"type": "function"
		},
		{
			"inputs": [
				{
					"internalType": "bytes4",
					"name": "selector",
					"type": "bytes4"
				},
				{
					"internalType": "uint256",
					"name": "x",
					"type": "uint256"
				}
			],
			"name": "executeFunction",
			"outputs": [
				{
					"internalType": "uint256",
					"name": "z",
					"type": "uint256"
				}
			],
			"stateMutability": "nonpayable",
			"type": "function"
		},
		{
			"inputs": [
				{
					"internalType": "uint256",
					"name": "x",
					"type": "uint256"
				}
			],
			"name": "executeStoredFunction",
			"outputs": [
				{
					"internalType": "uint256",
					"name": "z",
					"type": "uint256"
				}
			],
			"stateMutability": "nonpayable",
			"type": "function"
		},
		{
			"inputs": [],
			"name": "getDoubleSelector",
			"outputs": [
				{
					"internalType": "bytes4",
					"name": "",
					"type": "bytes4"
				}
			],
			"stateMutability": "pure",
			"type": "function"
		},
		{
			"inputs": [],
			"name": "getDoubleSelecttorV2",
			"outputs": [
				{
					"internalType": "bytes4",
					"name": "",
					"type": "bytes4"
				}
			],
			"stateMutability": "pure",
			"type": "function"
		},
		{
			"inputs": [],
			"name": "getSquareSelector",
			"outputs": [
				{
					"internalType": "bytes4",
					"name": "",
					"type": "bytes4"
				}
			],
			"stateMutability": "pure",
			"type": "function"
		},
		{
			"inputs": [
				{
					"internalType": "bytes4",
					"name": "selector",
					"type": "bytes4"
				}
			],
			"name": "setFunction",
			"outputs": [],
			"stateMutability": "nonpayable",
			"type": "function"
		},
		{
			"inputs": [
				{
					"internalType": "uint256",
					"name": "x",
					"type": "uint256"
				}
			],
			"name": "square",
			"outputs": [
				{
					"internalType": "uint256",
					"name": "",
					"type": "uint256"
				}
			],
			"stateMutability": "pure",
			"type": "function"
		},
		{
			"inputs": [],
			"name": "storedSelector",
			"outputs": [
				{
					"internalType": "bytes4",
					"name": "",
					"type": "bytes4"
				}
			],
			"stateMutability": "view",
			"type": "function"
		}
	]
}