{
	"contracts/EtherWallet1.sol": {
		"EtherWallet": {
			"abi": [
				{
					"inputs": [],
					"stateMutability": "nonpayable",
					"type": "constructor"
				},
				{
					"anonymous": false,
					"inputs": [
						{
							"indexed": false,
							"internalType": "string",
							"name": "funName",
							"type": "string"
						},
						{
							"indexed": false,
							"internalType": "address",
							"name": "from",
							"type": "address"
						},
						{
							"indexed": false,
							"internalType": "uint256",
							"name": "value",
							"type": "uint256"
						},
						{
							"indexed": false,
							"internalType": "bytes",
							"name": "data",
							"type": "bytes"
						}
					],
					"name": "Log",
					"type": "event"
				},
				{
					"inputs": [],
					"name": "getBalance",
					"outputs": [
						{
							"internalType": "uint256",
							"name": "",
							"type": "uint256"
						}
					],
					"stateMutability": "view",
					"type": "function"
				},
				{
					"inputs": [],
					"name": "owner",
					"outputs": [
						{
							"internalType": "address payable",
							"name": "",
							"type": "address"
						}
					],
					"stateMutability": "view",
					"type": "function"
				},
				{
					"inputs": [],
					"name": "withdraw1",
					"outputs": [],
					"stateMutability": "nonpayable",
					"type": "function"
				},
				{
					"inputs": [],
					"name": "withdraw2",
					"outputs": [],
					"stateMutability": "nonpayable",
					"type": "function"
				},
				{
					"inputs": [],
					"name": "withdraw3",
					"outputs": [],
					"stateMutability": "nonpayable",
					"type": "function"
				},
				{
					"stateMutability": "payable",
					"type": "receive"
				}
			],
			"devdoc": {
				"kind": "dev",
				"methods": {},
				"version": 1
			},
			"evm": {
				"assembly": "    /* \"contracts/EtherWallet1.sol\":26:978  contract EtherWallet {... */\n  mstore(0x40, 0xa0)\n    /* \"contracts/EtherWallet1.sol\":170:228  constructor() {... */\n  callvalue\n  dup1\n  iszero\n  tag_1\n  jumpi\n  0x00\n  dup1\n  revert\ntag_1:\n  pop\n    /* \"contracts/EtherWallet1.sol\":210:220  msg.sender */\n  caller\n    /* \"contracts/EtherWallet1.sol\":194:221  owner = payable(msg.sender) */\n  0xffffffffffffffffffffffffffffffffffffffff\n  and\n  0x80\n  dup2\n  0xffffffffffffffffffffffffffffffffffffffff\n  and\n  dup2\n  mstore\n  pop\n  pop\n    /* \"contracts/EtherWallet1.sol\":26:978  contract EtherWallet {... */\n  mload(0x80)\n  codecopy(0x00, dataOffset(sub_0), dataSize(sub_0))\n  0x00\n  assignImmutable(\"0x2a80e1ef1d7842f27f2e6be0972bb708b9a135c38860dbe73c27c3486c34f4de\")\n  return(0x00, dataSize(sub_0))\nstop\n\nsub_0: assembly {\n        /* \"contracts/EtherWallet1.sol\":26:978  contract EtherWallet {... */\n      mstore(0x40, 0x80)\n      jumpi(tag_1, lt(calldatasize, 0x04))\n      shr(0xe0, calldataload(0x00))\n      dup1\n      0x79efb0\n      eq\n      tag_3\n      jumpi\n      dup1\n      0x12065fe0\n      eq\n      tag_4\n      jumpi\n      dup1\n      0x4fa3eeff\n      eq\n      tag_5\n      jumpi\n      dup1\n      0x8da5cb5b\n      eq\n      tag_6\n      jumpi\n      dup1\n      0xea98847b\n      eq\n      tag_7\n      jumpi\n      jump(tag_2)\n    tag_1:\n      jumpi(tag_2, calldatasize)\n        /* \"contracts/EtherWallet1.sol\":277:319  Log(\"receviee\", msg.sender, msg.value, \"\") */\n      0xf7f75251dee7d7fc22deac3247729ebe7c86541f35930bf10c2a4207479a3b6c\n        /* \"contracts/EtherWallet1.sol\":293:303  msg.sender */\n      caller\n        /* \"contracts/EtherWallet1.sol\":305:314  msg.value */\n      callvalue\n        /* \"contracts/EtherWallet1.sol\":277:319  Log(\"receviee\", msg.sender, msg.value, \"\") */\n      mload(0x40)\n      tag_10\n      swap3\n      swap2\n      swap1\n      tag_11\n      jump\t// in\n    tag_10:\n      mload(0x40)\n      dup1\n      swap2\n      sub\n      swap1\n      log1\n        /* \"contracts/EtherWallet1.sol\":26:978  contract EtherWallet {... */\n      stop\n    tag_2:\n      0x00\n      dup1\n      revert\n        /* \"contracts/EtherWallet1.sol\":332:463  function withdraw1() external {... */\n    tag_3:\n      callvalue\n      dup1\n      iszero\n      tag_12\n      jumpi\n      0x00\n      dup1\n      revert\n    tag_12:\n      pop\n      tag_13\n      tag_14\n      jump\t// in\n    tag_13:\n      stop\n        /* \"contracts/EtherWallet1.sol\":876:974  function getBalance() external view returns (uint256){... */\n    tag_4:\n      callvalue\n      dup1\n      iszero\n      tag_15\n      jumpi\n      0x00\n      dup1\n      revert\n    tag_15:\n      pop\n      tag_16\n      tag_17\n      jump\t// in\n    tag_16:\n      mload(0x40)\n      tag_18\n      swap2\n      swap1\n      tag_19\n      jump\t// in\n    tag_18:\n      mload(0x40)\n      dup1\n      swap2\n      sub\n      swap1\n      return\n        /* \"contracts/EtherWallet1.sol\":661:870  function withdraw3() external {... */\n    tag_5:\n      callvalue\n      dup1\n      iszero\n      tag_20\n      jumpi\n      0x00\n      dup1\n      revert\n    tag_20:\n      pop\n      tag_21\n      tag_22\n      jump\t// in\n    tag_21:\n      stop\n        /* \"contracts/EtherWallet1.sol\":53:92  address  payable public immutable owner */\n    tag_6:\n      callvalue\n      dup1\n      iszero\n      tag_23\n      jumpi\n      0x00\n      dup1\n      revert\n    tag_23:\n      pop\n      tag_24\n      tag_25\n      jump\t// in\n    tag_24:\n      mload(0x40)\n      tag_26\n      swap2\n      swap1\n      tag_27\n      jump\t// in\n    tag_26:\n      mload(0x40)\n      dup1\n      swap2\n      sub\n      swap1\n      return\n        /* \"contracts/EtherWallet1.sol\":470:655  function withdraw2() external {... */\n    tag_7:\n      callvalue\n      dup1\n      iszero\n      tag_28\n      jumpi\n      0x00\n      dup1\n      revert\n    tag_28:\n      pop\n      tag_29\n      tag_30\n      jump\t// in\n    tag_29:\n      stop\n        /* \"contracts/EtherWallet1.sol\":332:463  function withdraw1() external {... */\n    tag_14:\n        /* \"contracts/EtherWallet1.sol\":394:399  owner */\n      immutable(\"0x2a80e1ef1d7842f27f2e6be0972bb708b9a135c38860dbe73c27c3486c34f4de\")\n        /* \"contracts/EtherWallet1.sol\":380:399  msg.sender == owner */\n      0xffffffffffffffffffffffffffffffffffffffff\n      and\n        /* \"contracts/EtherWallet1.sol\":380:390  msg.sender */\n      caller\n        /* \"contracts/EtherWallet1.sol\":380:399  msg.sender == owner */\n      0xffffffffffffffffffffffffffffffffffffffff\n      and\n      eq\n        /* \"contracts/EtherWallet1.sol\":372:413  require(msg.sender == owner, \"Not Owner\") */\n      tag_32\n      jumpi\n      mload(0x40)\n      0x08c379a000000000000000000000000000000000000000000000000000000000\n      dup2\n      mstore\n      0x04\n      add\n      tag_33\n      swap1\n      tag_34\n      jump\t// in\n    tag_33:\n      mload(0x40)\n      dup1\n      swap2\n      sub\n      swap1\n      revert\n    tag_32:\n        /* \"contracts/EtherWallet1.sol\":431:441  msg.sender */\n      caller\n        /* \"contracts/EtherWallet1.sol\":423:451  payable(msg.sender).transfer */\n      0xffffffffffffffffffffffffffffffffffffffff\n      and\n        /* \"contracts/EtherWallet1.sol\":423:456  payable(msg.sender).transfer(100) */\n      0x08fc\n        /* \"contracts/EtherWallet1.sol\":452:455  100 */\n      0x64\n        /* \"contracts/EtherWallet1.sol\":423:456  payable(msg.sender).transfer(100) */\n      swap1\n      dup2\n      iszero\n      mul\n      swap1\n      mload(0x40)\n      0x00\n      mload(0x40)\n      dup1\n      dup4\n      sub\n      dup2\n      dup6\n      dup9\n      dup9\n      call\n      swap4\n      pop\n      pop\n      pop\n      pop\n      iszero\n      dup1\n      iszero\n      tag_36\n      jumpi\n      returndatasize\n      0x00\n      dup1\n      returndatacopy\n      revert(0x00, returndatasize)\n    tag_36:\n      pop\n        /* \"contracts/EtherWallet1.sol\":332:463  function withdraw1() external {... */\n      jump\t// out\n        /* \"contracts/EtherWallet1.sol\":876:974  function getBalance() external view returns (uint256){... */\n    tag_17:\n        /* \"contracts/EtherWallet1.sol\":921:928  uint256 */\n      0x00\n        /* \"contracts/EtherWallet1.sol\":946:967  address(this).balance */\n      selfbalance\n        /* \"contracts/EtherWallet1.sol\":939:967  return address(this).balance */\n      swap1\n      pop\n        /* \"contracts/EtherWallet1.sol\":876:974  function getBalance() external view returns (uint256){... */\n      swap1\n      jump\t// out\n        /* \"contracts/EtherWallet1.sol\":661:870  function withdraw3() external {... */\n    tag_22:\n        /* \"contracts/EtherWallet1.sol\":723:728  owner */\n      immutable(\"0x2a80e1ef1d7842f27f2e6be0972bb708b9a135c38860dbe73c27c3486c34f4de\")\n        /* \"contracts/EtherWallet1.sol\":709:728  msg.sender == owner */\n      0xffffffffffffffffffffffffffffffffffffffff\n      and\n        /* \"contracts/EtherWallet1.sol\":709:719  msg.sender */\n      caller\n        /* \"contracts/EtherWallet1.sol\":709:728  msg.sender == owner */\n      0xffffffffffffffffffffffffffffffffffffffff\n      and\n      eq\n        /* \"contracts/EtherWallet1.sol\":701:744  require(msg.sender == owner, \"Not a Owner\") */\n      tag_39\n      jumpi\n      mload(0x40)\n      0x08c379a000000000000000000000000000000000000000000000000000000000\n      dup2\n      mstore\n      0x04\n      add\n      tag_40\n      swap1\n      tag_41\n      jump\t// in\n    tag_40:\n      mload(0x40)\n      dup1\n      swap2\n      sub\n      swap1\n      revert\n    tag_39:\n        /* \"contracts/EtherWallet1.sol\":755:767  bool success */\n      0x00\n        /* \"contracts/EtherWallet1.sol\":773:783  msg.sender */\n      caller\n        /* \"contracts/EtherWallet1.sol\":773:788  msg.sender.call */\n      0xffffffffffffffffffffffffffffffffffffffff\n      and\n        /* \"contracts/EtherWallet1.sol\":796:817  address(this).balance */\n      selfbalance\n        /* \"contracts/EtherWallet1.sol\":773:822  msg.sender.call{value: address(this).balance}(\"\") */\n      mload(0x40)\n      tag_42\n      swap1\n      tag_43\n      jump\t// in\n    tag_42:\n      0x00\n      mload(0x40)\n      dup1\n      dup4\n      sub\n      dup2\n      dup6\n      dup8\n      gas\n      call\n      swap3\n      pop\n      pop\n      pop\n      returndatasize\n      dup1\n      0x00\n      dup2\n      eq\n      tag_46\n      jumpi\n      mload(0x40)\n      swap2\n      pop\n      and(add(returndatasize, 0x3f), not(0x1f))\n      dup3\n      add\n      0x40\n      mstore\n      returndatasize\n      dup3\n      mstore\n      returndatasize\n      0x00\n      0x20\n      dup5\n      add\n      returndatacopy\n      jump(tag_45)\n    tag_46:\n      0x60\n      swap2\n      pop\n    tag_45:\n      pop\n        /* \"contracts/EtherWallet1.sol\":754:822  (bool success, ) = msg.sender.call{value: address(this).balance}(\"\") */\n      pop\n      swap1\n      pop\n        /* \"contracts/EtherWallet1.sol\":840:847  success */\n      dup1\n        /* \"contracts/EtherWallet1.sol\":832:863  require(success, \"Call Failed\") */\n      tag_47\n      jumpi\n      mload(0x40)\n      0x08c379a000000000000000000000000000000000000000000000000000000000\n      dup2\n      mstore\n      0x04\n      add\n      tag_48\n      swap1\n      tag_49\n      jump\t// in\n    tag_48:\n      mload(0x40)\n      dup1\n      swap2\n      sub\n      swap1\n      revert\n    tag_47:\n        /* \"contracts/EtherWallet1.sol\":691:870  {... */\n      pop\n        /* \"contracts/EtherWallet1.sol\":661:870  function withdraw3() external {... */\n      jump\t// out\n        /* \"contracts/EtherWallet1.sol\":53:92  address  payable public immutable owner */\n    tag_25:\n      immutable(\"0x2a80e1ef1d7842f27f2e6be0972bb708b9a135c38860dbe73c27c3486c34f4de\")\n      dup2\n      jump\t// out\n        /* \"contracts/EtherWallet1.sol\":470:655  function withdraw2() external {... */\n    tag_30:\n        /* \"contracts/EtherWallet1.sol\":532:537  owner */\n      immutable(\"0x2a80e1ef1d7842f27f2e6be0972bb708b9a135c38860dbe73c27c3486c34f4de\")\n        /* \"contracts/EtherWallet1.sol\":518:537  msg.sender == owner */\n      0xffffffffffffffffffffffffffffffffffffffff\n      and\n        /* \"contracts/EtherWallet1.sol\":518:528  msg.sender */\n      caller\n        /* \"contracts/EtherWallet1.sol\":518:537  msg.sender == owner */\n      0xffffffffffffffffffffffffffffffffffffffff\n      and\n      eq\n        /* \"contracts/EtherWallet1.sol\":510:554  require(msg.sender == owner, \"Not is Owner\") */\n      tag_51\n      jumpi\n      mload(0x40)\n      0x08c379a000000000000000000000000000000000000000000000000000000000\n      dup2\n      mstore\n      0x04\n      add\n      tag_52\n      swap1\n      tag_53\n      jump\t// in\n    tag_52:\n      mload(0x40)\n      dup1\n      swap2\n      sub\n      swap1\n      revert\n    tag_51:\n        /* \"contracts/EtherWallet1.sol\":564:576  bool success */\n      0x00\n        /* \"contracts/EtherWallet1.sol\":587:597  msg.sender */\n      caller\n        /* \"contracts/EtherWallet1.sol\":579:603  payable(msg.sender).send */\n      0xffffffffffffffffffffffffffffffffffffffff\n      and\n        /* \"contracts/EtherWallet1.sol\":579:608  payable(msg.sender).send(200) */\n      0x08fc\n        /* \"contracts/EtherWallet1.sol\":604:607  200 */\n      0xc8\n        /* \"contracts/EtherWallet1.sol\":579:608  payable(msg.sender).send(200) */\n      swap1\n      dup2\n      iszero\n      mul\n      swap1\n      mload(0x40)\n      0x00\n      mload(0x40)\n      dup1\n      dup4\n      sub\n      dup2\n      dup6\n      dup9\n      dup9\n      call\n      swap4\n      pop\n      pop\n      pop\n      pop\n        /* \"contracts/EtherWallet1.sol\":564:608  bool success = payable(msg.sender).send(200) */\n      swap1\n      pop\n        /* \"contracts/EtherWallet1.sol\":626:633  success */\n      dup1\n        /* \"contracts/EtherWallet1.sol\":618:648  require(success, \"Send faile\") */\n      tag_55\n      jumpi\n      mload(0x40)\n      0x08c379a000000000000000000000000000000000000000000000000000000000\n      dup2\n      mstore\n      0x04\n      add\n      tag_56\n      swap1\n      tag_57\n      jump\t// in\n    tag_56:\n      mload(0x40)\n      dup1\n      swap2\n      sub\n      swap1\n      revert\n    tag_55:\n        /* \"contracts/EtherWallet1.sol\":500:655  {... */\n      pop\n        /* \"contracts/EtherWallet1.sol\":470:655  function withdraw2() external {... */\n      jump\t// out\n        /* \"#utility.yul\":7:176   */\n    tag_58:\n        /* \"#utility.yul\":91:102   */\n      0x00\n        /* \"#utility.yul\":125:131   */\n      dup3\n        /* \"#utility.yul\":120:123   */\n      dup3\n        /* \"#utility.yul\":113:132   */\n      mstore\n        /* \"#utility.yul\":165:169   */\n      0x20\n        /* \"#utility.yul\":160:163   */\n      dup3\n        /* \"#utility.yul\":156:170   */\n      add\n        /* \"#utility.yul\":141:170   */\n      swap1\n      pop\n        /* \"#utility.yul\":7:176   */\n      swap3\n      swap2\n      pop\n      pop\n      jump\t// out\n        /* \"#utility.yul\":182:340   */\n    tag_59:\n        /* \"#utility.yul\":322:332   */\n      0x7265636576696565000000000000000000000000000000000000000000000000\n        /* \"#utility.yul\":318:319   */\n      0x00\n        /* \"#utility.yul\":310:316   */\n      dup3\n        /* \"#utility.yul\":306:320   */\n      add\n        /* \"#utility.yul\":299:333   */\n      mstore\n        /* \"#utility.yul\":182:340   */\n      pop\n      jump\t// out\n        /* \"#utility.yul\":346:711   */\n    tag_60:\n        /* \"#utility.yul\":488:491   */\n      0x00\n        /* \"#utility.yul\":509:575   */\n      tag_87\n        /* \"#utility.yul\":573:574   */\n      0x08\n        /* \"#utility.yul\":568:571   */\n      dup4\n        /* \"#utility.yul\":509:575   */\n      tag_58\n      jump\t// in\n    tag_87:\n        /* \"#utility.yul\":502:575   */\n      swap2\n      pop\n        /* \"#utility.yul\":584:677   */\n      tag_88\n        /* \"#utility.yul\":673:676   */\n      dup3\n        /* \"#utility.yul\":584:677   */\n      tag_59\n      jump\t// in\n    tag_88:\n        /* \"#utility.yul\":702:704   */\n      0x20\n        /* \"#utility.yul\":697:700   */\n      dup3\n        /* \"#utility.yul\":693:705   */\n      add\n        /* \"#utility.yul\":686:705   */\n      swap1\n      pop\n        /* \"#utility.yul\":346:711   */\n      swap2\n      swap1\n      pop\n      jump\t// out\n        /* \"#utility.yul\":717:843   */\n    tag_61:\n        /* \"#utility.yul\":754:761   */\n      0x00\n        /* \"#utility.yul\":794:836   */\n      0xffffffffffffffffffffffffffffffffffffffff\n        /* \"#utility.yul\":787:792   */\n      dup3\n        /* \"#utility.yul\":783:837   */\n      and\n        /* \"#utility.yul\":772:837   */\n      swap1\n      pop\n        /* \"#utility.yul\":717:843   */\n      swap2\n      swap1\n      pop\n      jump\t// out\n        /* \"#utility.yul\":849:945   */\n    tag_62:\n        /* \"#utility.yul\":886:893   */\n      0x00\n        /* \"#utility.yul\":915:939   */\n      tag_91\n        /* \"#utility.yul\":933:938   */\n      dup3\n        /* \"#utility.yul\":915:939   */\n      tag_61\n      jump\t// in\n    tag_91:\n        /* \"#utility.yul\":904:939   */\n      swap1\n      pop\n        /* \"#utility.yul\":849:945   */\n      swap2\n      swap1\n      pop\n      jump\t// out\n        /* \"#utility.yul\":951:1069   */\n    tag_63:\n        /* \"#utility.yul\":1038:1062   */\n      tag_93\n        /* \"#utility.yul\":1056:1061   */\n      dup2\n        /* \"#utility.yul\":1038:1062   */\n      tag_62\n      jump\t// in\n    tag_93:\n        /* \"#utility.yul\":1033:1036   */\n      dup3\n        /* \"#utility.yul\":1026:1063   */\n      mstore\n        /* \"#utility.yul\":951:1069   */\n      pop\n      pop\n      jump\t// out\n        /* \"#utility.yul\":1075:1152   */\n    tag_64:\n        /* \"#utility.yul\":1112:1119   */\n      0x00\n        /* \"#utility.yul\":1141:1146   */\n      dup2\n        /* \"#utility.yul\":1130:1146   */\n      swap1\n      pop\n        /* \"#utility.yul\":1075:1152   */\n      swap2\n      swap1\n      pop\n      jump\t// out\n        /* \"#utility.yul\":1158:1276   */\n    tag_65:\n        /* \"#utility.yul\":1245:1269   */\n      tag_96\n        /* \"#utility.yul\":1263:1268   */\n      dup2\n        /* \"#utility.yul\":1245:1269   */\n      tag_64\n      jump\t// in\n    tag_96:\n        /* \"#utility.yul\":1240:1243   */\n      dup3\n        /* \"#utility.yul\":1233:1270   */\n      mstore\n        /* \"#utility.yul\":1158:1276   */\n      pop\n      pop\n      jump\t// out\n        /* \"#utility.yul\":1282:1450   */\n    tag_66:\n        /* \"#utility.yul\":1365:1376   */\n      0x00\n        /* \"#utility.yul\":1399:1405   */\n      dup3\n        /* \"#utility.yul\":1394:1397   */\n      dup3\n        /* \"#utility.yul\":1387:1406   */\n      mstore\n        /* \"#utility.yul\":1439:1443   */\n      0x20\n        /* \"#utility.yul\":1434:1437   */\n      dup3\n        /* \"#utility.yul\":1430:1444   */\n      add\n        /* \"#utility.yul\":1415:1444   */\n      swap1\n      pop\n        /* \"#utility.yul\":1282:1450   */\n      swap3\n      swap2\n      pop\n      pop\n      jump\t// out\n        /* \"#utility.yul\":1456:1570   */\n    tag_67:\n      pop\n      jump\t// out\n        /* \"#utility.yul\":1576:1938   */\n    tag_68:\n        /* \"#utility.yul\":1717:1720   */\n      0x00\n        /* \"#utility.yul\":1738:1803   */\n      tag_100\n        /* \"#utility.yul\":1801:1802   */\n      0x00\n        /* \"#utility.yul\":1796:1799   */\n      dup4\n        /* \"#utility.yul\":1738:1803   */\n      tag_66\n      jump\t// in\n    tag_100:\n        /* \"#utility.yul\":1731:1803   */\n      swap2\n      pop\n        /* \"#utility.yul\":1812:1905   */\n      tag_101\n        /* \"#utility.yul\":1901:1904   */\n      dup3\n        /* \"#utility.yul\":1812:1905   */\n      tag_67\n      jump\t// in\n    tag_101:\n        /* \"#utility.yul\":1930:1931   */\n      0x00\n        /* \"#utility.yul\":1925:1928   */\n      dup3\n        /* \"#utility.yul\":1921:1932   */\n      add\n        /* \"#utility.yul\":1914:1932   */\n      swap1\n      pop\n        /* \"#utility.yul\":1576:1938   */\n      swap2\n      swap1\n      pop\n      jump\t// out\n        /* \"#utility.yul\":1944:2889   */\n    tag_11:\n        /* \"#utility.yul\":2266:2270   */\n      0x00\n        /* \"#utility.yul\":2304:2307   */\n      0x80\n        /* \"#utility.yul\":2293:2302   */\n      dup3\n        /* \"#utility.yul\":2289:2308   */\n      add\n        /* \"#utility.yul\":2281:2308   */\n      swap1\n      pop\n        /* \"#utility.yul\":2354:2363   */\n      dup2\n        /* \"#utility.yul\":2348:2352   */\n      dup2\n        /* \"#utility.yul\":2344:2364   */\n      sub\n        /* \"#utility.yul\":2340:2341   */\n      0x00\n        /* \"#utility.yul\":2329:2338   */\n      dup4\n        /* \"#utility.yul\":2325:2342   */\n      add\n        /* \"#utility.yul\":2318:2365   */\n      mstore\n        /* \"#utility.yul\":2382:2513   */\n      tag_103\n        /* \"#utility.yul\":2508:2512   */\n      dup2\n        /* \"#utility.yul\":2382:2513   */\n      tag_60\n      jump\t// in\n    tag_103:\n        /* \"#utility.yul\":2374:2513   */\n      swap1\n      pop\n        /* \"#utility.yul\":2523:2595   */\n      tag_104\n        /* \"#utility.yul\":2591:2593   */\n      0x20\n        /* \"#utility.yul\":2580:2589   */\n      dup4\n        /* \"#utility.yul\":2576:2594   */\n      add\n        /* \"#utility.yul\":2567:2573   */\n      dup6\n        /* \"#utility.yul\":2523:2595   */\n      tag_63\n      jump\t// in\n    tag_104:\n        /* \"#utility.yul\":2605:2677   */\n      tag_105\n        /* \"#utility.yul\":2673:2675   */\n      0x40\n        /* \"#utility.yul\":2662:2671   */\n      dup4\n        /* \"#utility.yul\":2658:2676   */\n      add\n        /* \"#utility.yul\":2649:2655   */\n      dup5\n        /* \"#utility.yul\":2605:2677   */\n      tag_65\n      jump\t// in\n    tag_105:\n        /* \"#utility.yul\":2724:2733   */\n      dup2\n        /* \"#utility.yul\":2718:2722   */\n      dup2\n        /* \"#utility.yul\":2714:2734   */\n      sub\n        /* \"#utility.yul\":2709:2711   */\n      0x60\n        /* \"#utility.yul\":2698:2707   */\n      dup4\n        /* \"#utility.yul\":2694:2712   */\n      add\n        /* \"#utility.yul\":2687:2735   */\n      mstore\n        /* \"#utility.yul\":2752:2882   */\n      tag_106\n        /* \"#utility.yul\":2877:2881   */\n      dup2\n        /* \"#utility.yul\":2752:2882   */\n      tag_68\n      jump\t// in\n    tag_106:\n        /* \"#utility.yul\":2744:2882   */\n      swap1\n      pop\n        /* \"#utility.yul\":1944:2889   */\n      swap4\n      swap3\n      pop\n      pop\n      pop\n      jump\t// out\n        /* \"#utility.yul\":2895:3117   */\n    tag_19:\n        /* \"#utility.yul\":2988:2992   */\n      0x00\n        /* \"#utility.yul\":3026:3028   */\n      0x20\n        /* \"#utility.yul\":3015:3024   */\n      dup3\n        /* \"#utility.yul\":3011:3029   */\n      add\n        /* \"#utility.yul\":3003:3029   */\n      swap1\n      pop\n        /* \"#utility.yul\":3039:3110   */\n      tag_108\n        /* \"#utility.yul\":3107:3108   */\n      0x00\n        /* \"#utility.yul\":3096:3105   */\n      dup4\n        /* \"#utility.yul\":3092:3109   */\n      add\n        /* \"#utility.yul\":3083:3089   */\n      dup5\n        /* \"#utility.yul\":3039:3110   */\n      tag_65\n      jump\t// in\n    tag_108:\n        /* \"#utility.yul\":2895:3117   */\n      swap3\n      swap2\n      pop\n      pop\n      jump\t// out\n        /* \"#utility.yul\":3123:3227   */\n    tag_69:\n        /* \"#utility.yul\":3168:3175   */\n      0x00\n        /* \"#utility.yul\":3197:3221   */\n      tag_110\n        /* \"#utility.yul\":3215:3220   */\n      dup3\n        /* \"#utility.yul\":3197:3221   */\n      tag_61\n      jump\t// in\n    tag_110:\n        /* \"#utility.yul\":3186:3221   */\n      swap1\n      pop\n        /* \"#utility.yul\":3123:3227   */\n      swap2\n      swap1\n      pop\n      jump\t// out\n        /* \"#utility.yul\":3233:3375   */\n    tag_70:\n        /* \"#utility.yul\":3336:3368   */\n      tag_112\n        /* \"#utility.yul\":3362:3367   */\n      dup2\n        /* \"#utility.yul\":3336:3368   */\n      tag_69\n      jump\t// in\n    tag_112:\n        /* \"#utility.yul\":3331:3334   */\n      dup3\n        /* \"#utility.yul\":3324:3369   */\n      mstore\n        /* \"#utility.yul\":3233:3375   */\n      pop\n      pop\n      jump\t// out\n        /* \"#utility.yul\":3381:3635   */\n    tag_27:\n        /* \"#utility.yul\":3490:3494   */\n      0x00\n        /* \"#utility.yul\":3528:3530   */\n      0x20\n        /* \"#utility.yul\":3517:3526   */\n      dup3\n        /* \"#utility.yul\":3513:3531   */\n      add\n        /* \"#utility.yul\":3505:3531   */\n      swap1\n      pop\n        /* \"#utility.yul\":3541:3628   */\n      tag_114\n        /* \"#utility.yul\":3625:3626   */\n      0x00\n        /* \"#utility.yul\":3614:3623   */\n      dup4\n        /* \"#utility.yul\":3610:3627   */\n      add\n        /* \"#utility.yul\":3601:3607   */\n      dup5\n        /* \"#utility.yul\":3541:3628   */\n      tag_70\n      jump\t// in\n    tag_114:\n        /* \"#utility.yul\":3381:3635   */\n      swap3\n      swap2\n      pop\n      pop\n      jump\t// out\n        /* \"#utility.yul\":3641:3800   */\n    tag_71:\n        /* \"#utility.yul\":3781:3792   */\n      0x4e6f74204f776e65720000000000000000000000000000000000000000000000\n        /* \"#utility.yul\":3777:3778   */\n      0x00\n        /* \"#utility.yul\":3769:3775   */\n      dup3\n        /* \"#utility.yul\":3765:3779   */\n      add\n        /* \"#utility.yul\":3758:3793   */\n      mstore\n        /* \"#utility.yul\":3641:3800   */\n      pop\n      jump\t// out\n        /* \"#utility.yul\":3806:4171   */\n    tag_72:\n        /* \"#utility.yul\":3948:3951   */\n      0x00\n        /* \"#utility.yul\":3969:4035   */\n      tag_117\n        /* \"#utility.yul\":4033:4034   */\n      0x09\n        /* \"#utility.yul\":4028:4031   */\n      dup4\n        /* \"#utility.yul\":3969:4035   */\n      tag_58\n      jump\t// in\n    tag_117:\n        /* \"#utility.yul\":3962:4035   */\n      swap2\n      pop\n        /* \"#utility.yul\":4044:4137   */\n      tag_118\n        /* \"#utility.yul\":4133:4136   */\n      dup3\n        /* \"#utility.yul\":4044:4137   */\n      tag_71\n      jump\t// in\n    tag_118:\n        /* \"#utility.yul\":4162:4164   */\n      0x20\n        /* \"#utility.yul\":4157:4160   */\n      dup3\n        /* \"#utility.yul\":4153:4165   */\n      add\n        /* \"#utility.yul\":4146:4165   */\n      swap1\n      pop\n        /* \"#utility.yul\":3806:4171   */\n      swap2\n      swap1\n      pop\n      jump\t// out\n        /* \"#utility.yul\":4177:4596   */\n    tag_34:\n        /* \"#utility.yul\":4343:4347   */\n      0x00\n        /* \"#utility.yul\":4381:4383   */\n      0x20\n        /* \"#utility.yul\":4370:4379   */\n      dup3\n        /* \"#utility.yul\":4366:4384   */\n      add\n        /* \"#utility.yul\":4358:4384   */\n      swap1\n      pop\n        /* \"#utility.yul\":4430:4439   */\n      dup2\n        /* \"#utility.yul\":4424:4428   */\n      dup2\n        /* \"#utility.yul\":4420:4440   */\n      sub\n        /* \"#utility.yul\":4416:4417   */\n      0x00\n        /* \"#utility.yul\":4405:4414   */\n      dup4\n        /* \"#utility.yul\":4401:4418   */\n      add\n        /* \"#utility.yul\":4394:4441   */\n      mstore\n        /* \"#utility.yul\":4458:4589   */\n      tag_120\n        /* \"#utility.yul\":4584:4588   */\n      dup2\n        /* \"#utility.yul\":4458:4589   */\n      tag_72\n      jump\t// in\n    tag_120:\n        /* \"#utility.yul\":4450:4589   */\n      swap1\n      pop\n        /* \"#utility.yul\":4177:4596   */\n      swap2\n      swap1\n      pop\n      jump\t// out\n        /* \"#utility.yul\":4602:4763   */\n    tag_73:\n        /* \"#utility.yul\":4742:4755   */\n      0x4e6f742061204f776e6572000000000000000000000000000000000000000000\n        /* \"#utility.yul\":4738:4739   */\n      0x00\n        /* \"#utility.yul\":4730:4736   */\n      dup3\n        /* \"#utility.yul\":4726:4740   */\n      add\n        /* \"#utility.yul\":4719:4756   */\n      mstore\n        /* \"#utility.yul\":4602:4763   */\n      pop\n      jump\t// out\n        /* \"#utility.yul\":4769:5135   */\n    tag_74:\n        /* \"#utility.yul\":4911:4914   */\n      0x00\n        /* \"#utility.yul\":4932:4999   */\n      tag_123\n        /* \"#utility.yul\":4996:4998   */\n      0x0b\n        /* \"#utility.yul\":4991:4994   */\n      dup4\n        /* \"#utility.yul\":4932:4999   */\n      tag_58\n      jump\t// in\n    tag_123:\n        /* \"#utility.yul\":4925:4999   */\n      swap2\n      pop\n        /* \"#utility.yul\":5008:5101   */\n      tag_124\n        /* \"#utility.yul\":5097:5100   */\n      dup3\n        /* \"#utility.yul\":5008:5101   */\n      tag_73\n      jump\t// in\n    tag_124:\n        /* \"#utility.yul\":5126:5128   */\n      0x20\n        /* \"#utility.yul\":5121:5124   */\n      dup3\n        /* \"#utility.yul\":5117:5129   */\n      add\n        /* \"#utility.yul\":5110:5129   */\n      swap1\n      pop\n        /* \"#utility.yul\":4769:5135   */\n      swap2\n      swap1\n      pop\n      jump\t// out\n        /* \"#utility.yul\":5141:5560   */\n    tag_41:\n        /* \"#utility.yul\":5307:5311   */\n      0x00\n        /* \"#utility.yul\":5345:5347   */\n      0x20\n        /* \"#utility.yul\":5334:5343   */\n      dup3\n        /* \"#utility.yul\":5330:5348   */\n      add\n        /* \"#utility.yul\":5322:5348   */\n      swap1\n      pop\n        /* \"#utility.yul\":5394:5403   */\n      dup2\n        /* \"#utility.yul\":5388:5392   */\n      dup2\n        /* \"#utility.yul\":5384:5404   */\n      sub\n        /* \"#utility.yul\":5380:5381   */\n      0x00\n        /* \"#utility.yul\":5369:5378   */\n      dup4\n        /* \"#utility.yul\":5365:5382   */\n      add\n        /* \"#utility.yul\":5358:5405   */\n      mstore\n        /* \"#utility.yul\":5422:5553   */\n      tag_126\n        /* \"#utility.yul\":5548:5552   */\n      dup2\n        /* \"#utility.yul\":5422:5553   */\n      tag_74\n      jump\t// in\n    tag_126:\n        /* \"#utility.yul\":5414:5553   */\n      swap1\n      pop\n        /* \"#utility.yul\":5141:5560   */\n      swap2\n      swap1\n      pop\n      jump\t// out\n        /* \"#utility.yul\":5566:5713   */\n    tag_75:\n        /* \"#utility.yul\":5667:5678   */\n      0x00\n        /* \"#utility.yul\":5704:5707   */\n      dup2\n        /* \"#utility.yul\":5689:5707   */\n      swap1\n      pop\n        /* \"#utility.yul\":5566:5713   */\n      swap3\n      swap2\n      pop\n      pop\n      jump\t// out\n        /* \"#utility.yul\":5719:6117   */\n    tag_76:\n        /* \"#utility.yul\":5878:5881   */\n      0x00\n        /* \"#utility.yul\":5899:5982   */\n      tag_129\n        /* \"#utility.yul\":5980:5981   */\n      0x00\n        /* \"#utility.yul\":5975:5978   */\n      dup4\n        /* \"#utility.yul\":5899:5982   */\n      tag_75\n      jump\t// in\n    tag_129:\n        /* \"#utility.yul\":5892:5982   */\n      swap2\n      pop\n        /* \"#utility.yul\":5991:6084   */\n      tag_130\n        /* \"#utility.yul\":6080:6083   */\n      dup3\n        /* \"#utility.yul\":5991:6084   */\n      tag_67\n      jump\t// in\n    tag_130:\n        /* \"#utility.yul\":6109:6110   */\n      0x00\n        /* \"#utility.yul\":6104:6107   */\n      dup3\n        /* \"#utility.yul\":6100:6111   */\n      add\n        /* \"#utility.yul\":6093:6111   */\n      swap1\n      pop\n        /* \"#utility.yul\":5719:6117   */\n      swap2\n      swap1\n      pop\n      jump\t// out\n        /* \"#utility.yul\":6123:6502   */\n    tag_43:\n        /* \"#utility.yul\":6307:6310   */\n      0x00\n        /* \"#utility.yul\":6329:6476   */\n      tag_132\n        /* \"#utility.yul\":6472:6475   */\n      dup3\n        /* \"#utility.yul\":6329:6476   */\n      tag_76\n      jump\t// in\n    tag_132:\n        /* \"#utility.yul\":6322:6476   */\n      swap2\n      pop\n        /* \"#utility.yul\":6493:6496   */\n      dup2\n        /* \"#utility.yul\":6486:6496   */\n      swap1\n      pop\n        /* \"#utility.yul\":6123:6502   */\n      swap2\n      swap1\n      pop\n      jump\t// out\n        /* \"#utility.yul\":6508:6669   */\n    tag_77:\n        /* \"#utility.yul\":6648:6661   */\n      0x43616c6c204661696c6564000000000000000000000000000000000000000000\n        /* \"#utility.yul\":6644:6645   */\n      0x00\n        /* \"#utility.yul\":6636:6642   */\n      dup3\n        /* \"#utility.yul\":6632:6646   */\n      add\n        /* \"#utility.yul\":6625:6662   */\n      mstore\n        /* \"#utility.yul\":6508:6669   */\n      pop\n      jump\t// out\n        /* \"#utility.yul\":6675:7041   */\n    tag_78:\n        /* \"#utility.yul\":6817:6820   */\n      0x00\n        /* \"#utility.yul\":6838:6905   */\n      tag_135\n        /* \"#utility.yul\":6902:6904   */\n      0x0b\n        /* \"#utility.yul\":6897:6900   */\n      dup4\n        /* \"#utility.yul\":6838:6905   */\n      tag_58\n      jump\t// in\n    tag_135:\n        /* \"#utility.yul\":6831:6905   */\n      swap2\n      pop\n        /* \"#utility.yul\":6914:7007   */\n      tag_136\n        /* \"#utility.yul\":7003:7006   */\n      dup3\n        /* \"#utility.yul\":6914:7007   */\n      tag_77\n      jump\t// in\n    tag_136:\n        /* \"#utility.yul\":7032:7034   */\n      0x20\n        /* \"#utility.yul\":7027:7030   */\n      dup3\n        /* \"#utility.yul\":7023:7035   */\n      add\n        /* \"#utility.yul\":7016:7035   */\n      swap1\n      pop\n        /* \"#utility.yul\":6675:7041   */\n      swap2\n      swap1\n      pop\n      jump\t// out\n        /* \"#utility.yul\":7047:7466   */\n    tag_49:\n        /* \"#utility.yul\":7213:7217   */\n      0x00\n        /* \"#utility.yul\":7251:7253   */\n      0x20\n        /* \"#utility.yul\":7240:7249   */\n      dup3\n        /* \"#utility.yul\":7236:7254   */\n      add\n        /* \"#utility.yul\":7228:7254   */\n      swap1\n      pop\n        /* \"#utility.yul\":7300:7309   */\n      dup2\n        /* \"#utility.yul\":7294:7298   */\n      dup2\n        /* \"#utility.yul\":7290:7310   */\n      sub\n        /* \"#utility.yul\":7286:7287   */\n      0x00\n        /* \"#utility.yul\":7275:7284   */\n      dup4\n        /* \"#utility.yul\":7271:7288   */\n      add\n        /* \"#utility.yul\":7264:7311   */\n      mstore\n        /* \"#utility.yul\":7328:7459   */\n      tag_138\n        /* \"#utility.yul\":7454:7458   */\n      dup2\n        /* \"#utility.yul\":7328:7459   */\n      tag_78\n      jump\t// in\n    tag_138:\n        /* \"#utility.yul\":7320:7459   */\n      swap1\n      pop\n        /* \"#utility.yul\":7047:7466   */\n      swap2\n      swap1\n      pop\n      jump\t// out\n        /* \"#utility.yul\":7472:7634   */\n    tag_79:\n        /* \"#utility.yul\":7612:7626   */\n      0x4e6f74206973204f776e65720000000000000000000000000000000000000000\n        /* \"#utility.yul\":7608:7609   */\n      0x00\n        /* \"#utility.yul\":7600:7606   */\n      dup3\n        /* \"#utility.yul\":7596:7610   */\n      add\n        /* \"#utility.yul\":7589:7627   */\n      mstore\n        /* \"#utility.yul\":7472:7634   */\n      pop\n      jump\t// out\n        /* \"#utility.yul\":7640:8006   */\n    tag_80:\n        /* \"#utility.yul\":7782:7785   */\n      0x00\n        /* \"#utility.yul\":7803:7870   */\n      tag_141\n        /* \"#utility.yul\":7867:7869   */\n      0x0c\n        /* \"#utility.yul\":7862:7865   */\n      dup4\n        /* \"#utility.yul\":7803:7870   */\n      tag_58\n      jump\t// in\n    tag_141:\n        /* \"#utility.yul\":7796:7870   */\n      swap2\n      pop\n        /* \"#utility.yul\":7879:7972   */\n      tag_142\n        /* \"#utility.yul\":7968:7971   */\n      dup3\n        /* \"#utility.yul\":7879:7972   */\n      tag_79\n      jump\t// in\n    tag_142:\n        /* \"#utility.yul\":7997:7999   */\n      0x20\n        /* \"#utility.yul\":7992:7995   */\n      dup3\n        /* \"#utility.yul\":7988:8000   */\n      add\n        /* \"#utility.yul\":7981:8000   */\n      swap1\n      pop\n        /* \"#utility.yul\":7640:8006   */\n      swap2\n      swap1\n      pop\n      jump\t// out\n        /* \"#utility.yul\":8012:8431   */\n    tag_53:\n        /* \"#utility.yul\":8178:8182   */\n      0x00\n        /* \"#utility.yul\":8216:8218   */\n      0x20\n        /* \"#utility.yul\":8205:8214   */\n      dup3\n        /* \"#utility.yul\":8201:8219   */\n      add\n        /* \"#utility.yul\":8193:8219   */\n      swap1\n      pop\n        /* \"#utility.yul\":8265:8274   */\n      dup2\n        /* \"#utility.yul\":8259:8263   */\n      dup2\n        /* \"#utility.yul\":8255:8275   */\n      sub\n        /* \"#utility.yul\":8251:8252   */\n      0x00\n        /* \"#utility.yul\":8240:8249   */\n      dup4\n        /* \"#utility.yul\":8236:8253   */\n      add\n        /* \"#utility.yul\":8229:8276   */\n      mstore\n        /* \"#utility.yul\":8293:8424   */\n      tag_144\n        /* \"#utility.yul\":8419:8423   */\n      dup2\n        /* \"#utility.yul\":8293:8424   */\n      tag_80\n      jump\t// in\n    tag_144:\n        /* \"#utility.yul\":8285:8424   */\n      swap1\n      pop\n        /* \"#utility.yul\":8012:8431   */\n      swap2\n      swap1\n      pop\n      jump\t// out\n        /* \"#utility.yul\":8437:8597   */\n    tag_81:\n        /* \"#utility.yul\":8577:8589   */\n      0x53656e64206661696c6500000000000000000000000000000000000000000000\n        /* \"#utility.yul\":8573:8574   */\n      0x00\n        /* \"#utility.yul\":8565:8571   */\n      dup3\n        /* \"#utility.yul\":8561:8575   */\n      add\n        /* \"#utility.yul\":8554:8590   */\n      mstore\n        /* \"#utility.yul\":8437:8597   */\n      pop\n      jump\t// out\n        /* \"#utility.yul\":8603:8969   */\n    tag_82:\n        /* \"#utility.yul\":8745:8748   */\n      0x00\n        /* \"#utility.yul\":8766:8833   */\n      tag_147\n        /* \"#utility.yul\":8830:8832   */\n      0x0a\n        /* \"#utility.yul\":8825:8828   */\n      dup4\n        /* \"#utility.yul\":8766:8833   */\n      tag_58\n      jump\t// in\n    tag_147:\n        /* \"#utility.yul\":8759:8833   */\n      swap2\n      pop\n        /* \"#utility.yul\":8842:8935   */\n      tag_148\n        /* \"#utility.yul\":8931:8934   */\n      dup3\n        /* \"#utility.yul\":8842:8935   */\n      tag_81\n      jump\t// in\n    tag_148:\n        /* \"#utility.yul\":8960:8962   */\n      0x20\n        /* \"#utility.yul\":8955:8958   */\n      dup3\n        /* \"#utility.yul\":8951:8963   */\n      add\n        /* \"#utility.yul\":8944:8963   */\n      swap1\n      pop\n        /* \"#utility.yul\":8603:8969   */\n      swap2\n      swap1\n      pop\n      jump\t// out\n        /* \"#utility.yul\":8975:9394   */\n    tag_57:\n        /* \"#utility.yul\":9141:9145   */\n      0x00\n        /* \"#utility.yul\":9179:9181   */\n      0x20\n        /* \"#utility.yul\":9168:9177   */\n      dup3\n        /* \"#utility.yul\":9164:9182   */\n      add\n        /* \"#utility.yul\":9156:9182   */\n      swap1\n      pop\n        /* \"#utility.yul\":9228:9237   */\n      dup2\n        /* \"#utility.yul\":9222:9226   */\n      dup2\n        /* \"#utility.yul\":9218:9238   */\n      sub\n        /* \"#utility.yul\":9214:9215   */\n      0x00\n        /* \"#utility.yul\":9203:9212   */\n      dup4\n        /* \"#utility.yul\":9199:9216   */\n      add\n        /* \"#utility.yul\":9192:9239   */\n      mstore\n        /* \"#utility.yul\":9256:9387   */\n      tag_150\n        /* \"#utility.yul\":9382:9386   */\n      dup2\n        /* \"#utility.yul\":9256:9387   */\n      tag_82\n      jump\t// in\n    tag_150:\n        /* \"#utility.yul\":9248:9387   */\n      swap1\n      pop\n        /* \"#utility.yul\":8975:9394   */\n      swap2\n      swap1\n      pop\n      jump\t// out\n\n    auxdata: 0xa26469706673582212203b6a91c3c7bdf9fec3eac518d632ca6c51ccf6640fd1371dee4db99e2e29fd0864736f6c634300081a0033\n}\n",
				"bytecode": {
					"linkReferences": {},
					"object": "60a0604052348015600e575f80fd5b503373ffffffffffffffffffffffffffffffffffffffff1660808173ffffffffffffffffffffffffffffffffffffffff16815250506080516108676100705f395f8181610128015281816102040152818161033d015261036101526108675ff3fe60806040526004361061004c575f3560e01c806279efb01461009057806312065fe0146100a65780634fa3eeff146100d05780638da5cb5b146100e6578063ea98847b146101105761008c565b3661008c577ff7f75251dee7d7fc22deac3247729ebe7c86541f35930bf10c2a4207479a3b6c333460405161008292919061054c565b60405180910390a1005b5f80fd5b34801561009b575f80fd5b506100a4610126565b005b3480156100b1575f80fd5b506100ba6101fb565b6040516100c79190610599565b60405180910390f35b3480156100db575f80fd5b506100e4610202565b005b3480156100f1575f80fd5b506100fa61033b565b60405161010791906105d2565b60405180910390f35b34801561011b575f80fd5b5061012461035f565b005b7f000000000000000000000000000000000000000000000000000000000000000073ffffffffffffffffffffffffffffffffffffffff163373ffffffffffffffffffffffffffffffffffffffff16146101b4576040517f08c379a00000000000000000000000000000000000000000000000000000000081526004016101ab90610635565b60405180910390fd5b3373ffffffffffffffffffffffffffffffffffffffff166108fc606490811502906040515f60405180830381858888f193505050501580156101f8573d5f803e3d5ffd5b50565b5f47905090565b7f000000000000000000000000000000000000000000000000000000000000000073ffffffffffffffffffffffffffffffffffffffff163373ffffffffffffffffffffffffffffffffffffffff1614610290576040517f08c379a00000000000000000000000000000000000000000000000000000000081526004016102879061069d565b60405180910390fd5b5f3373ffffffffffffffffffffffffffffffffffffffff16476040516102b5906106e5565b5f6040518083038185875af1925050503d805f81146102ef576040519150601f19603f3d011682016040523d82523d5f602084013e6102f4565b606091505b5050905080610338576040517f08c379a000000000000000000000000000000000000000000000000000000000815260040161032f90610743565b60405180910390fd5b50565b7f000000000000000000000000000000000000000000000000000000000000000081565b7f000000000000000000000000000000000000000000000000000000000000000073ffffffffffffffffffffffffffffffffffffffff163373ffffffffffffffffffffffffffffffffffffffff16146103ed576040517f08c379a00000000000000000000000000000000000000000000000000000000081526004016103e4906107ab565b60405180910390fd5b5f3373ffffffffffffffffffffffffffffffffffffffff166108fc60c890811502906040515f60405180830381858888f19350505050905080610465576040517f08c379a000000000000000000000000000000000000000000000000000000000815260040161045c90610813565b60405180910390fd5b50565b5f82825260208201905092915050565b7f72656365766965650000000000000000000000000000000000000000000000005f82015250565b5f6104ac600883610468565b91506104b782610478565b602082019050919050565b5f73ffffffffffffffffffffffffffffffffffffffff82169050919050565b5f6104eb826104c2565b9050919050565b6104fb816104e1565b82525050565b5f819050919050565b61051381610501565b82525050565b5f82825260208201905092915050565b50565b5f6105375f83610519565b915061054282610529565b5f82019050919050565b5f6080820190508181035f830152610563816104a0565b905061057260208301856104f2565b61057f604083018461050a565b81810360608301526105908161052c565b90509392505050565b5f6020820190506105ac5f83018461050a565b92915050565b5f6105bc826104c2565b9050919050565b6105cc816105b2565b82525050565b5f6020820190506105e55f8301846105c3565b92915050565b7f4e6f74204f776e657200000000000000000000000000000000000000000000005f82015250565b5f61061f600983610468565b915061062a826105eb565b602082019050919050565b5f6020820190508181035f83015261064c81610613565b9050919050565b7f4e6f742061204f776e65720000000000000000000000000000000000000000005f82015250565b5f610687600b83610468565b915061069282610653565b602082019050919050565b5f6020820190508181035f8301526106b48161067b565b9050919050565b5f81905092915050565b5f6106d05f836106bb565b91506106db82610529565b5f82019050919050565b5f6106ef826106c5565b9150819050919050565b7f43616c6c204661696c65640000000000000000000000000000000000000000005f82015250565b5f61072d600b83610468565b9150610738826106f9565b602082019050919050565b5f6020820190508181035f83015261075a81610721565b9050919050565b7f4e6f74206973204f776e657200000000000000000000000000000000000000005f82015250565b5f610795600c83610468565b91506107a082610761565b602082019050919050565b5f6020820190508181035f8301526107c281610789565b9050919050565b7f53656e64206661696c65000000000000000000000000000000000000000000005f82015250565b5f6107fd600a83610468565b9150610808826107c9565b602082019050919050565b5f6020820190508181035f83015261082a816107f1565b905091905056fea26469706673582212203b6a91c3c7bdf9fec3eac518d632ca6c51ccf6640fd1371dee4db99e2e29fd0864736f6c634300081a0033",
					"opcodes": "PUSH1 0xA0 PUSH1 0x40 MSTORE CALLVALUE DUP1 ISZERO PUSH1 0xE JUMPI PUSH0 DUP1 REVERT JUMPDEST POP CALLER PUSH20 0xFFFFFFFFFFFFFFFFFFFFFFFFFFFFFFFFFFFFFFFF AND PUSH1 0x80 DUP2 PUSH20 0xFFFFFFFFFFFFFFFFFFFFFFFFFFFFFFFFFFFFFFFF AND DUP2 MSTORE POP POP PUSH1 0x80 MLOAD PUSH2 0x867 PUSH2 0x70 PUSH0 CODECOPY PUSH0 DUP2 DUP2 PUSH2 0x128 ADD MSTORE DUP2 DUP2 PUSH2 0x204 ADD MSTORE DUP2 DUP2 PUSH2 0x33D ADD MSTORE PUSH2 0x361 ADD MSTORE PUSH2 0x867 PUSH0 RETURN INVALID PUSH1 0x80 PUSH1 0x40 MSTORE PUSH1 0x4 CALLDATASIZE LT PUSH2 0x4C JUMPI PUSH0 CALLDATALOAD PUSH1 0xE0 SHR DUP1 PUSH3 0x79EFB0 EQ PUSH2 0x90 JUMPI DUP1 PUSH4 0x12065FE0 EQ PUSH2 0xA6 JUMPI DUP1 PUSH4 0x4FA3EEFF EQ PUSH2 0xD0 JUMPI DUP1 PUSH4 0x8DA5CB5B EQ PUSH2 0xE6 JUMPI DUP1 PUSH4 0xEA98847B EQ PUSH2 0x110 JUMPI PUSH2 0x8C JUMP JUMPDEST CALLDATASIZE PUSH2 0x8C JUMPI PUSH32 0xF7F75251DEE7D7FC22DEAC3247729EBE7C86541F35930BF10C2A4207479A3B6C CALLER CALLVALUE PUSH1 0x40 MLOAD PUSH2 0x82 SWAP3 SWAP2 SWAP1 PUSH2 0x54C JUMP JUMPDEST PUSH1 0x40 MLOAD DUP1 SWAP2 SUB SWAP1 LOG1 STOP JUMPDEST PUSH0 DUP1 REVERT JUMPDEST CALLVALUE DUP1 ISZERO PUSH2 0x9B JUMPI PUSH0 DUP1 REVERT JUMPDEST POP PUSH2 0xA4 PUSH2 0x126 JUMP JUMPDEST STOP JUMPDEST CALLVALUE DUP1 ISZERO PUSH2 0xB1 JUMPI PUSH0 DUP1 REVERT JUMPDEST POP PUSH2 0xBA PUSH2 0x1FB JUMP JUMPDEST PUSH1 0x40 MLOAD PUSH2 0xC7 SWAP2 SWAP1 PUSH2 0x599 JUMP JUMPDEST PUSH1 0x40 MLOAD DUP1 SWAP2 SUB SWAP1 RETURN JUMPDEST CALLVALUE DUP1 ISZERO PUSH2 0xDB JUMPI PUSH0 DUP1 REVERT JUMPDEST POP PUSH2 0xE4 PUSH2 0x202 JUMP JUMPDEST STOP JUMPDEST CALLVALUE DUP1 ISZERO PUSH2 0xF1 JUMPI PUSH0 DUP1 REVERT JUMPDEST POP PUSH2 0xFA PUSH2 0x33B JUMP JUMPDEST PUSH1 0x40 MLOAD PUSH2 0x107 SWAP2 SWAP1 PUSH2 0x5D2 JUMP JUMPDEST PUSH1 0x40 MLOAD DUP1 SWAP2 SUB SWAP1 RETURN JUMPDEST CALLVALUE DUP1 ISZERO PUSH2 0x11B JUMPI PUSH0 DUP1 REVERT JUMPDEST POP PUSH2 0x124 PUSH2 0x35F JUMP JUMPDEST STOP JUMPDEST PUSH32 0x0 PUSH20 0xFFFFFFFFFFFFFFFFFFFFFFFFFFFFFFFFFFFFFFFF AND CALLER PUSH20 0xFFFFFFFFFFFFFFFFFFFFFFFFFFFFFFFFFFFFFFFF AND EQ PUSH2 0x1B4 JUMPI PUSH1 0x40 MLOAD PUSH32 0x8C379A000000000000000000000000000000000000000000000000000000000 DUP2 MSTORE PUSH1 0x4 ADD PUSH2 0x1AB SWAP1 PUSH2 0x635 JUMP JUMPDEST PUSH1 0x40 MLOAD DUP1 SWAP2 SUB SWAP1 REVERT JUMPDEST CALLER PUSH20 0xFFFFFFFFFFFFFFFFFFFFFFFFFFFFFFFFFFFFFFFF AND PUSH2 0x8FC PUSH1 0x64 SWAP1 DUP2 ISZERO MUL SWAP1 PUSH1 0x40 MLOAD PUSH0 PUSH1 0x40 MLOAD DUP1 DUP4 SUB DUP2 DUP6 DUP9 DUP9 CALL SWAP4 POP POP POP POP ISZERO DUP1 ISZERO PUSH2 0x1F8 JUMPI RETURNDATASIZE PUSH0 DUP1 RETURNDATACOPY RETURNDATASIZE PUSH0 REVERT JUMPDEST POP JUMP JUMPDEST PUSH0 SELFBALANCE SWAP1 POP SWAP1 JUMP JUMPDEST PUSH32 0x0 PUSH20 0xFFFFFFFFFFFFFFFFFFFFFFFFFFFFFFFFFFFFFFFF AND CALLER PUSH20 0xFFFFFFFFFFFFFFFFFFFFFFFFFFFFFFFFFFFFFFFF AND EQ PUSH2 0x290 JUMPI PUSH1 0x40 MLOAD PUSH32 0x8C379A000000000000000000000000000000000000000000000000000000000 DUP2 MSTORE PUSH1 0x4 ADD PUSH2 0x287 SWAP1 PUSH2 0x69D JUMP JUMPDEST PUSH1 0x40 MLOAD DUP1 SWAP2 SUB SWAP1 REVERT JUMPDEST PUSH0 CALLER PUSH20 0xFFFFFFFFFFFFFFFFFFFFFFFFFFFFFFFFFFFFFFFF AND SELFBALANCE PUSH1 0x40 MLOAD PUSH2 0x2B5 SWAP1 PUSH2 0x6E5 JUMP JUMPDEST PUSH0 PUSH1 0x40 MLOAD DUP1 DUP4 SUB DUP2 DUP6 DUP8 GAS CALL SWAP3 POP POP POP RETURNDATASIZE DUP1 PUSH0 DUP2 EQ PUSH2 0x2EF JUMPI PUSH1 0x40 MLOAD SWAP2 POP PUSH1 0x1F NOT PUSH1 0x3F RETURNDATASIZE ADD AND DUP3 ADD PUSH1 0x40 MSTORE RETURNDATASIZE DUP3 MSTORE RETURNDATASIZE PUSH0 PUSH1 0x20 DUP5 ADD RETURNDATACOPY PUSH2 0x2F4 JUMP JUMPDEST PUSH1 0x60 SWAP2 POP JUMPDEST POP POP SWAP1 POP DUP1 PUSH2 0x338 JUMPI PUSH1 0x40 MLOAD PUSH32 0x8C379A000000000000000000000000000000000000000000000000000000000 DUP2 MSTORE PUSH1 0x4 ADD PUSH2 0x32F SWAP1 PUSH2 0x743 JUMP JUMPDEST PUSH1 0x40 MLOAD DUP1 SWAP2 SUB SWAP1 REVERT JUMPDEST POP JUMP JUMPDEST PUSH32 0x0 DUP2 JUMP JUMPDEST PUSH32 0x0 PUSH20 0xFFFFFFFFFFFFFFFFFFFFFFFFFFFFFFFFFFFFFFFF AND CALLER PUSH20 0xFFFFFFFFFFFFFFFFFFFFFFFFFFFFFFFFFFFFFFFF AND EQ PUSH2 0x3ED JUMPI PUSH1 0x40 MLOAD PUSH32 0x8C379A000000000000000000000000000000000000000000000000000000000 DUP2 MSTORE PUSH1 0x4 ADD PUSH2 0x3E4 SWAP1 PUSH2 0x7AB JUMP JUMPDEST PUSH1 0x40 MLOAD DUP1 SWAP2 SUB SWAP1 REVERT JUMPDEST PUSH0 CALLER PUSH20 0xFFFFFFFFFFFFFFFFFFFFFFFFFFFFFFFFFFFFFFFF AND PUSH2 0x8FC PUSH1 0xC8 SWAP1 DUP2 ISZERO MUL SWAP1 PUSH1 0x40 MLOAD PUSH0 PUSH1 0x40 MLOAD DUP1 DUP4 SUB DUP2 DUP6 DUP9 DUP9 CALL SWAP4 POP POP POP POP SWAP1 POP DUP1 PUSH2 0x465 JUMPI PUSH1 0x40 MLOAD PUSH32 0x8C379A000000000000000000000000000000000000000000000000000000000 DUP2 MSTORE PUSH1 0x4 ADD PUSH2 0x45C SWAP1 PUSH2 0x813 JUMP JUMPDEST PUSH1 0x40 MLOAD DUP1 SWAP2 SUB SWAP1 REVERT JUMPDEST POP JUMP JUMPDEST PUSH0 DUP3 DUP3 MSTORE PUSH1 0x20 DUP3 ADD SWAP1 POP SWAP3 SWAP2 POP POP JUMP JUMPDEST PUSH32 0x7265636576696565000000000000000000000000000000000000000000000000 PUSH0 DUP3 ADD MSTORE POP JUMP JUMPDEST PUSH0 PUSH2 0x4AC PUSH1 0x8 DUP4 PUSH2 0x468 JUMP JUMPDEST SWAP2 POP PUSH2 0x4B7 DUP3 PUSH2 0x478 JUMP JUMPDEST PUSH1 0x20 DUP3 ADD SWAP1 POP SWAP2 SWAP1 POP JUMP JUMPDEST PUSH0 PUSH20 0xFFFFFFFFFFFFFFFFFFFFFFFFFFFFFFFFFFFFFFFF DUP3 AND SWAP1 POP SWAP2 SWAP1 POP JUMP JUMPDEST PUSH0 PUSH2 0x4EB DUP3 PUSH2 0x4C2 JUMP JUMPDEST SWAP1 POP SWAP2 SWAP1 POP JUMP JUMPDEST PUSH2 0x4FB DUP2 PUSH2 0x4E1 JUMP JUMPDEST DUP3 MSTORE POP POP JUMP JUMPDEST PUSH0 DUP2 SWAP1 POP SWAP2 SWAP1 POP JUMP JUMPDEST PUSH2 0x513 DUP2 PUSH2 0x501 JUMP JUMPDEST DUP3 MSTORE POP POP JUMP JUMPDEST PUSH0 DUP3 DUP3 MSTORE PUSH1 0x20 DUP3 ADD SWAP1 POP SWAP3 SWAP2 POP POP JUMP JUMPDEST POP JUMP JUMPDEST PUSH0 PUSH2 0x537 PUSH0 DUP4 PUSH2 0x519 JUMP JUMPDEST SWAP2 POP PUSH2 0x542 DUP3 PUSH2 0x529 JUMP JUMPDEST PUSH0 DUP3 ADD SWAP1 POP SWAP2 SWAP1 POP JUMP JUMPDEST PUSH0 PUSH1 0x80 DUP3 ADD SWAP1 POP DUP2 DUP2 SUB PUSH0 DUP4 ADD MSTORE PUSH2 0x563 DUP2 PUSH2 0x4A0 JUMP JUMPDEST SWAP1 POP PUSH2 0x572 PUSH1 0x20 DUP4 ADD DUP6 PUSH2 0x4F2 JUMP JUMPDEST PUSH2 0x57F PUSH1 0x40 DUP4 ADD DUP5 PUSH2 0x50A JUMP JUMPDEST DUP2 DUP2 SUB PUSH1 0x60 DUP4 ADD MSTORE PUSH2 0x590 DUP2 PUSH2 0x52C JUMP JUMPDEST SWAP1 POP SWAP4 SWAP3 POP POP POP JUMP JUMPDEST PUSH0 PUSH1 0x20 DUP3 ADD SWAP1 POP PUSH2 0x5AC PUSH0 DUP4 ADD DUP5 PUSH2 0x50A JUMP JUMPDEST SWAP3 SWAP2 POP POP JUMP JUMPDEST PUSH0 PUSH2 0x5BC DUP3 PUSH2 0x4C2 JUMP JUMPDEST SWAP1 POP SWAP2 SWAP1 POP JUMP JUMPDEST PUSH2 0x5CC DUP2 PUSH2 0x5B2 JUMP JUMPDEST DUP3 MSTORE POP POP JUMP JUMPDEST PUSH0 PUSH1 0x20 DUP3 ADD SWAP1 POP PUSH2 0x5E5 PUSH0 DUP4 ADD DUP5 PUSH2 0x5C3 JUMP JUMPDEST SWAP3 SWAP2 POP POP JUMP JUMPDEST PUSH32 0x4E6F74204F776E65720000000000000000000000000000000000000000000000 PUSH0 DUP3 ADD MSTORE POP JUMP JUMPDEST PUSH0 PUSH2 0x61F PUSH1 0x9 DUP4 PUSH2 0x468 JUMP JUMPDEST SWAP2 POP PUSH2 0x62A DUP3 PUSH2 0x5EB JUMP JUMPDEST PUSH1 0x20 DUP3 ADD SWAP1 POP SWAP2 SWAP1 POP JUMP JUMPDEST PUSH0 PUSH1 0x20 DUP3 ADD SWAP1 POP DUP2 DUP2 SUB PUSH0 DUP4 ADD MSTORE PUSH2 0x64C DUP2 PUSH2 0x613 JUMP JUMPDEST SWAP1 POP SWAP2 SWAP1 POP JUMP JUMPDEST PUSH32 0x4E6F742061204F776E6572000000000000000000000000000000000000000000 PUSH0 DUP3 ADD MSTORE POP JUMP JUMPDEST PUSH0 PUSH2 0x687 PUSH1 0xB DUP4 PUSH2 0x468 JUMP JUMPDEST SWAP2 POP PUSH2 0x692 DUP3 PUSH2 0x653 JUMP JUMPDEST PUSH1 0x20 DUP3 ADD SWAP1 POP SWAP2 SWAP1 POP JUMP JUMPDEST PUSH0 PUSH1 0x20 DUP3 ADD SWAP1 POP DUP2 DUP2 SUB PUSH0 DUP4 ADD MSTORE PUSH2 0x6B4 DUP2 PUSH2 0x67B JUMP JUMPDEST SWAP1 POP SWAP2 SWAP1 POP JUMP JUMPDEST PUSH0 DUP2 SWAP1 POP SWAP3 SWAP2 POP POP JUMP JUMPDEST PUSH0 PUSH2 0x6D0 PUSH0 DUP4 PUSH2 0x6BB JUMP JUMPDEST SWAP2 POP PUSH2 0x6DB DUP3 PUSH2 0x529 JUMP JUMPDEST PUSH0 DUP3 ADD SWAP1 POP SWAP2 SWAP1 POP JUMP JUMPDEST PUSH0 PUSH2 0x6EF DUP3 PUSH2 0x6C5 JUMP JUMPDEST SWAP2 POP DUP2 SWAP1 POP SWAP2 SWAP1 POP JUMP JUMPDEST PUSH32 0x43616C6C204661696C6564000000000000000000000000000000000000000000 PUSH0 DUP3 ADD MSTORE POP JUMP JUMPDEST PUSH0 PUSH2 0x72D PUSH1 0xB DUP4 PUSH2 0x468 JUMP JUMPDEST SWAP2 POP PUSH2 0x738 DUP3 PUSH2 0x6F9 JUMP JUMPDEST PUSH1 0x20 DUP3 ADD SWAP1 POP SWAP2 SWAP1 POP JUMP JUMPDEST PUSH0 PUSH1 0x20 DUP3 ADD SWAP1 POP DUP2 DUP2 SUB PUSH0 DUP4 ADD MSTORE PUSH2 0x75A DUP2 PUSH2 0x721 JUMP JUMPDEST SWAP1 POP SWAP2 SWAP1 POP JUMP JUMPDEST PUSH32 0x4E6F74206973204F776E65720000000000000000000000000000000000000000 PUSH0 DUP3 ADD MSTORE POP JUMP JUMPDEST PUSH0 PUSH2 0x795 PUSH1 0xC DUP4 PUSH2 0x468 JUMP JUMPDEST SWAP2 POP PUSH2 0x7A0 DUP3 PUSH2 0x761 JUMP JUMPDEST PUSH1 0x20 DUP3 ADD SWAP1 POP SWAP2 SWAP1 POP JUMP JUMPDEST PUSH0 PUSH1 0x20 DUP3 ADD SWAP1 POP DUP2 DUP2 SUB PUSH0 DUP4 ADD MSTORE PUSH2 0x7C2 DUP2 PUSH2 0x789 JUMP JUMPDEST SWAP1 POP SWAP2 SWAP1 POP JUMP JUMPDEST PUSH32 0x53656E64206661696C6500000000000000000000000000000000000000000000 PUSH0 DUP3 ADD MSTORE POP JUMP JUMPDEST PUSH0 PUSH2 0x7FD PUSH1 0xA DUP4 PUSH2 0x468 JUMP JUMPDEST SWAP2 POP PUSH2 0x808 DUP3 PUSH2 0x7C9 JUMP JUMPDEST PUSH1 0x20 DUP3 ADD SWAP1 POP SWAP2 SWAP1 POP JUMP JUMPDEST PUSH0 PUSH1 0x20 DUP3 ADD SWAP1 POP DUP2 DUP2 SUB PUSH0 DUP4 ADD MSTORE PUSH2 0x82A DUP2 PUSH2 0x7F1 JUMP JUMPDEST SWAP1 POP SWAP2 SWAP1 POP JUMP INVALID LOG2 PUSH5 0x6970667358 0x22 SLT KECCAK256 EXTCODESIZE PUSH11 0x91C3C7BDF9FEC3EAC518D6 ORIGIN 0xCA PUSH13 0x51CCF6640FD1371DEE4DB99E2E 0x29 REVERT ADDMOD PUSH5 0x736F6C6343 STOP ADDMOD BYTE STOP CALLER "
				},
				"gasEstimates": {
					"creation": {
						"codeDepositCost": "430200",
						"executionCost": "infinite",
						"totalCost": "infinite"
					},
					"external": {
						"getBalance()": "334",
						"owner()": "infinite",
						"withdraw1()": "infinite",
						"withdraw2()": "infinite",
						"withdraw3()": "infinite"
					}
				},
				"methodIdentifiers": {
					"getBalance()": "12065fe0",
					"owner()": "8da5cb5b",
					"withdraw1()": "0079efb0",
					"withdraw2()": "ea98847b",
					"withdraw3()": "4fa3eeff"
				}
			},
			"storageLayout": {
				"storage": [],
				"types": null
			},
			"userdoc": {
				"kind": "user",
				"methods": {},
				"version": 1
			}
		}
	}
}