{
	"contracts/oneblock/Alex.sol": {
		"Ownable": {
			"abi": [
				{
					"inputs": [],
					"stateMutability": "nonpayable",
					"type": "constructor"
				},
				{
					"anonymous": false,
					"inputs": [
						{
							"indexed": true,
							"internalType": "address",
							"name": "previousOwner",
							"type": "address"
						},
						{
							"indexed": true,
							"internalType": "address",
							"name": "newOwner",
							"type": "address"
						}
					],
					"name": "OwnershipTransferred",
					"type": "event"
				},
				{
					"inputs": [],
					"name": "owner",
					"outputs": [
						{
							"internalType": "address",
							"name": "",
							"type": "address"
						}
					],
					"stateMutability": "view",
					"type": "function"
				},
				{
					"inputs": [],
					"name": "renounceOwnership",
					"outputs": [],
					"stateMutability": "nonpayable",
					"type": "function"
				}
			],
			"devdoc": {
				"kind": "dev",
				"methods": {},
				"version": 1
			},
			"evm": {
				"assembly": "    /* \"contracts/oneblock/Alex.sol\":1344:1961  contract Ownable is Context {... */\n  mstore(0x40, 0x80)\n    /* \"contracts/oneblock/Alex.sol\":1500:1594  constructor() {... */\n  callvalue\n  dup1\n  iszero\n  tag_1\n  jumpi\n  0x00\n  dup1\n  revert\ntag_1:\n  pop\n    /* \"contracts/oneblock/Alex.sol\":1525:1542  address msgSender */\n  0x00\n    /* \"contracts/oneblock/Alex.sol\":1545:1557  _msgSender() */\n  tag_4\n    /* \"contracts/oneblock/Alex.sol\":1545:1555  _msgSender */\n  shl(0x20, tag_5)\n    /* \"contracts/oneblock/Alex.sol\":1545:1557  _msgSender() */\n  0x20\n  shr\n  jump\t// in\ntag_4:\n    /* \"contracts/oneblock/Alex.sol\":1525:1557  address msgSender = _msgSender() */\n  swap1\n  pop\n    /* \"contracts/oneblock/Alex.sol\":1577:1586  msgSender */\n  dup1\n    /* \"contracts/oneblock/Alex.sol\":1568:1574  _owner */\n  0x00\n  dup1\n    /* \"contracts/oneblock/Alex.sol\":1568:1586  _owner = msgSender */\n  0x0100\n  exp\n  dup2\n  sload\n  dup2\n  0xffffffffffffffffffffffffffffffffffffffff\n  mul\n  not\n  and\n  swap1\n  dup4\n  0xffffffffffffffffffffffffffffffffffffffff\n  and\n  mul\n  or\n  swap1\n  sstore\n  pop\n    /* \"contracts/oneblock/Alex.sol\":1514:1594  {... */\n  pop\n    /* \"contracts/oneblock/Alex.sol\":1344:1961  contract Ownable is Context {... */\n  jump(tag_6)\n    /* \"contracts/oneblock/Alex.sol\":95:192  function _msgSender() internal view virtual returns(address) {... */\ntag_5:\n    /* \"contracts/oneblock/Alex.sol\":147:154  address */\n  0x00\n    /* \"contracts/oneblock/Alex.sol\":174:184  msg.sender */\n  caller\n    /* \"contracts/oneblock/Alex.sol\":167:184  return msg.sender */\n  swap1\n  pop\n    /* \"contracts/oneblock/Alex.sol\":95:192  function _msgSender() internal view virtual returns(address) {... */\n  swap1\n  jump\t// out\n    /* \"contracts/oneblock/Alex.sol\":1344:1961  contract Ownable is Context {... */\ntag_6:\n  dataSize(sub_0)\n  dup1\n  dataOffset(sub_0)\n  0x00\n  codecopy\n  0x00\n  return\nstop\n\nsub_0: assembly {\n        /* \"contracts/oneblock/Alex.sol\":1344:1961  contract Ownable is Context {... */\n      mstore(0x40, 0x80)\n      callvalue\n      dup1\n      iszero\n      tag_1\n      jumpi\n      0x00\n      dup1\n      revert\n    tag_1:\n      pop\n      jumpi(tag_2, lt(calldatasize, 0x04))\n      shr(0xe0, calldataload(0x00))\n      dup1\n      0x715018a6\n      eq\n      tag_3\n      jumpi\n      dup1\n      0x8da5cb5b\n      eq\n      tag_4\n      jumpi\n    tag_2:\n      0x00\n      dup1\n      revert\n        /* \"contracts/oneblock/Alex.sol\":1812:1958  function renounceOwnership()public virtual onlyOwner{... */\n    tag_3:\n      tag_5\n      tag_6\n      jump\t// in\n    tag_5:\n      stop\n        /* \"contracts/oneblock/Alex.sol\":1600:1679  function owner() public view returns (address) {... */\n    tag_4:\n      tag_7\n      tag_8\n      jump\t// in\n    tag_7:\n      mload(0x40)\n      tag_9\n      swap2\n      swap1\n      tag_10\n      jump\t// in\n    tag_9:\n      mload(0x40)\n      dup1\n      swap2\n      sub\n      swap1\n      return\n        /* \"contracts/oneblock/Alex.sol\":1812:1958  function renounceOwnership()public virtual onlyOwner{... */\n    tag_6:\n        /* \"contracts/oneblock/Alex.sol\":1741:1753  _msgSender() */\n      tag_12\n        /* \"contracts/oneblock/Alex.sol\":1741:1751  _msgSender */\n      tag_13\n        /* \"contracts/oneblock/Alex.sol\":1741:1753  _msgSender() */\n      jump\t// in\n    tag_12:\n        /* \"contracts/oneblock/Alex.sol\":1727:1753  msg.sender == _msgSender() */\n      0xffffffffffffffffffffffffffffffffffffffff\n      and\n        /* \"contracts/oneblock/Alex.sol\":1727:1737  msg.sender */\n      caller\n        /* \"contracts/oneblock/Alex.sol\":1727:1753  msg.sender == _msgSender() */\n      0xffffffffffffffffffffffffffffffffffffffff\n      and\n      eq\n        /* \"contracts/oneblock/Alex.sol\":1719:1784  require(msg.sender == _msgSender(), \"Ownable call:must is owner\") */\n      tag_14\n      jumpi\n      mload(0x40)\n      0x08c379a000000000000000000000000000000000000000000000000000000000\n      dup2\n      mstore\n      0x04\n      add\n      tag_15\n      swap1\n      tag_16\n      jump\t// in\n    tag_15:\n      mload(0x40)\n      dup1\n      swap2\n      sub\n      swap1\n      revert\n    tag_14:\n        /* \"contracts/oneblock/Alex.sol\":1917:1918  0 */\n      0x00\n        /* \"contracts/oneblock/Alex.sol\":1880:1920  OwnershipTransferred(_owner, address(0)) */\n      0xffffffffffffffffffffffffffffffffffffffff\n      and\n        /* \"contracts/oneblock/Alex.sol\":1901:1907  _owner */\n      0x00\n      dup1\n      sload\n      swap1\n      0x0100\n      exp\n      swap1\n      div\n      0xffffffffffffffffffffffffffffffffffffffff\n      and\n        /* \"contracts/oneblock/Alex.sol\":1880:1920  OwnershipTransferred(_owner, address(0)) */\n      0xffffffffffffffffffffffffffffffffffffffff\n      and\n      0x8be0079c531659141344cd1fd0a4f28419497f9722a3daafe3b4186f6b6457e0\n      mload(0x40)\n      mload(0x40)\n      dup1\n      swap2\n      sub\n      swap1\n      log3\n        /* \"contracts/oneblock/Alex.sol\":1948:1949  0 */\n      0x00\n        /* \"contracts/oneblock/Alex.sol\":1931:1937  _owner */\n      dup1\n      0x00\n        /* \"contracts/oneblock/Alex.sol\":1931:1950  _owner = address(0) */\n      0x0100\n      exp\n      dup2\n      sload\n      dup2\n      0xffffffffffffffffffffffffffffffffffffffff\n      mul\n      not\n      and\n      swap1\n      dup4\n      0xffffffffffffffffffffffffffffffffffffffff\n      and\n      mul\n      or\n      swap1\n      sstore\n      pop\n        /* \"contracts/oneblock/Alex.sol\":1812:1958  function renounceOwnership()public virtual onlyOwner{... */\n      jump\t// out\n        /* \"contracts/oneblock/Alex.sol\":1600:1679  function owner() public view returns (address) {... */\n    tag_8:\n        /* \"contracts/oneblock/Alex.sol\":1638:1645  address */\n      0x00\n        /* \"contracts/oneblock/Alex.sol\":1665:1671  _owner */\n      dup1\n      0x00\n      swap1\n      sload\n      swap1\n      0x0100\n      exp\n      swap1\n      div\n      0xffffffffffffffffffffffffffffffffffffffff\n      and\n        /* \"contracts/oneblock/Alex.sol\":1658:1671  return _owner */\n      swap1\n      pop\n        /* \"contracts/oneblock/Alex.sol\":1600:1679  function owner() public view returns (address) {... */\n      swap1\n      jump\t// out\n        /* \"contracts/oneblock/Alex.sol\":95:192  function _msgSender() internal view virtual returns(address) {... */\n    tag_13:\n        /* \"contracts/oneblock/Alex.sol\":147:154  address */\n      0x00\n        /* \"contracts/oneblock/Alex.sol\":174:184  msg.sender */\n      caller\n        /* \"contracts/oneblock/Alex.sol\":167:184  return msg.sender */\n      swap1\n      pop\n        /* \"contracts/oneblock/Alex.sol\":95:192  function _msgSender() internal view virtual returns(address) {... */\n      swap1\n      jump\t// out\n        /* \"#utility.yul\":7:133   */\n    tag_20:\n        /* \"#utility.yul\":44:51   */\n      0x00\n        /* \"#utility.yul\":84:126   */\n      0xffffffffffffffffffffffffffffffffffffffff\n        /* \"#utility.yul\":77:82   */\n      dup3\n        /* \"#utility.yul\":73:127   */\n      and\n        /* \"#utility.yul\":62:127   */\n      swap1\n      pop\n        /* \"#utility.yul\":7:133   */\n      swap2\n      swap1\n      pop\n      jump\t// out\n        /* \"#utility.yul\":139:235   */\n    tag_21:\n        /* \"#utility.yul\":176:183   */\n      0x00\n        /* \"#utility.yul\":205:229   */\n      tag_29\n        /* \"#utility.yul\":223:228   */\n      dup3\n        /* \"#utility.yul\":205:229   */\n      tag_20\n      jump\t// in\n    tag_29:\n        /* \"#utility.yul\":194:229   */\n      swap1\n      pop\n        /* \"#utility.yul\":139:235   */\n      swap2\n      swap1\n      pop\n      jump\t// out\n        /* \"#utility.yul\":241:359   */\n    tag_22:\n        /* \"#utility.yul\":328:352   */\n      tag_31\n        /* \"#utility.yul\":346:351   */\n      dup2\n        /* \"#utility.yul\":328:352   */\n      tag_21\n      jump\t// in\n    tag_31:\n        /* \"#utility.yul\":323:326   */\n      dup3\n        /* \"#utility.yul\":316:353   */\n      mstore\n        /* \"#utility.yul\":241:359   */\n      pop\n      pop\n      jump\t// out\n        /* \"#utility.yul\":365:587   */\n    tag_10:\n        /* \"#utility.yul\":458:462   */\n      0x00\n        /* \"#utility.yul\":496:498   */\n      0x20\n        /* \"#utility.yul\":485:494   */\n      dup3\n        /* \"#utility.yul\":481:499   */\n      add\n        /* \"#utility.yul\":473:499   */\n      swap1\n      pop\n        /* \"#utility.yul\":509:580   */\n      tag_33\n        /* \"#utility.yul\":577:578   */\n      0x00\n        /* \"#utility.yul\":566:575   */\n      dup4\n        /* \"#utility.yul\":562:579   */\n      add\n        /* \"#utility.yul\":553:559   */\n      dup5\n        /* \"#utility.yul\":509:580   */\n      tag_22\n      jump\t// in\n    tag_33:\n        /* \"#utility.yul\":365:587   */\n      swap3\n      swap2\n      pop\n      pop\n      jump\t// out\n        /* \"#utility.yul\":593:762   */\n    tag_23:\n        /* \"#utility.yul\":677:688   */\n      0x00\n        /* \"#utility.yul\":711:717   */\n      dup3\n        /* \"#utility.yul\":706:709   */\n      dup3\n        /* \"#utility.yul\":699:718   */\n      mstore\n        /* \"#utility.yul\":751:755   */\n      0x20\n        /* \"#utility.yul\":746:749   */\n      dup3\n        /* \"#utility.yul\":742:756   */\n      add\n        /* \"#utility.yul\":727:756   */\n      swap1\n      pop\n        /* \"#utility.yul\":593:762   */\n      swap3\n      swap2\n      pop\n      pop\n      jump\t// out\n        /* \"#utility.yul\":768:944   */\n    tag_24:\n        /* \"#utility.yul\":908:936   */\n      0x4f776e61626c652063616c6c3a6d757374206973206f776e6572000000000000\n        /* \"#utility.yul\":904:905   */\n      0x00\n        /* \"#utility.yul\":896:902   */\n      dup3\n        /* \"#utility.yul\":892:906   */\n      add\n        /* \"#utility.yul\":885:937   */\n      mstore\n        /* \"#utility.yul\":768:944   */\n      pop\n      jump\t// out\n        /* \"#utility.yul\":950:1316   */\n    tag_25:\n        /* \"#utility.yul\":1092:1095   */\n      0x00\n        /* \"#utility.yul\":1113:1180   */\n      tag_37\n        /* \"#utility.yul\":1177:1179   */\n      0x1a\n        /* \"#utility.yul\":1172:1175   */\n      dup4\n        /* \"#utility.yul\":1113:1180   */\n      tag_23\n      jump\t// in\n    tag_37:\n        /* \"#utility.yul\":1106:1180   */\n      swap2\n      pop\n        /* \"#utility.yul\":1189:1282   */\n      tag_38\n        /* \"#utility.yul\":1278:1281   */\n      dup3\n        /* \"#utility.yul\":1189:1282   */\n      tag_24\n      jump\t// in\n    tag_38:\n        /* \"#utility.yul\":1307:1309   */\n      0x20\n        /* \"#utility.yul\":1302:1305   */\n      dup3\n        /* \"#utility.yul\":1298:1310   */\n      add\n        /* \"#utility.yul\":1291:1310   */\n      swap1\n      pop\n        /* \"#utility.yul\":950:1316   */\n      swap2\n      swap1\n      pop\n      jump\t// out\n        /* \"#utility.yul\":1322:1741   */\n    tag_16:\n        /* \"#utility.yul\":1488:1492   */\n      0x00\n        /* \"#utility.yul\":1526:1528   */\n      0x20\n        /* \"#utility.yul\":1515:1524   */\n      dup3\n        /* \"#utility.yul\":1511:1529   */\n      add\n        /* \"#utility.yul\":1503:1529   */\n      swap1\n      pop\n        /* \"#utility.yul\":1575:1584   */\n      dup2\n        /* \"#utility.yul\":1569:1573   */\n      dup2\n        /* \"#utility.yul\":1565:1585   */\n      sub\n        /* \"#utility.yul\":1561:1562   */\n      0x00\n        /* \"#utility.yul\":1550:1559   */\n      dup4\n        /* \"#utility.yul\":1546:1563   */\n      add\n        /* \"#utility.yul\":1539:1586   */\n      mstore\n        /* \"#utility.yul\":1603:1734   */\n      tag_40\n        /* \"#utility.yul\":1729:1733   */\n      dup2\n        /* \"#utility.yul\":1603:1734   */\n      tag_25\n      jump\t// in\n    tag_40:\n        /* \"#utility.yul\":1595:1734   */\n      swap1\n      pop\n        /* \"#utility.yul\":1322:1741   */\n      swap2\n      swap1\n      pop\n      jump\t// out\n\n    auxdata: 0xa2646970667358221220d394720f3f395014e0c458c363ad55e07d46ef90d0724b4e4416fa914dcfbe8c64736f6c634300081a0033\n}\n",
				"bytecode": {
					"linkReferences": {},
					"object": "6080604052348015600e575f80fd5b505f601c606260201b60201c565b9050805f806101000a81548173ffffffffffffffffffffffffffffffffffffffff021916908373ffffffffffffffffffffffffffffffffffffffff160217905550506069565b5f33905090565b6102c3806100765f395ff3fe608060405234801561000f575f80fd5b5060043610610034575f3560e01c8063715018a6146100385780638da5cb5b14610042575b5f80fd5b610040610060565b005b61004a61018f565b60405161005791906101fc565b60405180910390f35b6100686101b6565b73ffffffffffffffffffffffffffffffffffffffff163373ffffffffffffffffffffffffffffffffffffffff16146100d5576040517f08c379a00000000000000000000000000000000000000000000000000000000081526004016100cc9061026f565b60405180910390fd5b5f73ffffffffffffffffffffffffffffffffffffffff165f8054906101000a900473ffffffffffffffffffffffffffffffffffffffff1673ffffffffffffffffffffffffffffffffffffffff167f8be0079c531659141344cd1fd0a4f28419497f9722a3daafe3b4186f6b6457e060405160405180910390a35f805f6101000a81548173ffffffffffffffffffffffffffffffffffffffff021916908373ffffffffffffffffffffffffffffffffffffffff160217905550565b5f805f9054906101000a900473ffffffffffffffffffffffffffffffffffffffff16905090565b5f33905090565b5f73ffffffffffffffffffffffffffffffffffffffff82169050919050565b5f6101e6826101bd565b9050919050565b6101f6816101dc565b82525050565b5f60208201905061020f5f8301846101ed565b92915050565b5f82825260208201905092915050565b7f4f776e61626c652063616c6c3a6d757374206973206f776e65720000000000005f82015250565b5f610259601a83610215565b915061026482610225565b602082019050919050565b5f6020820190508181035f8301526102868161024d565b905091905056fea2646970667358221220d394720f3f395014e0c458c363ad55e07d46ef90d0724b4e4416fa914dcfbe8c64736f6c634300081a0033",
					"opcodes": "PUSH1 0x80 PUSH1 0x40 MSTORE CALLVALUE DUP1 ISZERO PUSH1 0xE JUMPI PUSH0 DUP1 REVERT JUMPDEST POP PUSH0 PUSH1 0x1C PUSH1 0x62 PUSH1 0x20 SHL PUSH1 0x20 SHR JUMP JUMPDEST SWAP1 POP DUP1 PUSH0 DUP1 PUSH2 0x100 EXP DUP2 SLOAD DUP2 PUSH20 0xFFFFFFFFFFFFFFFFFFFFFFFFFFFFFFFFFFFFFFFF MUL NOT AND SWAP1 DUP4 PUSH20 0xFFFFFFFFFFFFFFFFFFFFFFFFFFFFFFFFFFFFFFFF AND MUL OR SWAP1 SSTORE POP POP PUSH1 0x69 JUMP JUMPDEST PUSH0 CALLER SWAP1 POP SWAP1 JUMP JUMPDEST PUSH2 0x2C3 DUP1 PUSH2 0x76 PUSH0 CODECOPY PUSH0 RETURN INVALID PUSH1 0x80 PUSH1 0x40 MSTORE CALLVALUE DUP1 ISZERO PUSH2 0xF JUMPI PUSH0 DUP1 REVERT JUMPDEST POP PUSH1 0x4 CALLDATASIZE LT PUSH2 0x34 JUMPI PUSH0 CALLDATALOAD PUSH1 0xE0 SHR DUP1 PUSH4 0x715018A6 EQ PUSH2 0x38 JUMPI DUP1 PUSH4 0x8DA5CB5B EQ PUSH2 0x42 JUMPI JUMPDEST PUSH0 DUP1 REVERT JUMPDEST PUSH2 0x40 PUSH2 0x60 JUMP JUMPDEST STOP JUMPDEST PUSH2 0x4A PUSH2 0x18F JUMP JUMPDEST PUSH1 0x40 MLOAD PUSH2 0x57 SWAP2 SWAP1 PUSH2 0x1FC JUMP JUMPDEST PUSH1 0x40 MLOAD DUP1 SWAP2 SUB SWAP1 RETURN JUMPDEST PUSH2 0x68 PUSH2 0x1B6 JUMP JUMPDEST PUSH20 0xFFFFFFFFFFFFFFFFFFFFFFFFFFFFFFFFFFFFFFFF AND CALLER PUSH20 0xFFFFFFFFFFFFFFFFFFFFFFFFFFFFFFFFFFFFFFFF AND EQ PUSH2 0xD5 JUMPI PUSH1 0x40 MLOAD PUSH32 0x8C379A000000000000000000000000000000000000000000000000000000000 DUP2 MSTORE PUSH1 0x4 ADD PUSH2 0xCC SWAP1 PUSH2 0x26F JUMP JUMPDEST PUSH1 0x40 MLOAD DUP1 SWAP2 SUB SWAP1 REVERT JUMPDEST PUSH0 PUSH20 0xFFFFFFFFFFFFFFFFFFFFFFFFFFFFFFFFFFFFFFFF AND PUSH0 DUP1 SLOAD SWAP1 PUSH2 0x100 EXP SWAP1 DIV PUSH20 0xFFFFFFFFFFFFFFFFFFFFFFFFFFFFFFFFFFFFFFFF AND PUSH20 0xFFFFFFFFFFFFFFFFFFFFFFFFFFFFFFFFFFFFFFFF AND PUSH32 0x8BE0079C531659141344CD1FD0A4F28419497F9722A3DAAFE3B4186F6B6457E0 PUSH1 0x40 MLOAD PUSH1 0x40 MLOAD DUP1 SWAP2 SUB SWAP1 LOG3 PUSH0 DUP1 PUSH0 PUSH2 0x100 EXP DUP2 SLOAD DUP2 PUSH20 0xFFFFFFFFFFFFFFFFFFFFFFFFFFFFFFFFFFFFFFFF MUL NOT AND SWAP1 DUP4 PUSH20 0xFFFFFFFFFFFFFFFFFFFFFFFFFFFFFFFFFFFFFFFF AND MUL OR SWAP1 SSTORE POP JUMP JUMPDEST PUSH0 DUP1 PUSH0 SWAP1 SLOAD SWAP1 PUSH2 0x100 EXP SWAP1 DIV PUSH20 0xFFFFFFFFFFFFFFFFFFFFFFFFFFFFFFFFFFFFFFFF AND SWAP1 POP SWAP1 JUMP JUMPDEST PUSH0 CALLER SWAP1 POP SWAP1 JUMP JUMPDEST PUSH0 PUSH20 0xFFFFFFFFFFFFFFFFFFFFFFFFFFFFFFFFFFFFFFFF DUP3 AND SWAP1 POP SWAP2 SWAP1 POP JUMP JUMPDEST PUSH0 PUSH2 0x1E6 DUP3 PUSH2 0x1BD JUMP JUMPDEST SWAP1 POP SWAP2 SWAP1 POP JUMP JUMPDEST PUSH2 0x1F6 DUP2 PUSH2 0x1DC JUMP JUMPDEST DUP3 MSTORE POP POP JUMP JUMPDEST PUSH0 PUSH1 0x20 DUP3 ADD SWAP1 POP PUSH2 0x20F PUSH0 DUP4 ADD DUP5 PUSH2 0x1ED JUMP JUMPDEST SWAP3 SWAP2 POP POP JUMP JUMPDEST PUSH0 DUP3 DUP3 MSTORE PUSH1 0x20 DUP3 ADD SWAP1 POP SWAP3 SWAP2 POP POP JUMP JUMPDEST PUSH32 0x4F776E61626C652063616C6C3A6D757374206973206F776E6572000000000000 PUSH0 DUP3 ADD MSTORE POP JUMP JUMPDEST PUSH0 PUSH2 0x259 PUSH1 0x1A DUP4 PUSH2 0x215 JUMP JUMPDEST SWAP2 POP PUSH2 0x264 DUP3 PUSH2 0x225 JUMP JUMPDEST PUSH1 0x20 DUP3 ADD SWAP1 POP SWAP2 SWAP1 POP JUMP JUMPDEST PUSH0 PUSH1 0x20 DUP3 ADD SWAP1 POP DUP2 DUP2 SUB PUSH0 DUP4 ADD MSTORE PUSH2 0x286 DUP2 PUSH2 0x24D JUMP JUMPDEST SWAP1 POP SWAP2 SWAP1 POP JUMP INVALID LOG2 PUSH5 0x6970667358 0x22 SLT KECCAK256 0xD3 SWAP5 PUSH19 0xF3F395014E0C458C363AD55E07D46EF90D072 0x4B 0x4E PREVRANDAO AND STATICCALL SWAP2 0x4D 0xCF 0xBE DUP13 PUSH5 0x736F6C6343 STOP ADDMOD BYTE STOP CALLER "
				},
				"gasEstimates": {
					"creation": {
						"codeDepositCost": "141400",
						"executionCost": "infinite",
						"totalCost": "infinite"
					},
					"external": {
						"owner()": "2515",
						"renounceOwnership()": "28129"
					}
				},
				"methodIdentifiers": {
					"owner()": "8da5cb5b",
					"renounceOwnership()": "715018a6"
				}
			},
			"storageLayout": {
				"storage": [
					{
						"astId": 161,
						"contract": "contracts/oneblock/Alex.sol:Ownable",
						"label": "_owner",
						"offset": 0,
						"slot": "0",
						"type": "t_address"
					}
				],
				"types": {
					"t_address": {
						"encoding": "inplace",
						"label": "address",
						"numberOfBytes": "20"
					}
				}
			},
			"userdoc": {
				"kind": "user",
				"methods": {},
				"version": 1
			}
		}
	}
}