{
	"contracts/Signer/Signer.sol": {
		"Signer": {
			"abi": [
				{
					"inputs": [
						{
							"internalType": "address",
							"name": "_address",
							"type": "address"
						},
						{
							"internalType": "uint256",
							"name": "_tokenId",
							"type": "uint256"
						}
					],
					"name": "getMessageHash",
					"outputs": [
						{
							"internalType": "bytes32",
							"name": "",
							"type": "bytes32"
						}
					],
					"stateMutability": "pure",
					"type": "function"
				},
				{
					"inputs": [
						{
							"internalType": "bytes32",
							"name": "_hash",
							"type": "bytes32"
						}
					],
					"name": "toEthSignedMessageHash",
					"outputs": [
						{
							"internalType": "bytes32",
							"name": "",
							"type": "bytes32"
						}
					],
					"stateMutability": "pure",
					"type": "function"
				}
			],
			"devdoc": {
				"kind": "dev",
				"methods": {
					"toEthSignedMessageHash(bytes32)": {
						"details": "返回 以太坊签名消息 `hash`：消息 遵从以太坊签名标准：https://eth.wiki/json-rpc/API#eth_sign[`eth_sign`] 以及`EIP191`:https://eips.ethereum.org/EIPS/eip-191` 添加\"\\x19Ethereum Signed Message:\\n32\"字段，防止签名的是可执行交易。"
					}
				},
				"version": 1
			},
			"evm": {
				"assembly": "    /* \"contracts/Signer/Signer.sol\":58:2550  contract Signer {... */\n  mstore(0x40, 0x80)\n  callvalue\n  dup1\n  iszero\n  tag_1\n  jumpi\n  0x00\n  dup1\n  revert\ntag_1:\n  pop\n  dataSize(sub_0)\n  dup1\n  dataOffset(sub_0)\n  0x00\n  codecopy\n  0x00\n  return\nstop\n\nsub_0: assembly {\n        /* \"contracts/Signer/Signer.sol\":58:2550  contract Signer {... */\n      mstore(0x40, 0x80)\n      callvalue\n      dup1\n      iszero\n      tag_1\n      jumpi\n      0x00\n      dup1\n      revert\n    tag_1:\n      pop\n      jumpi(tag_2, lt(calldatasize, 0x04))\n      shr(0xe0, calldataload(0x00))\n      dup1\n      0x512c91df\n      eq\n      tag_3\n      jumpi\n      dup1\n      0x918a15cf\n      eq\n      tag_4\n      jumpi\n    tag_2:\n      0x00\n      dup1\n      revert\n        /* \"contracts/Signer/Signer.sol\":360:522  function  getMessageHash(address _address, uint256 _tokenId) public pure returns (bytes32) {... */\n    tag_3:\n      tag_5\n      0x04\n      dup1\n      calldatasize\n      sub\n      dup2\n      add\n      swap1\n      tag_6\n      swap2\n      swap1\n      tag_7\n      jump\t// in\n    tag_6:\n      tag_8\n      jump\t// in\n    tag_5:\n      mload(0x40)\n      tag_9\n      swap2\n      swap1\n      tag_10\n      jump\t// in\n    tag_9:\n      mload(0x40)\n      dup1\n      swap2\n      sub\n      swap1\n      return\n        /* \"contracts/Signer/Signer.sol\":847:1018  function toEthSignedMessageHash(bytes32 _hash) public pure returns (bytes32) {... */\n    tag_4:\n      tag_11\n      0x04\n      dup1\n      calldatasize\n      sub\n      dup2\n      add\n      swap1\n      tag_12\n      swap2\n      swap1\n      tag_13\n      jump\t// in\n    tag_12:\n      tag_14\n      jump\t// in\n    tag_11:\n      mload(0x40)\n      tag_15\n      swap2\n      swap1\n      tag_10\n      jump\t// in\n    tag_15:\n      mload(0x40)\n      dup1\n      swap2\n      sub\n      swap1\n      return\n        /* \"contracts/Signer/Signer.sol\":360:522  function  getMessageHash(address _address, uint256 _tokenId) public pure returns (bytes32) {... */\n    tag_8:\n        /* \"contracts/Signer/Signer.sol\":442:449  bytes32 */\n      0x00\n        /* \"contracts/Signer/Signer.sol\":495:503  _address */\n      dup3\n        /* \"contracts/Signer/Signer.sol\":505:513  _tokenId */\n      dup3\n        /* \"contracts/Signer/Signer.sol\":478:514  abi.encodePacked(_address, _tokenId) */\n      add(0x20, mload(0x40))\n      tag_17\n      swap3\n      swap2\n      swap1\n      tag_18\n      jump\t// in\n    tag_17:\n      mload(0x40)\n      0x20\n      dup2\n      dup4\n      sub\n      sub\n      dup2\n      mstore\n      swap1\n      0x40\n      mstore\n        /* \"contracts/Signer/Signer.sol\":468:515  keccak256(abi.encodePacked(_address, _tokenId)) */\n      dup1\n      mload\n      swap1\n      0x20\n      add\n      keccak256\n        /* \"contracts/Signer/Signer.sol\":461:515  return keccak256(abi.encodePacked(_address, _tokenId)) */\n      swap1\n      pop\n        /* \"contracts/Signer/Signer.sol\":360:522  function  getMessageHash(address _address, uint256 _tokenId) public pure returns (bytes32) {... */\n      swap3\n      swap2\n      pop\n      pop\n      jump\t// out\n        /* \"contracts/Signer/Signer.sol\":847:1018  function toEthSignedMessageHash(bytes32 _hash) public pure returns (bytes32) {... */\n    tag_14:\n        /* \"contracts/Signer/Signer.sol\":915:922  bytes32 */\n      0x00\n        /* \"contracts/Signer/Signer.sol\":1004:1009  _hash */\n      dup2\n        /* \"contracts/Signer/Signer.sol\":951:1010  abi.encodePacked(\"\\x19Ethereum Signed Message:\\n32\", _hash) */\n      add(0x20, mload(0x40))\n      tag_20\n      swap2\n      swap1\n      tag_21\n      jump\t// in\n    tag_20:\n      mload(0x40)\n      0x20\n      dup2\n      dup4\n      sub\n      sub\n      dup2\n      mstore\n      swap1\n      0x40\n      mstore\n        /* \"contracts/Signer/Signer.sol\":941:1011  keccak256(abi.encodePacked(\"\\x19Ethereum Signed Message:\\n32\", _hash)) */\n      dup1\n      mload\n      swap1\n      0x20\n      add\n      keccak256\n        /* \"contracts/Signer/Signer.sol\":934:1011  return keccak256(abi.encodePacked(\"\\x19Ethereum Signed Message:\\n32\", _hash)) */\n      swap1\n      pop\n        /* \"contracts/Signer/Signer.sol\":847:1018  function toEthSignedMessageHash(bytes32 _hash) public pure returns (bytes32) {... */\n      swap2\n      swap1\n      pop\n      jump\t// out\n        /* \"#utility.yul\":88:205   */\n    tag_23:\n        /* \"#utility.yul\":197:198   */\n      0x00\n        /* \"#utility.yul\":194:195   */\n      dup1\n        /* \"#utility.yul\":187:199   */\n      revert\n        /* \"#utility.yul\":334:460   */\n    tag_25:\n        /* \"#utility.yul\":371:378   */\n      0x00\n        /* \"#utility.yul\":411:453   */\n      0xffffffffffffffffffffffffffffffffffffffff\n        /* \"#utility.yul\":404:409   */\n      dup3\n        /* \"#utility.yul\":400:454   */\n      and\n        /* \"#utility.yul\":389:454   */\n      swap1\n      pop\n        /* \"#utility.yul\":334:460   */\n      swap2\n      swap1\n      pop\n      jump\t// out\n        /* \"#utility.yul\":466:562   */\n    tag_26:\n        /* \"#utility.yul\":503:510   */\n      0x00\n        /* \"#utility.yul\":532:556   */\n      tag_53\n        /* \"#utility.yul\":550:555   */\n      dup3\n        /* \"#utility.yul\":532:556   */\n      tag_25\n      jump\t// in\n    tag_53:\n        /* \"#utility.yul\":521:556   */\n      swap1\n      pop\n        /* \"#utility.yul\":466:562   */\n      swap2\n      swap1\n      pop\n      jump\t// out\n        /* \"#utility.yul\":568:690   */\n    tag_27:\n        /* \"#utility.yul\":641:665   */\n      tag_55\n        /* \"#utility.yul\":659:664   */\n      dup2\n        /* \"#utility.yul\":641:665   */\n      tag_26\n      jump\t// in\n    tag_55:\n        /* \"#utility.yul\":634:639   */\n      dup2\n        /* \"#utility.yul\":631:666   */\n      eq\n        /* \"#utility.yul\":621:684   */\n      tag_56\n      jumpi\n        /* \"#utility.yul\":680:681   */\n      0x00\n        /* \"#utility.yul\":677:678   */\n      dup1\n        /* \"#utility.yul\":670:682   */\n      revert\n        /* \"#utility.yul\":621:684   */\n    tag_56:\n        /* \"#utility.yul\":568:690   */\n      pop\n      jump\t// out\n        /* \"#utility.yul\":696:835   */\n    tag_28:\n        /* \"#utility.yul\":742:747   */\n      0x00\n        /* \"#utility.yul\":780:786   */\n      dup2\n        /* \"#utility.yul\":767:787   */\n      calldataload\n        /* \"#utility.yul\":758:787   */\n      swap1\n      pop\n        /* \"#utility.yul\":796:829   */\n      tag_58\n        /* \"#utility.yul\":823:828   */\n      dup2\n        /* \"#utility.yul\":796:829   */\n      tag_27\n      jump\t// in\n    tag_58:\n        /* \"#utility.yul\":696:835   */\n      swap3\n      swap2\n      pop\n      pop\n      jump\t// out\n        /* \"#utility.yul\":841:918   */\n    tag_29:\n        /* \"#utility.yul\":878:885   */\n      0x00\n        /* \"#utility.yul\":907:912   */\n      dup2\n        /* \"#utility.yul\":896:912   */\n      swap1\n      pop\n        /* \"#utility.yul\":841:918   */\n      swap2\n      swap1\n      pop\n      jump\t// out\n        /* \"#utility.yul\":924:1046   */\n    tag_30:\n        /* \"#utility.yul\":997:1021   */\n      tag_61\n        /* \"#utility.yul\":1015:1020   */\n      dup2\n        /* \"#utility.yul\":997:1021   */\n      tag_29\n      jump\t// in\n    tag_61:\n        /* \"#utility.yul\":990:995   */\n      dup2\n        /* \"#utility.yul\":987:1022   */\n      eq\n        /* \"#utility.yul\":977:1040   */\n      tag_62\n      jumpi\n        /* \"#utility.yul\":1036:1037   */\n      0x00\n        /* \"#utility.yul\":1033:1034   */\n      dup1\n        /* \"#utility.yul\":1026:1038   */\n      revert\n        /* \"#utility.yul\":977:1040   */\n    tag_62:\n        /* \"#utility.yul\":924:1046   */\n      pop\n      jump\t// out\n        /* \"#utility.yul\":1052:1191   */\n    tag_31:\n        /* \"#utility.yul\":1098:1103   */\n      0x00\n        /* \"#utility.yul\":1136:1142   */\n      dup2\n        /* \"#utility.yul\":1123:1143   */\n      calldataload\n        /* \"#utility.yul\":1114:1143   */\n      swap1\n      pop\n        /* \"#utility.yul\":1152:1185   */\n      tag_64\n        /* \"#utility.yul\":1179:1184   */\n      dup2\n        /* \"#utility.yul\":1152:1185   */\n      tag_30\n      jump\t// in\n    tag_64:\n        /* \"#utility.yul\":1052:1191   */\n      swap3\n      swap2\n      pop\n      pop\n      jump\t// out\n        /* \"#utility.yul\":1197:1671   */\n    tag_7:\n        /* \"#utility.yul\":1265:1271   */\n      0x00\n        /* \"#utility.yul\":1273:1279   */\n      dup1\n        /* \"#utility.yul\":1322:1324   */\n      0x40\n        /* \"#utility.yul\":1310:1319   */\n      dup4\n        /* \"#utility.yul\":1301:1308   */\n      dup6\n        /* \"#utility.yul\":1297:1320   */\n      sub\n        /* \"#utility.yul\":1293:1325   */\n      slt\n        /* \"#utility.yul\":1290:1409   */\n      iszero\n      tag_66\n      jumpi\n        /* \"#utility.yul\":1328:1407   */\n      tag_67\n      tag_23\n      jump\t// in\n    tag_67:\n        /* \"#utility.yul\":1290:1409   */\n    tag_66:\n        /* \"#utility.yul\":1448:1449   */\n      0x00\n        /* \"#utility.yul\":1473:1526   */\n      tag_68\n        /* \"#utility.yul\":1518:1525   */\n      dup6\n        /* \"#utility.yul\":1509:1515   */\n      dup3\n        /* \"#utility.yul\":1498:1507   */\n      dup7\n        /* \"#utility.yul\":1494:1516   */\n      add\n        /* \"#utility.yul\":1473:1526   */\n      tag_28\n      jump\t// in\n    tag_68:\n        /* \"#utility.yul\":1463:1526   */\n      swap3\n      pop\n        /* \"#utility.yul\":1419:1536   */\n      pop\n        /* \"#utility.yul\":1575:1577   */\n      0x20\n        /* \"#utility.yul\":1601:1654   */\n      tag_69\n        /* \"#utility.yul\":1646:1653   */\n      dup6\n        /* \"#utility.yul\":1637:1643   */\n      dup3\n        /* \"#utility.yul\":1626:1635   */\n      dup7\n        /* \"#utility.yul\":1622:1644   */\n      add\n        /* \"#utility.yul\":1601:1654   */\n      tag_31\n      jump\t// in\n    tag_69:\n        /* \"#utility.yul\":1591:1654   */\n      swap2\n      pop\n        /* \"#utility.yul\":1546:1664   */\n      pop\n        /* \"#utility.yul\":1197:1671   */\n      swap3\n      pop\n      swap3\n      swap1\n      pop\n      jump\t// out\n        /* \"#utility.yul\":1677:1754   */\n    tag_32:\n        /* \"#utility.yul\":1714:1721   */\n      0x00\n        /* \"#utility.yul\":1743:1748   */\n      dup2\n        /* \"#utility.yul\":1732:1748   */\n      swap1\n      pop\n        /* \"#utility.yul\":1677:1754   */\n      swap2\n      swap1\n      pop\n      jump\t// out\n        /* \"#utility.yul\":1760:1878   */\n    tag_33:\n        /* \"#utility.yul\":1847:1871   */\n      tag_72\n        /* \"#utility.yul\":1865:1870   */\n      dup2\n        /* \"#utility.yul\":1847:1871   */\n      tag_32\n      jump\t// in\n    tag_72:\n        /* \"#utility.yul\":1842:1845   */\n      dup3\n        /* \"#utility.yul\":1835:1872   */\n      mstore\n        /* \"#utility.yul\":1760:1878   */\n      pop\n      pop\n      jump\t// out\n        /* \"#utility.yul\":1884:2106   */\n    tag_10:\n        /* \"#utility.yul\":1977:1981   */\n      0x00\n        /* \"#utility.yul\":2015:2017   */\n      0x20\n        /* \"#utility.yul\":2004:2013   */\n      dup3\n        /* \"#utility.yul\":2000:2018   */\n      add\n        /* \"#utility.yul\":1992:2018   */\n      swap1\n      pop\n        /* \"#utility.yul\":2028:2099   */\n      tag_74\n        /* \"#utility.yul\":2096:2097   */\n      0x00\n        /* \"#utility.yul\":2085:2094   */\n      dup4\n        /* \"#utility.yul\":2081:2098   */\n      add\n        /* \"#utility.yul\":2072:2078   */\n      dup5\n        /* \"#utility.yul\":2028:2099   */\n      tag_33\n      jump\t// in\n    tag_74:\n        /* \"#utility.yul\":1884:2106   */\n      swap3\n      swap2\n      pop\n      pop\n      jump\t// out\n        /* \"#utility.yul\":2112:2234   */\n    tag_34:\n        /* \"#utility.yul\":2185:2209   */\n      tag_76\n        /* \"#utility.yul\":2203:2208   */\n      dup2\n        /* \"#utility.yul\":2185:2209   */\n      tag_32\n      jump\t// in\n    tag_76:\n        /* \"#utility.yul\":2178:2183   */\n      dup2\n        /* \"#utility.yul\":2175:2210   */\n      eq\n        /* \"#utility.yul\":2165:2228   */\n      tag_77\n      jumpi\n        /* \"#utility.yul\":2224:2225   */\n      0x00\n        /* \"#utility.yul\":2221:2222   */\n      dup1\n        /* \"#utility.yul\":2214:2226   */\n      revert\n        /* \"#utility.yul\":2165:2228   */\n    tag_77:\n        /* \"#utility.yul\":2112:2234   */\n      pop\n      jump\t// out\n        /* \"#utility.yul\":2240:2379   */\n    tag_35:\n        /* \"#utility.yul\":2286:2291   */\n      0x00\n        /* \"#utility.yul\":2324:2330   */\n      dup2\n        /* \"#utility.yul\":2311:2331   */\n      calldataload\n        /* \"#utility.yul\":2302:2331   */\n      swap1\n      pop\n        /* \"#utility.yul\":2340:2373   */\n      tag_79\n        /* \"#utility.yul\":2367:2372   */\n      dup2\n        /* \"#utility.yul\":2340:2373   */\n      tag_34\n      jump\t// in\n    tag_79:\n        /* \"#utility.yul\":2240:2379   */\n      swap3\n      swap2\n      pop\n      pop\n      jump\t// out\n        /* \"#utility.yul\":2385:2714   */\n    tag_13:\n        /* \"#utility.yul\":2444:2450   */\n      0x00\n        /* \"#utility.yul\":2493:2495   */\n      0x20\n        /* \"#utility.yul\":2481:2490   */\n      dup3\n        /* \"#utility.yul\":2472:2479   */\n      dup5\n        /* \"#utility.yul\":2468:2491   */\n      sub\n        /* \"#utility.yul\":2464:2496   */\n      slt\n        /* \"#utility.yul\":2461:2580   */\n      iszero\n      tag_81\n      jumpi\n        /* \"#utility.yul\":2499:2578   */\n      tag_82\n      tag_23\n      jump\t// in\n    tag_82:\n        /* \"#utility.yul\":2461:2580   */\n    tag_81:\n        /* \"#utility.yul\":2619:2620   */\n      0x00\n        /* \"#utility.yul\":2644:2697   */\n      tag_83\n        /* \"#utility.yul\":2689:2696   */\n      dup5\n        /* \"#utility.yul\":2680:2686   */\n      dup3\n        /* \"#utility.yul\":2669:2678   */\n      dup6\n        /* \"#utility.yul\":2665:2687   */\n      add\n        /* \"#utility.yul\":2644:2697   */\n      tag_35\n      jump\t// in\n    tag_83:\n        /* \"#utility.yul\":2634:2697   */\n      swap2\n      pop\n        /* \"#utility.yul\":2590:2707   */\n      pop\n        /* \"#utility.yul\":2385:2714   */\n      swap3\n      swap2\n      pop\n      pop\n      jump\t// out\n        /* \"#utility.yul\":2720:2814   */\n    tag_36:\n        /* \"#utility.yul\":2753:2761   */\n      0x00\n        /* \"#utility.yul\":2801:2806   */\n      dup2\n        /* \"#utility.yul\":2797:2799   */\n      0x60\n        /* \"#utility.yul\":2793:2807   */\n      shl\n        /* \"#utility.yul\":2772:2807   */\n      swap1\n      pop\n        /* \"#utility.yul\":2720:2814   */\n      swap2\n      swap1\n      pop\n      jump\t// out\n        /* \"#utility.yul\":2820:2914   */\n    tag_37:\n        /* \"#utility.yul\":2859:2866   */\n      0x00\n        /* \"#utility.yul\":2888:2908   */\n      tag_86\n        /* \"#utility.yul\":2902:2907   */\n      dup3\n        /* \"#utility.yul\":2888:2908   */\n      tag_36\n      jump\t// in\n    tag_86:\n        /* \"#utility.yul\":2877:2908   */\n      swap1\n      pop\n        /* \"#utility.yul\":2820:2914   */\n      swap2\n      swap1\n      pop\n      jump\t// out\n        /* \"#utility.yul\":2920:3020   */\n    tag_38:\n        /* \"#utility.yul\":2959:2966   */\n      0x00\n        /* \"#utility.yul\":2988:3014   */\n      tag_88\n        /* \"#utility.yul\":3008:3013   */\n      dup3\n        /* \"#utility.yul\":2988:3014   */\n      tag_37\n      jump\t// in\n    tag_88:\n        /* \"#utility.yul\":2977:3014   */\n      swap1\n      pop\n        /* \"#utility.yul\":2920:3020   */\n      swap2\n      swap1\n      pop\n      jump\t// out\n        /* \"#utility.yul\":3026:3183   */\n    tag_39:\n        /* \"#utility.yul\":3131:3176   */\n      tag_90\n        /* \"#utility.yul\":3151:3175   */\n      tag_91\n        /* \"#utility.yul\":3169:3174   */\n      dup3\n        /* \"#utility.yul\":3151:3175   */\n      tag_26\n      jump\t// in\n    tag_91:\n        /* \"#utility.yul\":3131:3176   */\n      tag_38\n      jump\t// in\n    tag_90:\n        /* \"#utility.yul\":3126:3129   */\n      dup3\n        /* \"#utility.yul\":3119:3177   */\n      mstore\n        /* \"#utility.yul\":3026:3183   */\n      pop\n      pop\n      jump\t// out\n        /* \"#utility.yul\":3189:3268   */\n    tag_40:\n        /* \"#utility.yul\":3228:3235   */\n      0x00\n        /* \"#utility.yul\":3257:3262   */\n      dup2\n        /* \"#utility.yul\":3246:3262   */\n      swap1\n      pop\n        /* \"#utility.yul\":3189:3268   */\n      swap2\n      swap1\n      pop\n      jump\t// out\n        /* \"#utility.yul\":3274:3431   */\n    tag_41:\n        /* \"#utility.yul\":3379:3424   */\n      tag_94\n        /* \"#utility.yul\":3399:3423   */\n      tag_95\n        /* \"#utility.yul\":3417:3422   */\n      dup3\n        /* \"#utility.yul\":3399:3423   */\n      tag_29\n      jump\t// in\n    tag_95:\n        /* \"#utility.yul\":3379:3424   */\n      tag_40\n      jump\t// in\n    tag_94:\n        /* \"#utility.yul\":3374:3377   */\n      dup3\n        /* \"#utility.yul\":3367:3425   */\n      mstore\n        /* \"#utility.yul\":3274:3431   */\n      pop\n      pop\n      jump\t// out\n        /* \"#utility.yul\":3437:3834   */\n    tag_18:\n        /* \"#utility.yul\":3577:3580   */\n      0x00\n        /* \"#utility.yul\":3592:3667   */\n      tag_97\n        /* \"#utility.yul\":3663:3666   */\n      dup3\n        /* \"#utility.yul\":3654:3660   */\n      dup6\n        /* \"#utility.yul\":3592:3667   */\n      tag_39\n      jump\t// in\n    tag_97:\n        /* \"#utility.yul\":3692:3694   */\n      0x14\n        /* \"#utility.yul\":3687:3690   */\n      dup3\n        /* \"#utility.yul\":3683:3695   */\n      add\n        /* \"#utility.yul\":3676:3695   */\n      swap2\n      pop\n        /* \"#utility.yul\":3705:3780   */\n      tag_98\n        /* \"#utility.yul\":3776:3779   */\n      dup3\n        /* \"#utility.yul\":3767:3773   */\n      dup5\n        /* \"#utility.yul\":3705:3780   */\n      tag_41\n      jump\t// in\n    tag_98:\n        /* \"#utility.yul\":3805:3807   */\n      0x20\n        /* \"#utility.yul\":3800:3803   */\n      dup3\n        /* \"#utility.yul\":3796:3808   */\n      add\n        /* \"#utility.yul\":3789:3808   */\n      swap2\n      pop\n        /* \"#utility.yul\":3825:3828   */\n      dup2\n        /* \"#utility.yul\":3818:3828   */\n      swap1\n      pop\n        /* \"#utility.yul\":3437:3834   */\n      swap4\n      swap3\n      pop\n      pop\n      pop\n      jump\t// out\n        /* \"#utility.yul\":3840:3988   */\n    tag_42:\n        /* \"#utility.yul\":3942:3953   */\n      0x00\n        /* \"#utility.yul\":3979:3982   */\n      dup2\n        /* \"#utility.yul\":3964:3982   */\n      swap1\n      pop\n        /* \"#utility.yul\":3840:3988   */\n      swap3\n      swap2\n      pop\n      pop\n      jump\t// out\n        /* \"#utility.yul\":3994:4208   */\n    tag_43:\n        /* \"#utility.yul\":4134:4200   */\n      0x19457468657265756d205369676e6564204d6573736167653a0a333200000000\n        /* \"#utility.yul\":4130:4131   */\n      0x00\n        /* \"#utility.yul\":4122:4128   */\n      dup3\n        /* \"#utility.yul\":4118:4132   */\n      add\n        /* \"#utility.yul\":4111:4201   */\n      mstore\n        /* \"#utility.yul\":3994:4208   */\n      pop\n      jump\t// out\n        /* \"#utility.yul\":4214:4616   */\n    tag_44:\n        /* \"#utility.yul\":4374:4377   */\n      0x00\n        /* \"#utility.yul\":4395:4480   */\n      tag_102\n        /* \"#utility.yul\":4477:4479   */\n      0x1c\n        /* \"#utility.yul\":4472:4475   */\n      dup4\n        /* \"#utility.yul\":4395:4480   */\n      tag_42\n      jump\t// in\n    tag_102:\n        /* \"#utility.yul\":4388:4480   */\n      swap2\n      pop\n        /* \"#utility.yul\":4489:4582   */\n      tag_103\n        /* \"#utility.yul\":4578:4581   */\n      dup3\n        /* \"#utility.yul\":4489:4582   */\n      tag_43\n      jump\t// in\n    tag_103:\n        /* \"#utility.yul\":4607:4609   */\n      0x1c\n        /* \"#utility.yul\":4602:4605   */\n      dup3\n        /* \"#utility.yul\":4598:4610   */\n      add\n        /* \"#utility.yul\":4591:4610   */\n      swap1\n      pop\n        /* \"#utility.yul\":4214:4616   */\n      swap2\n      swap1\n      pop\n      jump\t// out\n        /* \"#utility.yul\":4622:4701   */\n    tag_45:\n        /* \"#utility.yul\":4661:4668   */\n      0x00\n        /* \"#utility.yul\":4690:4695   */\n      dup2\n        /* \"#utility.yul\":4679:4695   */\n      swap1\n      pop\n        /* \"#utility.yul\":4622:4701   */\n      swap2\n      swap1\n      pop\n      jump\t// out\n        /* \"#utility.yul\":4707:4864   */\n    tag_46:\n        /* \"#utility.yul\":4812:4857   */\n      tag_106\n        /* \"#utility.yul\":4832:4856   */\n      tag_107\n        /* \"#utility.yul\":4850:4855   */\n      dup3\n        /* \"#utility.yul\":4832:4856   */\n      tag_32\n      jump\t// in\n    tag_107:\n        /* \"#utility.yul\":4812:4857   */\n      tag_45\n      jump\t// in\n    tag_106:\n        /* \"#utility.yul\":4807:4810   */\n      dup3\n        /* \"#utility.yul\":4800:4858   */\n      mstore\n        /* \"#utility.yul\":4707:4864   */\n      pop\n      pop\n      jump\t// out\n        /* \"#utility.yul\":4870:5392   */\n    tag_21:\n        /* \"#utility.yul\":5083:5086   */\n      0x00\n        /* \"#utility.yul\":5105:5253   */\n      tag_109\n        /* \"#utility.yul\":5249:5252   */\n      dup3\n        /* \"#utility.yul\":5105:5253   */\n      tag_44\n      jump\t// in\n    tag_109:\n        /* \"#utility.yul\":5098:5253   */\n      swap2\n      pop\n        /* \"#utility.yul\":5263:5338   */\n      tag_110\n        /* \"#utility.yul\":5334:5337   */\n      dup3\n        /* \"#utility.yul\":5325:5331   */\n      dup5\n        /* \"#utility.yul\":5263:5338   */\n      tag_46\n      jump\t// in\n    tag_110:\n        /* \"#utility.yul\":5363:5365   */\n      0x20\n        /* \"#utility.yul\":5358:5361   */\n      dup3\n        /* \"#utility.yul\":5354:5366   */\n      add\n        /* \"#utility.yul\":5347:5366   */\n      swap2\n      pop\n        /* \"#utility.yul\":5383:5386   */\n      dup2\n        /* \"#utility.yul\":5376:5386   */\n      swap1\n      pop\n        /* \"#utility.yul\":4870:5392   */\n      swap3\n      swap2\n      pop\n      pop\n      jump\t// out\n\n    auxdata: 0xa264697066735822122085fa05647150b1171106dfc8fd333255beb0b082c2d09174083dcc57c51515c064736f6c634300081a0033\n}\n",
				"bytecode": {
					"linkReferences": {},
					"object": "6080604052348015600e575f80fd5b506103ad8061001c5f395ff3fe608060405234801561000f575f80fd5b5060043610610034575f3560e01c8063512c91df14610038578063918a15cf14610068575b5f80fd5b610052600480360381019061004d919061018a565b610098565b60405161005f91906101e0565b60405180910390f35b610082600480360381019061007d9190610223565b6100ca565b60405161008f91906101e0565b60405180910390f35b5f82826040516020016100ac9291906102b3565b60405160208183030381529060405280519060200120905092915050565b5f816040516020016100dc9190610352565b604051602081830303815290604052805190602001209050919050565b5f80fd5b5f73ffffffffffffffffffffffffffffffffffffffff82169050919050565b5f610126826100fd565b9050919050565b6101368161011c565b8114610140575f80fd5b50565b5f813590506101518161012d565b92915050565b5f819050919050565b61016981610157565b8114610173575f80fd5b50565b5f8135905061018481610160565b92915050565b5f80604083850312156101a05761019f6100f9565b5b5f6101ad85828601610143565b92505060206101be85828601610176565b9150509250929050565b5f819050919050565b6101da816101c8565b82525050565b5f6020820190506101f35f8301846101d1565b92915050565b610202816101c8565b811461020c575f80fd5b50565b5f8135905061021d816101f9565b92915050565b5f60208284031215610238576102376100f9565b5b5f6102458482850161020f565b91505092915050565b5f8160601b9050919050565b5f6102648261024e565b9050919050565b5f6102758261025a565b9050919050565b61028d6102888261011c565b61026b565b82525050565b5f819050919050565b6102ad6102a882610157565b610293565b82525050565b5f6102be828561027c565b6014820191506102ce828461029c565b6020820191508190509392505050565b5f81905092915050565b7f19457468657265756d205369676e6564204d6573736167653a0a3332000000005f82015250565b5f61031c601c836102de565b9150610327826102e8565b601c82019050919050565b5f819050919050565b61034c610347826101c8565b610332565b82525050565b5f61035c82610310565b9150610368828461033b565b6020820191508190509291505056fea264697066735822122085fa05647150b1171106dfc8fd333255beb0b082c2d09174083dcc57c51515c064736f6c634300081a0033",
					"opcodes": "PUSH1 0x80 PUSH1 0x40 MSTORE CALLVALUE DUP1 ISZERO PUSH1 0xE JUMPI PUSH0 DUP1 REVERT JUMPDEST POP PUSH2 0x3AD DUP1 PUSH2 0x1C PUSH0 CODECOPY PUSH0 RETURN INVALID PUSH1 0x80 PUSH1 0x40 MSTORE CALLVALUE DUP1 ISZERO PUSH2 0xF JUMPI PUSH0 DUP1 REVERT JUMPDEST POP PUSH1 0x4 CALLDATASIZE LT PUSH2 0x34 JUMPI PUSH0 CALLDATALOAD PUSH1 0xE0 SHR DUP1 PUSH4 0x512C91DF EQ PUSH2 0x38 JUMPI DUP1 PUSH4 0x918A15CF EQ PUSH2 0x68 JUMPI JUMPDEST PUSH0 DUP1 REVERT JUMPDEST PUSH2 0x52 PUSH1 0x4 DUP1 CALLDATASIZE SUB DUP2 ADD SWAP1 PUSH2 0x4D SWAP2 SWAP1 PUSH2 0x18A JUMP JUMPDEST PUSH2 0x98 JUMP JUMPDEST PUSH1 0x40 MLOAD PUSH2 0x5F SWAP2 SWAP1 PUSH2 0x1E0 JUMP JUMPDEST PUSH1 0x40 MLOAD DUP1 SWAP2 SUB SWAP1 RETURN JUMPDEST PUSH2 0x82 PUSH1 0x4 DUP1 CALLDATASIZE SUB DUP2 ADD SWAP1 PUSH2 0x7D SWAP2 SWAP1 PUSH2 0x223 JUMP JUMPDEST PUSH2 0xCA JUMP JUMPDEST PUSH1 0x40 MLOAD PUSH2 0x8F SWAP2 SWAP1 PUSH2 0x1E0 JUMP JUMPDEST PUSH1 0x40 MLOAD DUP1 SWAP2 SUB SWAP1 RETURN JUMPDEST PUSH0 DUP3 DUP3 PUSH1 0x40 MLOAD PUSH1 0x20 ADD PUSH2 0xAC SWAP3 SWAP2 SWAP1 PUSH2 0x2B3 JUMP JUMPDEST PUSH1 0x40 MLOAD PUSH1 0x20 DUP2 DUP4 SUB SUB DUP2 MSTORE SWAP1 PUSH1 0x40 MSTORE DUP1 MLOAD SWAP1 PUSH1 0x20 ADD KECCAK256 SWAP1 POP SWAP3 SWAP2 POP POP JUMP JUMPDEST PUSH0 DUP2 PUSH1 0x40 MLOAD PUSH1 0x20 ADD PUSH2 0xDC SWAP2 SWAP1 PUSH2 0x352 JUMP JUMPDEST PUSH1 0x40 MLOAD PUSH1 0x20 DUP2 DUP4 SUB SUB DUP2 MSTORE SWAP1 PUSH1 0x40 MSTORE DUP1 MLOAD SWAP1 PUSH1 0x20 ADD KECCAK256 SWAP1 POP SWAP2 SWAP1 POP JUMP JUMPDEST PUSH0 DUP1 REVERT JUMPDEST PUSH0 PUSH20 0xFFFFFFFFFFFFFFFFFFFFFFFFFFFFFFFFFFFFFFFF DUP3 AND SWAP1 POP SWAP2 SWAP1 POP JUMP JUMPDEST PUSH0 PUSH2 0x126 DUP3 PUSH2 0xFD JUMP JUMPDEST SWAP1 POP SWAP2 SWAP1 POP JUMP JUMPDEST PUSH2 0x136 DUP2 PUSH2 0x11C JUMP JUMPDEST DUP2 EQ PUSH2 0x140 JUMPI PUSH0 DUP1 REVERT JUMPDEST POP JUMP JUMPDEST PUSH0 DUP2 CALLDATALOAD SWAP1 POP PUSH2 0x151 DUP2 PUSH2 0x12D JUMP JUMPDEST SWAP3 SWAP2 POP POP JUMP JUMPDEST PUSH0 DUP2 SWAP1 POP SWAP2 SWAP1 POP JUMP JUMPDEST PUSH2 0x169 DUP2 PUSH2 0x157 JUMP JUMPDEST DUP2 EQ PUSH2 0x173 JUMPI PUSH0 DUP1 REVERT JUMPDEST POP JUMP JUMPDEST PUSH0 DUP2 CALLDATALOAD SWAP1 POP PUSH2 0x184 DUP2 PUSH2 0x160 JUMP JUMPDEST SWAP3 SWAP2 POP POP JUMP JUMPDEST PUSH0 DUP1 PUSH1 0x40 DUP4 DUP6 SUB SLT ISZERO PUSH2 0x1A0 JUMPI PUSH2 0x19F PUSH2 0xF9 JUMP JUMPDEST JUMPDEST PUSH0 PUSH2 0x1AD DUP6 DUP3 DUP7 ADD PUSH2 0x143 JUMP JUMPDEST SWAP3 POP POP PUSH1 0x20 PUSH2 0x1BE DUP6 DUP3 DUP7 ADD PUSH2 0x176 JUMP JUMPDEST SWAP2 POP POP SWAP3 POP SWAP3 SWAP1 POP JUMP JUMPDEST PUSH0 DUP2 SWAP1 POP SWAP2 SWAP1 POP JUMP JUMPDEST PUSH2 0x1DA DUP2 PUSH2 0x1C8 JUMP JUMPDEST DUP3 MSTORE POP POP JUMP JUMPDEST PUSH0 PUSH1 0x20 DUP3 ADD SWAP1 POP PUSH2 0x1F3 PUSH0 DUP4 ADD DUP5 PUSH2 0x1D1 JUMP JUMPDEST SWAP3 SWAP2 POP POP JUMP JUMPDEST PUSH2 0x202 DUP2 PUSH2 0x1C8 JUMP JUMPDEST DUP2 EQ PUSH2 0x20C JUMPI PUSH0 DUP1 REVERT JUMPDEST POP JUMP JUMPDEST PUSH0 DUP2 CALLDATALOAD SWAP1 POP PUSH2 0x21D DUP2 PUSH2 0x1F9 JUMP JUMPDEST SWAP3 SWAP2 POP POP JUMP JUMPDEST PUSH0 PUSH1 0x20 DUP3 DUP5 SUB SLT ISZERO PUSH2 0x238 JUMPI PUSH2 0x237 PUSH2 0xF9 JUMP JUMPDEST JUMPDEST PUSH0 PUSH2 0x245 DUP5 DUP3 DUP6 ADD PUSH2 0x20F JUMP JUMPDEST SWAP2 POP POP SWAP3 SWAP2 POP POP JUMP JUMPDEST PUSH0 DUP2 PUSH1 0x60 SHL SWAP1 POP SWAP2 SWAP1 POP JUMP JUMPDEST PUSH0 PUSH2 0x264 DUP3 PUSH2 0x24E JUMP JUMPDEST SWAP1 POP SWAP2 SWAP1 POP JUMP JUMPDEST PUSH0 PUSH2 0x275 DUP3 PUSH2 0x25A JUMP JUMPDEST SWAP1 POP SWAP2 SWAP1 POP JUMP JUMPDEST PUSH2 0x28D PUSH2 0x288 DUP3 PUSH2 0x11C JUMP JUMPDEST PUSH2 0x26B JUMP JUMPDEST DUP3 MSTORE POP POP JUMP JUMPDEST PUSH0 DUP2 SWAP1 POP SWAP2 SWAP1 POP JUMP JUMPDEST PUSH2 0x2AD PUSH2 0x2A8 DUP3 PUSH2 0x157 JUMP JUMPDEST PUSH2 0x293 JUMP JUMPDEST DUP3 MSTORE POP POP JUMP JUMPDEST PUSH0 PUSH2 0x2BE DUP3 DUP6 PUSH2 0x27C JUMP JUMPDEST PUSH1 0x14 DUP3 ADD SWAP2 POP PUSH2 0x2CE DUP3 DUP5 PUSH2 0x29C JUMP JUMPDEST PUSH1 0x20 DUP3 ADD SWAP2 POP DUP2 SWAP1 POP SWAP4 SWAP3 POP POP POP JUMP JUMPDEST PUSH0 DUP2 SWAP1 POP SWAP3 SWAP2 POP POP JUMP JUMPDEST PUSH32 0x19457468657265756D205369676E6564204D6573736167653A0A333200000000 PUSH0 DUP3 ADD MSTORE POP JUMP JUMPDEST PUSH0 PUSH2 0x31C PUSH1 0x1C DUP4 PUSH2 0x2DE JUMP JUMPDEST SWAP2 POP PUSH2 0x327 DUP3 PUSH2 0x2E8 JUMP JUMPDEST PUSH1 0x1C DUP3 ADD SWAP1 POP SWAP2 SWAP1 POP JUMP JUMPDEST PUSH0 DUP2 SWAP1 POP SWAP2 SWAP1 POP JUMP JUMPDEST PUSH2 0x34C PUSH2 0x347 DUP3 PUSH2 0x1C8 JUMP JUMPDEST PUSH2 0x332 JUMP JUMPDEST DUP3 MSTORE POP POP JUMP JUMPDEST PUSH0 PUSH2 0x35C DUP3 PUSH2 0x310 JUMP JUMPDEST SWAP2 POP PUSH2 0x368 DUP3 DUP5 PUSH2 0x33B JUMP JUMPDEST PUSH1 0x20 DUP3 ADD SWAP2 POP DUP2 SWAP1 POP SWAP3 SWAP2 POP POP JUMP INVALID LOG2 PUSH5 0x6970667358 0x22 SLT KECCAK256 DUP6 STATICCALL SDIV PUSH5 0x7150B11711 MOD 0xDF 0xC8 REVERT CALLER ORIGIN SSTORE 0xBE 0xB0 0xB0 DUP3 0xC2 0xD0 SWAP2 PUSH21 0x83DCC57C51515C064736F6C634300081A00330000 "
				},
				"gasEstimates": {
					"creation": {
						"codeDepositCost": "188200",
						"executionCost": "230",
						"totalCost": "188430"
					},
					"external": {
						"getMessageHash(address,uint256)": "infinite",
						"toEthSignedMessageHash(bytes32)": "infinite"
					},
					"internal": {
						"recoverSigner(bytes32,bytes memory)": "infinite",
						"verify(bytes32,bytes memory,address)": "infinite"
					}
				},
				"methodIdentifiers": {
					"getMessageHash(address,uint256)": "512c91df",
					"toEthSignedMessageHash(bytes32)": "918a15cf"
				}
			},
			"storageLayout": {
				"storage": [],
				"types": null
			},
			"userdoc": {
				"kind": "user",
				"methods": {},
				"version": 1
			}
		}
	}
}