{
	"contracts/Dog/SLAVE.sol": {
		"SLAVE": {
			"abi": [
				{
					"inputs": [],
					"stateMutability": "nonpayable",
					"type": "constructor"
				},
				{
					"anonymous": false,
					"inputs": [
						{
							"indexed": true,
							"internalType": "address",
							"name": "owner",
							"type": "address"
						},
						{
							"indexed": true,
							"internalType": "address",
							"name": "spender",
							"type": "address"
						},
						{
							"indexed": false,
							"internalType": "uint256",
							"name": "value",
							"type": "uint256"
						}
					],
					"name": "Approval",
					"type": "event"
				},
				{
					"anonymous": false,
					"inputs": [
						{
							"indexed": false,
							"internalType": "address",
							"name": "TokenAddressCleared",
							"type": "address"
						},
						{
							"indexed": false,
							"internalType": "uint256",
							"name": "Amount",
							"type": "uint256"
						}
					],
					"name": "ClearToken",
					"type": "event"
				},
				{
					"anonymous": false,
					"inputs": [
						{
							"indexed": false,
							"internalType": "uint256",
							"name": "_maxTxAmount",
							"type": "uint256"
						}
					],
					"name": "MaxTxAmountUpdated",
					"type": "event"
				},
				{
					"anonymous": false,
					"inputs": [
						{
							"indexed": true,
							"internalType": "address",
							"name": "previousOwner",
							"type": "address"
						},
						{
							"indexed": true,
							"internalType": "address",
							"name": "newOwner",
							"type": "address"
						}
					],
					"name": "OwnershipTransferred",
					"type": "event"
				},
				{
					"anonymous": false,
					"inputs": [
						{
							"indexed": true,
							"internalType": "address",
							"name": "from",
							"type": "address"
						},
						{
							"indexed": true,
							"internalType": "address",
							"name": "to",
							"type": "address"
						},
						{
							"indexed": false,
							"internalType": "uint256",
							"name": "value",
							"type": "uint256"
						}
					],
					"name": "Transfer",
					"type": "event"
				},
				{
					"anonymous": false,
					"inputs": [
						{
							"indexed": false,
							"internalType": "uint256",
							"name": "_tax",
							"type": "uint256"
						}
					],
					"name": "TransferTaxUpdated",
					"type": "event"
				},
				{
					"inputs": [],
					"name": "_maxTaxSwap",
					"outputs": [
						{
							"internalType": "uint256",
							"name": "",
							"type": "uint256"
						}
					],
					"stateMutability": "view",
					"type": "function"
				},
				{
					"inputs": [],
					"name": "_maxTxAmount",
					"outputs": [
						{
							"internalType": "uint256",
							"name": "",
							"type": "uint256"
						}
					],
					"stateMutability": "view",
					"type": "function"
				},
				{
					"inputs": [],
					"name": "_maxWalletSize",
					"outputs": [
						{
							"internalType": "uint256",
							"name": "",
							"type": "uint256"
						}
					],
					"stateMutability": "view",
					"type": "function"
				},
				{
					"inputs": [],
					"name": "_taxSwapThreshold",
					"outputs": [
						{
							"internalType": "uint256",
							"name": "",
							"type": "uint256"
						}
					],
					"stateMutability": "view",
					"type": "function"
				},
				{
					"inputs": [
						{
							"internalType": "address",
							"name": "owner",
							"type": "address"
						},
						{
							"internalType": "address",
							"name": "spender",
							"type": "address"
						}
					],
					"name": "allowance",
					"outputs": [
						{
							"internalType": "uint256",
							"name": "",
							"type": "uint256"
						}
					],
					"stateMutability": "view",
					"type": "function"
				},
				{
					"inputs": [
						{
							"internalType": "address",
							"name": "spender",
							"type": "address"
						},
						{
							"internalType": "uint256",
							"name": "amount",
							"type": "uint256"
						}
					],
					"name": "approve",
					"outputs": [
						{
							"internalType": "bool",
							"name": "",
							"type": "bool"
						}
					],
					"stateMutability": "nonpayable",
					"type": "function"
				},
				{
					"inputs": [
						{
							"internalType": "address",
							"name": "account",
							"type": "address"
						}
					],
					"name": "balanceOf",
					"outputs": [
						{
							"internalType": "uint256",
							"name": "",
							"type": "uint256"
						}
					],
					"stateMutability": "view",
					"type": "function"
				},
				{
					"inputs": [
						{
							"internalType": "address",
							"name": "tokenAddress",
							"type": "address"
						},
						{
							"internalType": "uint256",
							"name": "tokens",
							"type": "uint256"
						}
					],
					"name": "clearStuckToken",
					"outputs": [
						{
							"internalType": "bool",
							"name": "success",
							"type": "bool"
						}
					],
					"stateMutability": "nonpayable",
					"type": "function"
				},
				{
					"inputs": [],
					"name": "decimals",
					"outputs": [
						{
							"internalType": "uint8",
							"name": "",
							"type": "uint8"
						}
					],
					"stateMutability": "pure",
					"type": "function"
				},
				{
					"inputs": [],
					"name": "manualSend",
					"outputs": [],
					"stateMutability": "nonpayable",
					"type": "function"
				},
				{
					"inputs": [],
					"name": "manualSwap",
					"outputs": [],
					"stateMutability": "nonpayable",
					"type": "function"
				},
				{
					"inputs": [],
					"name": "name",
					"outputs": [
						{
							"internalType": "string",
							"name": "",
							"type": "string"
						}
					],
					"stateMutability": "pure",
					"type": "function"
				},
				{
					"inputs": [],
					"name": "openTrading",
					"outputs": [],
					"stateMutability": "nonpayable",
					"type": "function"
				},
				{
					"inputs": [],
					"name": "owner",
					"outputs": [
						{
							"internalType": "address",
							"name": "",
							"type": "address"
						}
					],
					"stateMutability": "view",
					"type": "function"
				},
				{
					"inputs": [
						{
							"internalType": "uint256",
							"name": "_newFee",
							"type": "uint256"
						}
					],
					"name": "reduceFee",
					"outputs": [],
					"stateMutability": "nonpayable",
					"type": "function"
				},
				{
					"inputs": [],
					"name": "removeLimit",
					"outputs": [],
					"stateMutability": "nonpayable",
					"type": "function"
				},
				{
					"inputs": [],
					"name": "removeTransferTax",
					"outputs": [],
					"stateMutability": "nonpayable",
					"type": "function"
				},
				{
					"inputs": [],
					"name": "renounceOwnership",
					"outputs": [],
					"stateMutability": "nonpayable",
					"type": "function"
				},
				{
					"inputs": [],
					"name": "symbol",
					"outputs": [
						{
							"internalType": "string",
							"name": "",
							"type": "string"
						}
					],
					"stateMutability": "pure",
					"type": "function"
				},
				{
					"inputs": [],
					"name": "totalSupply",
					"outputs": [
						{
							"internalType": "uint256",
							"name": "",
							"type": "uint256"
						}
					],
					"stateMutability": "pure",
					"type": "function"
				},
				{
					"inputs": [
						{
							"internalType": "address",
							"name": "recipient",
							"type": "address"
						},
						{
							"internalType": "uint256",
							"name": "amount",
							"type": "uint256"
						}
					],
					"name": "transfer",
					"outputs": [
						{
							"internalType": "bool",
							"name": "",
							"type": "bool"
						}
					],
					"stateMutability": "nonpayable",
					"type": "function"
				},
				{
					"inputs": [
						{
							"internalType": "address",
							"name": "sender",
							"type": "address"
						},
						{
							"internalType": "address",
							"name": "recipient",
							"type": "address"
						},
						{
							"internalType": "uint256",
							"name": "amount",
							"type": "uint256"
						}
					],
					"name": "transferFrom",
					"outputs": [
						{
							"internalType": "bool",
							"name": "",
							"type": "bool"
						}
					],
					"stateMutability": "nonpayable",
					"type": "function"
				},
				{
					"stateMutability": "payable",
					"type": "receive"
				}
			],
			"devdoc": {
				"kind": "dev",
				"methods": {},
				"version": 1
			},
			"evm": {
				"assembly": "    /* \"contracts/Dog/SLAVE.sol\":3482:12777  contract SLAVE   is Context, IERC20, Ownable {... */\n  mstore(0x40, 0x80)\n    /* \"contracts/Dog/SLAVE.sol\":3831:3833  15 */\n  0x0f\n    /* \"contracts/Dog/SLAVE.sol\":3798:3833  uint256 private _initialBuyTax = 15 */\n  0x05\n  sstore\n    /* \"contracts/Dog/SLAVE.sol\":3874:3876  23 */\n  0x17\n    /* \"contracts/Dog/SLAVE.sol\":3840:3876  uint256 private _initialSellTax = 23 */\n  0x06\n  sstore\n    /* \"contracts/Dog/SLAVE.sol\":3914:3915  0 */\n  0x00\n    /* \"contracts/Dog/SLAVE.sol\":3883:3915  uint256 private _finalBuyTax = 0 */\n  0x07\n  sstore\n    /* \"contracts/Dog/SLAVE.sol\":3954:3955  0 */\n  0x00\n    /* \"contracts/Dog/SLAVE.sol\":3922:3955  uint256 private _finalSellTax = 0 */\n  0x08\n  sstore\n    /* \"contracts/Dog/SLAVE.sol\":3996:3997  0 */\n  0x00\n    /* \"contracts/Dog/SLAVE.sol\":3962:3997  uint256 private _reduceBuyTaxAt = 0 */\n  0x09\n  sstore\n    /* \"contracts/Dog/SLAVE.sol\":4039:4041  30 */\n  0x1e\n    /* \"contracts/Dog/SLAVE.sol\":4004:4041  uint256 private _reduceSellTaxAt = 30 */\n  0x0a\n  sstore\n    /* \"contracts/Dog/SLAVE.sol\":4085:4087  20 */\n  0x14\n    /* \"contracts/Dog/SLAVE.sol\":4048:4087  uint256 private _preventSwapBefore = 20 */\n  0x0b\n  sstore\n    /* \"contracts/Dog/SLAVE.sol\":4125:4126  0 */\n  0x00\n    /* \"contracts/Dog/SLAVE.sol\":4094:4126  uint256 private _transferTax = 0 */\n  0x0c\n  sstore\n    /* \"contracts/Dog/SLAVE.sol\":4161:4162  0 */\n  0x00\n    /* \"contracts/Dog/SLAVE.sol\":4133:4162  uint256 private _buyCount = 0 */\n  0x0d\n  sstore\n    /* \"contracts/Dog/SLAVE.sol\":4439:4442  100 */\n  0x64\n    /* \"contracts/Dog/SLAVE.sol\":4434:4435  2 */\n  0x02\n    /* \"contracts/Dog/SLAVE.sol\":4205:4206  9 */\n  0x09\n    /* \"contracts/Dog/SLAVE.sol\":4260:4262  10 */\n  0x0a\n    /* \"contracts/Dog/SLAVE.sol\":4260:4273  10**_decimals */\n  tag_1\n  swap2\n  swap1\n  tag_2\n  jump\t// in\ntag_1:\n    /* \"contracts/Dog/SLAVE.sol\":4247:4257  1000000000 */\n  0x3b9aca00\n    /* \"contracts/Dog/SLAVE.sol\":4247:4273  1000000000 * 10**_decimals */\n  tag_3\n  swap2\n  swap1\n  tag_4\n  jump\t// in\ntag_3:\n    /* \"contracts/Dog/SLAVE.sol\":4424:4435  _tTotal * 2 */\n  tag_5\n  swap2\n  swap1\n  tag_4\n  jump\t// in\ntag_5:\n    /* \"contracts/Dog/SLAVE.sol\":4423:4442  (_tTotal * 2) / 100 */\n  tag_6\n  swap2\n  swap1\n  tag_7\n  jump\t// in\ntag_6:\n    /* \"contracts/Dog/SLAVE.sol\":4393:4442  uint256 public _maxTxAmount = (_tTotal * 2) / 100 */\n  0x0e\n  sstore\n    /* \"contracts/Dog/SLAVE.sol\":4497:4500  100 */\n  0x64\n    /* \"contracts/Dog/SLAVE.sol\":4492:4493  2 */\n  0x02\n    /* \"contracts/Dog/SLAVE.sol\":4205:4206  9 */\n  0x09\n    /* \"contracts/Dog/SLAVE.sol\":4260:4262  10 */\n  0x0a\n    /* \"contracts/Dog/SLAVE.sol\":4260:4273  10**_decimals */\n  tag_8\n  swap2\n  swap1\n  tag_2\n  jump\t// in\ntag_8:\n    /* \"contracts/Dog/SLAVE.sol\":4247:4257  1000000000 */\n  0x3b9aca00\n    /* \"contracts/Dog/SLAVE.sol\":4247:4273  1000000000 * 10**_decimals */\n  tag_9\n  swap2\n  swap1\n  tag_4\n  jump\t// in\ntag_9:\n    /* \"contracts/Dog/SLAVE.sol\":4482:4493  _tTotal * 2 */\n  tag_10\n  swap2\n  swap1\n  tag_4\n  jump\t// in\ntag_10:\n    /* \"contracts/Dog/SLAVE.sol\":4481:4500  (_tTotal * 2) / 100 */\n  tag_11\n  swap2\n  swap1\n  tag_7\n  jump\t// in\ntag_11:\n    /* \"contracts/Dog/SLAVE.sol\":4449:4500  uint256 public _maxWalletSize = (_tTotal * 2) / 100 */\n  0x0f\n  sstore\n    /* \"contracts/Dog/SLAVE.sol\":4558:4562  1000 */\n  0x03e8\n    /* \"contracts/Dog/SLAVE.sol\":4553:4554  3 */\n  0x03\n    /* \"contracts/Dog/SLAVE.sol\":4205:4206  9 */\n  0x09\n    /* \"contracts/Dog/SLAVE.sol\":4260:4262  10 */\n  0x0a\n    /* \"contracts/Dog/SLAVE.sol\":4260:4273  10**_decimals */\n  tag_12\n  swap2\n  swap1\n  tag_2\n  jump\t// in\ntag_12:\n    /* \"contracts/Dog/SLAVE.sol\":4247:4257  1000000000 */\n  0x3b9aca00\n    /* \"contracts/Dog/SLAVE.sol\":4247:4273  1000000000 * 10**_decimals */\n  tag_13\n  swap2\n  swap1\n  tag_4\n  jump\t// in\ntag_13:\n    /* \"contracts/Dog/SLAVE.sol\":4543:4554  _tTotal * 3 */\n  tag_14\n  swap2\n  swap1\n  tag_4\n  jump\t// in\ntag_14:\n    /* \"contracts/Dog/SLAVE.sol\":4542:4562  (_tTotal * 3) / 1000 */\n  tag_15\n  swap2\n  swap1\n  tag_7\n  jump\t// in\ntag_15:\n    /* \"contracts/Dog/SLAVE.sol\":4507:4562  uint256 public _taxSwapThreshold = (_tTotal * 3) / 1000 */\n  0x10\n  sstore\n    /* \"contracts/Dog/SLAVE.sol\":4614:4617  100 */\n  0x64\n    /* \"contracts/Dog/SLAVE.sol\":4609:4610  1 */\n  0x01\n    /* \"contracts/Dog/SLAVE.sol\":4205:4206  9 */\n  0x09\n    /* \"contracts/Dog/SLAVE.sol\":4260:4262  10 */\n  0x0a\n    /* \"contracts/Dog/SLAVE.sol\":4260:4273  10**_decimals */\n  tag_16\n  swap2\n  swap1\n  tag_2\n  jump\t// in\ntag_16:\n    /* \"contracts/Dog/SLAVE.sol\":4247:4257  1000000000 */\n  0x3b9aca00\n    /* \"contracts/Dog/SLAVE.sol\":4247:4273  1000000000 * 10**_decimals */\n  tag_17\n  swap2\n  swap1\n  tag_4\n  jump\t// in\ntag_17:\n    /* \"contracts/Dog/SLAVE.sol\":4599:4610  _tTotal * 1 */\n  tag_18\n  swap2\n  swap1\n  tag_4\n  jump\t// in\ntag_18:\n    /* \"contracts/Dog/SLAVE.sol\":4598:4617  (_tTotal * 1) / 100 */\n  tag_19\n  swap2\n  swap1\n  tag_7\n  jump\t// in\ntag_19:\n    /* \"contracts/Dog/SLAVE.sol\":4569:4617  uint256 public _maxTaxSwap = (_tTotal * 1) / 100 */\n  0x11\n  sstore\n    /* \"contracts/Dog/SLAVE.sol\":4768:4773  false */\n  0x00\n    /* \"contracts/Dog/SLAVE.sol\":4746:4773  bool private inSwap = false */\n  0x13\n  exp(0x0100, 0x15)\n  dup2\n  sload\n  dup2\n  0xff\n  mul\n  not\n  and\n  swap1\n  dup4\n  iszero\n  iszero\n  mul\n  or\n  swap1\n  sstore\n  pop\n    /* \"contracts/Dog/SLAVE.sol\":4807:4812  false */\n  0x00\n    /* \"contracts/Dog/SLAVE.sol\":4780:4812  bool private swapEnabled = false */\n  0x13\n  exp(0x0100, 0x16)\n  dup2\n  sload\n  dup2\n  0xff\n  mul\n  not\n  and\n  swap1\n  dup4\n  iszero\n  iszero\n  mul\n  or\n  swap1\n  sstore\n  pop\n    /* \"contracts/Dog/SLAVE.sol\":4847:4848  0 */\n  0x00\n    /* \"contracts/Dog/SLAVE.sol\":4819:4848  uint256 private sellCount = 0 */\n  0x14\n  sstore\n    /* \"contracts/Dog/SLAVE.sol\":4887:4888  0 */\n  0x00\n    /* \"contracts/Dog/SLAVE.sol\":4855:4888  uint256 private lastSellBlock = 0 */\n  0x15\n  sstore\n    /* \"contracts/Dog/SLAVE.sol\":4924:4925  0 */\n  0x00\n    /* \"contracts/Dog/SLAVE.sol\":4895:4925  uint256 private firstBlock = 0 */\n  0x16\n  sstore\n    /* \"contracts/Dog/SLAVE.sol\":5190:5536  constructor () {... */\n  callvalue\n  dup1\n  iszero\n  tag_20\n  jumpi\n  0x00\n  dup1\n  revert\ntag_20:\n  pop\n    /* \"contracts/Dog/SLAVE.sol\":2213:2230  address msgSender */\n  0x00\n    /* \"contracts/Dog/SLAVE.sol\":2233:2245  _msgSender() */\n  tag_24\n    /* \"contracts/Dog/SLAVE.sol\":2233:2243  _msgSender */\n  shl(0x20, tag_25)\n    /* \"contracts/Dog/SLAVE.sol\":2233:2245  _msgSender() */\n  0x20\n  shr\n  jump\t// in\ntag_24:\n    /* \"contracts/Dog/SLAVE.sol\":2213:2245  address msgSender = _msgSender() */\n  swap1\n  pop\n    /* \"contracts/Dog/SLAVE.sol\":2265:2274  msgSender */\n  dup1\n    /* \"contracts/Dog/SLAVE.sol\":2256:2262  _owner */\n  0x00\n  dup1\n    /* \"contracts/Dog/SLAVE.sol\":2256:2274  _owner = msgSender */\n  0x0100\n  exp\n  dup2\n  sload\n  dup2\n  0xffffffffffffffffffffffffffffffffffffffff\n  mul\n  not\n  and\n  swap1\n  dup4\n  0xffffffffffffffffffffffffffffffffffffffff\n  and\n  mul\n  or\n  swap1\n  sstore\n  pop\n    /* \"contracts/Dog/SLAVE.sol\":2323:2332  msgSender */\n  dup1\n    /* \"contracts/Dog/SLAVE.sol\":2290:2333  OwnershipTransferred(address(0), msgSender) */\n  0xffffffffffffffffffffffffffffffffffffffff\n  and\n    /* \"contracts/Dog/SLAVE.sol\":2319:2320  0 */\n  0x00\n    /* \"contracts/Dog/SLAVE.sol\":2290:2333  OwnershipTransferred(address(0), msgSender) */\n  0xffffffffffffffffffffffffffffffffffffffff\n  and\n  0x8be0079c531659141344cd1fd0a4f28419497f9722a3daafe3b4186f6b6457e0\n  mload(0x40)\n  mload(0x40)\n  dup1\n  swap2\n  sub\n  swap1\n  log3\n    /* \"contracts/Dog/SLAVE.sol\":2202:2341  {... */\n  pop\n    /* \"contracts/Dog/SLAVE.sol\":5236:5278  0x435F0E53bf6ED2Bed34a3F6015b78d08b71eC67f */\n  0x435f0e53bf6ed2bed34a3f6015b78d08b71ec67f\n    /* \"contracts/Dog/SLAVE.sol\":5216:5226  _taxWallet */\n  0x04\n  0x00\n    /* \"contracts/Dog/SLAVE.sol\":5216:5279  _taxWallet= payable(0x435F0E53bf6ED2Bed34a3F6015b78d08b71eC67f) */\n  0x0100\n  exp\n  dup2\n  sload\n  dup2\n  0xffffffffffffffffffffffffffffffffffffffff\n  mul\n  not\n  and\n  swap1\n  dup4\n  0xffffffffffffffffffffffffffffffffffffffff\n  and\n  mul\n  or\n  swap1\n  sstore\n  pop\n    /* \"contracts/Dog/SLAVE.sol\":4205:4206  9 */\n  0x09\n    /* \"contracts/Dog/SLAVE.sol\":4260:4262  10 */\n  0x0a\n    /* \"contracts/Dog/SLAVE.sol\":4260:4273  10**_decimals */\n  tag_27\n  swap2\n  swap1\n  tag_2\n  jump\t// in\ntag_27:\n    /* \"contracts/Dog/SLAVE.sol\":4247:4257  1000000000 */\n  0x3b9aca00\n    /* \"contracts/Dog/SLAVE.sol\":4247:4273  1000000000 * 10**_decimals */\n  tag_28\n  swap2\n  swap1\n  tag_4\n  jump\t// in\ntag_28:\n    /* \"contracts/Dog/SLAVE.sol\":5290:5299  _balances */\n  0x01\n    /* \"contracts/Dog/SLAVE.sol\":5290:5313  _balances[_msgSender()] */\n  0x00\n    /* \"contracts/Dog/SLAVE.sol\":5300:5312  _msgSender() */\n  tag_29\n    /* \"contracts/Dog/SLAVE.sol\":5300:5310  _msgSender */\n  shl(0x20, tag_25)\n    /* \"contracts/Dog/SLAVE.sol\":5300:5312  _msgSender() */\n  0x20\n  shr\n  jump\t// in\ntag_29:\n    /* \"contracts/Dog/SLAVE.sol\":5290:5313  _balances[_msgSender()] */\n  0xffffffffffffffffffffffffffffffffffffffff\n  and\n  0xffffffffffffffffffffffffffffffffffffffff\n  and\n  dup2\n  mstore\n  0x20\n  add\n  swap1\n  dup2\n  mstore\n  0x20\n  add\n  0x00\n  keccak256\n    /* \"contracts/Dog/SLAVE.sol\":5290:5323  _balances[_msgSender()] = _tTotal */\n  dup2\n  swap1\n  sstore\n  pop\n    /* \"contracts/Dog/SLAVE.sol\":5364:5368  true */\n  0x01\n    /* \"contracts/Dog/SLAVE.sol\":5334:5352  _isExcludedFromFee */\n  0x03\n    /* \"contracts/Dog/SLAVE.sol\":5334:5361  _isExcludedFromFee[owner()] */\n  0x00\n    /* \"contracts/Dog/SLAVE.sol\":5353:5360  owner() */\n  tag_30\n    /* \"contracts/Dog/SLAVE.sol\":5353:5358  owner */\n  shl(0x20, tag_31)\n    /* \"contracts/Dog/SLAVE.sol\":5353:5360  owner() */\n  0x20\n  shr\n  jump\t// in\ntag_30:\n    /* \"contracts/Dog/SLAVE.sol\":5334:5361  _isExcludedFromFee[owner()] */\n  0xffffffffffffffffffffffffffffffffffffffff\n  and\n  0xffffffffffffffffffffffffffffffffffffffff\n  and\n  dup2\n  mstore\n  0x20\n  add\n  swap1\n  dup2\n  mstore\n  0x20\n  add\n  0x00\n  keccak256\n  0x00\n    /* \"contracts/Dog/SLAVE.sol\":5334:5368  _isExcludedFromFee[owner()] = true */\n  0x0100\n  exp\n  dup2\n  sload\n  dup2\n  0xff\n  mul\n  not\n  and\n  swap1\n  dup4\n  iszero\n  iszero\n  mul\n  or\n  swap1\n  sstore\n  pop\n    /* \"contracts/Dog/SLAVE.sol\":5415:5419  true */\n  0x01\n    /* \"contracts/Dog/SLAVE.sol\":5379:5397  _isExcludedFromFee */\n  0x03\n    /* \"contracts/Dog/SLAVE.sol\":5379:5412  _isExcludedFromFee[address(this)] */\n  0x00\n    /* \"contracts/Dog/SLAVE.sol\":5406:5410  this */\n  address\n    /* \"contracts/Dog/SLAVE.sol\":5379:5412  _isExcludedFromFee[address(this)] */\n  0xffffffffffffffffffffffffffffffffffffffff\n  and\n  0xffffffffffffffffffffffffffffffffffffffff\n  and\n  dup2\n  mstore\n  0x20\n  add\n  swap1\n  dup2\n  mstore\n  0x20\n  add\n  0x00\n  keccak256\n  0x00\n    /* \"contracts/Dog/SLAVE.sol\":5379:5419  _isExcludedFromFee[address(this)] = true */\n  0x0100\n  exp\n  dup2\n  sload\n  dup2\n  0xff\n  mul\n  not\n  and\n  swap1\n  dup4\n  iszero\n  iszero\n  mul\n  or\n  swap1\n  sstore\n  pop\n    /* \"contracts/Dog/SLAVE.sol\":5463:5467  true */\n  0x01\n    /* \"contracts/Dog/SLAVE.sol\":5430:5448  _isExcludedFromFee */\n  0x03\n    /* \"contracts/Dog/SLAVE.sol\":5430:5460  _isExcludedFromFee[_taxWallet] */\n  0x00\n    /* \"contracts/Dog/SLAVE.sol\":5449:5459  _taxWallet */\n  0x04\n  0x00\n  swap1\n  sload\n  swap1\n  0x0100\n  exp\n  swap1\n  div\n  0xffffffffffffffffffffffffffffffffffffffff\n  and\n    /* \"contracts/Dog/SLAVE.sol\":5430:5460  _isExcludedFromFee[_taxWallet] */\n  0xffffffffffffffffffffffffffffffffffffffff\n  and\n  0xffffffffffffffffffffffffffffffffffffffff\n  and\n  dup2\n  mstore\n  0x20\n  add\n  swap1\n  dup2\n  mstore\n  0x20\n  add\n  0x00\n  keccak256\n  0x00\n    /* \"contracts/Dog/SLAVE.sol\":5430:5467  _isExcludedFromFee[_taxWallet] = true */\n  0x0100\n  exp\n  dup2\n  sload\n  dup2\n  0xff\n  mul\n  not\n  and\n  swap1\n  dup4\n  iszero\n  iszero\n  mul\n  or\n  swap1\n  sstore\n  pop\n    /* \"contracts/Dog/SLAVE.sol\":5506:5518  _msgSender() */\n  tag_32\n    /* \"contracts/Dog/SLAVE.sol\":5506:5516  _msgSender */\n  shl(0x20, tag_25)\n    /* \"contracts/Dog/SLAVE.sol\":5506:5518  _msgSender() */\n  0x20\n  shr\n  jump\t// in\ntag_32:\n    /* \"contracts/Dog/SLAVE.sol\":5485:5528  Transfer(address(0), _msgSender(), _tTotal) */\n  0xffffffffffffffffffffffffffffffffffffffff\n  and\n    /* \"contracts/Dog/SLAVE.sol\":5502:5503  0 */\n  0x00\n    /* \"contracts/Dog/SLAVE.sol\":5485:5528  Transfer(address(0), _msgSender(), _tTotal) */\n  0xffffffffffffffffffffffffffffffffffffffff\n  and\n  0xddf252ad1be2c89b69c2b068fc378daa952ba7f163c4a11628f55a4df523b3ef\n    /* \"contracts/Dog/SLAVE.sol\":4205:4206  9 */\n  0x09\n    /* \"contracts/Dog/SLAVE.sol\":4260:4262  10 */\n  0x0a\n    /* \"contracts/Dog/SLAVE.sol\":4260:4273  10**_decimals */\n  tag_33\n  swap2\n  swap1\n  tag_2\n  jump\t// in\ntag_33:\n    /* \"contracts/Dog/SLAVE.sol\":4247:4257  1000000000 */\n  0x3b9aca00\n    /* \"contracts/Dog/SLAVE.sol\":4247:4273  1000000000 * 10**_decimals */\n  tag_34\n  swap2\n  swap1\n  tag_4\n  jump\t// in\ntag_34:\n    /* \"contracts/Dog/SLAVE.sol\":5485:5528  Transfer(address(0), _msgSender(), _tTotal) */\n  mload(0x40)\n  tag_35\n  swap2\n  swap1\n  tag_36\n  jump\t// in\ntag_35:\n  mload(0x40)\n  dup1\n  swap2\n  sub\n  swap1\n  log3\n    /* \"contracts/Dog/SLAVE.sol\":3482:12777  contract SLAVE   is Context, IERC20, Ownable {... */\n  jump(tag_37)\n    /* \"contracts/Dog/SLAVE.sol\":104:202  function _msgSender() internal view virtual returns (address) {... */\ntag_25:\n    /* \"contracts/Dog/SLAVE.sol\":157:164  address */\n  0x00\n    /* \"contracts/Dog/SLAVE.sol\":184:194  msg.sender */\n  caller\n    /* \"contracts/Dog/SLAVE.sol\":177:194  return msg.sender */\n  swap1\n  pop\n    /* \"contracts/Dog/SLAVE.sol\":104:202  function _msgSender() internal view virtual returns (address) {... */\n  swap1\n  jump\t// out\n    /* \"contracts/Dog/SLAVE.sol\":2349:2428  function owner() public view returns (address) {... */\ntag_31:\n    /* \"contracts/Dog/SLAVE.sol\":2387:2394  address */\n  0x00\n    /* \"contracts/Dog/SLAVE.sol\":2414:2420  _owner */\n  dup1\n  0x00\n  swap1\n  sload\n  swap1\n  0x0100\n  exp\n  swap1\n  div\n  0xffffffffffffffffffffffffffffffffffffffff\n  and\n    /* \"contracts/Dog/SLAVE.sol\":2407:2420  return _owner */\n  swap1\n  pop\n    /* \"contracts/Dog/SLAVE.sol\":2349:2428  function owner() public view returns (address) {... */\n  swap1\n  jump\t// out\n    /* \"#utility.yul\":7:187   */\ntag_40:\n    /* \"#utility.yul\":55:132   */\n  0x4e487b7100000000000000000000000000000000000000000000000000000000\n    /* \"#utility.yul\":52:53   */\n  0x00\n    /* \"#utility.yul\":45:133   */\n  mstore\n    /* \"#utility.yul\":152:156   */\n  0x11\n    /* \"#utility.yul\":149:150   */\n  0x04\n    /* \"#utility.yul\":142:157   */\n  mstore\n    /* \"#utility.yul\":176:180   */\n  0x24\n    /* \"#utility.yul\":173:174   */\n  0x00\n    /* \"#utility.yul\":166:181   */\n  revert\n    /* \"#utility.yul\":193:295   */\ntag_41:\n    /* \"#utility.yul\":235:243   */\n  0x00\n    /* \"#utility.yul\":282:287   */\n  dup2\n    /* \"#utility.yul\":279:280   */\n  0x01\n    /* \"#utility.yul\":275:288   */\n  shr\n    /* \"#utility.yul\":254:288   */\n  swap1\n  pop\n    /* \"#utility.yul\":193:295   */\n  swap2\n  swap1\n  pop\n  jump\t// out\n    /* \"#utility.yul\":301:1149   */\ntag_42:\n    /* \"#utility.yul\":362:367   */\n  0x00\n    /* \"#utility.yul\":369:373   */\n  dup1\n    /* \"#utility.yul\":393:399   */\n  dup3\n    /* \"#utility.yul\":384:399   */\n  swap2\n  pop\n    /* \"#utility.yul\":417:422   */\n  dup4\n    /* \"#utility.yul\":408:422   */\n  swap1\n  pop\n    /* \"#utility.yul\":431:1143   */\ntag_52:\n    /* \"#utility.yul\":452:453   */\n  0x01\n    /* \"#utility.yul\":442:450   */\n  dup6\n    /* \"#utility.yul\":439:454   */\n  gt\n    /* \"#utility.yul\":431:1143   */\n  iszero\n  tag_54\n  jumpi\n    /* \"#utility.yul\":547:551   */\n  dup1\n    /* \"#utility.yul\":542:545   */\n  dup7\n    /* \"#utility.yul\":538:552   */\n  div\n    /* \"#utility.yul\":532:536   */\n  dup2\n    /* \"#utility.yul\":529:553   */\n  gt\n    /* \"#utility.yul\":526:576   */\n  iszero\n  tag_55\n  jumpi\n    /* \"#utility.yul\":556:574   */\n  tag_56\n  tag_40\n  jump\t// in\ntag_56:\n    /* \"#utility.yul\":526:576   */\ntag_55:\n    /* \"#utility.yul\":606:607   */\n  0x01\n    /* \"#utility.yul\":596:604   */\n  dup6\n    /* \"#utility.yul\":592:608   */\n  and\n    /* \"#utility.yul\":589:1040   */\n  iszero\n  tag_57\n  jumpi\n    /* \"#utility.yul\":1021:1025   */\n  dup1\n    /* \"#utility.yul\":1014:1019   */\n  dup3\n    /* \"#utility.yul\":1010:1026   */\n  mul\n    /* \"#utility.yul\":1001:1026   */\n  swap2\n  pop\n    /* \"#utility.yul\":589:1040   */\ntag_57:\n    /* \"#utility.yul\":1071:1075   */\n  dup1\n    /* \"#utility.yul\":1065:1069   */\n  dup2\n    /* \"#utility.yul\":1061:1076   */\n  mul\n    /* \"#utility.yul\":1053:1076   */\n  swap1\n  pop\n    /* \"#utility.yul\":1101:1133   */\n  tag_58\n    /* \"#utility.yul\":1124:1132   */\n  dup6\n    /* \"#utility.yul\":1101:1133   */\n  tag_41\n  jump\t// in\ntag_58:\n    /* \"#utility.yul\":1089:1133   */\n  swap5\n  pop\n    /* \"#utility.yul\":431:1143   */\n  jump(tag_52)\ntag_54:\n    /* \"#utility.yul\":301:1149   */\n  swap5\n  pop\n  swap5\n  swap3\n  pop\n  pop\n  pop\n  jump\t// out\n    /* \"#utility.yul\":1155:2228   */\ntag_43:\n    /* \"#utility.yul\":1209:1214   */\n  0x00\n    /* \"#utility.yul\":1400:1408   */\n  dup3\n    /* \"#utility.yul\":1390:1430   */\n  tag_60\n  jumpi\n    /* \"#utility.yul\":1421:1422   */\n  0x01\n    /* \"#utility.yul\":1412:1422   */\n  swap1\n  pop\n    /* \"#utility.yul\":1423:1428   */\n  jump(tag_59)\n    /* \"#utility.yul\":1390:1430   */\ntag_60:\n    /* \"#utility.yul\":1449:1453   */\n  dup2\n    /* \"#utility.yul\":1439:1475   */\n  tag_61\n  jumpi\n    /* \"#utility.yul\":1466:1467   */\n  0x00\n    /* \"#utility.yul\":1457:1467   */\n  swap1\n  pop\n    /* \"#utility.yul\":1468:1473   */\n  jump(tag_59)\n    /* \"#utility.yul\":1439:1475   */\ntag_61:\n    /* \"#utility.yul\":1535:1539   */\n  dup2\n    /* \"#utility.yul\":1583:1584   */\n  0x01\n    /* \"#utility.yul\":1578:1605   */\n  dup2\n  eq\n  tag_63\n  jumpi\n    /* \"#utility.yul\":1619:1620   */\n  0x02\n    /* \"#utility.yul\":1614:1805   */\n  dup2\n  eq\n  tag_64\n  jumpi\n    /* \"#utility.yul\":1528:1805   */\n  jump(tag_62)\n    /* \"#utility.yul\":1578:1605   */\ntag_63:\n    /* \"#utility.yul\":1596:1597   */\n  0x01\n    /* \"#utility.yul\":1587:1597   */\n  swap2\n  pop\n    /* \"#utility.yul\":1598:1603   */\n  pop\n  jump(tag_59)\n    /* \"#utility.yul\":1614:1805   */\ntag_64:\n    /* \"#utility.yul\":1659:1662   */\n  0xff\n    /* \"#utility.yul\":1649:1657   */\n  dup5\n    /* \"#utility.yul\":1646:1663   */\n  gt\n    /* \"#utility.yul\":1643:1686   */\n  iszero\n  tag_65\n  jumpi\n    /* \"#utility.yul\":1666:1684   */\n  tag_66\n  tag_40\n  jump\t// in\ntag_66:\n    /* \"#utility.yul\":1643:1686   */\ntag_65:\n    /* \"#utility.yul\":1715:1723   */\n  dup4\n    /* \"#utility.yul\":1712:1713   */\n  0x02\n    /* \"#utility.yul\":1708:1724   */\n  exp\n    /* \"#utility.yul\":1699:1724   */\n  swap2\n  pop\n    /* \"#utility.yul\":1750:1753   */\n  dup5\n    /* \"#utility.yul\":1743:1748   */\n  dup3\n    /* \"#utility.yul\":1740:1754   */\n  gt\n    /* \"#utility.yul\":1737:1777   */\n  iszero\n  tag_67\n  jumpi\n    /* \"#utility.yul\":1757:1775   */\n  tag_68\n  tag_40\n  jump\t// in\ntag_68:\n    /* \"#utility.yul\":1737:1777   */\ntag_67:\n    /* \"#utility.yul\":1790:1795   */\n  pop\n  jump(tag_59)\n    /* \"#utility.yul\":1528:1805   */\ntag_62:\n  pop\n    /* \"#utility.yul\":1914:1916   */\n  0x20\n    /* \"#utility.yul\":1904:1912   */\n  dup4\n    /* \"#utility.yul\":1901:1917   */\n  lt\n    /* \"#utility.yul\":1895:1898   */\n  0x0133\n    /* \"#utility.yul\":1889:1893   */\n  dup4\n    /* \"#utility.yul\":1886:1899   */\n  lt\n    /* \"#utility.yul\":1882:1918   */\n  and\n    /* \"#utility.yul\":1864:1866   */\n  0x4e\n    /* \"#utility.yul\":1854:1862   */\n  dup5\n    /* \"#utility.yul\":1851:1867   */\n  lt\n    /* \"#utility.yul\":1846:1848   */\n  0x0b\n    /* \"#utility.yul\":1840:1844   */\n  dup5\n    /* \"#utility.yul\":1837:1849   */\n  lt\n    /* \"#utility.yul\":1833:1868   */\n  and\n    /* \"#utility.yul\":1817:1928   */\n  or\n    /* \"#utility.yul\":1814:2060   */\n  iszero\n  tag_69\n  jumpi\n    /* \"#utility.yul\":1970:1978   */\n  dup3\n    /* \"#utility.yul\":1964:1968   */\n  dup3\n    /* \"#utility.yul\":1960:1979   */\n  exp\n    /* \"#utility.yul\":1951:1979   */\n  swap1\n  pop\n    /* \"#utility.yul\":2005:2008   */\n  dup4\n    /* \"#utility.yul\":1998:2003   */\n  dup2\n    /* \"#utility.yul\":1995:2009   */\n  gt\n    /* \"#utility.yul\":1992:2032   */\n  iszero\n  tag_70\n  jumpi\n    /* \"#utility.yul\":2012:2030   */\n  tag_71\n  tag_40\n  jump\t// in\ntag_71:\n    /* \"#utility.yul\":1992:2032   */\ntag_70:\n    /* \"#utility.yul\":2045:2050   */\n  jump(tag_59)\n    /* \"#utility.yul\":1814:2060   */\ntag_69:\n    /* \"#utility.yul\":2085:2127   */\n  tag_72\n    /* \"#utility.yul\":2123:2126   */\n  dup5\n    /* \"#utility.yul\":2113:2121   */\n  dup5\n    /* \"#utility.yul\":2107:2111   */\n  dup5\n    /* \"#utility.yul\":2104:2105   */\n  0x01\n    /* \"#utility.yul\":2085:2127   */\n  tag_42\n  jump\t// in\ntag_72:\n    /* \"#utility.yul\":2070:2127   */\n  swap3\n  pop\n  swap1\n  pop\n    /* \"#utility.yul\":2159:2163   */\n  dup2\n    /* \"#utility.yul\":2154:2157   */\n  dup5\n    /* \"#utility.yul\":2150:2164   */\n  div\n    /* \"#utility.yul\":2143:2148   */\n  dup2\n    /* \"#utility.yul\":2140:2165   */\n  gt\n    /* \"#utility.yul\":2137:2188   */\n  iszero\n  tag_73\n  jumpi\n    /* \"#utility.yul\":2168:2186   */\n  tag_74\n  tag_40\n  jump\t// in\ntag_74:\n    /* \"#utility.yul\":2137:2188   */\ntag_73:\n    /* \"#utility.yul\":2217:2221   */\n  dup2\n    /* \"#utility.yul\":2210:2215   */\n  dup2\n    /* \"#utility.yul\":2206:2222   */\n  mul\n    /* \"#utility.yul\":2197:2222   */\n  swap1\n  pop\n    /* \"#utility.yul\":1155:2228   */\ntag_59:\n  swap4\n  swap3\n  pop\n  pop\n  pop\n  jump\t// out\n    /* \"#utility.yul\":2234:2311   */\ntag_44:\n    /* \"#utility.yul\":2271:2278   */\n  0x00\n    /* \"#utility.yul\":2300:2305   */\n  dup2\n    /* \"#utility.yul\":2289:2305   */\n  swap1\n  pop\n    /* \"#utility.yul\":2234:2311   */\n  swap2\n  swap1\n  pop\n  jump\t// out\n    /* \"#utility.yul\":2317:2403   */\ntag_45:\n    /* \"#utility.yul\":2352:2359   */\n  0x00\n    /* \"#utility.yul\":2392:2396   */\n  0xff\n    /* \"#utility.yul\":2385:2390   */\n  dup3\n    /* \"#utility.yul\":2381:2397   */\n  and\n    /* \"#utility.yul\":2370:2397   */\n  swap1\n  pop\n    /* \"#utility.yul\":2317:2403   */\n  swap2\n  swap1\n  pop\n  jump\t// out\n    /* \"#utility.yul\":2409:2690   */\ntag_2:\n    /* \"#utility.yul\":2467:2472   */\n  0x00\n    /* \"#utility.yul\":2491:2514   */\n  tag_78\n    /* \"#utility.yul\":2509:2513   */\n  dup3\n    /* \"#utility.yul\":2491:2514   */\n  tag_44\n  jump\t// in\ntag_78:\n    /* \"#utility.yul\":2483:2514   */\n  swap2\n  pop\n    /* \"#utility.yul\":2535:2560   */\n  tag_79\n    /* \"#utility.yul\":2551:2559   */\n  dup4\n    /* \"#utility.yul\":2535:2560   */\n  tag_45\n  jump\t// in\ntag_79:\n    /* \"#utility.yul\":2523:2560   */\n  swap3\n  pop\n    /* \"#utility.yul\":2579:2683   */\n  tag_80\n    /* \"#utility.yul\":2616:2682   */\n  0xffffffffffffffffffffffffffffffffffffffffffffffffffffffffffffffff\n    /* \"#utility.yul\":2606:2614   */\n  dup5\n    /* \"#utility.yul\":2600:2604   */\n  dup5\n    /* \"#utility.yul\":2579:2683   */\n  tag_43\n  jump\t// in\ntag_80:\n    /* \"#utility.yul\":2570:2683   */\n  swap1\n  pop\n    /* \"#utility.yul\":2409:2690   */\n  swap3\n  swap2\n  pop\n  pop\n  jump\t// out\n    /* \"#utility.yul\":2696:3106   */\ntag_4:\n    /* \"#utility.yul\":2736:2743   */\n  0x00\n    /* \"#utility.yul\":2759:2779   */\n  tag_82\n    /* \"#utility.yul\":2777:2778   */\n  dup3\n    /* \"#utility.yul\":2759:2779   */\n  tag_44\n  jump\t// in\ntag_82:\n    /* \"#utility.yul\":2754:2779   */\n  swap2\n  pop\n    /* \"#utility.yul\":2793:2813   */\n  tag_83\n    /* \"#utility.yul\":2811:2812   */\n  dup4\n    /* \"#utility.yul\":2793:2813   */\n  tag_44\n  jump\t// in\ntag_83:\n    /* \"#utility.yul\":2788:2813   */\n  swap3\n  pop\n    /* \"#utility.yul\":2848:2849   */\n  dup3\n    /* \"#utility.yul\":2845:2846   */\n  dup3\n    /* \"#utility.yul\":2841:2850   */\n  mul\n    /* \"#utility.yul\":2870:2900   */\n  tag_84\n    /* \"#utility.yul\":2888:2899   */\n  dup2\n    /* \"#utility.yul\":2870:2900   */\n  tag_44\n  jump\t// in\ntag_84:\n    /* \"#utility.yul\":2859:2900   */\n  swap2\n  pop\n    /* \"#utility.yul\":3049:3050   */\n  dup3\n    /* \"#utility.yul\":3040:3047   */\n  dup3\n    /* \"#utility.yul\":3036:3051   */\n  div\n    /* \"#utility.yul\":3033:3034   */\n  dup5\n    /* \"#utility.yul\":3030:3052   */\n  eq\n    /* \"#utility.yul\":3010:3011   */\n  dup4\n    /* \"#utility.yul\":3003:3012   */\n  iszero\n    /* \"#utility.yul\":2983:3066   */\n  or\n    /* \"#utility.yul\":2960:3099   */\n  tag_85\n  jumpi\n    /* \"#utility.yul\":3079:3097   */\n  tag_86\n  tag_40\n  jump\t// in\ntag_86:\n    /* \"#utility.yul\":2960:3099   */\ntag_85:\n    /* \"#utility.yul\":2744:3106   */\n  pop\n    /* \"#utility.yul\":2696:3106   */\n  swap3\n  swap2\n  pop\n  pop\n  jump\t// out\n    /* \"#utility.yul\":3112:3292   */\ntag_46:\n    /* \"#utility.yul\":3160:3237   */\n  0x4e487b7100000000000000000000000000000000000000000000000000000000\n    /* \"#utility.yul\":3157:3158   */\n  0x00\n    /* \"#utility.yul\":3150:3238   */\n  mstore\n    /* \"#utility.yul\":3257:3261   */\n  0x12\n    /* \"#utility.yul\":3254:3255   */\n  0x04\n    /* \"#utility.yul\":3247:3262   */\n  mstore\n    /* \"#utility.yul\":3281:3285   */\n  0x24\n    /* \"#utility.yul\":3278:3279   */\n  0x00\n    /* \"#utility.yul\":3271:3286   */\n  revert\n    /* \"#utility.yul\":3298:3483   */\ntag_7:\n    /* \"#utility.yul\":3338:3339   */\n  0x00\n    /* \"#utility.yul\":3355:3375   */\n  tag_89\n    /* \"#utility.yul\":3373:3374   */\n  dup3\n    /* \"#utility.yul\":3355:3375   */\n  tag_44\n  jump\t// in\ntag_89:\n    /* \"#utility.yul\":3350:3375   */\n  swap2\n  pop\n    /* \"#utility.yul\":3389:3409   */\n  tag_90\n    /* \"#utility.yul\":3407:3408   */\n  dup4\n    /* \"#utility.yul\":3389:3409   */\n  tag_44\n  jump\t// in\ntag_90:\n    /* \"#utility.yul\":3384:3409   */\n  swap3\n  pop\n    /* \"#utility.yul\":3428:3429   */\n  dup3\n    /* \"#utility.yul\":3418:3453   */\n  tag_91\n  jumpi\n    /* \"#utility.yul\":3433:3451   */\n  tag_92\n  tag_46\n  jump\t// in\ntag_92:\n    /* \"#utility.yul\":3418:3453   */\ntag_91:\n    /* \"#utility.yul\":3475:3476   */\n  dup3\n    /* \"#utility.yul\":3472:3473   */\n  dup3\n    /* \"#utility.yul\":3468:3477   */\n  div\n    /* \"#utility.yul\":3463:3477   */\n  swap1\n  pop\n    /* \"#utility.yul\":3298:3483   */\n  swap3\n  swap2\n  pop\n  pop\n  jump\t// out\n    /* \"#utility.yul\":3489:3607   */\ntag_47:\n    /* \"#utility.yul\":3576:3600   */\n  tag_94\n    /* \"#utility.yul\":3594:3599   */\n  dup2\n    /* \"#utility.yul\":3576:3600   */\n  tag_44\n  jump\t// in\ntag_94:\n    /* \"#utility.yul\":3571:3574   */\n  dup3\n    /* \"#utility.yul\":3564:3601   */\n  mstore\n    /* \"#utility.yul\":3489:3607   */\n  pop\n  pop\n  jump\t// out\n    /* \"#utility.yul\":3613:3835   */\ntag_36:\n    /* \"#utility.yul\":3706:3710   */\n  0x00\n    /* \"#utility.yul\":3744:3746   */\n  0x20\n    /* \"#utility.yul\":3733:3742   */\n  dup3\n    /* \"#utility.yul\":3729:3747   */\n  add\n    /* \"#utility.yul\":3721:3747   */\n  swap1\n  pop\n    /* \"#utility.yul\":3757:3828   */\n  tag_96\n    /* \"#utility.yul\":3825:3826   */\n  0x00\n    /* \"#utility.yul\":3814:3823   */\n  dup4\n    /* \"#utility.yul\":3810:3827   */\n  add\n    /* \"#utility.yul\":3801:3807   */\n  dup5\n    /* \"#utility.yul\":3757:3828   */\n  tag_47\n  jump\t// in\ntag_96:\n    /* \"#utility.yul\":3613:3835   */\n  swap3\n  swap2\n  pop\n  pop\n  jump\t// out\n    /* \"contracts/Dog/SLAVE.sol\":3482:12777  contract SLAVE   is Context, IERC20, Ownable {... */\ntag_37:\n  dataSize(sub_0)\n  dup1\n  dataOffset(sub_0)\n  0x00\n  codecopy\n  0x00\n  return\nstop\n\nsub_0: assembly {\n        /* \"contracts/Dog/SLAVE.sol\":3482:12777  contract SLAVE   is Context, IERC20, Ownable {... */\n      mstore(0x40, 0x80)\n      jumpi(tag_1, lt(calldatasize, 0x04))\n      shr(0xe0, calldataload(0x00))\n      dup1\n      0x77b54bad\n      gt\n      tag_25\n      jumpi\n      dup1\n      0xa9059cbb\n      gt\n      tag_26\n      jumpi\n      dup1\n      0xa9059cbb\n      eq\n      tag_19\n      jumpi\n      dup1\n      0xbf474bed\n      eq\n      tag_20\n      jumpi\n      dup1\n      0xc9567bf9\n      eq\n      tag_21\n      jumpi\n      dup1\n      0xdd62ed3e\n      eq\n      tag_22\n      jumpi\n      dup1\n      0xec1f3f63\n      eq\n      tag_23\n      jumpi\n      dup1\n      0xf4293890\n      eq\n      tag_24\n      jumpi\n      jump(tag_2)\n    tag_26:\n      dup1\n      0x77b54bad\n      eq\n      tag_14\n      jumpi\n      dup1\n      0x7d1db4a5\n      eq\n      tag_15\n      jumpi\n      dup1\n      0x8da5cb5b\n      eq\n      tag_16\n      jumpi\n      dup1\n      0x8f9a55c0\n      eq\n      tag_17\n      jumpi\n      dup1\n      0x95d89b41\n      eq\n      tag_18\n      jumpi\n      jump(tag_2)\n    tag_25:\n      dup1\n      0x23b872dd\n      gt\n      tag_27\n      jumpi\n      dup1\n      0x23b872dd\n      eq\n      tag_8\n      jumpi\n      dup1\n      0x313ce567\n      eq\n      tag_9\n      jumpi\n      dup1\n      0x51bc3c85\n      eq\n      tag_10\n      jumpi\n      dup1\n      0x62256589\n      eq\n      tag_11\n      jumpi\n      dup1\n      0x70a08231\n      eq\n      tag_12\n      jumpi\n      dup1\n      0x715018a6\n      eq\n      tag_13\n      jumpi\n      jump(tag_2)\n    tag_27:\n      dup1\n      0x06fdde03\n      eq\n      tag_3\n      jumpi\n      dup1\n      0x095ea7b3\n      eq\n      tag_4\n      jumpi\n      dup1\n      0x0faee56f\n      eq\n      tag_5\n      jumpi\n      dup1\n      0x109daa99\n      eq\n      tag_6\n      jumpi\n      dup1\n      0x18160ddd\n      eq\n      tag_7\n      jumpi\n      jump(tag_2)\n    tag_1:\n      jumpi(tag_2, calldatasize)\n      stop\n    tag_2:\n      0x00\n      dup1\n      revert\n        /* \"contracts/Dog/SLAVE.sol\":5544:5627  function name() public pure returns (string memory) {... */\n    tag_3:\n      callvalue\n      dup1\n      iszero\n      tag_30\n      jumpi\n      0x00\n      dup1\n      revert\n    tag_30:\n      pop\n      tag_31\n      tag_32\n      jump\t// in\n    tag_31:\n      mload(0x40)\n      tag_33\n      swap2\n      swap1\n      tag_34\n      jump\t// in\n    tag_33:\n      mload(0x40)\n      dup1\n      swap2\n      sub\n      swap1\n      return\n        /* \"contracts/Dog/SLAVE.sol\":6377:6538  function approve(address spender, uint256 amount) public override returns (bool) {... */\n    tag_4:\n      callvalue\n      dup1\n      iszero\n      tag_35\n      jumpi\n      0x00\n      dup1\n      revert\n    tag_35:\n      pop\n      tag_36\n      0x04\n      dup1\n      calldatasize\n      sub\n      dup2\n      add\n      swap1\n      tag_37\n      swap2\n      swap1\n      tag_38\n      jump\t// in\n    tag_37:\n      tag_39\n      jump\t// in\n    tag_36:\n      mload(0x40)\n      tag_40\n      swap2\n      swap1\n      tag_41\n      jump\t// in\n    tag_40:\n      mload(0x40)\n      dup1\n      swap2\n      sub\n      swap1\n      return\n        /* \"contracts/Dog/SLAVE.sol\":4569:4617  uint256 public _maxTaxSwap = (_tTotal * 1) / 100 */\n    tag_5:\n      callvalue\n      dup1\n      iszero\n      tag_42\n      jumpi\n      0x00\n      dup1\n      revert\n    tag_42:\n      pop\n      tag_43\n      tag_44\n      jump\t// in\n    tag_43:\n      mload(0x40)\n      tag_45\n      swap2\n      swap1\n      tag_46\n      jump\t// in\n    tag_45:\n      mload(0x40)\n      dup1\n      swap2\n      sub\n      swap1\n      return\n        /* \"contracts/Dog/SLAVE.sol\":10563:10681  function removeTransferTax() external onlyOwner{... */\n    tag_6:\n      callvalue\n      dup1\n      iszero\n      tag_47\n      jumpi\n      0x00\n      dup1\n      revert\n    tag_47:\n      pop\n      tag_48\n      tag_49\n      jump\t// in\n    tag_48:\n      stop\n        /* \"contracts/Dog/SLAVE.sol\":5821:5916  function totalSupply() public pure override returns (uint256) {... */\n    tag_7:\n      callvalue\n      dup1\n      iszero\n      tag_50\n      jumpi\n      0x00\n      dup1\n      revert\n    tag_50:\n      pop\n      tag_51\n      tag_52\n      jump\t// in\n    tag_51:\n      mload(0x40)\n      tag_53\n      swap2\n      swap1\n      tag_46\n      jump\t// in\n    tag_53:\n      mload(0x40)\n      dup1\n      swap2\n      sub\n      swap1\n      return\n        /* \"contracts/Dog/SLAVE.sol\":6546:6859  function transferFrom(address sender, address recipient, uint256 amount) public override returns (bool) {... */\n    tag_8:\n      callvalue\n      dup1\n      iszero\n      tag_54\n      jumpi\n      0x00\n      dup1\n      revert\n    tag_54:\n      pop\n      tag_55\n      0x04\n      dup1\n      calldatasize\n      sub\n      dup2\n      add\n      swap1\n      tag_56\n      swap2\n      swap1\n      tag_57\n      jump\t// in\n    tag_56:\n      tag_58\n      jump\t// in\n    tag_55:\n      mload(0x40)\n      tag_59\n      swap2\n      swap1\n      tag_41\n      jump\t// in\n    tag_59:\n      mload(0x40)\n      dup1\n      swap2\n      sub\n      swap1\n      return\n        /* \"contracts/Dog/SLAVE.sol\":5730:5813  function decimals() public pure returns (uint8) {... */\n    tag_9:\n      callvalue\n      dup1\n      iszero\n      tag_60\n      jumpi\n      0x00\n      dup1\n      revert\n    tag_60:\n      pop\n      tag_61\n      tag_62\n      jump\t// in\n    tag_61:\n      mload(0x40)\n      tag_63\n      swap2\n      swap1\n      tag_64\n      jump\t// in\n    tag_63:\n      mload(0x40)\n      dup1\n      swap2\n      sub\n      swap1\n      return\n        /* \"contracts/Dog/SLAVE.sol\":12424:12774  function manualSwap() external {... */\n    tag_10:\n      callvalue\n      dup1\n      iszero\n      tag_65\n      jumpi\n      0x00\n      dup1\n      revert\n    tag_65:\n      pop\n      tag_66\n      tag_67\n      jump\t// in\n    tag_66:\n      stop\n        /* \"contracts/Dog/SLAVE.sol\":10397:10555  function removeLimit() external onlyOwner{... */\n    tag_11:\n      callvalue\n      dup1\n      iszero\n      tag_68\n      jumpi\n      0x00\n      dup1\n      revert\n    tag_68:\n      pop\n      tag_69\n      tag_70\n      jump\t// in\n    tag_69:\n      stop\n        /* \"contracts/Dog/SLAVE.sol\":5924:6043  function balanceOf(address account) public view override returns (uint256) {... */\n    tag_12:\n      callvalue\n      dup1\n      iszero\n      tag_71\n      jumpi\n      0x00\n      dup1\n      revert\n    tag_71:\n      pop\n      tag_72\n      0x04\n      dup1\n      calldatasize\n      sub\n      dup2\n      add\n      swap1\n      tag_73\n      swap2\n      swap1\n      tag_74\n      jump\t// in\n    tag_73:\n      tag_75\n      jump\t// in\n    tag_72:\n      mload(0x40)\n      tag_76\n      swap2\n      swap1\n      tag_46\n      jump\t// in\n    tag_76:\n      mload(0x40)\n      dup1\n      swap2\n      sub\n      swap1\n      return\n        /* \"contracts/Dog/SLAVE.sol\":2563:2711  function renounceOwnership() public virtual onlyOwner {... */\n    tag_13:\n      callvalue\n      dup1\n      iszero\n      tag_77\n      jumpi\n      0x00\n      dup1\n      revert\n    tag_77:\n      pop\n      tag_78\n      tag_79\n      jump\t// in\n    tag_78:\n      stop\n        /* \"contracts/Dog/SLAVE.sol\":11782:12155  function clearStuckToken(address tokenAddress, uint256 tokens) external returns (bool success) {... */\n    tag_14:\n      callvalue\n      dup1\n      iszero\n      tag_80\n      jumpi\n      0x00\n      dup1\n      revert\n    tag_80:\n      pop\n      tag_81\n      0x04\n      dup1\n      calldatasize\n      sub\n      dup2\n      add\n      swap1\n      tag_82\n      swap2\n      swap1\n      tag_38\n      jump\t// in\n    tag_82:\n      tag_83\n      jump\t// in\n    tag_81:\n      mload(0x40)\n      tag_84\n      swap2\n      swap1\n      tag_41\n      jump\t// in\n    tag_84:\n      mload(0x40)\n      dup1\n      swap2\n      sub\n      swap1\n      return\n        /* \"contracts/Dog/SLAVE.sol\":4393:4442  uint256 public _maxTxAmount = (_tTotal * 2) / 100 */\n    tag_15:\n      callvalue\n      dup1\n      iszero\n      tag_85\n      jumpi\n      0x00\n      dup1\n      revert\n    tag_85:\n      pop\n      tag_86\n      tag_87\n      jump\t// in\n    tag_86:\n      mload(0x40)\n      tag_88\n      swap2\n      swap1\n      tag_46\n      jump\t// in\n    tag_88:\n      mload(0x40)\n      dup1\n      swap2\n      sub\n      swap1\n      return\n        /* \"contracts/Dog/SLAVE.sol\":2349:2428  function owner() public view returns (address) {... */\n    tag_16:\n      callvalue\n      dup1\n      iszero\n      tag_89\n      jumpi\n      0x00\n      dup1\n      revert\n    tag_89:\n      pop\n      tag_90\n      tag_91\n      jump\t// in\n    tag_90:\n      mload(0x40)\n      tag_92\n      swap2\n      swap1\n      tag_93\n      jump\t// in\n    tag_92:\n      mload(0x40)\n      dup1\n      swap2\n      sub\n      swap1\n      return\n        /* \"contracts/Dog/SLAVE.sol\":4449:4500  uint256 public _maxWalletSize = (_tTotal * 2) / 100 */\n    tag_17:\n      callvalue\n      dup1\n      iszero\n      tag_94\n      jumpi\n      0x00\n      dup1\n      revert\n    tag_94:\n      pop\n      tag_95\n      tag_96\n      jump\t// in\n    tag_95:\n      mload(0x40)\n      tag_97\n      swap2\n      swap1\n      tag_46\n      jump\t// in\n    tag_97:\n      mload(0x40)\n      dup1\n      swap2\n      sub\n      swap1\n      return\n        /* \"contracts/Dog/SLAVE.sol\":5635:5722  function symbol() public pure returns (string memory) {... */\n    tag_18:\n      callvalue\n      dup1\n      iszero\n      tag_98\n      jumpi\n      0x00\n      dup1\n      revert\n    tag_98:\n      pop\n      tag_99\n      tag_100\n      jump\t// in\n    tag_99:\n      mload(0x40)\n      tag_101\n      swap2\n      swap1\n      tag_34\n      jump\t// in\n    tag_101:\n      mload(0x40)\n      dup1\n      swap2\n      sub\n      swap1\n      return\n        /* \"contracts/Dog/SLAVE.sol\":6051:6218  function transfer(address recipient, uint256 amount) public override returns (bool) {... */\n    tag_19:\n      callvalue\n      dup1\n      iszero\n      tag_102\n      jumpi\n      0x00\n      dup1\n      revert\n    tag_102:\n      pop\n      tag_103\n      0x04\n      dup1\n      calldatasize\n      sub\n      dup2\n      add\n      swap1\n      tag_104\n      swap2\n      swap1\n      tag_38\n      jump\t// in\n    tag_104:\n      tag_105\n      jump\t// in\n    tag_103:\n      mload(0x40)\n      tag_106\n      swap2\n      swap1\n      tag_41\n      jump\t// in\n    tag_106:\n      mload(0x40)\n      dup1\n      swap2\n      sub\n      swap1\n      return\n        /* \"contracts/Dog/SLAVE.sol\":4507:4562  uint256 public _taxSwapThreshold = (_tTotal * 3) / 1000 */\n    tag_20:\n      callvalue\n      dup1\n      iszero\n      tag_107\n      jumpi\n      0x00\n      dup1\n      revert\n    tag_107:\n      pop\n      tag_108\n      tag_109\n      jump\t// in\n    tag_108:\n      mload(0x40)\n      tag_110\n      swap2\n      swap1\n      tag_46\n      jump\t// in\n    tag_110:\n      mload(0x40)\n      dup1\n      swap2\n      sub\n      swap1\n      return\n        /* \"contracts/Dog/SLAVE.sol\":10789:11497  function openTrading() external onlyOwner() {... */\n    tag_21:\n      callvalue\n      dup1\n      iszero\n      tag_111\n      jumpi\n      0x00\n      dup1\n      revert\n    tag_111:\n      pop\n      tag_112\n      tag_113\n      jump\t// in\n    tag_112:\n      stop\n        /* \"contracts/Dog/SLAVE.sol\":6226:6369  function allowance(address owner, address spender) public view override returns (uint256) {... */\n    tag_22:\n      callvalue\n      dup1\n      iszero\n      tag_114\n      jumpi\n      0x00\n      dup1\n      revert\n    tag_114:\n      pop\n      tag_115\n      0x04\n      dup1\n      calldatasize\n      sub\n      dup2\n      add\n      swap1\n      tag_116\n      swap2\n      swap1\n      tag_117\n      jump\t// in\n    tag_116:\n      tag_118\n      jump\t// in\n    tag_115:\n      mload(0x40)\n      tag_119\n      swap2\n      swap1\n      tag_46\n      jump\t// in\n    tag_119:\n      mload(0x40)\n      dup1\n      swap2\n      sub\n      swap1\n      return\n        /* \"contracts/Dog/SLAVE.sol\":11546:11774  function reduceFee(uint256 _newFee) external{... */\n    tag_23:\n      callvalue\n      dup1\n      iszero\n      tag_120\n      jumpi\n      0x00\n      dup1\n      revert\n    tag_120:\n      pop\n      tag_121\n      0x04\n      dup1\n      calldatasize\n      sub\n      dup2\n      add\n      swap1\n      tag_122\n      swap2\n      swap1\n      tag_123\n      jump\t// in\n    tag_122:\n      tag_124\n      jump\t// in\n    tag_121:\n      stop\n        /* \"contracts/Dog/SLAVE.sol\":12163:12416  function manualSend() external {... */\n    tag_24:\n      callvalue\n      dup1\n      iszero\n      tag_125\n      jumpi\n      0x00\n      dup1\n      revert\n    tag_125:\n      pop\n      tag_126\n      tag_127\n      jump\t// in\n    tag_126:\n      stop\n        /* \"contracts/Dog/SLAVE.sol\":5544:5627  function name() public pure returns (string memory) {... */\n    tag_32:\n        /* \"contracts/Dog/SLAVE.sol\":5581:5594  string memory */\n      0x60\n        /* \"contracts/Dog/SLAVE.sol\":5614:5619  _name */\n      mload(0x40)\n      dup1\n      0x40\n      add\n      0x40\n      mstore\n      dup1\n      0x0a\n      dup2\n      mstore\n      0x20\n      add\n      0x5341494e5420434f494e00000000000000000000000000000000000000000000\n      dup2\n      mstore\n      pop\n        /* \"contracts/Dog/SLAVE.sol\":5607:5619  return _name */\n      swap1\n      pop\n        /* \"contracts/Dog/SLAVE.sol\":5544:5627  function name() public pure returns (string memory) {... */\n      swap1\n      jump\t// out\n        /* \"contracts/Dog/SLAVE.sol\":6377:6538  function approve(address spender, uint256 amount) public override returns (bool) {... */\n    tag_39:\n        /* \"contracts/Dog/SLAVE.sol\":6452:6456  bool */\n      0x00\n        /* \"contracts/Dog/SLAVE.sol\":6469:6508  _approve(_msgSender(), spender, amount) */\n      tag_130\n        /* \"contracts/Dog/SLAVE.sol\":6478:6490  _msgSender() */\n      tag_131\n        /* \"contracts/Dog/SLAVE.sol\":6478:6488  _msgSender */\n      tag_132\n        /* \"contracts/Dog/SLAVE.sol\":6478:6490  _msgSender() */\n      jump\t// in\n    tag_131:\n        /* \"contracts/Dog/SLAVE.sol\":6492:6499  spender */\n      dup5\n        /* \"contracts/Dog/SLAVE.sol\":6501:6507  amount */\n      dup5\n        /* \"contracts/Dog/SLAVE.sol\":6469:6477  _approve */\n      tag_133\n        /* \"contracts/Dog/SLAVE.sol\":6469:6508  _approve(_msgSender(), spender, amount) */\n      jump\t// in\n    tag_130:\n        /* \"contracts/Dog/SLAVE.sol\":6526:6530  true */\n      0x01\n        /* \"contracts/Dog/SLAVE.sol\":6519:6530  return true */\n      swap1\n      pop\n        /* \"contracts/Dog/SLAVE.sol\":6377:6538  function approve(address spender, uint256 amount) public override returns (bool) {... */\n      swap3\n      swap2\n      pop\n      pop\n      jump\t// out\n        /* \"contracts/Dog/SLAVE.sol\":4569:4617  uint256 public _maxTaxSwap = (_tTotal * 1) / 100 */\n    tag_44:\n      sload(0x11)\n      dup2\n      jump\t// out\n        /* \"contracts/Dog/SLAVE.sol\":10563:10681  function removeTransferTax() external onlyOwner{... */\n    tag_49:\n        /* \"contracts/Dog/SLAVE.sol\":2486:2498  _msgSender() */\n      tag_135\n        /* \"contracts/Dog/SLAVE.sol\":2486:2496  _msgSender */\n      tag_132\n        /* \"contracts/Dog/SLAVE.sol\":2486:2498  _msgSender() */\n      jump\t// in\n    tag_135:\n        /* \"contracts/Dog/SLAVE.sol\":2476:2498  _owner == _msgSender() */\n      0xffffffffffffffffffffffffffffffffffffffff\n      and\n        /* \"contracts/Dog/SLAVE.sol\":2476:2482  _owner */\n      0x00\n      dup1\n      sload\n      swap1\n      0x0100\n      exp\n      swap1\n      div\n      0xffffffffffffffffffffffffffffffffffffffff\n      and\n        /* \"contracts/Dog/SLAVE.sol\":2476:2498  _owner == _msgSender() */\n      0xffffffffffffffffffffffffffffffffffffffff\n      and\n      eq\n        /* \"contracts/Dog/SLAVE.sol\":2468:2535  require(_owner == _msgSender(), \"Ownable: caller is not the owner\") */\n      tag_136\n      jumpi\n      mload(0x40)\n      0x08c379a000000000000000000000000000000000000000000000000000000000\n      dup2\n      mstore\n      0x04\n      add\n      tag_137\n      swap1\n      tag_138\n      jump\t// in\n    tag_137:\n      mload(0x40)\n      dup1\n      swap2\n      sub\n      swap1\n      revert\n    tag_136:\n        /* \"contracts/Dog/SLAVE.sol\":10635:10636  0 */\n      0x00\n        /* \"contracts/Dog/SLAVE.sol\":10621:10633  _transferTax */\n      0x0c\n        /* \"contracts/Dog/SLAVE.sol\":10621:10636  _transferTax= 0 */\n      dup2\n      swap1\n      sstore\n      pop\n        /* \"contracts/Dog/SLAVE.sol\":10652:10673  TransferTaxUpdated(0) */\n      0xe9b79e1a6c2dc43b4c0c6ff01ce9e3332d810e482270f464c0a21ad6c5fc6de3\n        /* \"contracts/Dog/SLAVE.sol\":10671:10672  0 */\n      0x00\n        /* \"contracts/Dog/SLAVE.sol\":10652:10673  TransferTaxUpdated(0) */\n      mload(0x40)\n      tag_140\n      swap2\n      swap1\n      tag_141\n      jump\t// in\n    tag_140:\n      mload(0x40)\n      dup1\n      swap2\n      sub\n      swap1\n      log1\n        /* \"contracts/Dog/SLAVE.sol\":10563:10681  function removeTransferTax() external onlyOwner{... */\n      jump\t// out\n        /* \"contracts/Dog/SLAVE.sol\":5821:5916  function totalSupply() public pure override returns (uint256) {... */\n    tag_52:\n        /* \"contracts/Dog/SLAVE.sol\":5874:5881  uint256 */\n      0x00\n        /* \"contracts/Dog/SLAVE.sol\":4205:4206  9 */\n      0x09\n        /* \"contracts/Dog/SLAVE.sol\":4260:4262  10 */\n      0x0a\n        /* \"contracts/Dog/SLAVE.sol\":4260:4273  10**_decimals */\n      tag_143\n      swap2\n      swap1\n      tag_144\n      jump\t// in\n    tag_143:\n        /* \"contracts/Dog/SLAVE.sol\":4247:4257  1000000000 */\n      0x3b9aca00\n        /* \"contracts/Dog/SLAVE.sol\":4247:4273  1000000000 * 10**_decimals */\n      tag_145\n      swap2\n      swap1\n      tag_146\n      jump\t// in\n    tag_145:\n        /* \"contracts/Dog/SLAVE.sol\":5894:5908  return _tTotal */\n      swap1\n      pop\n        /* \"contracts/Dog/SLAVE.sol\":5821:5916  function totalSupply() public pure override returns (uint256) {... */\n      swap1\n      jump\t// out\n        /* \"contracts/Dog/SLAVE.sol\":6546:6859  function transferFrom(address sender, address recipient, uint256 amount) public override returns (bool) {... */\n    tag_58:\n        /* \"contracts/Dog/SLAVE.sol\":6644:6648  bool */\n      0x00\n        /* \"contracts/Dog/SLAVE.sol\":6661:6697  _transfer(sender, recipient, amount) */\n      tag_148\n        /* \"contracts/Dog/SLAVE.sol\":6671:6677  sender */\n      dup5\n        /* \"contracts/Dog/SLAVE.sol\":6679:6688  recipient */\n      dup5\n        /* \"contracts/Dog/SLAVE.sol\":6690:6696  amount */\n      dup5\n        /* \"contracts/Dog/SLAVE.sol\":6661:6670  _transfer */\n      tag_149\n        /* \"contracts/Dog/SLAVE.sol\":6661:6697  _transfer(sender, recipient, amount) */\n      jump\t// in\n    tag_148:\n        /* \"contracts/Dog/SLAVE.sol\":6708:6829  _approve(sender, _msgSender(), _allowances[sender][_msgSender()].sub(amount, \"ERC20: transfer amount exceeds allowance\")) */\n      tag_150\n        /* \"contracts/Dog/SLAVE.sol\":6717:6723  sender */\n      dup5\n        /* \"contracts/Dog/SLAVE.sol\":6725:6737  _msgSender() */\n      tag_151\n        /* \"contracts/Dog/SLAVE.sol\":6725:6735  _msgSender */\n      tag_132\n        /* \"contracts/Dog/SLAVE.sol\":6725:6737  _msgSender() */\n      jump\t// in\n    tag_151:\n        /* \"contracts/Dog/SLAVE.sol\":6739:6828  _allowances[sender][_msgSender()].sub(amount, \"ERC20: transfer amount exceeds allowance\") */\n      tag_152\n        /* \"contracts/Dog/SLAVE.sol\":6777:6783  amount */\n      dup6\n        /* \"contracts/Dog/SLAVE.sol\":6739:6828  _allowances[sender][_msgSender()].sub(amount, \"ERC20: transfer amount exceeds allowance\") */\n      mload(0x40)\n      dup1\n      0x60\n      add\n      0x40\n      mstore\n      dup1\n      0x28\n      dup2\n      mstore\n      0x20\n      add\n      data_974d1b4421da69cc60b481194f0dad36a5bb4e23da810da7a7fb30cdba178330\n      0x28\n      swap2\n      codecopy\n        /* \"contracts/Dog/SLAVE.sol\":6739:6750  _allowances */\n      0x02\n        /* \"contracts/Dog/SLAVE.sol\":6739:6758  _allowances[sender] */\n      0x00\n        /* \"contracts/Dog/SLAVE.sol\":6751:6757  sender */\n      dup12\n        /* \"contracts/Dog/SLAVE.sol\":6739:6758  _allowances[sender] */\n      0xffffffffffffffffffffffffffffffffffffffff\n      and\n      0xffffffffffffffffffffffffffffffffffffffff\n      and\n      dup2\n      mstore\n      0x20\n      add\n      swap1\n      dup2\n      mstore\n      0x20\n      add\n      0x00\n      keccak256\n        /* \"contracts/Dog/SLAVE.sol\":6739:6772  _allowances[sender][_msgSender()] */\n      0x00\n        /* \"contracts/Dog/SLAVE.sol\":6759:6771  _msgSender() */\n      tag_153\n        /* \"contracts/Dog/SLAVE.sol\":6759:6769  _msgSender */\n      tag_132\n        /* \"contracts/Dog/SLAVE.sol\":6759:6771  _msgSender() */\n      jump\t// in\n    tag_153:\n        /* \"contracts/Dog/SLAVE.sol\":6739:6772  _allowances[sender][_msgSender()] */\n      0xffffffffffffffffffffffffffffffffffffffff\n      and\n      0xffffffffffffffffffffffffffffffffffffffff\n      and\n      dup2\n      mstore\n      0x20\n      add\n      swap1\n      dup2\n      mstore\n      0x20\n      add\n      0x00\n      keccak256\n      sload\n        /* \"contracts/Dog/SLAVE.sol\":6739:6776  _allowances[sender][_msgSender()].sub */\n      tag_154\n      swap1\n        /* \"contracts/Dog/SLAVE.sol\":6739:6828  _allowances[sender][_msgSender()].sub(amount, \"ERC20: transfer amount exceeds allowance\") */\n      swap3\n      swap2\n      swap1\n      0xffffffff\n      and\n      jump\t// in\n    tag_152:\n        /* \"contracts/Dog/SLAVE.sol\":6708:6716  _approve */\n      tag_133\n        /* \"contracts/Dog/SLAVE.sol\":6708:6829  _approve(sender, _msgSender(), _allowances[sender][_msgSender()].sub(amount, \"ERC20: transfer amount exceeds allowance\")) */\n      jump\t// in\n    tag_150:\n        /* \"contracts/Dog/SLAVE.sol\":6847:6851  true */\n      0x01\n        /* \"contracts/Dog/SLAVE.sol\":6840:6851  return true */\n      swap1\n      pop\n        /* \"contracts/Dog/SLAVE.sol\":6546:6859  function transferFrom(address sender, address recipient, uint256 amount) public override returns (bool) {... */\n      swap4\n      swap3\n      pop\n      pop\n      pop\n      jump\t// out\n        /* \"contracts/Dog/SLAVE.sol\":5730:5813  function decimals() public pure returns (uint8) {... */\n    tag_62:\n        /* \"contracts/Dog/SLAVE.sol\":5771:5776  uint8 */\n      0x00\n        /* \"contracts/Dog/SLAVE.sol\":4205:4206  9 */\n      0x09\n        /* \"contracts/Dog/SLAVE.sol\":5789:5805  return _decimals */\n      swap1\n      pop\n        /* \"contracts/Dog/SLAVE.sol\":5730:5813  function decimals() public pure returns (uint8) {... */\n      swap1\n      jump\t// out\n        /* \"contracts/Dog/SLAVE.sol\":12424:12774  function manualSwap() external {... */\n    tag_67:\n        /* \"contracts/Dog/SLAVE.sol\":12490:12500  _taxWallet */\n      0x04\n      0x00\n      swap1\n      sload\n      swap1\n      0x0100\n      exp\n      swap1\n      div\n      0xffffffffffffffffffffffffffffffffffffffff\n      and\n        /* \"contracts/Dog/SLAVE.sol\":12474:12500  _msgSender() == _taxWallet */\n      0xffffffffffffffffffffffffffffffffffffffff\n      and\n        /* \"contracts/Dog/SLAVE.sol\":12474:12486  _msgSender() */\n      tag_157\n        /* \"contracts/Dog/SLAVE.sol\":12474:12484  _msgSender */\n      tag_132\n        /* \"contracts/Dog/SLAVE.sol\":12474:12486  _msgSender() */\n      jump\t// in\n    tag_157:\n        /* \"contracts/Dog/SLAVE.sol\":12474:12500  _msgSender() == _taxWallet */\n      0xffffffffffffffffffffffffffffffffffffffff\n      and\n      eq\n        /* \"contracts/Dog/SLAVE.sol\":12466:12501  require(_msgSender() == _taxWallet) */\n      tag_158\n      jumpi\n      0x00\n      dup1\n      revert\n    tag_158:\n        /* \"contracts/Dog/SLAVE.sol\":12514:12534  uint256 tokenBalance */\n      0x00\n        /* \"contracts/Dog/SLAVE.sol\":12537:12561  balanceOf(address(this)) */\n      tag_159\n        /* \"contracts/Dog/SLAVE.sol\":12555:12559  this */\n      address\n        /* \"contracts/Dog/SLAVE.sol\":12537:12546  balanceOf */\n      tag_75\n        /* \"contracts/Dog/SLAVE.sol\":12537:12561  balanceOf(address(this)) */\n      jump\t// in\n    tag_159:\n        /* \"contracts/Dog/SLAVE.sol\":12514:12561  uint256 tokenBalance = balanceOf(address(this)) */\n      swap1\n      pop\n        /* \"contracts/Dog/SLAVE.sol\":12588:12589  0 */\n      0x00\n        /* \"contracts/Dog/SLAVE.sol\":12575:12587  tokenBalance */\n      dup2\n        /* \"contracts/Dog/SLAVE.sol\":12575:12589  tokenBalance>0 */\n      gt\n        /* \"contracts/Dog/SLAVE.sol\":12572:12634  if(tokenBalance>0){ swapTokensForEth(tokenBalance);... */\n      iszero\n      tag_160\n      jumpi\n        /* \"contracts/Dog/SLAVE.sol\":12592:12622  swapTokensForEth(tokenBalance) */\n      tag_161\n        /* \"contracts/Dog/SLAVE.sol\":12609:12621  tokenBalance */\n      dup2\n        /* \"contracts/Dog/SLAVE.sol\":12592:12608  swapTokensForEth */\n      tag_162\n        /* \"contracts/Dog/SLAVE.sol\":12592:12622  swapTokensForEth(tokenBalance) */\n      jump\t// in\n    tag_161:\n        /* \"contracts/Dog/SLAVE.sol\":12572:12634  if(tokenBalance>0){ swapTokensForEth(tokenBalance);... */\n    tag_160:\n        /* \"contracts/Dog/SLAVE.sol\":12646:12664  uint256 ethBalance */\n      0x00\n        /* \"contracts/Dog/SLAVE.sol\":12666:12687  address(this).balance */\n      selfbalance\n        /* \"contracts/Dog/SLAVE.sol\":12646:12687  uint256 ethBalance= address(this).balance */\n      swap1\n      pop\n        /* \"contracts/Dog/SLAVE.sol\":12712:12713  0 */\n      0x00\n        /* \"contracts/Dog/SLAVE.sol\":12701:12711  ethBalance */\n      dup2\n        /* \"contracts/Dog/SLAVE.sol\":12701:12713  ethBalance>0 */\n      gt\n        /* \"contracts/Dog/SLAVE.sol\":12698:12767  if(ethBalance>0){ ... */\n      iszero\n      tag_163\n      jumpi\n        /* \"contracts/Dog/SLAVE.sol\":12730:12754  sendETHToFee(ethBalance) */\n      tag_164\n        /* \"contracts/Dog/SLAVE.sol\":12743:12753  ethBalance */\n      dup2\n        /* \"contracts/Dog/SLAVE.sol\":12730:12742  sendETHToFee */\n      tag_165\n        /* \"contracts/Dog/SLAVE.sol\":12730:12754  sendETHToFee(ethBalance) */\n      jump\t// in\n    tag_164:\n        /* \"contracts/Dog/SLAVE.sol\":12698:12767  if(ethBalance>0){ ... */\n    tag_163:\n        /* \"contracts/Dog/SLAVE.sol\":12455:12774  {... */\n      pop\n      pop\n        /* \"contracts/Dog/SLAVE.sol\":12424:12774  function manualSwap() external {... */\n      jump\t// out\n        /* \"contracts/Dog/SLAVE.sol\":10397:10555  function removeLimit() external onlyOwner{... */\n    tag_70:\n        /* \"contracts/Dog/SLAVE.sol\":2486:2498  _msgSender() */\n      tag_167\n        /* \"contracts/Dog/SLAVE.sol\":2486:2496  _msgSender */\n      tag_132\n        /* \"contracts/Dog/SLAVE.sol\":2486:2498  _msgSender() */\n      jump\t// in\n    tag_167:\n        /* \"contracts/Dog/SLAVE.sol\":2476:2498  _owner == _msgSender() */\n      0xffffffffffffffffffffffffffffffffffffffff\n      and\n        /* \"contracts/Dog/SLAVE.sol\":2476:2482  _owner */\n      0x00\n      dup1\n      sload\n      swap1\n      0x0100\n      exp\n      swap1\n      div\n      0xffffffffffffffffffffffffffffffffffffffff\n      and\n        /* \"contracts/Dog/SLAVE.sol\":2476:2498  _owner == _msgSender() */\n      0xffffffffffffffffffffffffffffffffffffffff\n      and\n      eq\n        /* \"contracts/Dog/SLAVE.sol\":2468:2535  require(_owner == _msgSender(), \"Ownable: caller is not the owner\") */\n      tag_168\n      jumpi\n      mload(0x40)\n      0x08c379a000000000000000000000000000000000000000000000000000000000\n      dup2\n      mstore\n      0x04\n      add\n      tag_169\n      swap1\n      tag_138\n      jump\t// in\n    tag_169:\n      mload(0x40)\n      dup1\n      swap2\n      sub\n      swap1\n      revert\n    tag_168:\n        /* \"contracts/Dog/SLAVE.sol\":4205:4206  9 */\n      0x09\n        /* \"contracts/Dog/SLAVE.sol\":4260:4262  10 */\n      0x0a\n        /* \"contracts/Dog/SLAVE.sol\":4260:4273  10**_decimals */\n      tag_171\n      swap2\n      swap1\n      tag_144\n      jump\t// in\n    tag_171:\n        /* \"contracts/Dog/SLAVE.sol\":4247:4257  1000000000 */\n      0x3b9aca00\n        /* \"contracts/Dog/SLAVE.sol\":4247:4273  1000000000 * 10**_decimals */\n      tag_172\n      swap2\n      swap1\n      tag_146\n      jump\t// in\n    tag_172:\n        /* \"contracts/Dog/SLAVE.sol\":10449:10461  _maxTxAmount */\n      0x0e\n        /* \"contracts/Dog/SLAVE.sol\":10449:10470  _maxTxAmount= _tTotal */\n      dup2\n      swap1\n      sstore\n      pop\n        /* \"contracts/Dog/SLAVE.sol\":4205:4206  9 */\n      0x09\n        /* \"contracts/Dog/SLAVE.sol\":4260:4262  10 */\n      0x0a\n        /* \"contracts/Dog/SLAVE.sol\":4260:4273  10**_decimals */\n      tag_173\n      swap2\n      swap1\n      tag_144\n      jump\t// in\n    tag_173:\n        /* \"contracts/Dog/SLAVE.sol\":4247:4257  1000000000 */\n      0x3b9aca00\n        /* \"contracts/Dog/SLAVE.sol\":4247:4273  1000000000 * 10**_decimals */\n      tag_174\n      swap2\n      swap1\n      tag_146\n      jump\t// in\n    tag_174:\n        /* \"contracts/Dog/SLAVE.sol\":10481:10495  _maxWalletSize */\n      0x0f\n        /* \"contracts/Dog/SLAVE.sol\":10481:10504  _maxWalletSize= _tTotal */\n      dup2\n      swap1\n      sstore\n      pop\n        /* \"contracts/Dog/SLAVE.sol\":10520:10547  MaxTxAmountUpdated(_tTotal) */\n      0x947f344d56e1e8c70dc492fb94c4ddddd490c016aab685f5e7e47b2e85cb44cf\n        /* \"contracts/Dog/SLAVE.sol\":4205:4206  9 */\n      0x09\n        /* \"contracts/Dog/SLAVE.sol\":4260:4262  10 */\n      0x0a\n        /* \"contracts/Dog/SLAVE.sol\":4260:4273  10**_decimals */\n      tag_175\n      swap2\n      swap1\n      tag_144\n      jump\t// in\n    tag_175:\n        /* \"contracts/Dog/SLAVE.sol\":4247:4257  1000000000 */\n      0x3b9aca00\n        /* \"contracts/Dog/SLAVE.sol\":4247:4273  1000000000 * 10**_decimals */\n      tag_176\n      swap2\n      swap1\n      tag_146\n      jump\t// in\n    tag_176:\n        /* \"contracts/Dog/SLAVE.sol\":10520:10547  MaxTxAmountUpdated(_tTotal) */\n      mload(0x40)\n      tag_177\n      swap2\n      swap1\n      tag_46\n      jump\t// in\n    tag_177:\n      mload(0x40)\n      dup1\n      swap2\n      sub\n      swap1\n      log1\n        /* \"contracts/Dog/SLAVE.sol\":10397:10555  function removeLimit() external onlyOwner{... */\n      jump\t// out\n        /* \"contracts/Dog/SLAVE.sol\":5924:6043  function balanceOf(address account) public view override returns (uint256) {... */\n    tag_75:\n        /* \"contracts/Dog/SLAVE.sol\":5990:5997  uint256 */\n      0x00\n        /* \"contracts/Dog/SLAVE.sol\":6017:6026  _balances */\n      0x01\n        /* \"contracts/Dog/SLAVE.sol\":6017:6035  _balances[account] */\n      0x00\n        /* \"contracts/Dog/SLAVE.sol\":6027:6034  account */\n      dup4\n        /* \"contracts/Dog/SLAVE.sol\":6017:6035  _balances[account] */\n      0xffffffffffffffffffffffffffffffffffffffff\n      and\n      0xffffffffffffffffffffffffffffffffffffffff\n      and\n      dup2\n      mstore\n      0x20\n      add\n      swap1\n      dup2\n      mstore\n      0x20\n      add\n      0x00\n      keccak256\n      sload\n        /* \"contracts/Dog/SLAVE.sol\":6010:6035  return _balances[account] */\n      swap1\n      pop\n        /* \"contracts/Dog/SLAVE.sol\":5924:6043  function balanceOf(address account) public view override returns (uint256) {... */\n      swap2\n      swap1\n      pop\n      jump\t// out\n        /* \"contracts/Dog/SLAVE.sol\":2563:2711  function renounceOwnership() public virtual onlyOwner {... */\n    tag_79:\n        /* \"contracts/Dog/SLAVE.sol\":2486:2498  _msgSender() */\n      tag_180\n        /* \"contracts/Dog/SLAVE.sol\":2486:2496  _msgSender */\n      tag_132\n        /* \"contracts/Dog/SLAVE.sol\":2486:2498  _msgSender() */\n      jump\t// in\n    tag_180:\n        /* \"contracts/Dog/SLAVE.sol\":2476:2498  _owner == _msgSender() */\n      0xffffffffffffffffffffffffffffffffffffffff\n      and\n        /* \"contracts/Dog/SLAVE.sol\":2476:2482  _owner */\n      0x00\n      dup1\n      sload\n      swap1\n      0x0100\n      exp\n      swap1\n      div\n      0xffffffffffffffffffffffffffffffffffffffff\n      and\n        /* \"contracts/Dog/SLAVE.sol\":2476:2498  _owner == _msgSender() */\n      0xffffffffffffffffffffffffffffffffffffffff\n      and\n      eq\n        /* \"contracts/Dog/SLAVE.sol\":2468:2535  require(_owner == _msgSender(), \"Ownable: caller is not the owner\") */\n      tag_181\n      jumpi\n      mload(0x40)\n      0x08c379a000000000000000000000000000000000000000000000000000000000\n      dup2\n      mstore\n      0x04\n      add\n      tag_182\n      swap1\n      tag_138\n      jump\t// in\n    tag_182:\n      mload(0x40)\n      dup1\n      swap2\n      sub\n      swap1\n      revert\n    tag_181:\n        /* \"contracts/Dog/SLAVE.sol\":2670:2671  0 */\n      0x00\n        /* \"contracts/Dog/SLAVE.sol\":2633:2673  OwnershipTransferred(_owner, address(0)) */\n      0xffffffffffffffffffffffffffffffffffffffff\n      and\n        /* \"contracts/Dog/SLAVE.sol\":2654:2660  _owner */\n      0x00\n      dup1\n      sload\n      swap1\n      0x0100\n      exp\n      swap1\n      div\n      0xffffffffffffffffffffffffffffffffffffffff\n      and\n        /* \"contracts/Dog/SLAVE.sol\":2633:2673  OwnershipTransferred(_owner, address(0)) */\n      0xffffffffffffffffffffffffffffffffffffffff\n      and\n      0x8be0079c531659141344cd1fd0a4f28419497f9722a3daafe3b4186f6b6457e0\n      mload(0x40)\n      mload(0x40)\n      dup1\n      swap2\n      sub\n      swap1\n      log3\n        /* \"contracts/Dog/SLAVE.sol\":2701:2702  0 */\n      0x00\n        /* \"contracts/Dog/SLAVE.sol\":2684:2690  _owner */\n      dup1\n      0x00\n        /* \"contracts/Dog/SLAVE.sol\":2684:2703  _owner = address(0) */\n      0x0100\n      exp\n      dup2\n      sload\n      dup2\n      0xffffffffffffffffffffffffffffffffffffffff\n      mul\n      not\n      and\n      swap1\n      dup4\n      0xffffffffffffffffffffffffffffffffffffffff\n      and\n      mul\n      or\n      swap1\n      sstore\n      pop\n        /* \"contracts/Dog/SLAVE.sol\":2563:2711  function renounceOwnership() public virtual onlyOwner {... */\n      jump\t// out\n        /* \"contracts/Dog/SLAVE.sol\":11782:12155  function clearStuckToken(address tokenAddress, uint256 tokens) external returns (bool success) {... */\n    tag_83:\n        /* \"contracts/Dog/SLAVE.sol\":11863:11875  bool success */\n      0x00\n        /* \"contracts/Dog/SLAVE.sol\":11912:11922  _taxWallet */\n      0x04\n      0x00\n      swap1\n      sload\n      swap1\n      0x0100\n      exp\n      swap1\n      div\n      0xffffffffffffffffffffffffffffffffffffffff\n      and\n        /* \"contracts/Dog/SLAVE.sol\":11896:11922  _msgSender() == _taxWallet */\n      0xffffffffffffffffffffffffffffffffffffffff\n      and\n        /* \"contracts/Dog/SLAVE.sol\":11896:11908  _msgSender() */\n      tag_185\n        /* \"contracts/Dog/SLAVE.sol\":11896:11906  _msgSender */\n      tag_132\n        /* \"contracts/Dog/SLAVE.sol\":11896:11908  _msgSender() */\n      jump\t// in\n    tag_185:\n        /* \"contracts/Dog/SLAVE.sol\":11896:11922  _msgSender() == _taxWallet */\n      0xffffffffffffffffffffffffffffffffffffffff\n      and\n      eq\n        /* \"contracts/Dog/SLAVE.sol\":11888:11923  require(_msgSender() == _taxWallet) */\n      tag_186\n      jumpi\n      0x00\n      dup1\n      revert\n    tag_186:\n        /* \"contracts/Dog/SLAVE.sol\":11949:11950  0 */\n      0x00\n        /* \"contracts/Dog/SLAVE.sol\":11939:11945  tokens */\n      dup3\n        /* \"contracts/Dog/SLAVE.sol\":11939:11950  tokens == 0 */\n      sub\n        /* \"contracts/Dog/SLAVE.sol\":11936:12032  if(tokens == 0){... */\n      tag_187\n      jumpi\n        /* \"contracts/Dog/SLAVE.sol\":11982:11994  tokenAddress */\n      dup3\n        /* \"contracts/Dog/SLAVE.sol\":11975:12005  IERC20(tokenAddress).balanceOf */\n      0xffffffffffffffffffffffffffffffffffffffff\n      and\n      0x70a08231\n        /* \"contracts/Dog/SLAVE.sol\":12014:12018  this */\n      address\n        /* \"contracts/Dog/SLAVE.sol\":11975:12020  IERC20(tokenAddress).balanceOf(address(this)) */\n      mload(0x40)\n      dup3\n      0xffffffff\n      and\n      0xe0\n      shl\n      dup2\n      mstore\n      0x04\n      add\n      tag_188\n      swap2\n      swap1\n      tag_93\n      jump\t// in\n    tag_188:\n      0x20\n      mload(0x40)\n      dup1\n      dup4\n      sub\n      dup2\n      dup7\n      gas\n      staticcall\n      iszero\n      dup1\n      iszero\n      tag_190\n      jumpi\n      returndatasize\n      0x00\n      dup1\n      returndatacopy\n      revert(0x00, returndatasize)\n    tag_190:\n      pop\n      pop\n      pop\n      pop\n      mload(0x40)\n      returndatasize\n      not(0x1f)\n      0x1f\n      dup3\n      add\n      and\n      dup3\n      add\n      dup1\n      0x40\n      mstore\n      pop\n      dup2\n      add\n      swap1\n      tag_191\n      swap2\n      swap1\n      tag_192\n      jump\t// in\n    tag_191:\n        /* \"contracts/Dog/SLAVE.sol\":11966:12020  tokens = IERC20(tokenAddress).balanceOf(address(this)) */\n      swap2\n      pop\n        /* \"contracts/Dog/SLAVE.sol\":11936:12032  if(tokens == 0){... */\n    tag_187:\n        /* \"contracts/Dog/SLAVE.sol\":12049:12080  ClearToken(tokenAddress,tokens) */\n      0xda2bc2bedd1f85b5a59d5dbbd6684ff877ef916994a16ec08813101e99ace65f\n        /* \"contracts/Dog/SLAVE.sol\":12060:12072  tokenAddress */\n      dup4\n        /* \"contracts/Dog/SLAVE.sol\":12073:12079  tokens */\n      dup4\n        /* \"contracts/Dog/SLAVE.sol\":12049:12080  ClearToken(tokenAddress,tokens) */\n      mload(0x40)\n      tag_193\n      swap3\n      swap2\n      swap1\n      tag_194\n      jump\t// in\n    tag_193:\n      mload(0x40)\n      dup1\n      swap2\n      sub\n      swap1\n      log1\n        /* \"contracts/Dog/SLAVE.sol\":12105:12117  tokenAddress */\n      dup3\n        /* \"contracts/Dog/SLAVE.sol\":12098:12127  IERC20(tokenAddress).transfer */\n      0xffffffffffffffffffffffffffffffffffffffff\n      and\n      0xa9059cbb\n        /* \"contracts/Dog/SLAVE.sol\":12128:12138  _taxWallet */\n      0x04\n      0x00\n      swap1\n      sload\n      swap1\n      0x0100\n      exp\n      swap1\n      div\n      0xffffffffffffffffffffffffffffffffffffffff\n      and\n        /* \"contracts/Dog/SLAVE.sol\":12140:12146  tokens */\n      dup5\n        /* \"contracts/Dog/SLAVE.sol\":12098:12147  IERC20(tokenAddress).transfer(_taxWallet, tokens) */\n      mload(0x40)\n      dup4\n      0xffffffff\n      and\n      0xe0\n      shl\n      dup2\n      mstore\n      0x04\n      add\n      tag_195\n      swap3\n      swap2\n      swap1\n      tag_196\n      jump\t// in\n    tag_195:\n      0x20\n      mload(0x40)\n      dup1\n      dup4\n      sub\n      dup2\n      0x00\n      dup8\n      gas\n      call\n      iszero\n      dup1\n      iszero\n      tag_198\n      jumpi\n      returndatasize\n      0x00\n      dup1\n      returndatacopy\n      revert(0x00, returndatasize)\n    tag_198:\n      pop\n      pop\n      pop\n      pop\n      mload(0x40)\n      returndatasize\n      not(0x1f)\n      0x1f\n      dup3\n      add\n      and\n      dup3\n      add\n      dup1\n      0x40\n      mstore\n      pop\n      dup2\n      add\n      swap1\n      tag_199\n      swap2\n      swap1\n      tag_200\n      jump\t// in\n    tag_199:\n        /* \"contracts/Dog/SLAVE.sol\":12091:12147  return IERC20(tokenAddress).transfer(_taxWallet, tokens) */\n      swap1\n      pop\n        /* \"contracts/Dog/SLAVE.sol\":11782:12155  function clearStuckToken(address tokenAddress, uint256 tokens) external returns (bool success) {... */\n      swap3\n      swap2\n      pop\n      pop\n      jump\t// out\n        /* \"contracts/Dog/SLAVE.sol\":4393:4442  uint256 public _maxTxAmount = (_tTotal * 2) / 100 */\n    tag_87:\n      sload(0x0e)\n      dup2\n      jump\t// out\n        /* \"contracts/Dog/SLAVE.sol\":2349:2428  function owner() public view returns (address) {... */\n    tag_91:\n        /* \"contracts/Dog/SLAVE.sol\":2387:2394  address */\n      0x00\n        /* \"contracts/Dog/SLAVE.sol\":2414:2420  _owner */\n      dup1\n      0x00\n      swap1\n      sload\n      swap1\n      0x0100\n      exp\n      swap1\n      div\n      0xffffffffffffffffffffffffffffffffffffffff\n      and\n        /* \"contracts/Dog/SLAVE.sol\":2407:2420  return _owner */\n      swap1\n      pop\n        /* \"contracts/Dog/SLAVE.sol\":2349:2428  function owner() public view returns (address) {... */\n      swap1\n      jump\t// out\n        /* \"contracts/Dog/SLAVE.sol\":4449:4500  uint256 public _maxWalletSize = (_tTotal * 2) / 100 */\n    tag_96:\n      sload(0x0f)\n      dup2\n      jump\t// out\n        /* \"contracts/Dog/SLAVE.sol\":5635:5722  function symbol() public pure returns (string memory) {... */\n    tag_100:\n        /* \"contracts/Dog/SLAVE.sol\":5674:5687  string memory */\n      0x60\n        /* \"contracts/Dog/SLAVE.sol\":5707:5714  _symbol */\n      mload(0x40)\n      dup1\n      0x40\n      add\n      0x40\n      mstore\n      dup1\n      0x05\n      dup2\n      mstore\n      0x20\n      add\n      0x534c415645000000000000000000000000000000000000000000000000000000\n      dup2\n      mstore\n      pop\n        /* \"contracts/Dog/SLAVE.sol\":5700:5714  return _symbol */\n      swap1\n      pop\n        /* \"contracts/Dog/SLAVE.sol\":5635:5722  function symbol() public pure returns (string memory) {... */\n      swap1\n      jump\t// out\n        /* \"contracts/Dog/SLAVE.sol\":6051:6218  function transfer(address recipient, uint256 amount) public override returns (bool) {... */\n    tag_105:\n        /* \"contracts/Dog/SLAVE.sol\":6129:6133  bool */\n      0x00\n        /* \"contracts/Dog/SLAVE.sol\":6146:6188  _transfer(_msgSender(), recipient, amount) */\n      tag_204\n        /* \"contracts/Dog/SLAVE.sol\":6156:6168  _msgSender() */\n      tag_205\n        /* \"contracts/Dog/SLAVE.sol\":6156:6166  _msgSender */\n      tag_132\n        /* \"contracts/Dog/SLAVE.sol\":6156:6168  _msgSender() */\n      jump\t// in\n    tag_205:\n        /* \"contracts/Dog/SLAVE.sol\":6170:6179  recipient */\n      dup5\n        /* \"contracts/Dog/SLAVE.sol\":6181:6187  amount */\n      dup5\n        /* \"contracts/Dog/SLAVE.sol\":6146:6155  _transfer */\n      tag_149\n        /* \"contracts/Dog/SLAVE.sol\":6146:6188  _transfer(_msgSender(), recipient, amount) */\n      jump\t// in\n    tag_204:\n        /* \"contracts/Dog/SLAVE.sol\":6206:6210  true */\n      0x01\n        /* \"contracts/Dog/SLAVE.sol\":6199:6210  return true */\n      swap1\n      pop\n        /* \"contracts/Dog/SLAVE.sol\":6051:6218  function transfer(address recipient, uint256 amount) public override returns (bool) {... */\n      swap3\n      swap2\n      pop\n      pop\n      jump\t// out\n        /* \"contracts/Dog/SLAVE.sol\":4507:4562  uint256 public _taxSwapThreshold = (_tTotal * 3) / 1000 */\n    tag_109:\n      sload(0x10)\n      dup2\n      jump\t// out\n        /* \"contracts/Dog/SLAVE.sol\":10789:11497  function openTrading() external onlyOwner() {... */\n    tag_113:\n        /* \"contracts/Dog/SLAVE.sol\":2486:2498  _msgSender() */\n      tag_207\n        /* \"contracts/Dog/SLAVE.sol\":2486:2496  _msgSender */\n      tag_132\n        /* \"contracts/Dog/SLAVE.sol\":2486:2498  _msgSender() */\n      jump\t// in\n    tag_207:\n        /* \"contracts/Dog/SLAVE.sol\":2476:2498  _owner == _msgSender() */\n      0xffffffffffffffffffffffffffffffffffffffff\n      and\n        /* \"contracts/Dog/SLAVE.sol\":2476:2482  _owner */\n      0x00\n      dup1\n      sload\n      swap1\n      0x0100\n      exp\n      swap1\n      div\n      0xffffffffffffffffffffffffffffffffffffffff\n      and\n        /* \"contracts/Dog/SLAVE.sol\":2476:2498  _owner == _msgSender() */\n      0xffffffffffffffffffffffffffffffffffffffff\n      and\n      eq\n        /* \"contracts/Dog/SLAVE.sol\":2468:2535  require(_owner == _msgSender(), \"Ownable: caller is not the owner\") */\n      tag_208\n      jumpi\n      mload(0x40)\n      0x08c379a000000000000000000000000000000000000000000000000000000000\n      dup2\n      mstore\n      0x04\n      add\n      tag_209\n      swap1\n      tag_138\n      jump\t// in\n    tag_209:\n      mload(0x40)\n      dup1\n      swap2\n      sub\n      swap1\n      revert\n    tag_208:\n        /* \"contracts/Dog/SLAVE.sol\":10853:10864  tradingOpen */\n      0x13\n      0x14\n      swap1\n      sload\n      swap1\n      0x0100\n      exp\n      swap1\n      div\n      0xff\n      and\n        /* \"contracts/Dog/SLAVE.sol\":10852:10864  !tradingOpen */\n      iszero\n        /* \"contracts/Dog/SLAVE.sol\":10844:10891  require(!tradingOpen,\"trading is already open\") */\n      tag_211\n      jumpi\n      mload(0x40)\n      0x08c379a000000000000000000000000000000000000000000000000000000000\n      dup2\n      mstore\n      0x04\n      add\n      tag_212\n      swap1\n      tag_213\n      jump\t// in\n    tag_212:\n      mload(0x40)\n      dup1\n      swap2\n      sub\n      swap1\n      revert\n    tag_211:\n        /* \"contracts/Dog/SLAVE.sol\":10939:10981  0xeE567Fe1712Faf6149d80dA1E6934E354124CfE3 */\n      0xee567fe1712faf6149d80da1e6934e354124cfe3\n        /* \"contracts/Dog/SLAVE.sol\":10902:10917  uniswapV2Router */\n      0x12\n      0x00\n        /* \"contracts/Dog/SLAVE.sol\":10902:10982  uniswapV2Router = IUniswapV2Router02(0xeE567Fe1712Faf6149d80dA1E6934E354124CfE3) */\n      0x0100\n      exp\n      dup2\n      sload\n      dup2\n      0xffffffffffffffffffffffffffffffffffffffff\n      mul\n      not\n      and\n      swap1\n      dup4\n      0xffffffffffffffffffffffffffffffffffffffff\n      and\n      mul\n      or\n      swap1\n      sstore\n      pop\n        /* \"contracts/Dog/SLAVE.sol\":10993:11051  _approve(address(this), address(uniswapV2Router), _tTotal) */\n      tag_214\n        /* \"contracts/Dog/SLAVE.sol\":11010:11014  this */\n      address\n        /* \"contracts/Dog/SLAVE.sol\":11025:11040  uniswapV2Router */\n      0x12\n      0x00\n      swap1\n      sload\n      swap1\n      0x0100\n      exp\n      swap1\n      div\n      0xffffffffffffffffffffffffffffffffffffffff\n      and\n        /* \"contracts/Dog/SLAVE.sol\":4205:4206  9 */\n      0x09\n        /* \"contracts/Dog/SLAVE.sol\":4260:4262  10 */\n      0x0a\n        /* \"contracts/Dog/SLAVE.sol\":4260:4273  10**_decimals */\n      tag_215\n      swap2\n      swap1\n      tag_144\n      jump\t// in\n    tag_215:\n        /* \"contracts/Dog/SLAVE.sol\":4247:4257  1000000000 */\n      0x3b9aca00\n        /* \"contracts/Dog/SLAVE.sol\":4247:4273  1000000000 * 10**_decimals */\n      tag_216\n      swap2\n      swap1\n      tag_146\n      jump\t// in\n    tag_216:\n        /* \"contracts/Dog/SLAVE.sol\":10993:11001  _approve */\n      tag_133\n        /* \"contracts/Dog/SLAVE.sol\":10993:11051  _approve(address(this), address(uniswapV2Router), _tTotal) */\n      jump\t// in\n    tag_214:\n        /* \"contracts/Dog/SLAVE.sol\":11096:11111  uniswapV2Router */\n      0x12\n      0x00\n      swap1\n      sload\n      swap1\n      0x0100\n      exp\n      swap1\n      div\n      0xffffffffffffffffffffffffffffffffffffffff\n      and\n        /* \"contracts/Dog/SLAVE.sol\":11096:11119  uniswapV2Router.factory */\n      0xffffffffffffffffffffffffffffffffffffffff\n      and\n      0xc45a0155\n        /* \"contracts/Dog/SLAVE.sol\":11096:11121  uniswapV2Router.factory() */\n      mload(0x40)\n      dup2\n      0xffffffff\n      and\n      0xe0\n      shl\n      dup2\n      mstore\n      0x04\n      add\n      0x20\n      mload(0x40)\n      dup1\n      dup4\n      sub\n      dup2\n      dup7\n      gas\n      staticcall\n      iszero\n      dup1\n      iszero\n      tag_218\n      jumpi\n      returndatasize\n      0x00\n      dup1\n      returndatacopy\n      revert(0x00, returndatasize)\n    tag_218:\n      pop\n      pop\n      pop\n      pop\n      mload(0x40)\n      returndatasize\n      not(0x1f)\n      0x1f\n      dup3\n      add\n      and\n      dup3\n      add\n      dup1\n      0x40\n      mstore\n      pop\n      dup2\n      add\n      swap1\n      tag_219\n      swap2\n      swap1\n      tag_220\n      jump\t// in\n    tag_219:\n        /* \"contracts/Dog/SLAVE.sol\":11078:11133  IUniswapV2Factory(uniswapV2Router.factory()).createPair */\n      0xffffffffffffffffffffffffffffffffffffffff\n      and\n      0xc9c65396\n        /* \"contracts/Dog/SLAVE.sol\":11142:11146  this */\n      address\n        /* \"contracts/Dog/SLAVE.sol\":11149:11164  uniswapV2Router */\n      0x12\n      0x00\n      swap1\n      sload\n      swap1\n      0x0100\n      exp\n      swap1\n      div\n      0xffffffffffffffffffffffffffffffffffffffff\n      and\n        /* \"contracts/Dog/SLAVE.sol\":11149:11169  uniswapV2Router.WETH */\n      0xffffffffffffffffffffffffffffffffffffffff\n      and\n      0xad5c4648\n        /* \"contracts/Dog/SLAVE.sol\":11149:11171  uniswapV2Router.WETH() */\n      mload(0x40)\n      dup2\n      0xffffffff\n      and\n      0xe0\n      shl\n      dup2\n      mstore\n      0x04\n      add\n      0x20\n      mload(0x40)\n      dup1\n      dup4\n      sub\n      dup2\n      dup7\n      gas\n      staticcall\n      iszero\n      dup1\n      iszero\n      tag_222\n      jumpi\n      returndatasize\n      0x00\n      dup1\n      returndatacopy\n      revert(0x00, returndatasize)\n    tag_222:\n      pop\n      pop\n      pop\n      pop\n      mload(0x40)\n      returndatasize\n      not(0x1f)\n      0x1f\n      dup3\n      add\n      and\n      dup3\n      add\n      dup1\n      0x40\n      mstore\n      pop\n      dup2\n      add\n      swap1\n      tag_223\n      swap2\n      swap1\n      tag_220\n      jump\t// in\n    tag_223:\n        /* \"contracts/Dog/SLAVE.sol\":11078:11172  IUniswapV2Factory(uniswapV2Router.factory()).createPair(address(this), uniswapV2Router.WETH()) */\n      mload(0x40)\n      dup4\n      0xffffffff\n      and\n      0xe0\n      shl\n      dup2\n      mstore\n      0x04\n      add\n      tag_224\n      swap3\n      swap2\n      swap1\n      tag_225\n      jump\t// in\n    tag_224:\n      0x20\n      mload(0x40)\n      dup1\n      dup4\n      sub\n      dup2\n      0x00\n      dup8\n      gas\n      call\n      iszero\n      dup1\n      iszero\n      tag_227\n      jumpi\n      returndatasize\n      0x00\n      dup1\n      returndatacopy\n      revert(0x00, returndatasize)\n    tag_227:\n      pop\n      pop\n      pop\n      pop\n      mload(0x40)\n      returndatasize\n      not(0x1f)\n      0x1f\n      dup3\n      add\n      and\n      dup3\n      add\n      dup1\n      0x40\n      mstore\n      pop\n      dup2\n      add\n      swap1\n      tag_228\n      swap2\n      swap1\n      tag_220\n      jump\t// in\n    tag_228:\n        /* \"contracts/Dog/SLAVE.sol\":11062:11075  uniswapV2Pair */\n      0x13\n      0x00\n        /* \"contracts/Dog/SLAVE.sol\":11062:11172  uniswapV2Pair = IUniswapV2Factory(uniswapV2Router.factory()).createPair(address(this), uniswapV2Router.WETH()) */\n      0x0100\n      exp\n      dup2\n      sload\n      dup2\n      0xffffffffffffffffffffffffffffffffffffffff\n      mul\n      not\n      and\n      swap1\n      dup4\n      0xffffffffffffffffffffffffffffffffffffffff\n      and\n      mul\n      or\n      swap1\n      sstore\n      pop\n        /* \"contracts/Dog/SLAVE.sol\":11183:11198  uniswapV2Router */\n      0x12\n      0x00\n      swap1\n      sload\n      swap1\n      0x0100\n      exp\n      swap1\n      div\n      0xffffffffffffffffffffffffffffffffffffffff\n      and\n        /* \"contracts/Dog/SLAVE.sol\":11183:11214  uniswapV2Router.addLiquidityETH */\n      0xffffffffffffffffffffffffffffffffffffffff\n      and\n      0xf305d719\n        /* \"contracts/Dog/SLAVE.sol\":11222:11243  address(this).balance */\n      selfbalance\n        /* \"contracts/Dog/SLAVE.sol\":11253:11257  this */\n      address\n        /* \"contracts/Dog/SLAVE.sol\":11260:11284  balanceOf(address(this)) */\n      tag_229\n        /* \"contracts/Dog/SLAVE.sol\":11278:11282  this */\n      address\n        /* \"contracts/Dog/SLAVE.sol\":11260:11269  balanceOf */\n      tag_75\n        /* \"contracts/Dog/SLAVE.sol\":11260:11284  balanceOf(address(this)) */\n      jump\t// in\n    tag_229:\n        /* \"contracts/Dog/SLAVE.sol\":11286:11287  0 */\n      0x00\n        /* \"contracts/Dog/SLAVE.sol\":11289:11290  0 */\n      dup1\n        /* \"contracts/Dog/SLAVE.sol\":11292:11299  owner() */\n      tag_230\n        /* \"contracts/Dog/SLAVE.sol\":11292:11297  owner */\n      tag_91\n        /* \"contracts/Dog/SLAVE.sol\":11292:11299  owner() */\n      jump\t// in\n    tag_230:\n        /* \"contracts/Dog/SLAVE.sol\":11301:11316  block.timestamp */\n      timestamp\n        /* \"contracts/Dog/SLAVE.sol\":11183:11317  uniswapV2Router.addLiquidityETH{value: address(this).balance}(address(this), balanceOf(address(this)), 0, 0, owner(), block.timestamp) */\n      mload(0x40)\n      dup9\n      0xffffffff\n      and\n      0xe0\n      shl\n      dup2\n      mstore\n      0x04\n      add\n      tag_231\n      swap7\n      swap6\n      swap5\n      swap4\n      swap3\n      swap2\n      swap1\n      tag_232\n      jump\t// in\n    tag_231:\n      0x60\n      mload(0x40)\n      dup1\n      dup4\n      sub\n      dup2\n      dup6\n      dup9\n      gas\n      call\n      iszero\n      dup1\n      iszero\n      tag_234\n      jumpi\n      returndatasize\n      0x00\n      dup1\n      returndatacopy\n      revert(0x00, returndatasize)\n    tag_234:\n      pop\n      pop\n      pop\n      pop\n      pop\n      mload(0x40)\n      returndatasize\n      not(0x1f)\n      0x1f\n      dup3\n      add\n      and\n      dup3\n      add\n      dup1\n      0x40\n      mstore\n      pop\n      dup2\n      add\n      swap1\n      tag_235\n      swap2\n      swap1\n      tag_236\n      jump\t// in\n    tag_235:\n      pop\n      pop\n      pop\n        /* \"contracts/Dog/SLAVE.sol\":11335:11348  uniswapV2Pair */\n      0x13\n      0x00\n      swap1\n      sload\n      swap1\n      0x0100\n      exp\n      swap1\n      div\n      0xffffffffffffffffffffffffffffffffffffffff\n      and\n        /* \"contracts/Dog/SLAVE.sol\":11328:11357  IERC20(uniswapV2Pair).approve */\n      0xffffffffffffffffffffffffffffffffffffffff\n      and\n      0x095ea7b3\n        /* \"contracts/Dog/SLAVE.sol\":11366:11381  uniswapV2Router */\n      0x12\n      0x00\n      swap1\n      sload\n      swap1\n      0x0100\n      exp\n      swap1\n      div\n      0xffffffffffffffffffffffffffffffffffffffff\n      and\n        /* \"contracts/Dog/SLAVE.sol\":11383:11397  type(uint).max */\n      0xffffffffffffffffffffffffffffffffffffffffffffffffffffffffffffffff\n        /* \"contracts/Dog/SLAVE.sol\":11328:11398  IERC20(uniswapV2Pair).approve(address(uniswapV2Router),type(uint).max) */\n      mload(0x40)\n      dup4\n      0xffffffff\n      and\n      0xe0\n      shl\n      dup2\n      mstore\n      0x04\n      add\n      tag_237\n      swap3\n      swap2\n      swap1\n      tag_194\n      jump\t// in\n    tag_237:\n      0x20\n      mload(0x40)\n      dup1\n      dup4\n      sub\n      dup2\n      0x00\n      dup8\n      gas\n      call\n      iszero\n      dup1\n      iszero\n      tag_239\n      jumpi\n      returndatasize\n      0x00\n      dup1\n      returndatacopy\n      revert(0x00, returndatasize)\n    tag_239:\n      pop\n      pop\n      pop\n      pop\n      mload(0x40)\n      returndatasize\n      not(0x1f)\n      0x1f\n      dup3\n      add\n      and\n      dup3\n      add\n      dup1\n      0x40\n      mstore\n      pop\n      dup2\n      add\n      swap1\n      tag_240\n      swap2\n      swap1\n      tag_200\n      jump\t// in\n    tag_240:\n      pop\n        /* \"contracts/Dog/SLAVE.sol\":11422:11426  true */\n      0x01\n        /* \"contracts/Dog/SLAVE.sol\":11409:11420  swapEnabled */\n      0x13\n      0x16\n        /* \"contracts/Dog/SLAVE.sol\":11409:11426  swapEnabled= true */\n      0x0100\n      exp\n      dup2\n      sload\n      dup2\n      0xff\n      mul\n      not\n      and\n      swap1\n      dup4\n      iszero\n      iszero\n      mul\n      or\n      swap1\n      sstore\n      pop\n        /* \"contracts/Dog/SLAVE.sol\":11450:11454  true */\n      0x01\n        /* \"contracts/Dog/SLAVE.sol\":11437:11448  tradingOpen */\n      0x13\n      0x14\n        /* \"contracts/Dog/SLAVE.sol\":11437:11454  tradingOpen= true */\n      0x0100\n      exp\n      dup2\n      sload\n      dup2\n      0xff\n      mul\n      not\n      and\n      swap1\n      dup4\n      iszero\n      iszero\n      mul\n      or\n      swap1\n      sstore\n      pop\n        /* \"contracts/Dog/SLAVE.sol\":11477:11489  block.number */\n      number\n        /* \"contracts/Dog/SLAVE.sol\":11465:11475  firstBlock */\n      0x16\n        /* \"contracts/Dog/SLAVE.sol\":11465:11489  firstBlock= block.number */\n      dup2\n      swap1\n      sstore\n      pop\n        /* \"contracts/Dog/SLAVE.sol\":10789:11497  function openTrading() external onlyOwner() {... */\n      jump\t// out\n        /* \"contracts/Dog/SLAVE.sol\":6226:6369  function allowance(address owner, address spender) public view override returns (uint256) {... */\n    tag_118:\n        /* \"contracts/Dog/SLAVE.sol\":6307:6314  uint256 */\n      0x00\n        /* \"contracts/Dog/SLAVE.sol\":6334:6345  _allowances */\n      0x02\n        /* \"contracts/Dog/SLAVE.sol\":6334:6352  _allowances[owner] */\n      0x00\n        /* \"contracts/Dog/SLAVE.sol\":6346:6351  owner */\n      dup5\n        /* \"contracts/Dog/SLAVE.sol\":6334:6352  _allowances[owner] */\n      0xffffffffffffffffffffffffffffffffffffffff\n      and\n      0xffffffffffffffffffffffffffffffffffffffff\n      and\n      dup2\n      mstore\n      0x20\n      add\n      swap1\n      dup2\n      mstore\n      0x20\n      add\n      0x00\n      keccak256\n        /* \"contracts/Dog/SLAVE.sol\":6334:6361  _allowances[owner][spender] */\n      0x00\n        /* \"contracts/Dog/SLAVE.sol\":6353:6360  spender */\n      dup4\n        /* \"contracts/Dog/SLAVE.sol\":6334:6361  _allowances[owner][spender] */\n      0xffffffffffffffffffffffffffffffffffffffff\n      and\n      0xffffffffffffffffffffffffffffffffffffffff\n      and\n      dup2\n      mstore\n      0x20\n      add\n      swap1\n      dup2\n      mstore\n      0x20\n      add\n      0x00\n      keccak256\n      sload\n        /* \"contracts/Dog/SLAVE.sol\":6327:6361  return _allowances[owner][spender] */\n      swap1\n      pop\n        /* \"contracts/Dog/SLAVE.sol\":6226:6369  function allowance(address owner, address spender) public view override returns (uint256) {... */\n      swap3\n      swap2\n      pop\n      pop\n      jump\t// out\n        /* \"contracts/Dog/SLAVE.sol\":11546:11774  function reduceFee(uint256 _newFee) external{... */\n    tag_124:\n        /* \"contracts/Dog/SLAVE.sol\":11623:11633  _taxWallet */\n      0x04\n      0x00\n      swap1\n      sload\n      swap1\n      0x0100\n      exp\n      swap1\n      div\n      0xffffffffffffffffffffffffffffffffffffffff\n      and\n        /* \"contracts/Dog/SLAVE.sol\":11607:11633  _msgSender() == _taxWallet */\n      0xffffffffffffffffffffffffffffffffffffffff\n      and\n        /* \"contracts/Dog/SLAVE.sol\":11607:11619  _msgSender() */\n      tag_243\n        /* \"contracts/Dog/SLAVE.sol\":11607:11617  _msgSender */\n      tag_132\n        /* \"contracts/Dog/SLAVE.sol\":11607:11619  _msgSender() */\n      jump\t// in\n    tag_243:\n        /* \"contracts/Dog/SLAVE.sol\":11607:11633  _msgSender() == _taxWallet */\n      0xffffffffffffffffffffffffffffffffffffffff\n      and\n      eq\n        /* \"contracts/Dog/SLAVE.sol\":11599:11634  require(_msgSender() == _taxWallet) */\n      tag_244\n      jumpi\n      0x00\n      dup1\n      revert\n    tag_244:\n        /* \"contracts/Dog/SLAVE.sol\":11662:11674  _finalBuyTax */\n      sload(0x07)\n        /* \"contracts/Dog/SLAVE.sol\":11651:11658  _newFee */\n      dup2\n        /* \"contracts/Dog/SLAVE.sol\":11651:11674  _newFee <= _finalBuyTax */\n      gt\n      iszero\n        /* \"contracts/Dog/SLAVE.sol\":11651:11702  _newFee <= _finalBuyTax && _newFee <= _finalSellTax */\n      dup1\n      iszero\n      tag_245\n      jumpi\n      pop\n        /* \"contracts/Dog/SLAVE.sol\":11689:11702  _finalSellTax */\n      sload(0x08)\n        /* \"contracts/Dog/SLAVE.sol\":11678:11685  _newFee */\n      dup2\n        /* \"contracts/Dog/SLAVE.sol\":11678:11702  _newFee <= _finalSellTax */\n      gt\n      iszero\n        /* \"contracts/Dog/SLAVE.sol\":11651:11702  _newFee <= _finalBuyTax && _newFee <= _finalSellTax */\n    tag_245:\n        /* \"contracts/Dog/SLAVE.sol\":11643:11703  require(_newFee <= _finalBuyTax && _newFee <= _finalSellTax) */\n      tag_246\n      jumpi\n      0x00\n      dup1\n      revert\n    tag_246:\n        /* \"contracts/Dog/SLAVE.sol\":11728:11735  _newFee */\n      dup1\n        /* \"contracts/Dog/SLAVE.sol\":11714:11726  _finalBuyTax */\n      0x07\n        /* \"contracts/Dog/SLAVE.sol\":11714:11735  _finalBuyTax= _newFee */\n      dup2\n      swap1\n      sstore\n      pop\n        /* \"contracts/Dog/SLAVE.sol\":11759:11766  _newFee */\n      dup1\n        /* \"contracts/Dog/SLAVE.sol\":11744:11757  _finalSellTax */\n      0x08\n        /* \"contracts/Dog/SLAVE.sol\":11744:11766  _finalSellTax= _newFee */\n      dup2\n      swap1\n      sstore\n      pop\n        /* \"contracts/Dog/SLAVE.sol\":11546:11774  function reduceFee(uint256 _newFee) external{... */\n      pop\n      jump\t// out\n        /* \"contracts/Dog/SLAVE.sol\":12163:12416  function manualSend() external {... */\n    tag_127:\n        /* \"contracts/Dog/SLAVE.sol\":12229:12239  _taxWallet */\n      0x04\n      0x00\n      swap1\n      sload\n      swap1\n      0x0100\n      exp\n      swap1\n      div\n      0xffffffffffffffffffffffffffffffffffffffff\n      and\n        /* \"contracts/Dog/SLAVE.sol\":12213:12239  _msgSender() == _taxWallet */\n      0xffffffffffffffffffffffffffffffffffffffff\n      and\n        /* \"contracts/Dog/SLAVE.sol\":12213:12225  _msgSender() */\n      tag_248\n        /* \"contracts/Dog/SLAVE.sol\":12213:12223  _msgSender */\n      tag_132\n        /* \"contracts/Dog/SLAVE.sol\":12213:12225  _msgSender() */\n      jump\t// in\n    tag_248:\n        /* \"contracts/Dog/SLAVE.sol\":12213:12239  _msgSender() == _taxWallet */\n      0xffffffffffffffffffffffffffffffffffffffff\n      and\n      eq\n        /* \"contracts/Dog/SLAVE.sol\":12205:12240  require(_msgSender() == _taxWallet) */\n      tag_249\n      jumpi\n      0x00\n      dup1\n      revert\n    tag_249:\n        /* \"contracts/Dog/SLAVE.sol\":12253:12271  uint256 ethBalance */\n      0x00\n        /* \"contracts/Dog/SLAVE.sol\":12273:12294  address(this).balance */\n      selfbalance\n        /* \"contracts/Dog/SLAVE.sol\":12253:12294  uint256 ethBalance= address(this).balance */\n      swap1\n      pop\n        /* \"contracts/Dog/SLAVE.sol\":12326:12327  0 */\n      0x00\n        /* \"contracts/Dog/SLAVE.sol\":12313:12323  ethBalance */\n      dup2\n        /* \"contracts/Dog/SLAVE.sol\":12313:12327  ethBalance > 0 */\n      gt\n        /* \"contracts/Dog/SLAVE.sol\":12305:12373  require(ethBalance > 0,\"Contract balance must be greater than zero\") */\n      tag_250\n      jumpi\n      mload(0x40)\n      0x08c379a000000000000000000000000000000000000000000000000000000000\n      dup2\n      mstore\n      0x04\n      add\n      tag_251\n      swap1\n      tag_252\n      jump\t// in\n    tag_251:\n      mload(0x40)\n      dup1\n      swap2\n      sub\n      swap1\n      revert\n    tag_250:\n        /* \"contracts/Dog/SLAVE.sol\":12384:12408  sendETHToFee(ethBalance) */\n      tag_253\n        /* \"contracts/Dog/SLAVE.sol\":12397:12407  ethBalance */\n      dup2\n        /* \"contracts/Dog/SLAVE.sol\":12384:12396  sendETHToFee */\n      tag_165\n        /* \"contracts/Dog/SLAVE.sol\":12384:12408  sendETHToFee(ethBalance) */\n      jump\t// in\n    tag_253:\n        /* \"contracts/Dog/SLAVE.sol\":12194:12416  {... */\n      pop\n        /* \"contracts/Dog/SLAVE.sol\":12163:12416  function manualSend() external {... */\n      jump\t// out\n        /* \"contracts/Dog/SLAVE.sol\":104:202  function _msgSender() internal view virtual returns (address) {... */\n    tag_132:\n        /* \"contracts/Dog/SLAVE.sol\":157:164  address */\n      0x00\n        /* \"contracts/Dog/SLAVE.sol\":184:194  msg.sender */\n      caller\n        /* \"contracts/Dog/SLAVE.sol\":177:194  return msg.sender */\n      swap1\n      pop\n        /* \"contracts/Dog/SLAVE.sol\":104:202  function _msgSender() internal view virtual returns (address) {... */\n      swap1\n      jump\t// out\n        /* \"contracts/Dog/SLAVE.sol\":6867:7202  function _approve(address owner, address spender, uint256 amount) private {... */\n    tag_133:\n        /* \"contracts/Dog/SLAVE.sol\":6977:6978  0 */\n      0x00\n        /* \"contracts/Dog/SLAVE.sol\":6960:6979  owner != address(0) */\n      0xffffffffffffffffffffffffffffffffffffffff\n      and\n        /* \"contracts/Dog/SLAVE.sol\":6960:6965  owner */\n      dup4\n        /* \"contracts/Dog/SLAVE.sol\":6960:6979  owner != address(0) */\n      0xffffffffffffffffffffffffffffffffffffffff\n      and\n      sub\n        /* \"contracts/Dog/SLAVE.sol\":6952:7020  require(owner != address(0), \"ERC20: approve from the zero address\") */\n      tag_256\n      jumpi\n      mload(0x40)\n      0x08c379a000000000000000000000000000000000000000000000000000000000\n      dup2\n      mstore\n      0x04\n      add\n      tag_257\n      swap1\n      tag_258\n      jump\t// in\n    tag_257:\n      mload(0x40)\n      dup1\n      swap2\n      sub\n      swap1\n      revert\n    tag_256:\n        /* \"contracts/Dog/SLAVE.sol\":7058:7059  0 */\n      0x00\n        /* \"contracts/Dog/SLAVE.sol\":7039:7060  spender != address(0) */\n      0xffffffffffffffffffffffffffffffffffffffff\n      and\n        /* \"contracts/Dog/SLAVE.sol\":7039:7046  spender */\n      dup3\n        /* \"contracts/Dog/SLAVE.sol\":7039:7060  spender != address(0) */\n      0xffffffffffffffffffffffffffffffffffffffff\n      and\n      sub\n        /* \"contracts/Dog/SLAVE.sol\":7031:7099  require(spender != address(0), \"ERC20: approve to the zero address\") */\n      tag_259\n      jumpi\n      mload(0x40)\n      0x08c379a000000000000000000000000000000000000000000000000000000000\n      dup2\n      mstore\n      0x04\n      add\n      tag_260\n      swap1\n      tag_261\n      jump\t// in\n    tag_260:\n      mload(0x40)\n      dup1\n      swap2\n      sub\n      swap1\n      revert\n    tag_259:\n        /* \"contracts/Dog/SLAVE.sol\":7140:7146  amount */\n      dup1\n        /* \"contracts/Dog/SLAVE.sol\":7110:7121  _allowances */\n      0x02\n        /* \"contracts/Dog/SLAVE.sol\":7110:7128  _allowances[owner] */\n      0x00\n        /* \"contracts/Dog/SLAVE.sol\":7122:7127  owner */\n      dup6\n        /* \"contracts/Dog/SLAVE.sol\":7110:7128  _allowances[owner] */\n      0xffffffffffffffffffffffffffffffffffffffff\n      and\n      0xffffffffffffffffffffffffffffffffffffffff\n      and\n      dup2\n      mstore\n      0x20\n      add\n      swap1\n      dup2\n      mstore\n      0x20\n      add\n      0x00\n      keccak256\n        /* \"contracts/Dog/SLAVE.sol\":7110:7137  _allowances[owner][spender] */\n      0x00\n        /* \"contracts/Dog/SLAVE.sol\":7129:7136  spender */\n      dup5\n        /* \"contracts/Dog/SLAVE.sol\":7110:7137  _allowances[owner][spender] */\n      0xffffffffffffffffffffffffffffffffffffffff\n      and\n      0xffffffffffffffffffffffffffffffffffffffff\n      and\n      dup2\n      mstore\n      0x20\n      add\n      swap1\n      dup2\n      mstore\n      0x20\n      add\n      0x00\n      keccak256\n        /* \"contracts/Dog/SLAVE.sol\":7110:7146  _allowances[owner][spender] = amount */\n      dup2\n      swap1\n      sstore\n      pop\n        /* \"contracts/Dog/SLAVE.sol\":7178:7185  spender */\n      dup2\n        /* \"contracts/Dog/SLAVE.sol\":7162:7194  Approval(owner, spender, amount) */\n      0xffffffffffffffffffffffffffffffffffffffff\n      and\n        /* \"contracts/Dog/SLAVE.sol\":7171:7176  owner */\n      dup4\n        /* \"contracts/Dog/SLAVE.sol\":7162:7194  Approval(owner, spender, amount) */\n      0xffffffffffffffffffffffffffffffffffffffff\n      and\n      0x8c5be1e5ebec7d5bd14f71427d1e84f3dd0314c0f7b2291e5b200ac8c7c3b925\n        /* \"contracts/Dog/SLAVE.sol\":7187:7193  amount */\n      dup4\n        /* \"contracts/Dog/SLAVE.sol\":7162:7194  Approval(owner, spender, amount) */\n      mload(0x40)\n      tag_262\n      swap2\n      swap1\n      tag_46\n      jump\t// in\n    tag_262:\n      mload(0x40)\n      dup1\n      swap2\n      sub\n      swap1\n      log3\n        /* \"contracts/Dog/SLAVE.sol\":6867:7202  function _approve(address owner, address spender, uint256 amount) private {... */\n      pop\n      pop\n      pop\n      jump\t// out\n        /* \"contracts/Dog/SLAVE.sol\":7210:9785  function _transfer(address from, address to, uint256 amount) private {... */\n    tag_149:\n        /* \"contracts/Dog/SLAVE.sol\":7314:7315  0 */\n      0x00\n        /* \"contracts/Dog/SLAVE.sol\":7298:7316  from != address(0) */\n      0xffffffffffffffffffffffffffffffffffffffff\n      and\n        /* \"contracts/Dog/SLAVE.sol\":7298:7302  from */\n      dup4\n        /* \"contracts/Dog/SLAVE.sol\":7298:7316  from != address(0) */\n      0xffffffffffffffffffffffffffffffffffffffff\n      and\n      sub\n        /* \"contracts/Dog/SLAVE.sol\":7290:7358  require(from != address(0), \"ERC20: transfer from the zero address\") */\n      tag_264\n      jumpi\n      mload(0x40)\n      0x08c379a000000000000000000000000000000000000000000000000000000000\n      dup2\n      mstore\n      0x04\n      add\n      tag_265\n      swap1\n      tag_266\n      jump\t// in\n    tag_265:\n      mload(0x40)\n      dup1\n      swap2\n      sub\n      swap1\n      revert\n    tag_264:\n        /* \"contracts/Dog/SLAVE.sol\":7391:7392  0 */\n      0x00\n        /* \"contracts/Dog/SLAVE.sol\":7377:7393  to != address(0) */\n      0xffffffffffffffffffffffffffffffffffffffff\n      and\n        /* \"contracts/Dog/SLAVE.sol\":7377:7379  to */\n      dup3\n        /* \"contracts/Dog/SLAVE.sol\":7377:7393  to != address(0) */\n      0xffffffffffffffffffffffffffffffffffffffff\n      and\n      sub\n        /* \"contracts/Dog/SLAVE.sol\":7369:7433  require(to != address(0), \"ERC20: transfer to the zero address\") */\n      tag_267\n      jumpi\n      mload(0x40)\n      0x08c379a000000000000000000000000000000000000000000000000000000000\n      dup2\n      mstore\n      0x04\n      add\n      tag_268\n      swap1\n      tag_269\n      jump\t// in\n    tag_268:\n      mload(0x40)\n      dup1\n      swap2\n      sub\n      swap1\n      revert\n    tag_267:\n        /* \"contracts/Dog/SLAVE.sol\":7461:7462  0 */\n      0x00\n        /* \"contracts/Dog/SLAVE.sol\":7452:7458  amount */\n      dup2\n        /* \"contracts/Dog/SLAVE.sol\":7452:7462  amount > 0 */\n      gt\n        /* \"contracts/Dog/SLAVE.sol\":7444:7508  require(amount > 0, \"Transfer amount must be greater than zero\") */\n      tag_270\n      jumpi\n      mload(0x40)\n      0x08c379a000000000000000000000000000000000000000000000000000000000\n      dup2\n      mstore\n      0x04\n      add\n      tag_271\n      swap1\n      tag_272\n      jump\t// in\n    tag_271:\n      mload(0x40)\n      dup1\n      swap2\n      sub\n      swap1\n      revert\n    tag_270:\n        /* \"contracts/Dog/SLAVE.sol\":7519:7536  uint256 taxAmount */\n      0x00\n        /* \"contracts/Dog/SLAVE.sol\":7563:7570  owner() */\n      tag_273\n        /* \"contracts/Dog/SLAVE.sol\":7563:7568  owner */\n      tag_91\n        /* \"contracts/Dog/SLAVE.sol\":7563:7570  owner() */\n      jump\t// in\n    tag_273:\n        /* \"contracts/Dog/SLAVE.sol\":7555:7570  from != owner() */\n      0xffffffffffffffffffffffffffffffffffffffff\n      and\n        /* \"contracts/Dog/SLAVE.sol\":7555:7559  from */\n      dup5\n        /* \"contracts/Dog/SLAVE.sol\":7555:7570  from != owner() */\n      0xffffffffffffffffffffffffffffffffffffffff\n      and\n      eq\n      iszero\n        /* \"contracts/Dog/SLAVE.sol\":7555:7587  from != owner() && to != owner() */\n      dup1\n      iszero\n      tag_274\n      jumpi\n      pop\n        /* \"contracts/Dog/SLAVE.sol\":7580:7587  owner() */\n      tag_275\n        /* \"contracts/Dog/SLAVE.sol\":7580:7585  owner */\n      tag_91\n        /* \"contracts/Dog/SLAVE.sol\":7580:7587  owner() */\n      jump\t// in\n    tag_275:\n        /* \"contracts/Dog/SLAVE.sol\":7574:7587  to != owner() */\n      0xffffffffffffffffffffffffffffffffffffffff\n      and\n        /* \"contracts/Dog/SLAVE.sol\":7574:7576  to */\n      dup4\n        /* \"contracts/Dog/SLAVE.sol\":7574:7587  to != owner() */\n      0xffffffffffffffffffffffffffffffffffffffff\n      and\n      eq\n      iszero\n        /* \"contracts/Dog/SLAVE.sol\":7555:7587  from != owner() && to != owner() */\n    tag_274:\n        /* \"contracts/Dog/SLAVE.sol\":7551:9420  if (from != owner() && to != owner()) {... */\n      iszero\n      tag_276\n      jumpi\n        /* \"contracts/Dog/SLAVE.sol\":7622:7623  0 */\n      0x00\n        /* \"contracts/Dog/SLAVE.sol\":7609:7618  _buyCount */\n      sload(0x0d)\n        /* \"contracts/Dog/SLAVE.sol\":7609:7623  _buyCount == 0 */\n      sub\n        /* \"contracts/Dog/SLAVE.sol\":7606:7752  if(_buyCount == 0){... */\n      tag_277\n      jumpi\n        /* \"contracts/Dog/SLAVE.sol\":7654:7736  amount.mul((_buyCount > _reduceBuyTaxAt) ? _finalBuyTax : _initialBuyTax).div(100) */\n      tag_278\n        /* \"contracts/Dog/SLAVE.sol\":7732:7735  100 */\n      0x64\n        /* \"contracts/Dog/SLAVE.sol\":7654:7727  amount.mul((_buyCount > _reduceBuyTaxAt) ? _finalBuyTax : _initialBuyTax) */\n      tag_279\n        /* \"contracts/Dog/SLAVE.sol\":7678:7693  _reduceBuyTaxAt */\n      sload(0x09)\n        /* \"contracts/Dog/SLAVE.sol\":7666:7675  _buyCount */\n      sload(0x0d)\n        /* \"contracts/Dog/SLAVE.sol\":7666:7693  _buyCount > _reduceBuyTaxAt */\n      gt\n        /* \"contracts/Dog/SLAVE.sol\":7665:7726  (_buyCount > _reduceBuyTaxAt) ? _finalBuyTax : _initialBuyTax */\n      tag_280\n      jumpi\n        /* \"contracts/Dog/SLAVE.sol\":7712:7726  _initialBuyTax */\n      sload(0x05)\n        /* \"contracts/Dog/SLAVE.sol\":7665:7726  (_buyCount > _reduceBuyTaxAt) ? _finalBuyTax : _initialBuyTax */\n      jump(tag_281)\n    tag_280:\n        /* \"contracts/Dog/SLAVE.sol\":7697:7709  _finalBuyTax */\n      sload(0x07)\n        /* \"contracts/Dog/SLAVE.sol\":7665:7726  (_buyCount > _reduceBuyTaxAt) ? _finalBuyTax : _initialBuyTax */\n    tag_281:\n        /* \"contracts/Dog/SLAVE.sol\":7654:7660  amount */\n      dup6\n        /* \"contracts/Dog/SLAVE.sol\":7654:7664  amount.mul */\n      tag_282\n      swap1\n        /* \"contracts/Dog/SLAVE.sol\":7654:7727  amount.mul((_buyCount > _reduceBuyTaxAt) ? _finalBuyTax : _initialBuyTax) */\n      swap2\n      swap1\n      0xffffffff\n      and\n      jump\t// in\n    tag_279:\n        /* \"contracts/Dog/SLAVE.sol\":7654:7731  amount.mul((_buyCount > _reduceBuyTaxAt) ? _finalBuyTax : _initialBuyTax).div */\n      tag_283\n      swap1\n        /* \"contracts/Dog/SLAVE.sol\":7654:7736  amount.mul((_buyCount > _reduceBuyTaxAt) ? _finalBuyTax : _initialBuyTax).div(100) */\n      swap2\n      swap1\n      0xffffffff\n      and\n      jump\t// in\n    tag_278:\n        /* \"contracts/Dog/SLAVE.sol\":7643:7736  taxAmount= amount.mul((_buyCount > _reduceBuyTaxAt) ? _finalBuyTax : _initialBuyTax).div(100) */\n      swap1\n      pop\n        /* \"contracts/Dog/SLAVE.sol\":7606:7752  if(_buyCount == 0){... */\n    tag_277:\n        /* \"contracts/Dog/SLAVE.sol\":7783:7784  0 */\n      0x00\n        /* \"contracts/Dog/SLAVE.sol\":7771:7780  _buyCount */\n      sload(0x0d)\n        /* \"contracts/Dog/SLAVE.sol\":7771:7784  _buyCount > 0 */\n      gt\n        /* \"contracts/Dog/SLAVE.sol\":7768:7864  if(_buyCount > 0){... */\n      iszero\n      tag_284\n      jumpi\n        /* \"contracts/Dog/SLAVE.sol\":7815:7848  amount.mul(_transferTax).div(100) */\n      tag_285\n        /* \"contracts/Dog/SLAVE.sol\":7844:7847  100 */\n      0x64\n        /* \"contracts/Dog/SLAVE.sol\":7815:7839  amount.mul(_transferTax) */\n      tag_286\n        /* \"contracts/Dog/SLAVE.sol\":7826:7838  _transferTax */\n      sload(0x0c)\n        /* \"contracts/Dog/SLAVE.sol\":7815:7821  amount */\n      dup6\n        /* \"contracts/Dog/SLAVE.sol\":7815:7825  amount.mul */\n      tag_282\n      swap1\n        /* \"contracts/Dog/SLAVE.sol\":7815:7839  amount.mul(_transferTax) */\n      swap2\n      swap1\n      0xffffffff\n      and\n      jump\t// in\n    tag_286:\n        /* \"contracts/Dog/SLAVE.sol\":7815:7843  amount.mul(_transferTax).div */\n      tag_283\n      swap1\n        /* \"contracts/Dog/SLAVE.sol\":7815:7848  amount.mul(_transferTax).div(100) */\n      swap2\n      swap1\n      0xffffffff\n      and\n      jump\t// in\n    tag_285:\n        /* \"contracts/Dog/SLAVE.sol\":7804:7848  taxAmount= amount.mul(_transferTax).div(100) */\n      swap1\n      pop\n        /* \"contracts/Dog/SLAVE.sol\":7768:7864  if(_buyCount > 0){... */\n    tag_284:\n        /* \"contracts/Dog/SLAVE.sol\":7899:7909  firstBlock */\n      sload(0x16)\n        /* \"contracts/Dog/SLAVE.sol\":7883:7895  block.number */\n      number\n        /* \"contracts/Dog/SLAVE.sol\":7883:7909  block.number == firstBlock */\n      sub\n        /* \"contracts/Dog/SLAVE.sol\":7880:8004  if(block.number == firstBlock){... */\n      tag_287\n      jumpi\n        /* \"contracts/Dog/SLAVE.sol\":7949:7951  35 */\n      0x23\n        /* \"contracts/Dog/SLAVE.sol\":7937:7946  _buyCount */\n      sload(0x0d)\n        /* \"contracts/Dog/SLAVE.sol\":7937:7951  _buyCount < 35 */\n      lt\n        /* \"contracts/Dog/SLAVE.sol\":7929:7988  require(_buyCount < 35, \"Exceeds buys on the first block.\") */\n      tag_288\n      jumpi\n      mload(0x40)\n      0x08c379a000000000000000000000000000000000000000000000000000000000\n      dup2\n      mstore\n      0x04\n      add\n      tag_289\n      swap1\n      tag_290\n      jump\t// in\n    tag_289:\n      mload(0x40)\n      dup1\n      swap2\n      sub\n      swap1\n      revert\n    tag_288:\n        /* \"contracts/Dog/SLAVE.sol\":7880:8004  if(block.number == firstBlock){... */\n    tag_287:\n        /* \"contracts/Dog/SLAVE.sol\":8032:8045  uniswapV2Pair */\n      0x13\n      0x00\n      swap1\n      sload\n      swap1\n      0x0100\n      exp\n      swap1\n      div\n      0xffffffffffffffffffffffffffffffffffffffff\n      and\n        /* \"contracts/Dog/SLAVE.sol\":8024:8045  from == uniswapV2Pair */\n      0xffffffffffffffffffffffffffffffffffffffff\n      and\n        /* \"contracts/Dog/SLAVE.sol\":8024:8028  from */\n      dup5\n        /* \"contracts/Dog/SLAVE.sol\":8024:8045  from == uniswapV2Pair */\n      0xffffffffffffffffffffffffffffffffffffffff\n      and\n      eq\n        /* \"contracts/Dog/SLAVE.sol\":8024:8079  from == uniswapV2Pair && to != address(uniswapV2Router) */\n      dup1\n      iszero\n      tag_291\n      jumpi\n      pop\n        /* \"contracts/Dog/SLAVE.sol\":8063:8078  uniswapV2Router */\n      0x12\n      0x00\n      swap1\n      sload\n      swap1\n      0x0100\n      exp\n      swap1\n      div\n      0xffffffffffffffffffffffffffffffffffffffff\n      and\n        /* \"contracts/Dog/SLAVE.sol\":8049:8079  to != address(uniswapV2Router) */\n      0xffffffffffffffffffffffffffffffffffffffff\n      and\n        /* \"contracts/Dog/SLAVE.sol\":8049:8051  to */\n      dup4\n        /* \"contracts/Dog/SLAVE.sol\":8049:8079  to != address(uniswapV2Router) */\n      0xffffffffffffffffffffffffffffffffffffffff\n      and\n      eq\n      iszero\n        /* \"contracts/Dog/SLAVE.sol\":8024:8079  from == uniswapV2Pair && to != address(uniswapV2Router) */\n    tag_291:\n        /* \"contracts/Dog/SLAVE.sol\":8024:8107  from == uniswapV2Pair && to != address(uniswapV2Router) && ! _isExcludedFromFee[to] */\n      dup1\n      iszero\n      tag_292\n      jumpi\n      pop\n        /* \"contracts/Dog/SLAVE.sol\":8085:8103  _isExcludedFromFee */\n      0x03\n        /* \"contracts/Dog/SLAVE.sol\":8085:8107  _isExcludedFromFee[to] */\n      0x00\n        /* \"contracts/Dog/SLAVE.sol\":8104:8106  to */\n      dup5\n        /* \"contracts/Dog/SLAVE.sol\":8085:8107  _isExcludedFromFee[to] */\n      0xffffffffffffffffffffffffffffffffffffffff\n      and\n      0xffffffffffffffffffffffffffffffffffffffff\n      and\n      dup2\n      mstore\n      0x20\n      add\n      swap1\n      dup2\n      mstore\n      0x20\n      add\n      0x00\n      keccak256\n      0x00\n      swap1\n      sload\n      swap1\n      0x0100\n      exp\n      swap1\n      div\n      0xff\n      and\n        /* \"contracts/Dog/SLAVE.sol\":8083:8107  ! _isExcludedFromFee[to] */\n      iszero\n        /* \"contracts/Dog/SLAVE.sol\":8024:8107  from == uniswapV2Pair && to != address(uniswapV2Router) && ! _isExcludedFromFee[to] */\n    tag_292:\n        /* \"contracts/Dog/SLAVE.sol\":8020:8446  if (from == uniswapV2Pair && to != address(uniswapV2Router) && ! _isExcludedFromFee[to] ) {... */\n      iszero\n      tag_293\n      jumpi\n        /* \"contracts/Dog/SLAVE.sol\":8147:8159  _maxTxAmount */\n      sload(0x0e)\n        /* \"contracts/Dog/SLAVE.sol\":8137:8143  amount */\n      dup3\n        /* \"contracts/Dog/SLAVE.sol\":8137:8159  amount <= _maxTxAmount */\n      gt\n      iszero\n        /* \"contracts/Dog/SLAVE.sol\":8129:8189  require(amount <= _maxTxAmount, \"Exceeds the _maxTxAmount.\") */\n      tag_294\n      jumpi\n      mload(0x40)\n      0x08c379a000000000000000000000000000000000000000000000000000000000\n      dup2\n      mstore\n      0x04\n      add\n      tag_295\n      swap1\n      tag_296\n      jump\t// in\n    tag_295:\n      mload(0x40)\n      dup1\n      swap2\n      sub\n      swap1\n      revert\n    tag_294:\n        /* \"contracts/Dog/SLAVE.sol\":8242:8256  _maxWalletSize */\n      sload(0x0f)\n        /* \"contracts/Dog/SLAVE.sol\":8232:8238  amount */\n      dup3\n        /* \"contracts/Dog/SLAVE.sol\":8216:8229  balanceOf(to) */\n      tag_297\n        /* \"contracts/Dog/SLAVE.sol\":8226:8228  to */\n      dup6\n        /* \"contracts/Dog/SLAVE.sol\":8216:8225  balanceOf */\n      tag_75\n        /* \"contracts/Dog/SLAVE.sol\":8216:8229  balanceOf(to) */\n      jump\t// in\n    tag_297:\n        /* \"contracts/Dog/SLAVE.sol\":8216:8238  balanceOf(to) + amount */\n      tag_298\n      swap2\n      swap1\n      tag_299\n      jump\t// in\n    tag_298:\n        /* \"contracts/Dog/SLAVE.sol\":8216:8256  balanceOf(to) + amount <= _maxWalletSize */\n      gt\n      iszero\n        /* \"contracts/Dog/SLAVE.sol\":8208:8287  require(balanceOf(to) + amount <= _maxWalletSize, \"Exceeds the maxWalletSize.\") */\n      tag_300\n      jumpi\n      mload(0x40)\n      0x08c379a000000000000000000000000000000000000000000000000000000000\n      dup2\n      mstore\n      0x04\n      add\n      tag_301\n      swap1\n      tag_302\n      jump\t// in\n    tag_301:\n      mload(0x40)\n      dup1\n      swap2\n      sub\n      swap1\n      revert\n    tag_300:\n        /* \"contracts/Dog/SLAVE.sol\":8318:8400  amount.mul((_buyCount > _reduceBuyTaxAt) ? _finalBuyTax : _initialBuyTax).div(100) */\n      tag_303\n        /* \"contracts/Dog/SLAVE.sol\":8396:8399  100 */\n      0x64\n        /* \"contracts/Dog/SLAVE.sol\":8318:8391  amount.mul((_buyCount > _reduceBuyTaxAt) ? _finalBuyTax : _initialBuyTax) */\n      tag_304\n        /* \"contracts/Dog/SLAVE.sol\":8342:8357  _reduceBuyTaxAt */\n      sload(0x09)\n        /* \"contracts/Dog/SLAVE.sol\":8330:8339  _buyCount */\n      sload(0x0d)\n        /* \"contracts/Dog/SLAVE.sol\":8330:8357  _buyCount > _reduceBuyTaxAt */\n      gt\n        /* \"contracts/Dog/SLAVE.sol\":8329:8390  (_buyCount > _reduceBuyTaxAt) ? _finalBuyTax : _initialBuyTax */\n      tag_305\n      jumpi\n        /* \"contracts/Dog/SLAVE.sol\":8376:8390  _initialBuyTax */\n      sload(0x05)\n        /* \"contracts/Dog/SLAVE.sol\":8329:8390  (_buyCount > _reduceBuyTaxAt) ? _finalBuyTax : _initialBuyTax */\n      jump(tag_306)\n    tag_305:\n        /* \"contracts/Dog/SLAVE.sol\":8361:8373  _finalBuyTax */\n      sload(0x07)\n        /* \"contracts/Dog/SLAVE.sol\":8329:8390  (_buyCount > _reduceBuyTaxAt) ? _finalBuyTax : _initialBuyTax */\n    tag_306:\n        /* \"contracts/Dog/SLAVE.sol\":8318:8324  amount */\n      dup6\n        /* \"contracts/Dog/SLAVE.sol\":8318:8328  amount.mul */\n      tag_282\n      swap1\n        /* \"contracts/Dog/SLAVE.sol\":8318:8391  amount.mul((_buyCount > _reduceBuyTaxAt) ? _finalBuyTax : _initialBuyTax) */\n      swap2\n      swap1\n      0xffffffff\n      and\n      jump\t// in\n    tag_304:\n        /* \"contracts/Dog/SLAVE.sol\":8318:8395  amount.mul((_buyCount > _reduceBuyTaxAt) ? _finalBuyTax : _initialBuyTax).div */\n      tag_283\n      swap1\n        /* \"contracts/Dog/SLAVE.sol\":8318:8400  amount.mul((_buyCount > _reduceBuyTaxAt) ? _finalBuyTax : _initialBuyTax).div(100) */\n      swap2\n      swap1\n      0xffffffff\n      and\n      jump\t// in\n    tag_303:\n        /* \"contracts/Dog/SLAVE.sol\":8306:8400  taxAmount = amount.mul((_buyCount > _reduceBuyTaxAt) ? _finalBuyTax : _initialBuyTax).div(100) */\n      swap1\n      pop\n        /* \"contracts/Dog/SLAVE.sol\":8419:8428  _buyCount */\n      0x0d\n      0x00\n        /* \"contracts/Dog/SLAVE.sol\":8419:8430  _buyCount++ */\n      dup2\n      sload\n      dup1\n      swap3\n      swap2\n      swap1\n      tag_307\n      swap1\n      tag_308\n      jump\t// in\n    tag_307:\n      swap2\n      swap1\n      pop\n      sstore\n      pop\n        /* \"contracts/Dog/SLAVE.sol\":8020:8446  if (from == uniswapV2Pair && to != address(uniswapV2Router) && ! _isExcludedFromFee[to] ) {... */\n    tag_293:\n        /* \"contracts/Dog/SLAVE.sol\":8471:8484  uniswapV2Pair */\n      0x13\n      0x00\n      swap1\n      sload\n      swap1\n      0x0100\n      exp\n      swap1\n      div\n      0xffffffffffffffffffffffffffffffffffffffff\n      and\n        /* \"contracts/Dog/SLAVE.sol\":8465:8484  to == uniswapV2Pair */\n      0xffffffffffffffffffffffffffffffffffffffff\n      and\n        /* \"contracts/Dog/SLAVE.sol\":8465:8467  to */\n      dup4\n        /* \"contracts/Dog/SLAVE.sol\":8465:8484  to == uniswapV2Pair */\n      0xffffffffffffffffffffffffffffffffffffffff\n      and\n      eq\n        /* \"contracts/Dog/SLAVE.sol\":8465:8509  to == uniswapV2Pair && from != address(this) */\n      dup1\n      iszero\n      tag_309\n      jumpi\n      pop\n        /* \"contracts/Dog/SLAVE.sol\":8504:8508  this */\n      address\n        /* \"contracts/Dog/SLAVE.sol\":8488:8509  from != address(this) */\n      0xffffffffffffffffffffffffffffffffffffffff\n      and\n        /* \"contracts/Dog/SLAVE.sol\":8488:8492  from */\n      dup5\n        /* \"contracts/Dog/SLAVE.sol\":8488:8509  from != address(this) */\n      0xffffffffffffffffffffffffffffffffffffffff\n      and\n      eq\n      iszero\n        /* \"contracts/Dog/SLAVE.sol\":8465:8509  to == uniswapV2Pair && from != address(this) */\n    tag_309:\n        /* \"contracts/Dog/SLAVE.sol\":8462:8643  if(to == uniswapV2Pair && from != address(this) ){... */\n      iszero\n      tag_310\n      jumpi\n        /* \"contracts/Dog/SLAVE.sol\":8542:8627  amount.mul((_buyCount > _reduceSellTaxAt) ? _finalSellTax : _initialSellTax).div(100) */\n      tag_311\n        /* \"contracts/Dog/SLAVE.sol\":8623:8626  100 */\n      0x64\n        /* \"contracts/Dog/SLAVE.sol\":8542:8618  amount.mul((_buyCount > _reduceSellTaxAt) ? _finalSellTax : _initialSellTax) */\n      tag_312\n        /* \"contracts/Dog/SLAVE.sol\":8566:8582  _reduceSellTaxAt */\n      sload(0x0a)\n        /* \"contracts/Dog/SLAVE.sol\":8554:8563  _buyCount */\n      sload(0x0d)\n        /* \"contracts/Dog/SLAVE.sol\":8554:8582  _buyCount > _reduceSellTaxAt */\n      gt\n        /* \"contracts/Dog/SLAVE.sol\":8553:8617  (_buyCount > _reduceSellTaxAt) ? _finalSellTax : _initialSellTax */\n      tag_313\n      jumpi\n        /* \"contracts/Dog/SLAVE.sol\":8602:8617  _initialSellTax */\n      sload(0x06)\n        /* \"contracts/Dog/SLAVE.sol\":8553:8617  (_buyCount > _reduceSellTaxAt) ? _finalSellTax : _initialSellTax */\n      jump(tag_314)\n    tag_313:\n        /* \"contracts/Dog/SLAVE.sol\":8586:8599  _finalSellTax */\n      sload(0x08)\n        /* \"contracts/Dog/SLAVE.sol\":8553:8617  (_buyCount > _reduceSellTaxAt) ? _finalSellTax : _initialSellTax */\n    tag_314:\n        /* \"contracts/Dog/SLAVE.sol\":8542:8548  amount */\n      dup6\n        /* \"contracts/Dog/SLAVE.sol\":8542:8552  amount.mul */\n      tag_282\n      swap1\n        /* \"contracts/Dog/SLAVE.sol\":8542:8618  amount.mul((_buyCount > _reduceSellTaxAt) ? _finalSellTax : _initialSellTax) */\n      swap2\n      swap1\n      0xffffffff\n      and\n      jump\t// in\n    tag_312:\n        /* \"contracts/Dog/SLAVE.sol\":8542:8622  amount.mul((_buyCount > _reduceSellTaxAt) ? _finalSellTax : _initialSellTax).div */\n      tag_283\n      swap1\n        /* \"contracts/Dog/SLAVE.sol\":8542:8627  amount.mul((_buyCount > _reduceSellTaxAt) ? _finalSellTax : _initialSellTax).div(100) */\n      swap2\n      swap1\n      0xffffffff\n      and\n      jump\t// in\n    tag_311:\n        /* \"contracts/Dog/SLAVE.sol\":8530:8627  taxAmount = amount.mul((_buyCount > _reduceSellTaxAt) ? _finalSellTax : _initialSellTax).div(100) */\n      swap1\n      pop\n        /* \"contracts/Dog/SLAVE.sol\":8462:8643  if(to == uniswapV2Pair && from != address(this) ){... */\n    tag_310:\n        /* \"contracts/Dog/SLAVE.sol\":8659:8687  uint256 contractTokenBalance */\n      0x00\n        /* \"contracts/Dog/SLAVE.sol\":8690:8714  balanceOf(address(this)) */\n      tag_315\n        /* \"contracts/Dog/SLAVE.sol\":8708:8712  this */\n      address\n        /* \"contracts/Dog/SLAVE.sol\":8690:8699  balanceOf */\n      tag_75\n        /* \"contracts/Dog/SLAVE.sol\":8690:8714  balanceOf(address(this)) */\n      jump\t// in\n    tag_315:\n        /* \"contracts/Dog/SLAVE.sol\":8659:8714  uint256 contractTokenBalance = balanceOf(address(this)) */\n      swap1\n      pop\n        /* \"contracts/Dog/SLAVE.sol\":8734:8740  inSwap */\n      0x13\n      0x15\n      swap1\n      sload\n      swap1\n      0x0100\n      exp\n      swap1\n      div\n      0xff\n      and\n        /* \"contracts/Dog/SLAVE.sol\":8733:8740  !inSwap */\n      iszero\n        /* \"contracts/Dog/SLAVE.sol\":8733:8763  !inSwap && to == uniswapV2Pair */\n      dup1\n      iszero\n      tag_316\n      jumpi\n      pop\n        /* \"contracts/Dog/SLAVE.sol\":8750:8763  uniswapV2Pair */\n      0x13\n      0x00\n      swap1\n      sload\n      swap1\n      0x0100\n      exp\n      swap1\n      div\n      0xffffffffffffffffffffffffffffffffffffffff\n      and\n        /* \"contracts/Dog/SLAVE.sol\":8744:8763  to == uniswapV2Pair */\n      0xffffffffffffffffffffffffffffffffffffffff\n      and\n        /* \"contracts/Dog/SLAVE.sol\":8744:8746  to */\n      dup5\n        /* \"contracts/Dog/SLAVE.sol\":8744:8763  to == uniswapV2Pair */\n      0xffffffffffffffffffffffffffffffffffffffff\n      and\n      eq\n        /* \"contracts/Dog/SLAVE.sol\":8733:8763  !inSwap && to == uniswapV2Pair */\n    tag_316:\n        /* \"contracts/Dog/SLAVE.sol\":8733:8778  !inSwap && to == uniswapV2Pair && swapEnabled */\n      dup1\n      iszero\n      tag_317\n      jumpi\n      pop\n        /* \"contracts/Dog/SLAVE.sol\":8767:8778  swapEnabled */\n      0x13\n      0x16\n      swap1\n      sload\n      swap1\n      0x0100\n      exp\n      swap1\n      div\n      0xff\n      and\n        /* \"contracts/Dog/SLAVE.sol\":8733:8778  !inSwap && to == uniswapV2Pair && swapEnabled */\n    tag_317:\n        /* \"contracts/Dog/SLAVE.sol\":8733:8822  !inSwap && to == uniswapV2Pair && swapEnabled && contractTokenBalance > _taxSwapThreshold */\n      dup1\n      iszero\n      tag_318\n      jumpi\n      pop\n        /* \"contracts/Dog/SLAVE.sol\":8805:8822  _taxSwapThreshold */\n      sload(0x10)\n        /* \"contracts/Dog/SLAVE.sol\":8782:8802  contractTokenBalance */\n      dup2\n        /* \"contracts/Dog/SLAVE.sol\":8782:8822  contractTokenBalance > _taxSwapThreshold */\n      gt\n        /* \"contracts/Dog/SLAVE.sol\":8733:8822  !inSwap && to == uniswapV2Pair && swapEnabled && contractTokenBalance > _taxSwapThreshold */\n    tag_318:\n        /* \"contracts/Dog/SLAVE.sol\":8733:8856  !inSwap && to == uniswapV2Pair && swapEnabled && contractTokenBalance > _taxSwapThreshold && _buyCount > _preventSwapBefore */\n      dup1\n      iszero\n      tag_319\n      jumpi\n      pop\n        /* \"contracts/Dog/SLAVE.sol\":8838:8856  _preventSwapBefore */\n      sload(0x0b)\n        /* \"contracts/Dog/SLAVE.sol\":8826:8835  _buyCount */\n      sload(0x0d)\n        /* \"contracts/Dog/SLAVE.sol\":8826:8856  _buyCount > _preventSwapBefore */\n      gt\n        /* \"contracts/Dog/SLAVE.sol\":8733:8856  !inSwap && to == uniswapV2Pair && swapEnabled && contractTokenBalance > _taxSwapThreshold && _buyCount > _preventSwapBefore */\n    tag_319:\n        /* \"contracts/Dog/SLAVE.sol\":8729:9409  if (!inSwap && to == uniswapV2Pair && swapEnabled && contractTokenBalance > _taxSwapThreshold && _buyCount > _preventSwapBefore) {... */\n      iszero\n      tag_320\n      jumpi\n        /* \"contracts/Dog/SLAVE.sol\":8896:8909  lastSellBlock */\n      sload(0x15)\n        /* \"contracts/Dog/SLAVE.sol\":8881:8893  block.number */\n      number\n        /* \"contracts/Dog/SLAVE.sol\":8881:8909  block.number > lastSellBlock */\n      gt\n        /* \"contracts/Dog/SLAVE.sol\":8877:8966  if (block.number > lastSellBlock) {... */\n      iszero\n      tag_321\n      jumpi\n        /* \"contracts/Dog/SLAVE.sol\":8945:8946  0 */\n      0x00\n        /* \"contracts/Dog/SLAVE.sol\":8934:8943  sellCount */\n      0x14\n        /* \"contracts/Dog/SLAVE.sol\":8934:8946  sellCount =0 */\n      dup2\n      swap1\n      sstore\n      pop\n        /* \"contracts/Dog/SLAVE.sol\":8877:8966  if (block.number > lastSellBlock) {... */\n    tag_321:\n        /* \"contracts/Dog/SLAVE.sol\":9004:9005  3 */\n      0x03\n        /* \"contracts/Dog/SLAVE.sol\":8992:9001  sellCount */\n      sload(0x14)\n        /* \"contracts/Dog/SLAVE.sol\":8992:9005  sellCount < 3 */\n      lt\n        /* \"contracts/Dog/SLAVE.sol\":8984:9033  require(sellCount < 3, \"Only 3 sells per block!\") */\n      tag_322\n      jumpi\n      mload(0x40)\n      0x08c379a000000000000000000000000000000000000000000000000000000000\n      dup2\n      mstore\n      0x04\n      add\n      tag_323\n      swap1\n      tag_324\n      jump\t// in\n    tag_323:\n      mload(0x40)\n      dup1\n      swap2\n      sub\n      swap1\n      revert\n    tag_322:\n        /* \"contracts/Dog/SLAVE.sol\":9054:9122  swapTokensForEth(min(amount,min(contractTokenBalance, _maxTaxSwap))) */\n      tag_325\n        /* \"contracts/Dog/SLAVE.sol\":9071:9121  min(amount,min(contractTokenBalance, _maxTaxSwap)) */\n      tag_326\n        /* \"contracts/Dog/SLAVE.sol\":9075:9081  amount */\n      dup5\n        /* \"contracts/Dog/SLAVE.sol\":9082:9120  min(contractTokenBalance, _maxTaxSwap) */\n      tag_327\n        /* \"contracts/Dog/SLAVE.sol\":9086:9106  contractTokenBalance */\n      dup5\n        /* \"contracts/Dog/SLAVE.sol\":9108:9119  _maxTaxSwap */\n      sload(0x11)\n        /* \"contracts/Dog/SLAVE.sol\":9082:9085  min */\n      tag_328\n        /* \"contracts/Dog/SLAVE.sol\":9082:9120  min(contractTokenBalance, _maxTaxSwap) */\n      jump\t// in\n    tag_327:\n        /* \"contracts/Dog/SLAVE.sol\":9071:9074  min */\n      tag_328\n        /* \"contracts/Dog/SLAVE.sol\":9071:9121  min(amount,min(contractTokenBalance, _maxTaxSwap)) */\n      jump\t// in\n    tag_326:\n        /* \"contracts/Dog/SLAVE.sol\":9054:9070  swapTokensForEth */\n      tag_162\n        /* \"contracts/Dog/SLAVE.sol\":9054:9122  swapTokensForEth(min(amount,min(contractTokenBalance, _maxTaxSwap))) */\n      jump\t// in\n    tag_325:\n        /* \"contracts/Dog/SLAVE.sol\":9141:9167  uint256 contractETHBalance */\n      0x00\n        /* \"contracts/Dog/SLAVE.sol\":9169:9190  address(this).balance */\n      selfbalance\n        /* \"contracts/Dog/SLAVE.sol\":9141:9190  uint256 contractETHBalance= address(this).balance */\n      swap1\n      pop\n        /* \"contracts/Dog/SLAVE.sol\":9234:9235  0 */\n      0x00\n        /* \"contracts/Dog/SLAVE.sol\":9213:9231  contractETHBalance */\n      dup2\n        /* \"contracts/Dog/SLAVE.sol\":9213:9235  contractETHBalance > 0 */\n      gt\n        /* \"contracts/Dog/SLAVE.sol\":9209:9315  if (contractETHBalance > 0) {... */\n      iszero\n      tag_329\n      jumpi\n        /* \"contracts/Dog/SLAVE.sol\":9260:9295  sendETHToFee(address(this).balance) */\n      tag_330\n        /* \"contracts/Dog/SLAVE.sol\":9273:9294  address(this).balance */\n      selfbalance\n        /* \"contracts/Dog/SLAVE.sol\":9260:9272  sendETHToFee */\n      tag_165\n        /* \"contracts/Dog/SLAVE.sol\":9260:9295  sendETHToFee(address(this).balance) */\n      jump\t// in\n    tag_330:\n        /* \"contracts/Dog/SLAVE.sol\":9209:9315  if (contractETHBalance > 0) {... */\n    tag_329:\n        /* \"contracts/Dog/SLAVE.sol\":9335:9344  sellCount */\n      0x14\n      0x00\n        /* \"contracts/Dog/SLAVE.sol\":9335:9346  sellCount++ */\n      dup2\n      sload\n      dup1\n      swap3\n      swap2\n      swap1\n      tag_331\n      swap1\n      tag_308\n      jump\t// in\n    tag_331:\n      swap2\n      swap1\n      pop\n      sstore\n      pop\n        /* \"contracts/Dog/SLAVE.sol\":9381:9393  block.number */\n      number\n        /* \"contracts/Dog/SLAVE.sol\":9365:9378  lastSellBlock */\n      0x15\n        /* \"contracts/Dog/SLAVE.sol\":9365:9393  lastSellBlock = block.number */\n      dup2\n      swap1\n      sstore\n      pop\n        /* \"contracts/Dog/SLAVE.sol\":8858:9409  {... */\n      pop\n        /* \"contracts/Dog/SLAVE.sol\":8729:9409  if (!inSwap && to == uniswapV2Pair && swapEnabled && contractTokenBalance > _taxSwapThreshold && _buyCount > _preventSwapBefore) {... */\n    tag_320:\n        /* \"contracts/Dog/SLAVE.sol\":7589:9420  {... */\n      pop\n        /* \"contracts/Dog/SLAVE.sol\":7551:9420  if (from != owner() && to != owner()) {... */\n    tag_276:\n        /* \"contracts/Dog/SLAVE.sol\":9447:9448  0 */\n      0x00\n        /* \"contracts/Dog/SLAVE.sol\":9435:9444  taxAmount */\n      dup2\n        /* \"contracts/Dog/SLAVE.sol\":9435:9448  taxAmount > 0 */\n      gt\n        /* \"contracts/Dog/SLAVE.sol\":9432:9598  if(taxAmount > 0){... */\n      iszero\n      tag_332\n      jumpi\n        /* \"contracts/Dog/SLAVE.sol\":9489:9528  _balances[address(this)].add(taxAmount) */\n      tag_333\n        /* \"contracts/Dog/SLAVE.sol\":9518:9527  taxAmount */\n      dup2\n        /* \"contracts/Dog/SLAVE.sol\":9489:9498  _balances */\n      0x01\n        /* \"contracts/Dog/SLAVE.sol\":9489:9513  _balances[address(this)] */\n      0x00\n        /* \"contracts/Dog/SLAVE.sol\":9507:9511  this */\n      address\n        /* \"contracts/Dog/SLAVE.sol\":9489:9513  _balances[address(this)] */\n      0xffffffffffffffffffffffffffffffffffffffff\n      and\n      0xffffffffffffffffffffffffffffffffffffffff\n      and\n      dup2\n      mstore\n      0x20\n      add\n      swap1\n      dup2\n      mstore\n      0x20\n      add\n      0x00\n      keccak256\n      sload\n        /* \"contracts/Dog/SLAVE.sol\":9489:9517  _balances[address(this)].add */\n      tag_334\n      swap1\n        /* \"contracts/Dog/SLAVE.sol\":9489:9528  _balances[address(this)].add(taxAmount) */\n      swap2\n      swap1\n      0xffffffff\n      and\n      jump\t// in\n    tag_333:\n        /* \"contracts/Dog/SLAVE.sol\":9462:9471  _balances */\n      0x01\n        /* \"contracts/Dog/SLAVE.sol\":9462:9486  _balances[address(this)] */\n      0x00\n        /* \"contracts/Dog/SLAVE.sol\":9480:9484  this */\n      address\n        /* \"contracts/Dog/SLAVE.sol\":9462:9486  _balances[address(this)] */\n      0xffffffffffffffffffffffffffffffffffffffff\n      and\n      0xffffffffffffffffffffffffffffffffffffffff\n      and\n      dup2\n      mstore\n      0x20\n      add\n      swap1\n      dup2\n      mstore\n      0x20\n      add\n      0x00\n      keccak256\n        /* \"contracts/Dog/SLAVE.sol\":9462:9528  _balances[address(this)] = _balances[address(this)].add(taxAmount) */\n      dup2\n      swap1\n      sstore\n      pop\n        /* \"contracts/Dog/SLAVE.sol\":9569:9573  this */\n      address\n        /* \"contracts/Dog/SLAVE.sol\":9546:9586  Transfer(from, address(this), taxAmount) */\n      0xffffffffffffffffffffffffffffffffffffffff\n      and\n        /* \"contracts/Dog/SLAVE.sol\":9555:9559  from */\n      dup5\n        /* \"contracts/Dog/SLAVE.sol\":9546:9586  Transfer(from, address(this), taxAmount) */\n      0xffffffffffffffffffffffffffffffffffffffff\n      and\n      0xddf252ad1be2c89b69c2b068fc378daa952ba7f163c4a11628f55a4df523b3ef\n        /* \"contracts/Dog/SLAVE.sol\":9576:9585  taxAmount */\n      dup4\n        /* \"contracts/Dog/SLAVE.sol\":9546:9586  Transfer(from, address(this), taxAmount) */\n      mload(0x40)\n      tag_335\n      swap2\n      swap1\n      tag_46\n      jump\t// in\n    tag_335:\n      mload(0x40)\n      dup1\n      swap2\n      sub\n      swap1\n      log3\n        /* \"contracts/Dog/SLAVE.sol\":9432:9598  if(taxAmount > 0){... */\n    tag_332:\n        /* \"contracts/Dog/SLAVE.sol\":9628:9655  _balances[from].sub(amount) */\n      tag_336\n        /* \"contracts/Dog/SLAVE.sol\":9648:9654  amount */\n      dup3\n        /* \"contracts/Dog/SLAVE.sol\":9628:9637  _balances */\n      0x01\n        /* \"contracts/Dog/SLAVE.sol\":9628:9643  _balances[from] */\n      0x00\n        /* \"contracts/Dog/SLAVE.sol\":9638:9642  from */\n      dup8\n        /* \"contracts/Dog/SLAVE.sol\":9628:9643  _balances[from] */\n      0xffffffffffffffffffffffffffffffffffffffff\n      and\n      0xffffffffffffffffffffffffffffffffffffffff\n      and\n      dup2\n      mstore\n      0x20\n      add\n      swap1\n      dup2\n      mstore\n      0x20\n      add\n      0x00\n      keccak256\n      sload\n        /* \"contracts/Dog/SLAVE.sol\":9628:9647  _balances[from].sub */\n      tag_337\n      swap1\n        /* \"contracts/Dog/SLAVE.sol\":9628:9655  _balances[from].sub(amount) */\n      swap2\n      swap1\n      0xffffffff\n      and\n      jump\t// in\n    tag_336:\n        /* \"contracts/Dog/SLAVE.sol\":9610:9619  _balances */\n      0x01\n        /* \"contracts/Dog/SLAVE.sol\":9610:9625  _balances[from] */\n      0x00\n        /* \"contracts/Dog/SLAVE.sol\":9620:9624  from */\n      dup7\n        /* \"contracts/Dog/SLAVE.sol\":9610:9625  _balances[from] */\n      0xffffffffffffffffffffffffffffffffffffffff\n      and\n      0xffffffffffffffffffffffffffffffffffffffff\n      and\n      dup2\n      mstore\n      0x20\n      add\n      swap1\n      dup2\n      mstore\n      0x20\n      add\n      0x00\n      keccak256\n        /* \"contracts/Dog/SLAVE.sol\":9610:9655  _balances[from] = _balances[from].sub(amount) */\n      dup2\n      swap1\n      sstore\n      pop\n        /* \"contracts/Dog/SLAVE.sol\":9682:9722  _balances[to].add(amount.sub(taxAmount)) */\n      tag_338\n        /* \"contracts/Dog/SLAVE.sol\":9700:9721  amount.sub(taxAmount) */\n      tag_339\n        /* \"contracts/Dog/SLAVE.sol\":9711:9720  taxAmount */\n      dup3\n        /* \"contracts/Dog/SLAVE.sol\":9700:9706  amount */\n      dup5\n        /* \"contracts/Dog/SLAVE.sol\":9700:9710  amount.sub */\n      tag_337\n      swap1\n        /* \"contracts/Dog/SLAVE.sol\":9700:9721  amount.sub(taxAmount) */\n      swap2\n      swap1\n      0xffffffff\n      and\n      jump\t// in\n    tag_339:\n        /* \"contracts/Dog/SLAVE.sol\":9682:9691  _balances */\n      0x01\n        /* \"contracts/Dog/SLAVE.sol\":9682:9695  _balances[to] */\n      0x00\n        /* \"contracts/Dog/SLAVE.sol\":9692:9694  to */\n      dup7\n        /* \"contracts/Dog/SLAVE.sol\":9682:9695  _balances[to] */\n      0xffffffffffffffffffffffffffffffffffffffff\n      and\n      0xffffffffffffffffffffffffffffffffffffffff\n      and\n      dup2\n      mstore\n      0x20\n      add\n      swap1\n      dup2\n      mstore\n      0x20\n      add\n      0x00\n      keccak256\n      sload\n        /* \"contracts/Dog/SLAVE.sol\":9682:9699  _balances[to].add */\n      tag_334\n      swap1\n        /* \"contracts/Dog/SLAVE.sol\":9682:9722  _balances[to].add(amount.sub(taxAmount)) */\n      swap2\n      swap1\n      0xffffffff\n      and\n      jump\t// in\n    tag_338:\n        /* \"contracts/Dog/SLAVE.sol\":9666:9675  _balances */\n      0x01\n        /* \"contracts/Dog/SLAVE.sol\":9666:9679  _balances[to] */\n      0x00\n        /* \"contracts/Dog/SLAVE.sol\":9676:9678  to */\n      dup6\n        /* \"contracts/Dog/SLAVE.sol\":9666:9679  _balances[to] */\n      0xffffffffffffffffffffffffffffffffffffffff\n      and\n      0xffffffffffffffffffffffffffffffffffffffff\n      and\n      dup2\n      mstore\n      0x20\n      add\n      swap1\n      dup2\n      mstore\n      0x20\n      add\n      0x00\n      keccak256\n        /* \"contracts/Dog/SLAVE.sol\":9666:9722  _balances[to] = _balances[to].add(amount.sub(taxAmount)) */\n      dup2\n      swap1\n      sstore\n      pop\n        /* \"contracts/Dog/SLAVE.sol\":9752:9754  to */\n      dup3\n        /* \"contracts/Dog/SLAVE.sol\":9738:9777  Transfer(from,to,amount.sub(taxAmount)) */\n      0xffffffffffffffffffffffffffffffffffffffff\n      and\n        /* \"contracts/Dog/SLAVE.sol\":9747:9751  from */\n      dup5\n        /* \"contracts/Dog/SLAVE.sol\":9738:9777  Transfer(from,to,amount.sub(taxAmount)) */\n      0xffffffffffffffffffffffffffffffffffffffff\n      and\n      0xddf252ad1be2c89b69c2b068fc378daa952ba7f163c4a11628f55a4df523b3ef\n        /* \"contracts/Dog/SLAVE.sol\":9755:9776  amount.sub(taxAmount) */\n      tag_340\n        /* \"contracts/Dog/SLAVE.sol\":9766:9775  taxAmount */\n      dup5\n        /* \"contracts/Dog/SLAVE.sol\":9755:9761  amount */\n      dup7\n        /* \"contracts/Dog/SLAVE.sol\":9755:9765  amount.sub */\n      tag_337\n      swap1\n        /* \"contracts/Dog/SLAVE.sol\":9755:9776  amount.sub(taxAmount) */\n      swap2\n      swap1\n      0xffffffff\n      and\n      jump\t// in\n    tag_340:\n        /* \"contracts/Dog/SLAVE.sol\":9738:9777  Transfer(from,to,amount.sub(taxAmount)) */\n      mload(0x40)\n      tag_341\n      swap2\n      swap1\n      tag_46\n      jump\t// in\n    tag_341:\n      mload(0x40)\n      dup1\n      swap2\n      sub\n      swap1\n      log3\n        /* \"contracts/Dog/SLAVE.sol\":7279:9785  {... */\n      pop\n        /* \"contracts/Dog/SLAVE.sol\":7210:9785  function _transfer(address from, address to, uint256 amount) private {... */\n      pop\n      pop\n      pop\n      jump\t// out\n        /* \"contracts/Dog/SLAVE.sol\":1241:1431  function sub(uint256 a, uint256 b, string memory errorMessage) internal pure returns (uint256) {... */\n    tag_154:\n        /* \"contracts/Dog/SLAVE.sol\":1327:1334  uint256 */\n      0x00\n        /* \"contracts/Dog/SLAVE.sol\":1360:1361  a */\n      dup4\n        /* \"contracts/Dog/SLAVE.sol\":1355:1356  b */\n      dup4\n        /* \"contracts/Dog/SLAVE.sol\":1355:1361  b <= a */\n      gt\n      iszero\n        /* \"contracts/Dog/SLAVE.sol\":1363:1375  errorMessage */\n      dup3\n        /* \"contracts/Dog/SLAVE.sol\":1347:1376  require(b <= a, errorMessage) */\n      swap1\n      tag_343\n      jumpi\n      mload(0x40)\n      0x08c379a000000000000000000000000000000000000000000000000000000000\n      dup2\n      mstore\n      0x04\n      add\n      tag_344\n      swap2\n      swap1\n      tag_34\n      jump\t// in\n    tag_344:\n      mload(0x40)\n      dup1\n      swap2\n      sub\n      swap1\n      revert\n    tag_343:\n      pop\n        /* \"contracts/Dog/SLAVE.sol\":1387:1396  uint256 c */\n      0x00\n        /* \"contracts/Dog/SLAVE.sol\":1403:1404  b */\n      dup4\n        /* \"contracts/Dog/SLAVE.sol\":1399:1400  a */\n      dup6\n        /* \"contracts/Dog/SLAVE.sol\":1399:1404  a - b */\n      tag_345\n      swap2\n      swap1\n      tag_346\n      jump\t// in\n    tag_345:\n        /* \"contracts/Dog/SLAVE.sol\":1387:1404  uint256 c = a - b */\n      swap1\n      pop\n        /* \"contracts/Dog/SLAVE.sol\":1422:1423  c */\n      dup1\n        /* \"contracts/Dog/SLAVE.sol\":1415:1423  return c */\n      swap2\n      pop\n      pop\n        /* \"contracts/Dog/SLAVE.sol\":1241:1431  function sub(uint256 a, uint256 b, string memory errorMessage) internal pure returns (uint256) {... */\n      swap4\n      swap3\n      pop\n      pop\n      pop\n      jump\t// out\n        /* \"contracts/Dog/SLAVE.sol\":9906:10389  function swapTokensForEth(uint256 tokenAmount) private lockTheSwap {... */\n    tag_162:\n        /* \"contracts/Dog/SLAVE.sol\":5133:5137  true */\n      0x01\n        /* \"contracts/Dog/SLAVE.sol\":5124:5130  inSwap */\n      0x13\n      0x15\n        /* \"contracts/Dog/SLAVE.sol\":5124:5137  inSwap = true */\n      0x0100\n      exp\n      dup2\n      sload\n      dup2\n      0xff\n      mul\n      not\n      and\n      swap1\n      dup4\n      iszero\n      iszero\n      mul\n      or\n      swap1\n      sstore\n      pop\n        /* \"contracts/Dog/SLAVE.sol\":9984:10005  address[] memory path */\n      0x00\n        /* \"contracts/Dog/SLAVE.sol\":10022:10023  2 */\n      0x02\n        /* \"contracts/Dog/SLAVE.sol\":10008:10024  new address[](2) */\n      0xffffffffffffffff\n      dup2\n      gt\n      iszero\n      tag_349\n      jumpi\n      tag_350\n      tag_351\n      jump\t// in\n    tag_350:\n    tag_349:\n      mload(0x40)\n      swap1\n      dup1\n      dup3\n      mstore\n      dup1\n      0x20\n      mul\n      0x20\n      add\n      dup3\n      add\n      0x40\n      mstore\n      dup1\n      iszero\n      tag_352\n      jumpi\n      dup2\n      0x20\n      add\n      0x20\n      dup3\n      mul\n      dup1\n      calldatasize\n      dup4\n      calldatacopy\n      dup1\n      dup3\n      add\n      swap2\n      pop\n      pop\n      swap1\n      pop\n    tag_352:\n      pop\n        /* \"contracts/Dog/SLAVE.sol\":9984:10024  address[] memory path = new address[](2) */\n      swap1\n      pop\n        /* \"contracts/Dog/SLAVE.sol\":10053:10057  this */\n      address\n        /* \"contracts/Dog/SLAVE.sol\":10035:10039  path */\n      dup2\n        /* \"contracts/Dog/SLAVE.sol\":10040:10041  0 */\n      0x00\n        /* \"contracts/Dog/SLAVE.sol\":10035:10042  path[0] */\n      dup2\n      mload\n      dup2\n      lt\n      tag_353\n      jumpi\n      tag_354\n      tag_355\n      jump\t// in\n    tag_354:\n    tag_353:\n      0x20\n      mul\n      0x20\n      add\n      add\n        /* \"contracts/Dog/SLAVE.sol\":10035:10058  path[0] = address(this) */\n      swap1\n      0xffffffffffffffffffffffffffffffffffffffff\n      and\n      swap1\n      dup2\n      0xffffffffffffffffffffffffffffffffffffffff\n      and\n      dup2\n      mstore\n      pop\n      pop\n        /* \"contracts/Dog/SLAVE.sol\":10079:10094  uniswapV2Router */\n      0x12\n      0x00\n      swap1\n      sload\n      swap1\n      0x0100\n      exp\n      swap1\n      div\n      0xffffffffffffffffffffffffffffffffffffffff\n      and\n        /* \"contracts/Dog/SLAVE.sol\":10079:10099  uniswapV2Router.WETH */\n      0xffffffffffffffffffffffffffffffffffffffff\n      and\n      0xad5c4648\n        /* \"contracts/Dog/SLAVE.sol\":10079:10101  uniswapV2Router.WETH() */\n      mload(0x40)\n      dup2\n      0xffffffff\n      and\n      0xe0\n      shl\n      dup2\n      mstore\n      0x04\n      add\n      0x20\n      mload(0x40)\n      dup1\n      dup4\n      sub\n      dup2\n      dup7\n      gas\n      staticcall\n      iszero\n      dup1\n      iszero\n      tag_357\n      jumpi\n      returndatasize\n      0x00\n      dup1\n      returndatacopy\n      revert(0x00, returndatasize)\n    tag_357:\n      pop\n      pop\n      pop\n      pop\n      mload(0x40)\n      returndatasize\n      not(0x1f)\n      0x1f\n      dup3\n      add\n      and\n      dup3\n      add\n      dup1\n      0x40\n      mstore\n      pop\n      dup2\n      add\n      swap1\n      tag_358\n      swap2\n      swap1\n      tag_220\n      jump\t// in\n    tag_358:\n        /* \"contracts/Dog/SLAVE.sol\":10069:10073  path */\n      dup2\n        /* \"contracts/Dog/SLAVE.sol\":10074:10075  1 */\n      0x01\n        /* \"contracts/Dog/SLAVE.sol\":10069:10076  path[1] */\n      dup2\n      mload\n      dup2\n      lt\n      tag_359\n      jumpi\n      tag_360\n      tag_355\n      jump\t// in\n    tag_360:\n    tag_359:\n      0x20\n      mul\n      0x20\n      add\n      add\n        /* \"contracts/Dog/SLAVE.sol\":10069:10101  path[1] = uniswapV2Router.WETH() */\n      swap1\n      0xffffffffffffffffffffffffffffffffffffffff\n      and\n      swap1\n      dup2\n      0xffffffffffffffffffffffffffffffffffffffff\n      and\n      dup2\n      mstore\n      pop\n      pop\n        /* \"contracts/Dog/SLAVE.sol\":10112:10174  _approve(address(this), address(uniswapV2Router), tokenAmount) */\n      tag_361\n        /* \"contracts/Dog/SLAVE.sol\":10129:10133  this */\n      address\n        /* \"contracts/Dog/SLAVE.sol\":10144:10159  uniswapV2Router */\n      0x12\n      0x00\n      swap1\n      sload\n      swap1\n      0x0100\n      exp\n      swap1\n      div\n      0xffffffffffffffffffffffffffffffffffffffff\n      and\n        /* \"contracts/Dog/SLAVE.sol\":10162:10173  tokenAmount */\n      dup5\n        /* \"contracts/Dog/SLAVE.sol\":10112:10120  _approve */\n      tag_133\n        /* \"contracts/Dog/SLAVE.sol\":10112:10174  _approve(address(this), address(uniswapV2Router), tokenAmount) */\n      jump\t// in\n    tag_361:\n        /* \"contracts/Dog/SLAVE.sol\":10185:10200  uniswapV2Router */\n      0x12\n      0x00\n      swap1\n      sload\n      swap1\n      0x0100\n      exp\n      swap1\n      div\n      0xffffffffffffffffffffffffffffffffffffffff\n      and\n        /* \"contracts/Dog/SLAVE.sol\":10185:10251  uniswapV2Router.swapExactTokensForETHSupportingFeeOnTransferTokens */\n      0xffffffffffffffffffffffffffffffffffffffff\n      and\n      0x791ac947\n        /* \"contracts/Dog/SLAVE.sol\":10266:10277  tokenAmount */\n      dup4\n        /* \"contracts/Dog/SLAVE.sol\":10292:10293  0 */\n      0x00\n        /* \"contracts/Dog/SLAVE.sol\":10308:10312  path */\n      dup5\n        /* \"contracts/Dog/SLAVE.sol\":10335:10339  this */\n      address\n        /* \"contracts/Dog/SLAVE.sol\":10355:10370  block.timestamp */\n      timestamp\n        /* \"contracts/Dog/SLAVE.sol\":10185:10381  uniswapV2Router.swapExactTokensForETHSupportingFeeOnTransferTokens(... */\n      mload(0x40)\n      dup7\n      0xffffffff\n      and\n      0xe0\n      shl\n      dup2\n      mstore\n      0x04\n      add\n      tag_362\n      swap6\n      swap5\n      swap4\n      swap3\n      swap2\n      swap1\n      tag_363\n      jump\t// in\n    tag_362:\n      0x00\n      mload(0x40)\n      dup1\n      dup4\n      sub\n      dup2\n      0x00\n      dup8\n      dup1\n      extcodesize\n      iszero\n      dup1\n      iszero\n      tag_364\n      jumpi\n      0x00\n      dup1\n      revert\n    tag_364:\n      pop\n      gas\n      call\n      iszero\n      dup1\n      iszero\n      tag_366\n      jumpi\n      returndatasize\n      0x00\n      dup1\n      returndatacopy\n      revert(0x00, returndatasize)\n    tag_366:\n      pop\n      pop\n      pop\n      pop\n        /* \"contracts/Dog/SLAVE.sol\":9973:10389  {... */\n      pop\n        /* \"contracts/Dog/SLAVE.sol\":5169:5174  false */\n      0x00\n        /* \"contracts/Dog/SLAVE.sol\":5160:5166  inSwap */\n      0x13\n      0x15\n        /* \"contracts/Dog/SLAVE.sol\":5160:5174  inSwap = false */\n      0x0100\n      exp\n      dup2\n      sload\n      dup2\n      0xff\n      mul\n      not\n      and\n      swap1\n      dup4\n      iszero\n      iszero\n      mul\n      or\n      swap1\n      sstore\n      pop\n        /* \"contracts/Dog/SLAVE.sol\":9906:10389  function swapTokensForEth(uint256 tokenAmount) private lockTheSwap {... */\n      pop\n      jump\t// out\n        /* \"contracts/Dog/SLAVE.sol\":10689:10781  function sendETHToFee(uint256 amount) private {... */\n    tag_165:\n        /* \"contracts/Dog/SLAVE.sol\":10746:10756  _taxWallet */\n      0x04\n      0x00\n      swap1\n      sload\n      swap1\n      0x0100\n      exp\n      swap1\n      div\n      0xffffffffffffffffffffffffffffffffffffffff\n      and\n        /* \"contracts/Dog/SLAVE.sol\":10746:10765  _taxWallet.transfer */\n      0xffffffffffffffffffffffffffffffffffffffff\n      and\n        /* \"contracts/Dog/SLAVE.sol\":10746:10773  _taxWallet.transfer(amount) */\n      0x08fc\n        /* \"contracts/Dog/SLAVE.sol\":10766:10772  amount */\n      dup3\n        /* \"contracts/Dog/SLAVE.sol\":10746:10773  _taxWallet.transfer(amount) */\n      swap1\n      dup2\n      iszero\n      mul\n      swap1\n      mload(0x40)\n      0x00\n      mload(0x40)\n      dup1\n      dup4\n      sub\n      dup2\n      dup6\n      dup9\n      dup9\n      call\n      swap4\n      pop\n      pop\n      pop\n      pop\n      iszero\n      dup1\n      iszero\n      tag_369\n      jumpi\n      returndatasize\n      0x00\n      dup1\n      returndatacopy\n      revert(0x00, returndatasize)\n    tag_369:\n      pop\n        /* \"contracts/Dog/SLAVE.sol\":10689:10781  function sendETHToFee(uint256 amount) private {... */\n      pop\n      jump\t// out\n        /* \"contracts/Dog/SLAVE.sol\":1439:1685  function mul(uint256 a, uint256 b) internal pure returns (uint256) {... */\n    tag_282:\n        /* \"contracts/Dog/SLAVE.sol\":1497:1504  uint256 */\n      0x00\n        /* \"contracts/Dog/SLAVE.sol\":1526:1527  0 */\n      dup1\n        /* \"contracts/Dog/SLAVE.sol\":1521:1522  a */\n      dup4\n        /* \"contracts/Dog/SLAVE.sol\":1521:1527  a == 0 */\n      sub\n        /* \"contracts/Dog/SLAVE.sol\":1517:1564  if (a == 0) {... */\n      tag_371\n      jumpi\n        /* \"contracts/Dog/SLAVE.sol\":1551:1552  0 */\n      0x00\n        /* \"contracts/Dog/SLAVE.sol\":1544:1552  return 0 */\n      swap1\n      pop\n      jump(tag_370)\n        /* \"contracts/Dog/SLAVE.sol\":1517:1564  if (a == 0) {... */\n    tag_371:\n        /* \"contracts/Dog/SLAVE.sol\":1574:1583  uint256 c */\n      0x00\n        /* \"contracts/Dog/SLAVE.sol\":1590:1591  b */\n      dup3\n        /* \"contracts/Dog/SLAVE.sol\":1586:1587  a */\n      dup5\n        /* \"contracts/Dog/SLAVE.sol\":1586:1591  a * b */\n      tag_372\n      swap2\n      swap1\n      tag_146\n      jump\t// in\n    tag_372:\n        /* \"contracts/Dog/SLAVE.sol\":1574:1591  uint256 c = a * b */\n      swap1\n      pop\n        /* \"contracts/Dog/SLAVE.sol\":1619:1620  b */\n      dup3\n        /* \"contracts/Dog/SLAVE.sol\":1614:1615  a */\n      dup5\n        /* \"contracts/Dog/SLAVE.sol\":1610:1611  c */\n      dup3\n        /* \"contracts/Dog/SLAVE.sol\":1610:1615  c / a */\n      tag_373\n      swap2\n      swap1\n      tag_374\n      jump\t// in\n    tag_373:\n        /* \"contracts/Dog/SLAVE.sol\":1610:1620  c / a == b */\n      eq\n        /* \"contracts/Dog/SLAVE.sol\":1602:1658  require(c / a == b, \"SafeMath: multiplication overflow\") */\n      tag_375\n      jumpi\n      mload(0x40)\n      0x08c379a000000000000000000000000000000000000000000000000000000000\n      dup2\n      mstore\n      0x04\n      add\n      tag_376\n      swap1\n      tag_377\n      jump\t// in\n    tag_376:\n      mload(0x40)\n      dup1\n      swap2\n      sub\n      swap1\n      revert\n    tag_375:\n        /* \"contracts/Dog/SLAVE.sol\":1676:1677  c */\n      dup1\n        /* \"contracts/Dog/SLAVE.sol\":1669:1677  return c */\n      swap2\n      pop\n      pop\n        /* \"contracts/Dog/SLAVE.sol\":1439:1685  function mul(uint256 a, uint256 b) internal pure returns (uint256) {... */\n    tag_370:\n      swap3\n      swap2\n      pop\n      pop\n      jump\t// out\n        /* \"contracts/Dog/SLAVE.sol\":1693:1825  function div(uint256 a, uint256 b) internal pure returns (uint256) {... */\n    tag_283:\n        /* \"contracts/Dog/SLAVE.sol\":1751:1758  uint256 */\n      0x00\n        /* \"contracts/Dog/SLAVE.sol\":1778:1817  div(a, b, \"SafeMath: division by zero\") */\n      tag_379\n        /* \"contracts/Dog/SLAVE.sol\":1782:1783  a */\n      dup4\n        /* \"contracts/Dog/SLAVE.sol\":1785:1786  b */\n      dup4\n        /* \"contracts/Dog/SLAVE.sol\":1778:1817  div(a, b, \"SafeMath: division by zero\") */\n      mload(0x40)\n      dup1\n      0x40\n      add\n      0x40\n      mstore\n      dup1\n      0x1a\n      dup2\n      mstore\n      0x20\n      add\n      0x536166654d6174683a206469766973696f6e206279207a65726f000000000000\n      dup2\n      mstore\n      pop\n        /* \"contracts/Dog/SLAVE.sol\":1778:1781  div */\n      tag_380\n        /* \"contracts/Dog/SLAVE.sol\":1778:1817  div(a, b, \"SafeMath: division by zero\") */\n      jump\t// in\n    tag_379:\n        /* \"contracts/Dog/SLAVE.sol\":1771:1817  return div(a, b, \"SafeMath: division by zero\") */\n      swap1\n      pop\n        /* \"contracts/Dog/SLAVE.sol\":1693:1825  function div(uint256 a, uint256 b) internal pure returns (uint256) {... */\n      swap3\n      swap2\n      pop\n      pop\n      jump\t// out\n        /* \"contracts/Dog/SLAVE.sol\":9795:9898  function min(uint256 a, uint256 b) private pure returns (uint256){... */\n    tag_328:\n        /* \"contracts/Dog/SLAVE.sol\":9852:9859  uint256 */\n      0x00\n        /* \"contracts/Dog/SLAVE.sol\":9881:9882  b */\n      dup2\n        /* \"contracts/Dog/SLAVE.sol\":9877:9878  a */\n      dup4\n        /* \"contracts/Dog/SLAVE.sol\":9877:9882  a > b */\n      gt\n        /* \"contracts/Dog/SLAVE.sol\":9876:9890  (a > b)? b : a */\n      tag_382\n      jumpi\n        /* \"contracts/Dog/SLAVE.sol\":9889:9890  a */\n      dup3\n        /* \"contracts/Dog/SLAVE.sol\":9876:9890  (a > b)? b : a */\n      jump(tag_383)\n    tag_382:\n        /* \"contracts/Dog/SLAVE.sol\":9885:9886  b */\n      dup2\n        /* \"contracts/Dog/SLAVE.sol\":9876:9890  (a > b)? b : a */\n    tag_383:\n        /* \"contracts/Dog/SLAVE.sol\":9869:9890  return (a > b)? b : a */\n      swap1\n      pop\n        /* \"contracts/Dog/SLAVE.sol\":9795:9898  function min(uint256 a, uint256 b) private pure returns (uint256){... */\n      swap3\n      swap2\n      pop\n      pop\n      jump\t// out\n        /* \"contracts/Dog/SLAVE.sol\":910:1089  function add(uint256 a, uint256 b) internal pure returns (uint256) {... */\n    tag_334:\n        /* \"contracts/Dog/SLAVE.sol\":968:975  uint256 */\n      0x00\n        /* \"contracts/Dog/SLAVE.sol\":988:997  uint256 c */\n      dup1\n        /* \"contracts/Dog/SLAVE.sol\":1004:1005  b */\n      dup3\n        /* \"contracts/Dog/SLAVE.sol\":1000:1001  a */\n      dup5\n        /* \"contracts/Dog/SLAVE.sol\":1000:1005  a + b */\n      tag_385\n      swap2\n      swap1\n      tag_299\n      jump\t// in\n    tag_385:\n        /* \"contracts/Dog/SLAVE.sol\":988:1005  uint256 c = a + b */\n      swap1\n      pop\n        /* \"contracts/Dog/SLAVE.sol\":1029:1030  a */\n      dup4\n        /* \"contracts/Dog/SLAVE.sol\":1024:1025  c */\n      dup2\n        /* \"contracts/Dog/SLAVE.sol\":1024:1030  c >= a */\n      lt\n      iszero\n        /* \"contracts/Dog/SLAVE.sol\":1016:1062  require(c >= a, \"SafeMath: addition overflow\") */\n      tag_386\n      jumpi\n      mload(0x40)\n      0x08c379a000000000000000000000000000000000000000000000000000000000\n      dup2\n      mstore\n      0x04\n      add\n      tag_387\n      swap1\n      tag_388\n      jump\t// in\n    tag_387:\n      mload(0x40)\n      dup1\n      swap2\n      sub\n      swap1\n      revert\n    tag_386:\n        /* \"contracts/Dog/SLAVE.sol\":1080:1081  c */\n      dup1\n        /* \"contracts/Dog/SLAVE.sol\":1073:1081  return c */\n      swap2\n      pop\n      pop\n        /* \"contracts/Dog/SLAVE.sol\":910:1089  function add(uint256 a, uint256 b) internal pure returns (uint256) {... */\n      swap3\n      swap2\n      pop\n      pop\n      jump\t// out\n        /* \"contracts/Dog/SLAVE.sol\":1097:1233  function sub(uint256 a, uint256 b) internal pure returns (uint256) {... */\n    tag_337:\n        /* \"contracts/Dog/SLAVE.sol\":1155:1162  uint256 */\n      0x00\n        /* \"contracts/Dog/SLAVE.sol\":1182:1225  sub(a, b, \"SafeMath: subtraction overflow\") */\n      tag_390\n        /* \"contracts/Dog/SLAVE.sol\":1186:1187  a */\n      dup4\n        /* \"contracts/Dog/SLAVE.sol\":1189:1190  b */\n      dup4\n        /* \"contracts/Dog/SLAVE.sol\":1182:1225  sub(a, b, \"SafeMath: subtraction overflow\") */\n      mload(0x40)\n      dup1\n      0x40\n      add\n      0x40\n      mstore\n      dup1\n      0x1e\n      dup2\n      mstore\n      0x20\n      add\n      0x536166654d6174683a207375627472616374696f6e206f766572666c6f770000\n      dup2\n      mstore\n      pop\n        /* \"contracts/Dog/SLAVE.sol\":1182:1185  sub */\n      tag_154\n        /* \"contracts/Dog/SLAVE.sol\":1182:1225  sub(a, b, \"SafeMath: subtraction overflow\") */\n      jump\t// in\n    tag_390:\n        /* \"contracts/Dog/SLAVE.sol\":1175:1225  return sub(a, b, \"SafeMath: subtraction overflow\") */\n      swap1\n      pop\n        /* \"contracts/Dog/SLAVE.sol\":1097:1233  function sub(uint256 a, uint256 b) internal pure returns (uint256) {... */\n      swap3\n      swap2\n      pop\n      pop\n      jump\t// out\n        /* \"contracts/Dog/SLAVE.sol\":1833:2022  function div(uint256 a, uint256 b, string memory errorMessage) internal pure returns (uint256) {... */\n    tag_380:\n        /* \"contracts/Dog/SLAVE.sol\":1919:1926  uint256 */\n      0x00\n        /* \"contracts/Dog/SLAVE.sol\":1951:1952  0 */\n      dup1\n        /* \"contracts/Dog/SLAVE.sol\":1947:1948  b */\n      dup4\n        /* \"contracts/Dog/SLAVE.sol\":1947:1952  b > 0 */\n      gt\n        /* \"contracts/Dog/SLAVE.sol\":1954:1966  errorMessage */\n      dup3\n        /* \"contracts/Dog/SLAVE.sol\":1939:1967  require(b > 0, errorMessage) */\n      swap1\n      tag_392\n      jumpi\n      mload(0x40)\n      0x08c379a000000000000000000000000000000000000000000000000000000000\n      dup2\n      mstore\n      0x04\n      add\n      tag_393\n      swap2\n      swap1\n      tag_34\n      jump\t// in\n    tag_393:\n      mload(0x40)\n      dup1\n      swap2\n      sub\n      swap1\n      revert\n    tag_392:\n      pop\n        /* \"contracts/Dog/SLAVE.sol\":1978:1987  uint256 c */\n      0x00\n        /* \"contracts/Dog/SLAVE.sol\":1994:1995  b */\n      dup4\n        /* \"contracts/Dog/SLAVE.sol\":1990:1991  a */\n      dup6\n        /* \"contracts/Dog/SLAVE.sol\":1990:1995  a / b */\n      tag_394\n      swap2\n      swap1\n      tag_374\n      jump\t// in\n    tag_394:\n        /* \"contracts/Dog/SLAVE.sol\":1978:1995  uint256 c = a / b */\n      swap1\n      pop\n        /* \"contracts/Dog/SLAVE.sol\":2013:2014  c */\n      dup1\n        /* \"contracts/Dog/SLAVE.sol\":2006:2014  return c */\n      swap2\n      pop\n      pop\n        /* \"contracts/Dog/SLAVE.sol\":1833:2022  function div(uint256 a, uint256 b, string memory errorMessage) internal pure returns (uint256) {... */\n      swap4\n      swap3\n      pop\n      pop\n      pop\n      jump\t// out\n        /* \"#utility.yul\":7:106   */\n    tag_395:\n        /* \"#utility.yul\":59:65   */\n      0x00\n        /* \"#utility.yul\":93:98   */\n      dup2\n        /* \"#utility.yul\":87:99   */\n      mload\n        /* \"#utility.yul\":77:99   */\n      swap1\n      pop\n        /* \"#utility.yul\":7:106   */\n      swap2\n      swap1\n      pop\n      jump\t// out\n        /* \"#utility.yul\":112:281   */\n    tag_396:\n        /* \"#utility.yul\":196:207   */\n      0x00\n        /* \"#utility.yul\":230:236   */\n      dup3\n        /* \"#utility.yul\":225:228   */\n      dup3\n        /* \"#utility.yul\":218:237   */\n      mstore\n        /* \"#utility.yul\":270:274   */\n      0x20\n        /* \"#utility.yul\":265:268   */\n      dup3\n        /* \"#utility.yul\":261:275   */\n      add\n        /* \"#utility.yul\":246:275   */\n      swap1\n      pop\n        /* \"#utility.yul\":112:281   */\n      swap3\n      swap2\n      pop\n      pop\n      jump\t// out\n        /* \"#utility.yul\":287:426   */\n    tag_397:\n        /* \"#utility.yul\":376:382   */\n      dup3\n        /* \"#utility.yul\":371:374   */\n      dup2\n        /* \"#utility.yul\":366:369   */\n      dup4\n        /* \"#utility.yul\":360:383   */\n      mcopy\n        /* \"#utility.yul\":417:418   */\n      0x00\n        /* \"#utility.yul\":408:414   */\n      dup4\n        /* \"#utility.yul\":403:406   */\n      dup4\n        /* \"#utility.yul\":399:415   */\n      add\n        /* \"#utility.yul\":392:419   */\n      mstore\n        /* \"#utility.yul\":287:426   */\n      pop\n      pop\n      pop\n      jump\t// out\n        /* \"#utility.yul\":432:534   */\n    tag_398:\n        /* \"#utility.yul\":473:479   */\n      0x00\n        /* \"#utility.yul\":524:526   */\n      0x1f\n        /* \"#utility.yul\":520:527   */\n      not\n        /* \"#utility.yul\":515:517   */\n      0x1f\n        /* \"#utility.yul\":508:513   */\n      dup4\n        /* \"#utility.yul\":504:518   */\n      add\n        /* \"#utility.yul\":500:528   */\n      and\n        /* \"#utility.yul\":490:528   */\n      swap1\n      pop\n        /* \"#utility.yul\":432:534   */\n      swap2\n      swap1\n      pop\n      jump\t// out\n        /* \"#utility.yul\":540:917   */\n    tag_399:\n        /* \"#utility.yul\":628:631   */\n      0x00\n        /* \"#utility.yul\":656:695   */\n      tag_474\n        /* \"#utility.yul\":689:694   */\n      dup3\n        /* \"#utility.yul\":656:695   */\n      tag_395\n      jump\t// in\n    tag_474:\n        /* \"#utility.yul\":711:782   */\n      tag_475\n        /* \"#utility.yul\":775:781   */\n      dup2\n        /* \"#utility.yul\":770:773   */\n      dup6\n        /* \"#utility.yul\":711:782   */\n      tag_396\n      jump\t// in\n    tag_475:\n        /* \"#utility.yul\":704:782   */\n      swap4\n      pop\n        /* \"#utility.yul\":791:856   */\n      tag_476\n        /* \"#utility.yul\":849:855   */\n      dup2\n        /* \"#utility.yul\":844:847   */\n      dup6\n        /* \"#utility.yul\":837:841   */\n      0x20\n        /* \"#utility.yul\":830:835   */\n      dup7\n        /* \"#utility.yul\":826:842   */\n      add\n        /* \"#utility.yul\":791:856   */\n      tag_397\n      jump\t// in\n    tag_476:\n        /* \"#utility.yul\":881:910   */\n      tag_477\n        /* \"#utility.yul\":903:909   */\n      dup2\n        /* \"#utility.yul\":881:910   */\n      tag_398\n      jump\t// in\n    tag_477:\n        /* \"#utility.yul\":876:879   */\n      dup5\n        /* \"#utility.yul\":872:911   */\n      add\n        /* \"#utility.yul\":865:911   */\n      swap2\n      pop\n        /* \"#utility.yul\":632:917   */\n      pop\n        /* \"#utility.yul\":540:917   */\n      swap3\n      swap2\n      pop\n      pop\n      jump\t// out\n        /* \"#utility.yul\":923:1236   */\n    tag_34:\n        /* \"#utility.yul\":1036:1040   */\n      0x00\n        /* \"#utility.yul\":1074:1076   */\n      0x20\n        /* \"#utility.yul\":1063:1072   */\n      dup3\n        /* \"#utility.yul\":1059:1077   */\n      add\n        /* \"#utility.yul\":1051:1077   */\n      swap1\n      pop\n        /* \"#utility.yul\":1123:1132   */\n      dup2\n        /* \"#utility.yul\":1117:1121   */\n      dup2\n        /* \"#utility.yul\":1113:1133   */\n      sub\n        /* \"#utility.yul\":1109:1110   */\n      0x00\n        /* \"#utility.yul\":1098:1107   */\n      dup4\n        /* \"#utility.yul\":1094:1111   */\n      add\n        /* \"#utility.yul\":1087:1134   */\n      mstore\n        /* \"#utility.yul\":1151:1229   */\n      tag_479\n        /* \"#utility.yul\":1224:1228   */\n      dup2\n        /* \"#utility.yul\":1215:1221   */\n      dup5\n        /* \"#utility.yul\":1151:1229   */\n      tag_399\n      jump\t// in\n    tag_479:\n        /* \"#utility.yul\":1143:1229   */\n      swap1\n      pop\n        /* \"#utility.yul\":923:1236   */\n      swap3\n      swap2\n      pop\n      pop\n      jump\t// out\n        /* \"#utility.yul\":1323:1440   */\n    tag_401:\n        /* \"#utility.yul\":1432:1433   */\n      0x00\n        /* \"#utility.yul\":1429:1430   */\n      dup1\n        /* \"#utility.yul\":1422:1434   */\n      revert\n        /* \"#utility.yul\":1569:1695   */\n    tag_403:\n        /* \"#utility.yul\":1606:1613   */\n      0x00\n        /* \"#utility.yul\":1646:1688   */\n      0xffffffffffffffffffffffffffffffffffffffff\n        /* \"#utility.yul\":1639:1644   */\n      dup3\n        /* \"#utility.yul\":1635:1689   */\n      and\n        /* \"#utility.yul\":1624:1689   */\n      swap1\n      pop\n        /* \"#utility.yul\":1569:1695   */\n      swap2\n      swap1\n      pop\n      jump\t// out\n        /* \"#utility.yul\":1701:1797   */\n    tag_404:\n        /* \"#utility.yul\":1738:1745   */\n      0x00\n        /* \"#utility.yul\":1767:1791   */\n      tag_485\n        /* \"#utility.yul\":1785:1790   */\n      dup3\n        /* \"#utility.yul\":1767:1791   */\n      tag_403\n      jump\t// in\n    tag_485:\n        /* \"#utility.yul\":1756:1791   */\n      swap1\n      pop\n        /* \"#utility.yul\":1701:1797   */\n      swap2\n      swap1\n      pop\n      jump\t// out\n        /* \"#utility.yul\":1803:1925   */\n    tag_405:\n        /* \"#utility.yul\":1876:1900   */\n      tag_487\n        /* \"#utility.yul\":1894:1899   */\n      dup2\n        /* \"#utility.yul\":1876:1900   */\n      tag_404\n      jump\t// in\n    tag_487:\n        /* \"#utility.yul\":1869:1874   */\n      dup2\n        /* \"#utility.yul\":1866:1901   */\n      eq\n        /* \"#utility.yul\":1856:1919   */\n      tag_488\n      jumpi\n        /* \"#utility.yul\":1915:1916   */\n      0x00\n        /* \"#utility.yul\":1912:1913   */\n      dup1\n        /* \"#utility.yul\":1905:1917   */\n      revert\n        /* \"#utility.yul\":1856:1919   */\n    tag_488:\n        /* \"#utility.yul\":1803:1925   */\n      pop\n      jump\t// out\n        /* \"#utility.yul\":1931:2070   */\n    tag_406:\n        /* \"#utility.yul\":1977:1982   */\n      0x00\n        /* \"#utility.yul\":2015:2021   */\n      dup2\n        /* \"#utility.yul\":2002:2022   */\n      calldataload\n        /* \"#utility.yul\":1993:2022   */\n      swap1\n      pop\n        /* \"#utility.yul\":2031:2064   */\n      tag_490\n        /* \"#utility.yul\":2058:2063   */\n      dup2\n        /* \"#utility.yul\":2031:2064   */\n      tag_405\n      jump\t// in\n    tag_490:\n        /* \"#utility.yul\":1931:2070   */\n      swap3\n      swap2\n      pop\n      pop\n      jump\t// out\n        /* \"#utility.yul\":2076:2153   */\n    tag_407:\n        /* \"#utility.yul\":2113:2120   */\n      0x00\n        /* \"#utility.yul\":2142:2147   */\n      dup2\n        /* \"#utility.yul\":2131:2147   */\n      swap1\n      pop\n        /* \"#utility.yul\":2076:2153   */\n      swap2\n      swap1\n      pop\n      jump\t// out\n        /* \"#utility.yul\":2159:2281   */\n    tag_408:\n        /* \"#utility.yul\":2232:2256   */\n      tag_493\n        /* \"#utility.yul\":2250:2255   */\n      dup2\n        /* \"#utility.yul\":2232:2256   */\n      tag_407\n      jump\t// in\n    tag_493:\n        /* \"#utility.yul\":2225:2230   */\n      dup2\n        /* \"#utility.yul\":2222:2257   */\n      eq\n        /* \"#utility.yul\":2212:2275   */\n      tag_494\n      jumpi\n        /* \"#utility.yul\":2271:2272   */\n      0x00\n        /* \"#utility.yul\":2268:2269   */\n      dup1\n        /* \"#utility.yul\":2261:2273   */\n      revert\n        /* \"#utility.yul\":2212:2275   */\n    tag_494:\n        /* \"#utility.yul\":2159:2281   */\n      pop\n      jump\t// out\n        /* \"#utility.yul\":2287:2426   */\n    tag_409:\n        /* \"#utility.yul\":2333:2338   */\n      0x00\n        /* \"#utility.yul\":2371:2377   */\n      dup2\n        /* \"#utility.yul\":2358:2378   */\n      calldataload\n        /* \"#utility.yul\":2349:2378   */\n      swap1\n      pop\n        /* \"#utility.yul\":2387:2420   */\n      tag_496\n        /* \"#utility.yul\":2414:2419   */\n      dup2\n        /* \"#utility.yul\":2387:2420   */\n      tag_408\n      jump\t// in\n    tag_496:\n        /* \"#utility.yul\":2287:2426   */\n      swap3\n      swap2\n      pop\n      pop\n      jump\t// out\n        /* \"#utility.yul\":2432:2906   */\n    tag_38:\n        /* \"#utility.yul\":2500:2506   */\n      0x00\n        /* \"#utility.yul\":2508:2514   */\n      dup1\n        /* \"#utility.yul\":2557:2559   */\n      0x40\n        /* \"#utility.yul\":2545:2554   */\n      dup4\n        /* \"#utility.yul\":2536:2543   */\n      dup6\n        /* \"#utility.yul\":2532:2555   */\n      sub\n        /* \"#utility.yul\":2528:2560   */\n      slt\n        /* \"#utility.yul\":2525:2644   */\n      iszero\n      tag_498\n      jumpi\n        /* \"#utility.yul\":2563:2642   */\n      tag_499\n      tag_401\n      jump\t// in\n    tag_499:\n        /* \"#utility.yul\":2525:2644   */\n    tag_498:\n        /* \"#utility.yul\":2683:2684   */\n      0x00\n        /* \"#utility.yul\":2708:2761   */\n      tag_500\n        /* \"#utility.yul\":2753:2760   */\n      dup6\n        /* \"#utility.yul\":2744:2750   */\n      dup3\n        /* \"#utility.yul\":2733:2742   */\n      dup7\n        /* \"#utility.yul\":2729:2751   */\n      add\n        /* \"#utility.yul\":2708:2761   */\n      tag_406\n      jump\t// in\n    tag_500:\n        /* \"#utility.yul\":2698:2761   */\n      swap3\n      pop\n        /* \"#utility.yul\":2654:2771   */\n      pop\n        /* \"#utility.yul\":2810:2812   */\n      0x20\n        /* \"#utility.yul\":2836:2889   */\n      tag_501\n        /* \"#utility.yul\":2881:2888   */\n      dup6\n        /* \"#utility.yul\":2872:2878   */\n      dup3\n        /* \"#utility.yul\":2861:2870   */\n      dup7\n        /* \"#utility.yul\":2857:2879   */\n      add\n        /* \"#utility.yul\":2836:2889   */\n      tag_409\n      jump\t// in\n    tag_501:\n        /* \"#utility.yul\":2826:2889   */\n      swap2\n      pop\n        /* \"#utility.yul\":2781:2899   */\n      pop\n        /* \"#utility.yul\":2432:2906   */\n      swap3\n      pop\n      swap3\n      swap1\n      pop\n      jump\t// out\n        /* \"#utility.yul\":2912:3002   */\n    tag_410:\n        /* \"#utility.yul\":2946:2953   */\n      0x00\n        /* \"#utility.yul\":2989:2994   */\n      dup2\n        /* \"#utility.yul\":2982:2995   */\n      iszero\n        /* \"#utility.yul\":2975:2996   */\n      iszero\n        /* \"#utility.yul\":2964:2996   */\n      swap1\n      pop\n        /* \"#utility.yul\":2912:3002   */\n      swap2\n      swap1\n      pop\n      jump\t// out\n        /* \"#utility.yul\":3008:3117   */\n    tag_411:\n        /* \"#utility.yul\":3089:3110   */\n      tag_504\n        /* \"#utility.yul\":3104:3109   */\n      dup2\n        /* \"#utility.yul\":3089:3110   */\n      tag_410\n      jump\t// in\n    tag_504:\n        /* \"#utility.yul\":3084:3087   */\n      dup3\n        /* \"#utility.yul\":3077:3111   */\n      mstore\n        /* \"#utility.yul\":3008:3117   */\n      pop\n      pop\n      jump\t// out\n        /* \"#utility.yul\":3123:3333   */\n    tag_41:\n        /* \"#utility.yul\":3210:3214   */\n      0x00\n        /* \"#utility.yul\":3248:3250   */\n      0x20\n        /* \"#utility.yul\":3237:3246   */\n      dup3\n        /* \"#utility.yul\":3233:3251   */\n      add\n        /* \"#utility.yul\":3225:3251   */\n      swap1\n      pop\n        /* \"#utility.yul\":3261:3326   */\n      tag_506\n        /* \"#utility.yul\":3323:3324   */\n      0x00\n        /* \"#utility.yul\":3312:3321   */\n      dup4\n        /* \"#utility.yul\":3308:3325   */\n      add\n        /* \"#utility.yul\":3299:3305   */\n      dup5\n        /* \"#utility.yul\":3261:3326   */\n      tag_411\n      jump\t// in\n    tag_506:\n        /* \"#utility.yul\":3123:3333   */\n      swap3\n      swap2\n      pop\n      pop\n      jump\t// out\n        /* \"#utility.yul\":3339:3457   */\n    tag_412:\n        /* \"#utility.yul\":3426:3450   */\n      tag_508\n        /* \"#utility.yul\":3444:3449   */\n      dup2\n        /* \"#utility.yul\":3426:3450   */\n      tag_407\n      jump\t// in\n    tag_508:\n        /* \"#utility.yul\":3421:3424   */\n      dup3\n        /* \"#utility.yul\":3414:3451   */\n      mstore\n        /* \"#utility.yul\":3339:3457   */\n      pop\n      pop\n      jump\t// out\n        /* \"#utility.yul\":3463:3685   */\n    tag_46:\n        /* \"#utility.yul\":3556:3560   */\n      0x00\n        /* \"#utility.yul\":3594:3596   */\n      0x20\n        /* \"#utility.yul\":3583:3592   */\n      dup3\n        /* \"#utility.yul\":3579:3597   */\n      add\n        /* \"#utility.yul\":3571:3597   */\n      swap1\n      pop\n        /* \"#utility.yul\":3607:3678   */\n      tag_510\n        /* \"#utility.yul\":3675:3676   */\n      0x00\n        /* \"#utility.yul\":3664:3673   */\n      dup4\n        /* \"#utility.yul\":3660:3677   */\n      add\n        /* \"#utility.yul\":3651:3657   */\n      dup5\n        /* \"#utility.yul\":3607:3678   */\n      tag_412\n      jump\t// in\n    tag_510:\n        /* \"#utility.yul\":3463:3685   */\n      swap3\n      swap2\n      pop\n      pop\n      jump\t// out\n        /* \"#utility.yul\":3691:4310   */\n    tag_57:\n        /* \"#utility.yul\":3768:3774   */\n      0x00\n        /* \"#utility.yul\":3776:3782   */\n      dup1\n        /* \"#utility.yul\":3784:3790   */\n      0x00\n        /* \"#utility.yul\":3833:3835   */\n      0x60\n        /* \"#utility.yul\":3821:3830   */\n      dup5\n        /* \"#utility.yul\":3812:3819   */\n      dup7\n        /* \"#utility.yul\":3808:3831   */\n      sub\n        /* \"#utility.yul\":3804:3836   */\n      slt\n        /* \"#utility.yul\":3801:3920   */\n      iszero\n      tag_512\n      jumpi\n        /* \"#utility.yul\":3839:3918   */\n      tag_513\n      tag_401\n      jump\t// in\n    tag_513:\n        /* \"#utility.yul\":3801:3920   */\n    tag_512:\n        /* \"#utility.yul\":3959:3960   */\n      0x00\n        /* \"#utility.yul\":3984:4037   */\n      tag_514\n        /* \"#utility.yul\":4029:4036   */\n      dup7\n        /* \"#utility.yul\":4020:4026   */\n      dup3\n        /* \"#utility.yul\":4009:4018   */\n      dup8\n        /* \"#utility.yul\":4005:4027   */\n      add\n        /* \"#utility.yul\":3984:4037   */\n      tag_406\n      jump\t// in\n    tag_514:\n        /* \"#utility.yul\":3974:4037   */\n      swap4\n      pop\n        /* \"#utility.yul\":3930:4047   */\n      pop\n        /* \"#utility.yul\":4086:4088   */\n      0x20\n        /* \"#utility.yul\":4112:4165   */\n      tag_515\n        /* \"#utility.yul\":4157:4164   */\n      dup7\n        /* \"#utility.yul\":4148:4154   */\n      dup3\n        /* \"#utility.yul\":4137:4146   */\n      dup8\n        /* \"#utility.yul\":4133:4155   */\n      add\n        /* \"#utility.yul\":4112:4165   */\n      tag_406\n      jump\t// in\n    tag_515:\n        /* \"#utility.yul\":4102:4165   */\n      swap3\n      pop\n        /* \"#utility.yul\":4057:4175   */\n      pop\n        /* \"#utility.yul\":4214:4216   */\n      0x40\n        /* \"#utility.yul\":4240:4293   */\n      tag_516\n        /* \"#utility.yul\":4285:4292   */\n      dup7\n        /* \"#utility.yul\":4276:4282   */\n      dup3\n        /* \"#utility.yul\":4265:4274   */\n      dup8\n        /* \"#utility.yul\":4261:4283   */\n      add\n        /* \"#utility.yul\":4240:4293   */\n      tag_409\n      jump\t// in\n    tag_516:\n        /* \"#utility.yul\":4230:4293   */\n      swap2\n      pop\n        /* \"#utility.yul\":4185:4303   */\n      pop\n        /* \"#utility.yul\":3691:4310   */\n      swap3\n      pop\n      swap3\n      pop\n      swap3\n      jump\t// out\n        /* \"#utility.yul\":4316:4402   */\n    tag_413:\n        /* \"#utility.yul\":4351:4358   */\n      0x00\n        /* \"#utility.yul\":4391:4395   */\n      0xff\n        /* \"#utility.yul\":4384:4389   */\n      dup3\n        /* \"#utility.yul\":4380:4396   */\n      and\n        /* \"#utility.yul\":4369:4396   */\n      swap1\n      pop\n        /* \"#utility.yul\":4316:4402   */\n      swap2\n      swap1\n      pop\n      jump\t// out\n        /* \"#utility.yul\":4408:4520   */\n    tag_414:\n        /* \"#utility.yul\":4491:4513   */\n      tag_519\n        /* \"#utility.yul\":4507:4512   */\n      dup2\n        /* \"#utility.yul\":4491:4513   */\n      tag_413\n      jump\t// in\n    tag_519:\n        /* \"#utility.yul\":4486:4489   */\n      dup3\n        /* \"#utility.yul\":4479:4514   */\n      mstore\n        /* \"#utility.yul\":4408:4520   */\n      pop\n      pop\n      jump\t// out\n        /* \"#utility.yul\":4526:4740   */\n    tag_64:\n        /* \"#utility.yul\":4615:4619   */\n      0x00\n        /* \"#utility.yul\":4653:4655   */\n      0x20\n        /* \"#utility.yul\":4642:4651   */\n      dup3\n        /* \"#utility.yul\":4638:4656   */\n      add\n        /* \"#utility.yul\":4630:4656   */\n      swap1\n      pop\n        /* \"#utility.yul\":4666:4733   */\n      tag_521\n        /* \"#utility.yul\":4730:4731   */\n      0x00\n        /* \"#utility.yul\":4719:4728   */\n      dup4\n        /* \"#utility.yul\":4715:4732   */\n      add\n        /* \"#utility.yul\":4706:4712   */\n      dup5\n        /* \"#utility.yul\":4666:4733   */\n      tag_414\n      jump\t// in\n    tag_521:\n        /* \"#utility.yul\":4526:4740   */\n      swap3\n      swap2\n      pop\n      pop\n      jump\t// out\n        /* \"#utility.yul\":4746:5075   */\n    tag_74:\n        /* \"#utility.yul\":4805:4811   */\n      0x00\n        /* \"#utility.yul\":4854:4856   */\n      0x20\n        /* \"#utility.yul\":4842:4851   */\n      dup3\n        /* \"#utility.yul\":4833:4840   */\n      dup5\n        /* \"#utility.yul\":4829:4852   */\n      sub\n        /* \"#utility.yul\":4825:4857   */\n      slt\n        /* \"#utility.yul\":4822:4941   */\n      iszero\n      tag_523\n      jumpi\n        /* \"#utility.yul\":4860:4939   */\n      tag_524\n      tag_401\n      jump\t// in\n    tag_524:\n        /* \"#utility.yul\":4822:4941   */\n    tag_523:\n        /* \"#utility.yul\":4980:4981   */\n      0x00\n        /* \"#utility.yul\":5005:5058   */\n      tag_525\n        /* \"#utility.yul\":5050:5057   */\n      dup5\n        /* \"#utility.yul\":5041:5047   */\n      dup3\n        /* \"#utility.yul\":5030:5039   */\n      dup6\n        /* \"#utility.yul\":5026:5048   */\n      add\n        /* \"#utility.yul\":5005:5058   */\n      tag_406\n      jump\t// in\n    tag_525:\n        /* \"#utility.yul\":4995:5058   */\n      swap2\n      pop\n        /* \"#utility.yul\":4951:5068   */\n      pop\n        /* \"#utility.yul\":4746:5075   */\n      swap3\n      swap2\n      pop\n      pop\n      jump\t// out\n        /* \"#utility.yul\":5081:5199   */\n    tag_415:\n        /* \"#utility.yul\":5168:5192   */\n      tag_527\n        /* \"#utility.yul\":5186:5191   */\n      dup2\n        /* \"#utility.yul\":5168:5192   */\n      tag_404\n      jump\t// in\n    tag_527:\n        /* \"#utility.yul\":5163:5166   */\n      dup3\n        /* \"#utility.yul\":5156:5193   */\n      mstore\n        /* \"#utility.yul\":5081:5199   */\n      pop\n      pop\n      jump\t// out\n        /* \"#utility.yul\":5205:5427   */\n    tag_93:\n        /* \"#utility.yul\":5298:5302   */\n      0x00\n        /* \"#utility.yul\":5336:5338   */\n      0x20\n        /* \"#utility.yul\":5325:5334   */\n      dup3\n        /* \"#utility.yul\":5321:5339   */\n      add\n        /* \"#utility.yul\":5313:5339   */\n      swap1\n      pop\n        /* \"#utility.yul\":5349:5420   */\n      tag_529\n        /* \"#utility.yul\":5417:5418   */\n      0x00\n        /* \"#utility.yul\":5406:5415   */\n      dup4\n        /* \"#utility.yul\":5402:5419   */\n      add\n        /* \"#utility.yul\":5393:5399   */\n      dup5\n        /* \"#utility.yul\":5349:5420   */\n      tag_415\n      jump\t// in\n    tag_529:\n        /* \"#utility.yul\":5205:5427   */\n      swap3\n      swap2\n      pop\n      pop\n      jump\t// out\n        /* \"#utility.yul\":5433:5907   */\n    tag_117:\n        /* \"#utility.yul\":5501:5507   */\n      0x00\n        /* \"#utility.yul\":5509:5515   */\n      dup1\n        /* \"#utility.yul\":5558:5560   */\n      0x40\n        /* \"#utility.yul\":5546:5555   */\n      dup4\n        /* \"#utility.yul\":5537:5544   */\n      dup6\n        /* \"#utility.yul\":5533:5556   */\n      sub\n        /* \"#utility.yul\":5529:5561   */\n      slt\n        /* \"#utility.yul\":5526:5645   */\n      iszero\n      tag_531\n      jumpi\n        /* \"#utility.yul\":5564:5643   */\n      tag_532\n      tag_401\n      jump\t// in\n    tag_532:\n        /* \"#utility.yul\":5526:5645   */\n    tag_531:\n        /* \"#utility.yul\":5684:5685   */\n      0x00\n        /* \"#utility.yul\":5709:5762   */\n      tag_533\n        /* \"#utility.yul\":5754:5761   */\n      dup6\n        /* \"#utility.yul\":5745:5751   */\n      dup3\n        /* \"#utility.yul\":5734:5743   */\n      dup7\n        /* \"#utility.yul\":5730:5752   */\n      add\n        /* \"#utility.yul\":5709:5762   */\n      tag_406\n      jump\t// in\n    tag_533:\n        /* \"#utility.yul\":5699:5762   */\n      swap3\n      pop\n        /* \"#utility.yul\":5655:5772   */\n      pop\n        /* \"#utility.yul\":5811:5813   */\n      0x20\n        /* \"#utility.yul\":5837:5890   */\n      tag_534\n        /* \"#utility.yul\":5882:5889   */\n      dup6\n        /* \"#utility.yul\":5873:5879   */\n      dup3\n        /* \"#utility.yul\":5862:5871   */\n      dup7\n        /* \"#utility.yul\":5858:5880   */\n      add\n        /* \"#utility.yul\":5837:5890   */\n      tag_406\n      jump\t// in\n    tag_534:\n        /* \"#utility.yul\":5827:5890   */\n      swap2\n      pop\n        /* \"#utility.yul\":5782:5900   */\n      pop\n        /* \"#utility.yul\":5433:5907   */\n      swap3\n      pop\n      swap3\n      swap1\n      pop\n      jump\t// out\n        /* \"#utility.yul\":5913:6242   */\n    tag_123:\n        /* \"#utility.yul\":5972:5978   */\n      0x00\n        /* \"#utility.yul\":6021:6023   */\n      0x20\n        /* \"#utility.yul\":6009:6018   */\n      dup3\n        /* \"#utility.yul\":6000:6007   */\n      dup5\n        /* \"#utility.yul\":5996:6019   */\n      sub\n        /* \"#utility.yul\":5992:6024   */\n      slt\n        /* \"#utility.yul\":5989:6108   */\n      iszero\n      tag_536\n      jumpi\n        /* \"#utility.yul\":6027:6106   */\n      tag_537\n      tag_401\n      jump\t// in\n    tag_537:\n        /* \"#utility.yul\":5989:6108   */\n    tag_536:\n        /* \"#utility.yul\":6147:6148   */\n      0x00\n        /* \"#utility.yul\":6172:6225   */\n      tag_538\n        /* \"#utility.yul\":6217:6224   */\n      dup5\n        /* \"#utility.yul\":6208:6214   */\n      dup3\n        /* \"#utility.yul\":6197:6206   */\n      dup6\n        /* \"#utility.yul\":6193:6215   */\n      add\n        /* \"#utility.yul\":6172:6225   */\n      tag_409\n      jump\t// in\n    tag_538:\n        /* \"#utility.yul\":6162:6225   */\n      swap2\n      pop\n        /* \"#utility.yul\":6118:6235   */\n      pop\n        /* \"#utility.yul\":5913:6242   */\n      swap3\n      swap2\n      pop\n      pop\n      jump\t// out\n        /* \"#utility.yul\":6248:6430   */\n    tag_416:\n        /* \"#utility.yul\":6388:6422   */\n      0x4f776e61626c653a2063616c6c6572206973206e6f7420746865206f776e6572\n        /* \"#utility.yul\":6384:6385   */\n      0x00\n        /* \"#utility.yul\":6376:6382   */\n      dup3\n        /* \"#utility.yul\":6372:6386   */\n      add\n        /* \"#utility.yul\":6365:6423   */\n      mstore\n        /* \"#utility.yul\":6248:6430   */\n      pop\n      jump\t// out\n        /* \"#utility.yul\":6436:6802   */\n    tag_417:\n        /* \"#utility.yul\":6578:6581   */\n      0x00\n        /* \"#utility.yul\":6599:6666   */\n      tag_541\n        /* \"#utility.yul\":6663:6665   */\n      0x20\n        /* \"#utility.yul\":6658:6661   */\n      dup4\n        /* \"#utility.yul\":6599:6666   */\n      tag_396\n      jump\t// in\n    tag_541:\n        /* \"#utility.yul\":6592:6666   */\n      swap2\n      pop\n        /* \"#utility.yul\":6675:6768   */\n      tag_542\n        /* \"#utility.yul\":6764:6767   */\n      dup3\n        /* \"#utility.yul\":6675:6768   */\n      tag_416\n      jump\t// in\n    tag_542:\n        /* \"#utility.yul\":6793:6795   */\n      0x20\n        /* \"#utility.yul\":6788:6791   */\n      dup3\n        /* \"#utility.yul\":6784:6796   */\n      add\n        /* \"#utility.yul\":6777:6796   */\n      swap1\n      pop\n        /* \"#utility.yul\":6436:6802   */\n      swap2\n      swap1\n      pop\n      jump\t// out\n        /* \"#utility.yul\":6808:7227   */\n    tag_138:\n        /* \"#utility.yul\":6974:6978   */\n      0x00\n        /* \"#utility.yul\":7012:7014   */\n      0x20\n        /* \"#utility.yul\":7001:7010   */\n      dup3\n        /* \"#utility.yul\":6997:7015   */\n      add\n        /* \"#utility.yul\":6989:7015   */\n      swap1\n      pop\n        /* \"#utility.yul\":7061:7070   */\n      dup2\n        /* \"#utility.yul\":7055:7059   */\n      dup2\n        /* \"#utility.yul\":7051:7071   */\n      sub\n        /* \"#utility.yul\":7047:7048   */\n      0x00\n        /* \"#utility.yul\":7036:7045   */\n      dup4\n        /* \"#utility.yul\":7032:7049   */\n      add\n        /* \"#utility.yul\":7025:7072   */\n      mstore\n        /* \"#utility.yul\":7089:7220   */\n      tag_544\n        /* \"#utility.yul\":7215:7219   */\n      dup2\n        /* \"#utility.yul\":7089:7220   */\n      tag_417\n      jump\t// in\n    tag_544:\n        /* \"#utility.yul\":7081:7220   */\n      swap1\n      pop\n        /* \"#utility.yul\":6808:7227   */\n      swap2\n      swap1\n      pop\n      jump\t// out\n        /* \"#utility.yul\":7233:7318   */\n    tag_418:\n        /* \"#utility.yul\":7278:7285   */\n      0x00\n        /* \"#utility.yul\":7307:7312   */\n      dup2\n        /* \"#utility.yul\":7296:7312   */\n      swap1\n      pop\n        /* \"#utility.yul\":7233:7318   */\n      swap2\n      swap1\n      pop\n      jump\t// out\n        /* \"#utility.yul\":7324:7384   */\n    tag_419:\n        /* \"#utility.yul\":7352:7355   */\n      0x00\n        /* \"#utility.yul\":7373:7378   */\n      dup2\n        /* \"#utility.yul\":7366:7378   */\n      swap1\n      pop\n        /* \"#utility.yul\":7324:7384   */\n      swap2\n      swap1\n      pop\n      jump\t// out\n        /* \"#utility.yul\":7390:7548   */\n    tag_420:\n        /* \"#utility.yul\":7448:7457   */\n      0x00\n        /* \"#utility.yul\":7481:7542   */\n      tag_548\n        /* \"#utility.yul\":7499:7541   */\n      tag_549\n        /* \"#utility.yul\":7508:7540   */\n      tag_550\n        /* \"#utility.yul\":7534:7539   */\n      dup5\n        /* \"#utility.yul\":7508:7540   */\n      tag_418\n      jump\t// in\n    tag_550:\n        /* \"#utility.yul\":7499:7541   */\n      tag_419\n      jump\t// in\n    tag_549:\n        /* \"#utility.yul\":7481:7542   */\n      tag_407\n      jump\t// in\n    tag_548:\n        /* \"#utility.yul\":7468:7542   */\n      swap1\n      pop\n        /* \"#utility.yul\":7390:7548   */\n      swap2\n      swap1\n      pop\n      jump\t// out\n        /* \"#utility.yul\":7554:7701   */\n    tag_421:\n        /* \"#utility.yul\":7649:7694   */\n      tag_552\n        /* \"#utility.yul\":7688:7693   */\n      dup2\n        /* \"#utility.yul\":7649:7694   */\n      tag_420\n      jump\t// in\n    tag_552:\n        /* \"#utility.yul\":7644:7647   */\n      dup3\n        /* \"#utility.yul\":7637:7695   */\n      mstore\n        /* \"#utility.yul\":7554:7701   */\n      pop\n      pop\n      jump\t// out\n        /* \"#utility.yul\":7707:7945   */\n    tag_141:\n        /* \"#utility.yul\":7808:7812   */\n      0x00\n        /* \"#utility.yul\":7846:7848   */\n      0x20\n        /* \"#utility.yul\":7835:7844   */\n      dup3\n        /* \"#utility.yul\":7831:7849   */\n      add\n        /* \"#utility.yul\":7823:7849   */\n      swap1\n      pop\n        /* \"#utility.yul\":7859:7938   */\n      tag_554\n        /* \"#utility.yul\":7935:7936   */\n      0x00\n        /* \"#utility.yul\":7924:7933   */\n      dup4\n        /* \"#utility.yul\":7920:7937   */\n      add\n        /* \"#utility.yul\":7911:7917   */\n      dup5\n        /* \"#utility.yul\":7859:7938   */\n      tag_421\n      jump\t// in\n    tag_554:\n        /* \"#utility.yul\":7707:7945   */\n      swap3\n      swap2\n      pop\n      pop\n      jump\t// out\n        /* \"#utility.yul\":7951:8131   */\n    tag_422:\n        /* \"#utility.yul\":7999:8076   */\n      0x4e487b7100000000000000000000000000000000000000000000000000000000\n        /* \"#utility.yul\":7996:7997   */\n      0x00\n        /* \"#utility.yul\":7989:8077   */\n      mstore\n        /* \"#utility.yul\":8096:8100   */\n      0x11\n        /* \"#utility.yul\":8093:8094   */\n      0x04\n        /* \"#utility.yul\":8086:8101   */\n      mstore\n        /* \"#utility.yul\":8120:8124   */\n      0x24\n        /* \"#utility.yul\":8117:8118   */\n      0x00\n        /* \"#utility.yul\":8110:8125   */\n      revert\n        /* \"#utility.yul\":8137:8239   */\n    tag_423:\n        /* \"#utility.yul\":8179:8187   */\n      0x00\n        /* \"#utility.yul\":8226:8231   */\n      dup2\n        /* \"#utility.yul\":8223:8224   */\n      0x01\n        /* \"#utility.yul\":8219:8232   */\n      shr\n        /* \"#utility.yul\":8198:8232   */\n      swap1\n      pop\n        /* \"#utility.yul\":8137:8239   */\n      swap2\n      swap1\n      pop\n      jump\t// out\n        /* \"#utility.yul\":8245:9093   */\n    tag_424:\n        /* \"#utility.yul\":8306:8311   */\n      0x00\n        /* \"#utility.yul\":8313:8317   */\n      dup1\n        /* \"#utility.yul\":8337:8343   */\n      dup3\n        /* \"#utility.yul\":8328:8343   */\n      swap2\n      pop\n        /* \"#utility.yul\":8361:8366   */\n      dup4\n        /* \"#utility.yul\":8352:8366   */\n      swap1\n      pop\n        /* \"#utility.yul\":8375:9087   */\n    tag_558:\n        /* \"#utility.yul\":8396:8397   */\n      0x01\n        /* \"#utility.yul\":8386:8394   */\n      dup6\n        /* \"#utility.yul\":8383:8398   */\n      gt\n        /* \"#utility.yul\":8375:9087   */\n      iszero\n      tag_560\n      jumpi\n        /* \"#utility.yul\":8491:8495   */\n      dup1\n        /* \"#utility.yul\":8486:8489   */\n      dup7\n        /* \"#utility.yul\":8482:8496   */\n      div\n        /* \"#utility.yul\":8476:8480   */\n      dup2\n        /* \"#utility.yul\":8473:8497   */\n      gt\n        /* \"#utility.yul\":8470:8520   */\n      iszero\n      tag_561\n      jumpi\n        /* \"#utility.yul\":8500:8518   */\n      tag_562\n      tag_422\n      jump\t// in\n    tag_562:\n        /* \"#utility.yul\":8470:8520   */\n    tag_561:\n        /* \"#utility.yul\":8550:8551   */\n      0x01\n        /* \"#utility.yul\":8540:8548   */\n      dup6\n        /* \"#utility.yul\":8536:8552   */\n      and\n        /* \"#utility.yul\":8533:8984   */\n      iszero\n      tag_563\n      jumpi\n        /* \"#utility.yul\":8965:8969   */\n      dup1\n        /* \"#utility.yul\":8958:8963   */\n      dup3\n        /* \"#utility.yul\":8954:8970   */\n      mul\n        /* \"#utility.yul\":8945:8970   */\n      swap2\n      pop\n        /* \"#utility.yul\":8533:8984   */\n    tag_563:\n        /* \"#utility.yul\":9015:9019   */\n      dup1\n        /* \"#utility.yul\":9009:9013   */\n      dup2\n        /* \"#utility.yul\":9005:9020   */\n      mul\n        /* \"#utility.yul\":8997:9020   */\n      swap1\n      pop\n        /* \"#utility.yul\":9045:9077   */\n      tag_564\n        /* \"#utility.yul\":9068:9076   */\n      dup6\n        /* \"#utility.yul\":9045:9077   */\n      tag_423\n      jump\t// in\n    tag_564:\n        /* \"#utility.yul\":9033:9077   */\n      swap5\n      pop\n        /* \"#utility.yul\":8375:9087   */\n      jump(tag_558)\n    tag_560:\n        /* \"#utility.yul\":8245:9093   */\n      swap5\n      pop\n      swap5\n      swap3\n      pop\n      pop\n      pop\n      jump\t// out\n        /* \"#utility.yul\":9099:10172   */\n    tag_425:\n        /* \"#utility.yul\":9153:9158   */\n      0x00\n        /* \"#utility.yul\":9344:9352   */\n      dup3\n        /* \"#utility.yul\":9334:9374   */\n      tag_566\n      jumpi\n        /* \"#utility.yul\":9365:9366   */\n      0x01\n        /* \"#utility.yul\":9356:9366   */\n      swap1\n      pop\n        /* \"#utility.yul\":9367:9372   */\n      jump(tag_565)\n        /* \"#utility.yul\":9334:9374   */\n    tag_566:\n        /* \"#utility.yul\":9393:9397   */\n      dup2\n        /* \"#utility.yul\":9383:9419   */\n      tag_567\n      jumpi\n        /* \"#utility.yul\":9410:9411   */\n      0x00\n        /* \"#utility.yul\":9401:9411   */\n      swap1\n      pop\n        /* \"#utility.yul\":9412:9417   */\n      jump(tag_565)\n        /* \"#utility.yul\":9383:9419   */\n    tag_567:\n        /* \"#utility.yul\":9479:9483   */\n      dup2\n        /* \"#utility.yul\":9527:9528   */\n      0x01\n        /* \"#utility.yul\":9522:9549   */\n      dup2\n      eq\n      tag_569\n      jumpi\n        /* \"#utility.yul\":9563:9564   */\n      0x02\n        /* \"#utility.yul\":9558:9749   */\n      dup2\n      eq\n      tag_570\n      jumpi\n        /* \"#utility.yul\":9472:9749   */\n      jump(tag_568)\n        /* \"#utility.yul\":9522:9549   */\n    tag_569:\n        /* \"#utility.yul\":9540:9541   */\n      0x01\n        /* \"#utility.yul\":9531:9541   */\n      swap2\n      pop\n        /* \"#utility.yul\":9542:9547   */\n      pop\n      jump(tag_565)\n        /* \"#utility.yul\":9558:9749   */\n    tag_570:\n        /* \"#utility.yul\":9603:9606   */\n      0xff\n        /* \"#utility.yul\":9593:9601   */\n      dup5\n        /* \"#utility.yul\":9590:9607   */\n      gt\n        /* \"#utility.yul\":9587:9630   */\n      iszero\n      tag_571\n      jumpi\n        /* \"#utility.yul\":9610:9628   */\n      tag_572\n      tag_422\n      jump\t// in\n    tag_572:\n        /* \"#utility.yul\":9587:9630   */\n    tag_571:\n        /* \"#utility.yul\":9659:9667   */\n      dup4\n        /* \"#utility.yul\":9656:9657   */\n      0x02\n        /* \"#utility.yul\":9652:9668   */\n      exp\n        /* \"#utility.yul\":9643:9668   */\n      swap2\n      pop\n        /* \"#utility.yul\":9694:9697   */\n      dup5\n        /* \"#utility.yul\":9687:9692   */\n      dup3\n        /* \"#utility.yul\":9684:9698   */\n      gt\n        /* \"#utility.yul\":9681:9721   */\n      iszero\n      tag_573\n      jumpi\n        /* \"#utility.yul\":9701:9719   */\n      tag_574\n      tag_422\n      jump\t// in\n    tag_574:\n        /* \"#utility.yul\":9681:9721   */\n    tag_573:\n        /* \"#utility.yul\":9734:9739   */\n      pop\n      jump(tag_565)\n        /* \"#utility.yul\":9472:9749   */\n    tag_568:\n      pop\n        /* \"#utility.yul\":9858:9860   */\n      0x20\n        /* \"#utility.yul\":9848:9856   */\n      dup4\n        /* \"#utility.yul\":9845:9861   */\n      lt\n        /* \"#utility.yul\":9839:9842   */\n      0x0133\n        /* \"#utility.yul\":9833:9837   */\n      dup4\n        /* \"#utility.yul\":9830:9843   */\n      lt\n        /* \"#utility.yul\":9826:9862   */\n      and\n        /* \"#utility.yul\":9808:9810   */\n      0x4e\n        /* \"#utility.yul\":9798:9806   */\n      dup5\n        /* \"#utility.yul\":9795:9811   */\n      lt\n        /* \"#utility.yul\":9790:9792   */\n      0x0b\n        /* \"#utility.yul\":9784:9788   */\n      dup5\n        /* \"#utility.yul\":9781:9793   */\n      lt\n        /* \"#utility.yul\":9777:9812   */\n      and\n        /* \"#utility.yul\":9761:9872   */\n      or\n        /* \"#utility.yul\":9758:10004   */\n      iszero\n      tag_575\n      jumpi\n        /* \"#utility.yul\":9914:9922   */\n      dup3\n        /* \"#utility.yul\":9908:9912   */\n      dup3\n        /* \"#utility.yul\":9904:9923   */\n      exp\n        /* \"#utility.yul\":9895:9923   */\n      swap1\n      pop\n        /* \"#utility.yul\":9949:9952   */\n      dup4\n        /* \"#utility.yul\":9942:9947   */\n      dup2\n        /* \"#utility.yul\":9939:9953   */\n      gt\n        /* \"#utility.yul\":9936:9976   */\n      iszero\n      tag_576\n      jumpi\n        /* \"#utility.yul\":9956:9974   */\n      tag_577\n      tag_422\n      jump\t// in\n    tag_577:\n        /* \"#utility.yul\":9936:9976   */\n    tag_576:\n        /* \"#utility.yul\":9989:9994   */\n      jump(tag_565)\n        /* \"#utility.yul\":9758:10004   */\n    tag_575:\n        /* \"#utility.yul\":10029:10071   */\n      tag_578\n        /* \"#utility.yul\":10067:10070   */\n      dup5\n        /* \"#utility.yul\":10057:10065   */\n      dup5\n        /* \"#utility.yul\":10051:10055   */\n      dup5\n        /* \"#utility.yul\":10048:10049   */\n      0x01\n        /* \"#utility.yul\":10029:10071   */\n      tag_424\n      jump\t// in\n    tag_578:\n        /* \"#utility.yul\":10014:10071   */\n      swap3\n      pop\n      swap1\n      pop\n        /* \"#utility.yul\":10103:10107   */\n      dup2\n        /* \"#utility.yul\":10098:10101   */\n      dup5\n        /* \"#utility.yul\":10094:10108   */\n      div\n        /* \"#utility.yul\":10087:10092   */\n      dup2\n        /* \"#utility.yul\":10084:10109   */\n      gt\n        /* \"#utility.yul\":10081:10132   */\n      iszero\n      tag_579\n      jumpi\n        /* \"#utility.yul\":10112:10130   */\n      tag_580\n      tag_422\n      jump\t// in\n    tag_580:\n        /* \"#utility.yul\":10081:10132   */\n    tag_579:\n        /* \"#utility.yul\":10161:10165   */\n      dup2\n        /* \"#utility.yul\":10154:10159   */\n      dup2\n        /* \"#utility.yul\":10150:10166   */\n      mul\n        /* \"#utility.yul\":10141:10166   */\n      swap1\n      pop\n        /* \"#utility.yul\":9099:10172   */\n    tag_565:\n      swap4\n      swap3\n      pop\n      pop\n      pop\n      jump\t// out\n        /* \"#utility.yul\":10178:10459   */\n    tag_144:\n        /* \"#utility.yul\":10236:10241   */\n      0x00\n        /* \"#utility.yul\":10260:10283   */\n      tag_582\n        /* \"#utility.yul\":10278:10282   */\n      dup3\n        /* \"#utility.yul\":10260:10283   */\n      tag_407\n      jump\t// in\n    tag_582:\n        /* \"#utility.yul\":10252:10283   */\n      swap2\n      pop\n        /* \"#utility.yul\":10304:10329   */\n      tag_583\n        /* \"#utility.yul\":10320:10328   */\n      dup4\n        /* \"#utility.yul\":10304:10329   */\n      tag_413\n      jump\t// in\n    tag_583:\n        /* \"#utility.yul\":10292:10329   */\n      swap3\n      pop\n        /* \"#utility.yul\":10348:10452   */\n      tag_584\n        /* \"#utility.yul\":10385:10451   */\n      0xffffffffffffffffffffffffffffffffffffffffffffffffffffffffffffffff\n        /* \"#utility.yul\":10375:10383   */\n      dup5\n        /* \"#utility.yul\":10369:10373   */\n      dup5\n        /* \"#utility.yul\":10348:10452   */\n      tag_425\n      jump\t// in\n    tag_584:\n        /* \"#utility.yul\":10339:10452   */\n      swap1\n      pop\n        /* \"#utility.yul\":10178:10459   */\n      swap3\n      swap2\n      pop\n      pop\n      jump\t// out\n        /* \"#utility.yul\":10465:10875   */\n    tag_146:\n        /* \"#utility.yul\":10505:10512   */\n      0x00\n        /* \"#utility.yul\":10528:10548   */\n      tag_586\n        /* \"#utility.yul\":10546:10547   */\n      dup3\n        /* \"#utility.yul\":10528:10548   */\n      tag_407\n      jump\t// in\n    tag_586:\n        /* \"#utility.yul\":10523:10548   */\n      swap2\n      pop\n        /* \"#utility.yul\":10562:10582   */\n      tag_587\n        /* \"#utility.yul\":10580:10581   */\n      dup4\n        /* \"#utility.yul\":10562:10582   */\n      tag_407\n      jump\t// in\n    tag_587:\n        /* \"#utility.yul\":10557:10582   */\n      swap3\n      pop\n        /* \"#utility.yul\":10617:10618   */\n      dup3\n        /* \"#utility.yul\":10614:10615   */\n      dup3\n        /* \"#utility.yul\":10610:10619   */\n      mul\n        /* \"#utility.yul\":10639:10669   */\n      tag_588\n        /* \"#utility.yul\":10657:10668   */\n      dup2\n        /* \"#utility.yul\":10639:10669   */\n      tag_407\n      jump\t// in\n    tag_588:\n        /* \"#utility.yul\":10628:10669   */\n      swap2\n      pop\n        /* \"#utility.yul\":10818:10819   */\n      dup3\n        /* \"#utility.yul\":10809:10816   */\n      dup3\n        /* \"#utility.yul\":10805:10820   */\n      div\n        /* \"#utility.yul\":10802:10803   */\n      dup5\n        /* \"#utility.yul\":10799:10821   */\n      eq\n        /* \"#utility.yul\":10779:10780   */\n      dup4\n        /* \"#utility.yul\":10772:10781   */\n      iszero\n        /* \"#utility.yul\":10752:10835   */\n      or\n        /* \"#utility.yul\":10729:10868   */\n      tag_589\n      jumpi\n        /* \"#utility.yul\":10848:10866   */\n      tag_590\n      tag_422\n      jump\t// in\n    tag_590:\n        /* \"#utility.yul\":10729:10868   */\n    tag_589:\n        /* \"#utility.yul\":10513:10875   */\n      pop\n        /* \"#utility.yul\":10465:10875   */\n      swap3\n      swap2\n      pop\n      pop\n      jump\t// out\n        /* \"#utility.yul\":10881:11024   */\n    tag_426:\n        /* \"#utility.yul\":10938:10943   */\n      0x00\n        /* \"#utility.yul\":10969:10975   */\n      dup2\n        /* \"#utility.yul\":10963:10976   */\n      mload\n        /* \"#utility.yul\":10954:10976   */\n      swap1\n      pop\n        /* \"#utility.yul\":10985:11018   */\n      tag_592\n        /* \"#utility.yul\":11012:11017   */\n      dup2\n        /* \"#utility.yul\":10985:11018   */\n      tag_408\n      jump\t// in\n    tag_592:\n        /* \"#utility.yul\":10881:11024   */\n      swap3\n      swap2\n      pop\n      pop\n      jump\t// out\n        /* \"#utility.yul\":11030:11381   */\n    tag_192:\n        /* \"#utility.yul\":11100:11106   */\n      0x00\n        /* \"#utility.yul\":11149:11151   */\n      0x20\n        /* \"#utility.yul\":11137:11146   */\n      dup3\n        /* \"#utility.yul\":11128:11135   */\n      dup5\n        /* \"#utility.yul\":11124:11147   */\n      sub\n        /* \"#utility.yul\":11120:11152   */\n      slt\n        /* \"#utility.yul\":11117:11236   */\n      iszero\n      tag_594\n      jumpi\n        /* \"#utility.yul\":11155:11234   */\n      tag_595\n      tag_401\n      jump\t// in\n    tag_595:\n        /* \"#utility.yul\":11117:11236   */\n    tag_594:\n        /* \"#utility.yul\":11275:11276   */\n      0x00\n        /* \"#utility.yul\":11300:11364   */\n      tag_596\n        /* \"#utility.yul\":11356:11363   */\n      dup5\n        /* \"#utility.yul\":11347:11353   */\n      dup3\n        /* \"#utility.yul\":11336:11345   */\n      dup6\n        /* \"#utility.yul\":11332:11354   */\n      add\n        /* \"#utility.yul\":11300:11364   */\n      tag_426\n      jump\t// in\n    tag_596:\n        /* \"#utility.yul\":11290:11364   */\n      swap2\n      pop\n        /* \"#utility.yul\":11246:11374   */\n      pop\n        /* \"#utility.yul\":11030:11381   */\n      swap3\n      swap2\n      pop\n      pop\n      jump\t// out\n        /* \"#utility.yul\":11387:11719   */\n    tag_194:\n        /* \"#utility.yul\":11508:11512   */\n      0x00\n        /* \"#utility.yul\":11546:11548   */\n      0x40\n        /* \"#utility.yul\":11535:11544   */\n      dup3\n        /* \"#utility.yul\":11531:11549   */\n      add\n        /* \"#utility.yul\":11523:11549   */\n      swap1\n      pop\n        /* \"#utility.yul\":11559:11630   */\n      tag_598\n        /* \"#utility.yul\":11627:11628   */\n      0x00\n        /* \"#utility.yul\":11616:11625   */\n      dup4\n        /* \"#utility.yul\":11612:11629   */\n      add\n        /* \"#utility.yul\":11603:11609   */\n      dup6\n        /* \"#utility.yul\":11559:11630   */\n      tag_415\n      jump\t// in\n    tag_598:\n        /* \"#utility.yul\":11640:11712   */\n      tag_599\n        /* \"#utility.yul\":11708:11710   */\n      0x20\n        /* \"#utility.yul\":11697:11706   */\n      dup4\n        /* \"#utility.yul\":11693:11711   */\n      add\n        /* \"#utility.yul\":11684:11690   */\n      dup5\n        /* \"#utility.yul\":11640:11712   */\n      tag_412\n      jump\t// in\n    tag_599:\n        /* \"#utility.yul\":11387:11719   */\n      swap4\n      swap3\n      pop\n      pop\n      pop\n      jump\t// out\n        /* \"#utility.yul\":11725:11867   */\n    tag_427:\n        /* \"#utility.yul\":11775:11784   */\n      0x00\n        /* \"#utility.yul\":11808:11861   */\n      tag_601\n        /* \"#utility.yul\":11826:11860   */\n      tag_602\n        /* \"#utility.yul\":11835:11859   */\n      tag_603\n        /* \"#utility.yul\":11853:11858   */\n      dup5\n        /* \"#utility.yul\":11835:11859   */\n      tag_403\n      jump\t// in\n    tag_603:\n        /* \"#utility.yul\":11826:11860   */\n      tag_419\n      jump\t// in\n    tag_602:\n        /* \"#utility.yul\":11808:11861   */\n      tag_403\n      jump\t// in\n    tag_601:\n        /* \"#utility.yul\":11795:11861   */\n      swap1\n      pop\n        /* \"#utility.yul\":11725:11867   */\n      swap2\n      swap1\n      pop\n      jump\t// out\n        /* \"#utility.yul\":11873:11999   */\n    tag_428:\n        /* \"#utility.yul\":11923:11932   */\n      0x00\n        /* \"#utility.yul\":11956:11993   */\n      tag_605\n        /* \"#utility.yul\":11987:11992   */\n      dup3\n        /* \"#utility.yul\":11956:11993   */\n      tag_427\n      jump\t// in\n    tag_605:\n        /* \"#utility.yul\":11943:11993   */\n      swap1\n      pop\n        /* \"#utility.yul\":11873:11999   */\n      swap2\n      swap1\n      pop\n      jump\t// out\n        /* \"#utility.yul\":12005:12139   */\n    tag_429:\n        /* \"#utility.yul\":12063:12072   */\n      0x00\n        /* \"#utility.yul\":12096:12133   */\n      tag_607\n        /* \"#utility.yul\":12127:12132   */\n      dup3\n        /* \"#utility.yul\":12096:12133   */\n      tag_428\n      jump\t// in\n    tag_607:\n        /* \"#utility.yul\":12083:12133   */\n      swap1\n      pop\n        /* \"#utility.yul\":12005:12139   */\n      swap2\n      swap1\n      pop\n      jump\t// out\n        /* \"#utility.yul\":12145:12292   */\n    tag_430:\n        /* \"#utility.yul\":12240:12285   */\n      tag_609\n        /* \"#utility.yul\":12279:12284   */\n      dup2\n        /* \"#utility.yul\":12240:12285   */\n      tag_429\n      jump\t// in\n    tag_609:\n        /* \"#utility.yul\":12235:12238   */\n      dup3\n        /* \"#utility.yul\":12228:12286   */\n      mstore\n        /* \"#utility.yul\":12145:12292   */\n      pop\n      pop\n      jump\t// out\n        /* \"#utility.yul\":12298:12646   */\n    tag_196:\n        /* \"#utility.yul\":12427:12431   */\n      0x00\n        /* \"#utility.yul\":12465:12467   */\n      0x40\n        /* \"#utility.yul\":12454:12463   */\n      dup3\n        /* \"#utility.yul\":12450:12468   */\n      add\n        /* \"#utility.yul\":12442:12468   */\n      swap1\n      pop\n        /* \"#utility.yul\":12478:12557   */\n      tag_611\n        /* \"#utility.yul\":12554:12555   */\n      0x00\n        /* \"#utility.yul\":12543:12552   */\n      dup4\n        /* \"#utility.yul\":12539:12556   */\n      add\n        /* \"#utility.yul\":12530:12536   */\n      dup6\n        /* \"#utility.yul\":12478:12557   */\n      tag_430\n      jump\t// in\n    tag_611:\n        /* \"#utility.yul\":12567:12639   */\n      tag_612\n        /* \"#utility.yul\":12635:12637   */\n      0x20\n        /* \"#utility.yul\":12624:12633   */\n      dup4\n        /* \"#utility.yul\":12620:12638   */\n      add\n        /* \"#utility.yul\":12611:12617   */\n      dup5\n        /* \"#utility.yul\":12567:12639   */\n      tag_412\n      jump\t// in\n    tag_612:\n        /* \"#utility.yul\":12298:12646   */\n      swap4\n      swap3\n      pop\n      pop\n      pop\n      jump\t// out\n        /* \"#utility.yul\":12652:12768   */\n    tag_431:\n        /* \"#utility.yul\":12722:12743   */\n      tag_614\n        /* \"#utility.yul\":12737:12742   */\n      dup2\n        /* \"#utility.yul\":12722:12743   */\n      tag_410\n      jump\t// in\n    tag_614:\n        /* \"#utility.yul\":12715:12720   */\n      dup2\n        /* \"#utility.yul\":12712:12744   */\n      eq\n        /* \"#utility.yul\":12702:12762   */\n      tag_615\n      jumpi\n        /* \"#utility.yul\":12758:12759   */\n      0x00\n        /* \"#utility.yul\":12755:12756   */\n      dup1\n        /* \"#utility.yul\":12748:12760   */\n      revert\n        /* \"#utility.yul\":12702:12762   */\n    tag_615:\n        /* \"#utility.yul\":12652:12768   */\n      pop\n      jump\t// out\n        /* \"#utility.yul\":12774:12911   */\n    tag_432:\n        /* \"#utility.yul\":12828:12833   */\n      0x00\n        /* \"#utility.yul\":12859:12865   */\n      dup2\n        /* \"#utility.yul\":12853:12866   */\n      mload\n        /* \"#utility.yul\":12844:12866   */\n      swap1\n      pop\n        /* \"#utility.yul\":12875:12905   */\n      tag_617\n        /* \"#utility.yul\":12899:12904   */\n      dup2\n        /* \"#utility.yul\":12875:12905   */\n      tag_431\n      jump\t// in\n    tag_617:\n        /* \"#utility.yul\":12774:12911   */\n      swap3\n      swap2\n      pop\n      pop\n      jump\t// out\n        /* \"#utility.yul\":12917:13262   */\n    tag_200:\n        /* \"#utility.yul\":12984:12990   */\n      0x00\n        /* \"#utility.yul\":13033:13035   */\n      0x20\n        /* \"#utility.yul\":13021:13030   */\n      dup3\n        /* \"#utility.yul\":13012:13019   */\n      dup5\n        /* \"#utility.yul\":13008:13031   */\n      sub\n        /* \"#utility.yul\":13004:13036   */\n      slt\n        /* \"#utility.yul\":13001:13120   */\n      iszero\n      tag_619\n      jumpi\n        /* \"#utility.yul\":13039:13118   */\n      tag_620\n      tag_401\n      jump\t// in\n    tag_620:\n        /* \"#utility.yul\":13001:13120   */\n    tag_619:\n        /* \"#utility.yul\":13159:13160   */\n      0x00\n        /* \"#utility.yul\":13184:13245   */\n      tag_621\n        /* \"#utility.yul\":13237:13244   */\n      dup5\n        /* \"#utility.yul\":13228:13234   */\n      dup3\n        /* \"#utility.yul\":13217:13226   */\n      dup6\n        /* \"#utility.yul\":13213:13235   */\n      add\n        /* \"#utility.yul\":13184:13245   */\n      tag_432\n      jump\t// in\n    tag_621:\n        /* \"#utility.yul\":13174:13245   */\n      swap2\n      pop\n        /* \"#utility.yul\":13130:13255   */\n      pop\n        /* \"#utility.yul\":12917:13262   */\n      swap3\n      swap2\n      pop\n      pop\n      jump\t// out\n        /* \"#utility.yul\":13268:13441   */\n    tag_433:\n        /* \"#utility.yul\":13408:13433   */\n      0x74726164696e6720697320616c7265616479206f70656e000000000000000000\n        /* \"#utility.yul\":13404:13405   */\n      0x00\n        /* \"#utility.yul\":13396:13402   */\n      dup3\n        /* \"#utility.yul\":13392:13406   */\n      add\n        /* \"#utility.yul\":13385:13434   */\n      mstore\n        /* \"#utility.yul\":13268:13441   */\n      pop\n      jump\t// out\n        /* \"#utility.yul\":13447:13813   */\n    tag_434:\n        /* \"#utility.yul\":13589:13592   */\n      0x00\n        /* \"#utility.yul\":13610:13677   */\n      tag_624\n        /* \"#utility.yul\":13674:13676   */\n      0x17\n        /* \"#utility.yul\":13669:13672   */\n      dup4\n        /* \"#utility.yul\":13610:13677   */\n      tag_396\n      jump\t// in\n    tag_624:\n        /* \"#utility.yul\":13603:13677   */\n      swap2\n      pop\n        /* \"#utility.yul\":13686:13779   */\n      tag_625\n        /* \"#utility.yul\":13775:13778   */\n      dup3\n        /* \"#utility.yul\":13686:13779   */\n      tag_433\n      jump\t// in\n    tag_625:\n        /* \"#utility.yul\":13804:13806   */\n      0x20\n        /* \"#utility.yul\":13799:13802   */\n      dup3\n        /* \"#utility.yul\":13795:13807   */\n      add\n        /* \"#utility.yul\":13788:13807   */\n      swap1\n      pop\n        /* \"#utility.yul\":13447:13813   */\n      swap2\n      swap1\n      pop\n      jump\t// out\n        /* \"#utility.yul\":13819:14238   */\n    tag_213:\n        /* \"#utility.yul\":13985:13989   */\n      0x00\n        /* \"#utility.yul\":14023:14025   */\n      0x20\n        /* \"#utility.yul\":14012:14021   */\n      dup3\n        /* \"#utility.yul\":14008:14026   */\n      add\n        /* \"#utility.yul\":14000:14026   */\n      swap1\n      pop\n        /* \"#utility.yul\":14072:14081   */\n      dup2\n        /* \"#utility.yul\":14066:14070   */\n      dup2\n        /* \"#utility.yul\":14062:14082   */\n      sub\n        /* \"#utility.yul\":14058:14059   */\n      0x00\n        /* \"#utility.yul\":14047:14056   */\n      dup4\n        /* \"#utility.yul\":14043:14060   */\n      add\n        /* \"#utility.yul\":14036:14083   */\n      mstore\n        /* \"#utility.yul\":14100:14231   */\n      tag_627\n        /* \"#utility.yul\":14226:14230   */\n      dup2\n        /* \"#utility.yul\":14100:14231   */\n      tag_434\n      jump\t// in\n    tag_627:\n        /* \"#utility.yul\":14092:14231   */\n      swap1\n      pop\n        /* \"#utility.yul\":13819:14238   */\n      swap2\n      swap1\n      pop\n      jump\t// out\n        /* \"#utility.yul\":14244:14387   */\n    tag_435:\n        /* \"#utility.yul\":14301:14306   */\n      0x00\n        /* \"#utility.yul\":14332:14338   */\n      dup2\n        /* \"#utility.yul\":14326:14339   */\n      mload\n        /* \"#utility.yul\":14317:14339   */\n      swap1\n      pop\n        /* \"#utility.yul\":14348:14381   */\n      tag_629\n        /* \"#utility.yul\":14375:14380   */\n      dup2\n        /* \"#utility.yul\":14348:14381   */\n      tag_405\n      jump\t// in\n    tag_629:\n        /* \"#utility.yul\":14244:14387   */\n      swap3\n      swap2\n      pop\n      pop\n      jump\t// out\n        /* \"#utility.yul\":14393:14744   */\n    tag_220:\n        /* \"#utility.yul\":14463:14469   */\n      0x00\n        /* \"#utility.yul\":14512:14514   */\n      0x20\n        /* \"#utility.yul\":14500:14509   */\n      dup3\n        /* \"#utility.yul\":14491:14498   */\n      dup5\n        /* \"#utility.yul\":14487:14510   */\n      sub\n        /* \"#utility.yul\":14483:14515   */\n      slt\n        /* \"#utility.yul\":14480:14599   */\n      iszero\n      tag_631\n      jumpi\n        /* \"#utility.yul\":14518:14597   */\n      tag_632\n      tag_401\n      jump\t// in\n    tag_632:\n        /* \"#utility.yul\":14480:14599   */\n    tag_631:\n        /* \"#utility.yul\":14638:14639   */\n      0x00\n        /* \"#utility.yul\":14663:14727   */\n      tag_633\n        /* \"#utility.yul\":14719:14726   */\n      dup5\n        /* \"#utility.yul\":14710:14716   */\n      dup3\n        /* \"#utility.yul\":14699:14708   */\n      dup6\n        /* \"#utility.yul\":14695:14717   */\n      add\n        /* \"#utility.yul\":14663:14727   */\n      tag_435\n      jump\t// in\n    tag_633:\n        /* \"#utility.yul\":14653:14727   */\n      swap2\n      pop\n        /* \"#utility.yul\":14609:14737   */\n      pop\n        /* \"#utility.yul\":14393:14744   */\n      swap3\n      swap2\n      pop\n      pop\n      jump\t// out\n        /* \"#utility.yul\":14750:15082   */\n    tag_225:\n        /* \"#utility.yul\":14871:14875   */\n      0x00\n        /* \"#utility.yul\":14909:14911   */\n      0x40\n        /* \"#utility.yul\":14898:14907   */\n      dup3\n        /* \"#utility.yul\":14894:14912   */\n      add\n        /* \"#utility.yul\":14886:14912   */\n      swap1\n      pop\n        /* \"#utility.yul\":14922:14993   */\n      tag_635\n        /* \"#utility.yul\":14990:14991   */\n      0x00\n        /* \"#utility.yul\":14979:14988   */\n      dup4\n        /* \"#utility.yul\":14975:14992   */\n      add\n        /* \"#utility.yul\":14966:14972   */\n      dup6\n        /* \"#utility.yul\":14922:14993   */\n      tag_415\n      jump\t// in\n    tag_635:\n        /* \"#utility.yul\":15003:15075   */\n      tag_636\n        /* \"#utility.yul\":15071:15073   */\n      0x20\n        /* \"#utility.yul\":15060:15069   */\n      dup4\n        /* \"#utility.yul\":15056:15074   */\n      add\n        /* \"#utility.yul\":15047:15053   */\n      dup5\n        /* \"#utility.yul\":15003:15075   */\n      tag_415\n      jump\t// in\n    tag_636:\n        /* \"#utility.yul\":14750:15082   */\n      swap4\n      swap3\n      pop\n      pop\n      pop\n      jump\t// out\n        /* \"#utility.yul\":15088:15895   */\n    tag_232:\n        /* \"#utility.yul\":15337:15341   */\n      0x00\n        /* \"#utility.yul\":15375:15378   */\n      0xc0\n        /* \"#utility.yul\":15364:15373   */\n      dup3\n        /* \"#utility.yul\":15360:15379   */\n      add\n        /* \"#utility.yul\":15352:15379   */\n      swap1\n      pop\n        /* \"#utility.yul\":15389:15460   */\n      tag_638\n        /* \"#utility.yul\":15457:15458   */\n      0x00\n        /* \"#utility.yul\":15446:15455   */\n      dup4\n        /* \"#utility.yul\":15442:15459   */\n      add\n        /* \"#utility.yul\":15433:15439   */\n      dup10\n        /* \"#utility.yul\":15389:15460   */\n      tag_415\n      jump\t// in\n    tag_638:\n        /* \"#utility.yul\":15470:15542   */\n      tag_639\n        /* \"#utility.yul\":15538:15540   */\n      0x20\n        /* \"#utility.yul\":15527:15536   */\n      dup4\n        /* \"#utility.yul\":15523:15541   */\n      add\n        /* \"#utility.yul\":15514:15520   */\n      dup9\n        /* \"#utility.yul\":15470:15542   */\n      tag_412\n      jump\t// in\n    tag_639:\n        /* \"#utility.yul\":15552:15632   */\n      tag_640\n        /* \"#utility.yul\":15628:15630   */\n      0x40\n        /* \"#utility.yul\":15617:15626   */\n      dup4\n        /* \"#utility.yul\":15613:15631   */\n      add\n        /* \"#utility.yul\":15604:15610   */\n      dup8\n        /* \"#utility.yul\":15552:15632   */\n      tag_421\n      jump\t// in\n    tag_640:\n        /* \"#utility.yul\":15642:15722   */\n      tag_641\n        /* \"#utility.yul\":15718:15720   */\n      0x60\n        /* \"#utility.yul\":15707:15716   */\n      dup4\n        /* \"#utility.yul\":15703:15721   */\n      add\n        /* \"#utility.yul\":15694:15700   */\n      dup7\n        /* \"#utility.yul\":15642:15722   */\n      tag_421\n      jump\t// in\n    tag_641:\n        /* \"#utility.yul\":15732:15805   */\n      tag_642\n        /* \"#utility.yul\":15800:15803   */\n      0x80\n        /* \"#utility.yul\":15789:15798   */\n      dup4\n        /* \"#utility.yul\":15785:15804   */\n      add\n        /* \"#utility.yul\":15776:15782   */\n      dup6\n        /* \"#utility.yul\":15732:15805   */\n      tag_415\n      jump\t// in\n    tag_642:\n        /* \"#utility.yul\":15815:15888   */\n      tag_643\n        /* \"#utility.yul\":15883:15886   */\n      0xa0\n        /* \"#utility.yul\":15872:15881   */\n      dup4\n        /* \"#utility.yul\":15868:15887   */\n      add\n        /* \"#utility.yul\":15859:15865   */\n      dup5\n        /* \"#utility.yul\":15815:15888   */\n      tag_412\n      jump\t// in\n    tag_643:\n        /* \"#utility.yul\":15088:15895   */\n      swap8\n      swap7\n      pop\n      pop\n      pop\n      pop\n      pop\n      pop\n      pop\n      jump\t// out\n        /* \"#utility.yul\":15901:16564   */\n    tag_236:\n        /* \"#utility.yul\":15989:15995   */\n      0x00\n        /* \"#utility.yul\":15997:16003   */\n      dup1\n        /* \"#utility.yul\":16005:16011   */\n      0x00\n        /* \"#utility.yul\":16054:16056   */\n      0x60\n        /* \"#utility.yul\":16042:16051   */\n      dup5\n        /* \"#utility.yul\":16033:16040   */\n      dup7\n        /* \"#utility.yul\":16029:16052   */\n      sub\n        /* \"#utility.yul\":16025:16057   */\n      slt\n        /* \"#utility.yul\":16022:16141   */\n      iszero\n      tag_645\n      jumpi\n        /* \"#utility.yul\":16060:16139   */\n      tag_646\n      tag_401\n      jump\t// in\n    tag_646:\n        /* \"#utility.yul\":16022:16141   */\n    tag_645:\n        /* \"#utility.yul\":16180:16181   */\n      0x00\n        /* \"#utility.yul\":16205:16269   */\n      tag_647\n        /* \"#utility.yul\":16261:16268   */\n      dup7\n        /* \"#utility.yul\":16252:16258   */\n      dup3\n        /* \"#utility.yul\":16241:16250   */\n      dup8\n        /* \"#utility.yul\":16237:16259   */\n      add\n        /* \"#utility.yul\":16205:16269   */\n      tag_426\n      jump\t// in\n    tag_647:\n        /* \"#utility.yul\":16195:16269   */\n      swap4\n      pop\n        /* \"#utility.yul\":16151:16279   */\n      pop\n        /* \"#utility.yul\":16318:16320   */\n      0x20\n        /* \"#utility.yul\":16344:16408   */\n      tag_648\n        /* \"#utility.yul\":16400:16407   */\n      dup7\n        /* \"#utility.yul\":16391:16397   */\n      dup3\n        /* \"#utility.yul\":16380:16389   */\n      dup8\n        /* \"#utility.yul\":16376:16398   */\n      add\n        /* \"#utility.yul\":16344:16408   */\n      tag_426\n      jump\t// in\n    tag_648:\n        /* \"#utility.yul\":16334:16408   */\n      swap3\n      pop\n        /* \"#utility.yul\":16289:16418   */\n      pop\n        /* \"#utility.yul\":16457:16459   */\n      0x40\n        /* \"#utility.yul\":16483:16547   */\n      tag_649\n        /* \"#utility.yul\":16539:16546   */\n      dup7\n        /* \"#utility.yul\":16530:16536   */\n      dup3\n        /* \"#utility.yul\":16519:16528   */\n      dup8\n        /* \"#utility.yul\":16515:16537   */\n      add\n        /* \"#utility.yul\":16483:16547   */\n      tag_426\n      jump\t// in\n    tag_649:\n        /* \"#utility.yul\":16473:16547   */\n      swap2\n      pop\n        /* \"#utility.yul\":16428:16557   */\n      pop\n        /* \"#utility.yul\":15901:16564   */\n      swap3\n      pop\n      swap3\n      pop\n      swap3\n      jump\t// out\n        /* \"#utility.yul\":16570:16799   */\n    tag_436:\n        /* \"#utility.yul\":16710:16744   */\n      0x436f6e74726163742062616c616e6365206d7573742062652067726561746572\n        /* \"#utility.yul\":16706:16707   */\n      0x00\n        /* \"#utility.yul\":16698:16704   */\n      dup3\n        /* \"#utility.yul\":16694:16708   */\n      add\n        /* \"#utility.yul\":16687:16745   */\n      mstore\n        /* \"#utility.yul\":16779:16791   */\n      0x207468616e207a65726f00000000000000000000000000000000000000000000\n        /* \"#utility.yul\":16774:16776   */\n      0x20\n        /* \"#utility.yul\":16766:16772   */\n      dup3\n        /* \"#utility.yul\":16762:16777   */\n      add\n        /* \"#utility.yul\":16755:16792   */\n      mstore\n        /* \"#utility.yul\":16570:16799   */\n      pop\n      jump\t// out\n        /* \"#utility.yul\":16805:17171   */\n    tag_437:\n        /* \"#utility.yul\":16947:16950   */\n      0x00\n        /* \"#utility.yul\":16968:17035   */\n      tag_652\n        /* \"#utility.yul\":17032:17034   */\n      0x2a\n        /* \"#utility.yul\":17027:17030   */\n      dup4\n        /* \"#utility.yul\":16968:17035   */\n      tag_396\n      jump\t// in\n    tag_652:\n        /* \"#utility.yul\":16961:17035   */\n      swap2\n      pop\n        /* \"#utility.yul\":17044:17137   */\n      tag_653\n        /* \"#utility.yul\":17133:17136   */\n      dup3\n        /* \"#utility.yul\":17044:17137   */\n      tag_436\n      jump\t// in\n    tag_653:\n        /* \"#utility.yul\":17162:17164   */\n      0x40\n        /* \"#utility.yul\":17157:17160   */\n      dup3\n        /* \"#utility.yul\":17153:17165   */\n      add\n        /* \"#utility.yul\":17146:17165   */\n      swap1\n      pop\n        /* \"#utility.yul\":16805:17171   */\n      swap2\n      swap1\n      pop\n      jump\t// out\n        /* \"#utility.yul\":17177:17596   */\n    tag_252:\n        /* \"#utility.yul\":17343:17347   */\n      0x00\n        /* \"#utility.yul\":17381:17383   */\n      0x20\n        /* \"#utility.yul\":17370:17379   */\n      dup3\n        /* \"#utility.yul\":17366:17384   */\n      add\n        /* \"#utility.yul\":17358:17384   */\n      swap1\n      pop\n        /* \"#utility.yul\":17430:17439   */\n      dup2\n        /* \"#utility.yul\":17424:17428   */\n      dup2\n        /* \"#utility.yul\":17420:17440   */\n      sub\n        /* \"#utility.yul\":17416:17417   */\n      0x00\n        /* \"#utility.yul\":17405:17414   */\n      dup4\n        /* \"#utility.yul\":17401:17418   */\n      add\n        /* \"#utility.yul\":17394:17441   */\n      mstore\n        /* \"#utility.yul\":17458:17589   */\n      tag_655\n        /* \"#utility.yul\":17584:17588   */\n      dup2\n        /* \"#utility.yul\":17458:17589   */\n      tag_437\n      jump\t// in\n    tag_655:\n        /* \"#utility.yul\":17450:17589   */\n      swap1\n      pop\n        /* \"#utility.yul\":17177:17596   */\n      swap2\n      swap1\n      pop\n      jump\t// out\n        /* \"#utility.yul\":17602:17825   */\n    tag_438:\n        /* \"#utility.yul\":17742:17776   */\n      0x45524332303a20617070726f76652066726f6d20746865207a65726f20616464\n        /* \"#utility.yul\":17738:17739   */\n      0x00\n        /* \"#utility.yul\":17730:17736   */\n      dup3\n        /* \"#utility.yul\":17726:17740   */\n      add\n        /* \"#utility.yul\":17719:17777   */\n      mstore\n        /* \"#utility.yul\":17811:17817   */\n      0x7265737300000000000000000000000000000000000000000000000000000000\n        /* \"#utility.yul\":17806:17808   */\n      0x20\n        /* \"#utility.yul\":17798:17804   */\n      dup3\n        /* \"#utility.yul\":17794:17809   */\n      add\n        /* \"#utility.yul\":17787:17818   */\n      mstore\n        /* \"#utility.yul\":17602:17825   */\n      pop\n      jump\t// out\n        /* \"#utility.yul\":17831:18197   */\n    tag_439:\n        /* \"#utility.yul\":17973:17976   */\n      0x00\n        /* \"#utility.yul\":17994:18061   */\n      tag_658\n        /* \"#utility.yul\":18058:18060   */\n      0x24\n        /* \"#utility.yul\":18053:18056   */\n      dup4\n        /* \"#utility.yul\":17994:18061   */\n      tag_396\n      jump\t// in\n    tag_658:\n        /* \"#utility.yul\":17987:18061   */\n      swap2\n      pop\n        /* \"#utility.yul\":18070:18163   */\n      tag_659\n        /* \"#utility.yul\":18159:18162   */\n      dup3\n        /* \"#utility.yul\":18070:18163   */\n      tag_438\n      jump\t// in\n    tag_659:\n        /* \"#utility.yul\":18188:18190   */\n      0x40\n        /* \"#utility.yul\":18183:18186   */\n      dup3\n        /* \"#utility.yul\":18179:18191   */\n      add\n        /* \"#utility.yul\":18172:18191   */\n      swap1\n      pop\n        /* \"#utility.yul\":17831:18197   */\n      swap2\n      swap1\n      pop\n      jump\t// out\n        /* \"#utility.yul\":18203:18622   */\n    tag_258:\n        /* \"#utility.yul\":18369:18373   */\n      0x00\n        /* \"#utility.yul\":18407:18409   */\n      0x20\n        /* \"#utility.yul\":18396:18405   */\n      dup3\n        /* \"#utility.yul\":18392:18410   */\n      add\n        /* \"#utility.yul\":18384:18410   */\n      swap1\n      pop\n        /* \"#utility.yul\":18456:18465   */\n      dup2\n        /* \"#utility.yul\":18450:18454   */\n      dup2\n        /* \"#utility.yul\":18446:18466   */\n      sub\n        /* \"#utility.yul\":18442:18443   */\n      0x00\n        /* \"#utility.yul\":18431:18440   */\n      dup4\n        /* \"#utility.yul\":18427:18444   */\n      add\n        /* \"#utility.yul\":18420:18467   */\n      mstore\n        /* \"#utility.yul\":18484:18615   */\n      tag_661\n        /* \"#utility.yul\":18610:18614   */\n      dup2\n        /* \"#utility.yul\":18484:18615   */\n      tag_439\n      jump\t// in\n    tag_661:\n        /* \"#utility.yul\":18476:18615   */\n      swap1\n      pop\n        /* \"#utility.yul\":18203:18622   */\n      swap2\n      swap1\n      pop\n      jump\t// out\n        /* \"#utility.yul\":18628:18849   */\n    tag_440:\n        /* \"#utility.yul\":18768:18802   */\n      0x45524332303a20617070726f766520746f20746865207a65726f206164647265\n        /* \"#utility.yul\":18764:18765   */\n      0x00\n        /* \"#utility.yul\":18756:18762   */\n      dup3\n        /* \"#utility.yul\":18752:18766   */\n      add\n        /* \"#utility.yul\":18745:18803   */\n      mstore\n        /* \"#utility.yul\":18837:18841   */\n      0x7373000000000000000000000000000000000000000000000000000000000000\n        /* \"#utility.yul\":18832:18834   */\n      0x20\n        /* \"#utility.yul\":18824:18830   */\n      dup3\n        /* \"#utility.yul\":18820:18835   */\n      add\n        /* \"#utility.yul\":18813:18842   */\n      mstore\n        /* \"#utility.yul\":18628:18849   */\n      pop\n      jump\t// out\n        /* \"#utility.yul\":18855:19221   */\n    tag_441:\n        /* \"#utility.yul\":18997:19000   */\n      0x00\n        /* \"#utility.yul\":19018:19085   */\n      tag_664\n        /* \"#utility.yul\":19082:19084   */\n      0x22\n        /* \"#utility.yul\":19077:19080   */\n      dup4\n        /* \"#utility.yul\":19018:19085   */\n      tag_396\n      jump\t// in\n    tag_664:\n        /* \"#utility.yul\":19011:19085   */\n      swap2\n      pop\n        /* \"#utility.yul\":19094:19187   */\n      tag_665\n        /* \"#utility.yul\":19183:19186   */\n      dup3\n        /* \"#utility.yul\":19094:19187   */\n      tag_440\n      jump\t// in\n    tag_665:\n        /* \"#utility.yul\":19212:19214   */\n      0x40\n        /* \"#utility.yul\":19207:19210   */\n      dup3\n        /* \"#utility.yul\":19203:19215   */\n      add\n        /* \"#utility.yul\":19196:19215   */\n      swap1\n      pop\n        /* \"#utility.yul\":18855:19221   */\n      swap2\n      swap1\n      pop\n      jump\t// out\n        /* \"#utility.yul\":19227:19646   */\n    tag_261:\n        /* \"#utility.yul\":19393:19397   */\n      0x00\n        /* \"#utility.yul\":19431:19433   */\n      0x20\n        /* \"#utility.yul\":19420:19429   */\n      dup3\n        /* \"#utility.yul\":19416:19434   */\n      add\n        /* \"#utility.yul\":19408:19434   */\n      swap1\n      pop\n        /* \"#utility.yul\":19480:19489   */\n      dup2\n        /* \"#utility.yul\":19474:19478   */\n      dup2\n        /* \"#utility.yul\":19470:19490   */\n      sub\n        /* \"#utility.yul\":19466:19467   */\n      0x00\n        /* \"#utility.yul\":19455:19464   */\n      dup4\n        /* \"#utility.yul\":19451:19468   */\n      add\n        /* \"#utility.yul\":19444:19491   */\n      mstore\n        /* \"#utility.yul\":19508:19639   */\n      tag_667\n        /* \"#utility.yul\":19634:19638   */\n      dup2\n        /* \"#utility.yul\":19508:19639   */\n      tag_441\n      jump\t// in\n    tag_667:\n        /* \"#utility.yul\":19500:19639   */\n      swap1\n      pop\n        /* \"#utility.yul\":19227:19646   */\n      swap2\n      swap1\n      pop\n      jump\t// out\n        /* \"#utility.yul\":19652:19876   */\n    tag_442:\n        /* \"#utility.yul\":19792:19826   */\n      0x45524332303a207472616e736665722066726f6d20746865207a65726f206164\n        /* \"#utility.yul\":19788:19789   */\n      0x00\n        /* \"#utility.yul\":19780:19786   */\n      dup3\n        /* \"#utility.yul\":19776:19790   */\n      add\n        /* \"#utility.yul\":19769:19827   */\n      mstore\n        /* \"#utility.yul\":19861:19868   */\n      0x6472657373000000000000000000000000000000000000000000000000000000\n        /* \"#utility.yul\":19856:19858   */\n      0x20\n        /* \"#utility.yul\":19848:19854   */\n      dup3\n        /* \"#utility.yul\":19844:19859   */\n      add\n        /* \"#utility.yul\":19837:19869   */\n      mstore\n        /* \"#utility.yul\":19652:19876   */\n      pop\n      jump\t// out\n        /* \"#utility.yul\":19882:20248   */\n    tag_443:\n        /* \"#utility.yul\":20024:20027   */\n      0x00\n        /* \"#utility.yul\":20045:20112   */\n      tag_670\n        /* \"#utility.yul\":20109:20111   */\n      0x25\n        /* \"#utility.yul\":20104:20107   */\n      dup4\n        /* \"#utility.yul\":20045:20112   */\n      tag_396\n      jump\t// in\n    tag_670:\n        /* \"#utility.yul\":20038:20112   */\n      swap2\n      pop\n        /* \"#utility.yul\":20121:20214   */\n      tag_671\n        /* \"#utility.yul\":20210:20213   */\n      dup3\n        /* \"#utility.yul\":20121:20214   */\n      tag_442\n      jump\t// in\n    tag_671:\n        /* \"#utility.yul\":20239:20241   */\n      0x40\n        /* \"#utility.yul\":20234:20237   */\n      dup3\n        /* \"#utility.yul\":20230:20242   */\n      add\n        /* \"#utility.yul\":20223:20242   */\n      swap1\n      pop\n        /* \"#utility.yul\":19882:20248   */\n      swap2\n      swap1\n      pop\n      jump\t// out\n        /* \"#utility.yul\":20254:20673   */\n    tag_266:\n        /* \"#utility.yul\":20420:20424   */\n      0x00\n        /* \"#utility.yul\":20458:20460   */\n      0x20\n        /* \"#utility.yul\":20447:20456   */\n      dup3\n        /* \"#utility.yul\":20443:20461   */\n      add\n        /* \"#utility.yul\":20435:20461   */\n      swap1\n      pop\n        /* \"#utility.yul\":20507:20516   */\n      dup2\n        /* \"#utility.yul\":20501:20505   */\n      dup2\n        /* \"#utility.yul\":20497:20517   */\n      sub\n        /* \"#utility.yul\":20493:20494   */\n      0x00\n        /* \"#utility.yul\":20482:20491   */\n      dup4\n        /* \"#utility.yul\":20478:20495   */\n      add\n        /* \"#utility.yul\":20471:20518   */\n      mstore\n        /* \"#utility.yul\":20535:20666   */\n      tag_673\n        /* \"#utility.yul\":20661:20665   */\n      dup2\n        /* \"#utility.yul\":20535:20666   */\n      tag_443\n      jump\t// in\n    tag_673:\n        /* \"#utility.yul\":20527:20666   */\n      swap1\n      pop\n        /* \"#utility.yul\":20254:20673   */\n      swap2\n      swap1\n      pop\n      jump\t// out\n        /* \"#utility.yul\":20679:20901   */\n    tag_444:\n        /* \"#utility.yul\":20819:20853   */\n      0x45524332303a207472616e7366657220746f20746865207a65726f2061646472\n        /* \"#utility.yul\":20815:20816   */\n      0x00\n        /* \"#utility.yul\":20807:20813   */\n      dup3\n        /* \"#utility.yul\":20803:20817   */\n      add\n        /* \"#utility.yul\":20796:20854   */\n      mstore\n        /* \"#utility.yul\":20888:20893   */\n      0x6573730000000000000000000000000000000000000000000000000000000000\n        /* \"#utility.yul\":20883:20885   */\n      0x20\n        /* \"#utility.yul\":20875:20881   */\n      dup3\n        /* \"#utility.yul\":20871:20886   */\n      add\n        /* \"#utility.yul\":20864:20894   */\n      mstore\n        /* \"#utility.yul\":20679:20901   */\n      pop\n      jump\t// out\n        /* \"#utility.yul\":20907:21273   */\n    tag_445:\n        /* \"#utility.yul\":21049:21052   */\n      0x00\n        /* \"#utility.yul\":21070:21137   */\n      tag_676\n        /* \"#utility.yul\":21134:21136   */\n      0x23\n        /* \"#utility.yul\":21129:21132   */\n      dup4\n        /* \"#utility.yul\":21070:21137   */\n      tag_396\n      jump\t// in\n    tag_676:\n        /* \"#utility.yul\":21063:21137   */\n      swap2\n      pop\n        /* \"#utility.yul\":21146:21239   */\n      tag_677\n        /* \"#utility.yul\":21235:21238   */\n      dup3\n        /* \"#utility.yul\":21146:21239   */\n      tag_444\n      jump\t// in\n    tag_677:\n        /* \"#utility.yul\":21264:21266   */\n      0x40\n        /* \"#utility.yul\":21259:21262   */\n      dup3\n        /* \"#utility.yul\":21255:21267   */\n      add\n        /* \"#utility.yul\":21248:21267   */\n      swap1\n      pop\n        /* \"#utility.yul\":20907:21273   */\n      swap2\n      swap1\n      pop\n      jump\t// out\n        /* \"#utility.yul\":21279:21698   */\n    tag_269:\n        /* \"#utility.yul\":21445:21449   */\n      0x00\n        /* \"#utility.yul\":21483:21485   */\n      0x20\n        /* \"#utility.yul\":21472:21481   */\n      dup3\n        /* \"#utility.yul\":21468:21486   */\n      add\n        /* \"#utility.yul\":21460:21486   */\n      swap1\n      pop\n        /* \"#utility.yul\":21532:21541   */\n      dup2\n        /* \"#utility.yul\":21526:21530   */\n      dup2\n        /* \"#utility.yul\":21522:21542   */\n      sub\n        /* \"#utility.yul\":21518:21519   */\n      0x00\n        /* \"#utility.yul\":21507:21516   */\n      dup4\n        /* \"#utility.yul\":21503:21520   */\n      add\n        /* \"#utility.yul\":21496:21543   */\n      mstore\n        /* \"#utility.yul\":21560:21691   */\n      tag_679\n        /* \"#utility.yul\":21686:21690   */\n      dup2\n        /* \"#utility.yul\":21560:21691   */\n      tag_445\n      jump\t// in\n    tag_679:\n        /* \"#utility.yul\":21552:21691   */\n      swap1\n      pop\n        /* \"#utility.yul\":21279:21698   */\n      swap2\n      swap1\n      pop\n      jump\t// out\n        /* \"#utility.yul\":21704:21932   */\n    tag_446:\n        /* \"#utility.yul\":21844:21878   */\n      0x5472616e7366657220616d6f756e74206d757374206265206772656174657220\n        /* \"#utility.yul\":21840:21841   */\n      0x00\n        /* \"#utility.yul\":21832:21838   */\n      dup3\n        /* \"#utility.yul\":21828:21842   */\n      add\n        /* \"#utility.yul\":21821:21879   */\n      mstore\n        /* \"#utility.yul\":21913:21924   */\n      0x7468616e207a65726f0000000000000000000000000000000000000000000000\n        /* \"#utility.yul\":21908:21910   */\n      0x20\n        /* \"#utility.yul\":21900:21906   */\n      dup3\n        /* \"#utility.yul\":21896:21911   */\n      add\n        /* \"#utility.yul\":21889:21925   */\n      mstore\n        /* \"#utility.yul\":21704:21932   */\n      pop\n      jump\t// out\n        /* \"#utility.yul\":21938:22304   */\n    tag_447:\n        /* \"#utility.yul\":22080:22083   */\n      0x00\n        /* \"#utility.yul\":22101:22168   */\n      tag_682\n        /* \"#utility.yul\":22165:22167   */\n      0x29\n        /* \"#utility.yul\":22160:22163   */\n      dup4\n        /* \"#utility.yul\":22101:22168   */\n      tag_396\n      jump\t// in\n    tag_682:\n        /* \"#utility.yul\":22094:22168   */\n      swap2\n      pop\n        /* \"#utility.yul\":22177:22270   */\n      tag_683\n        /* \"#utility.yul\":22266:22269   */\n      dup3\n        /* \"#utility.yul\":22177:22270   */\n      tag_446\n      jump\t// in\n    tag_683:\n        /* \"#utility.yul\":22295:22297   */\n      0x40\n        /* \"#utility.yul\":22290:22293   */\n      dup3\n        /* \"#utility.yul\":22286:22298   */\n      add\n        /* \"#utility.yul\":22279:22298   */\n      swap1\n      pop\n        /* \"#utility.yul\":21938:22304   */\n      swap2\n      swap1\n      pop\n      jump\t// out\n        /* \"#utility.yul\":22310:22729   */\n    tag_272:\n        /* \"#utility.yul\":22476:22480   */\n      0x00\n        /* \"#utility.yul\":22514:22516   */\n      0x20\n        /* \"#utility.yul\":22503:22512   */\n      dup3\n        /* \"#utility.yul\":22499:22517   */\n      add\n        /* \"#utility.yul\":22491:22517   */\n      swap1\n      pop\n        /* \"#utility.yul\":22563:22572   */\n      dup2\n        /* \"#utility.yul\":22557:22561   */\n      dup2\n        /* \"#utility.yul\":22553:22573   */\n      sub\n        /* \"#utility.yul\":22549:22550   */\n      0x00\n        /* \"#utility.yul\":22538:22547   */\n      dup4\n        /* \"#utility.yul\":22534:22551   */\n      add\n        /* \"#utility.yul\":22527:22574   */\n      mstore\n        /* \"#utility.yul\":22591:22722   */\n      tag_685\n        /* \"#utility.yul\":22717:22721   */\n      dup2\n        /* \"#utility.yul\":22591:22722   */\n      tag_447\n      jump\t// in\n    tag_685:\n        /* \"#utility.yul\":22583:22722   */\n      swap1\n      pop\n        /* \"#utility.yul\":22310:22729   */\n      swap2\n      swap1\n      pop\n      jump\t// out\n        /* \"#utility.yul\":22735:22917   */\n    tag_448:\n        /* \"#utility.yul\":22875:22909   */\n      0x457863656564732062757973206f6e2074686520666972737420626c6f636b2e\n        /* \"#utility.yul\":22871:22872   */\n      0x00\n        /* \"#utility.yul\":22863:22869   */\n      dup3\n        /* \"#utility.yul\":22859:22873   */\n      add\n        /* \"#utility.yul\":22852:22910   */\n      mstore\n        /* \"#utility.yul\":22735:22917   */\n      pop\n      jump\t// out\n        /* \"#utility.yul\":22923:23289   */\n    tag_449:\n        /* \"#utility.yul\":23065:23068   */\n      0x00\n        /* \"#utility.yul\":23086:23153   */\n      tag_688\n        /* \"#utility.yul\":23150:23152   */\n      0x20\n        /* \"#utility.yul\":23145:23148   */\n      dup4\n        /* \"#utility.yul\":23086:23153   */\n      tag_396\n      jump\t// in\n    tag_688:\n        /* \"#utility.yul\":23079:23153   */\n      swap2\n      pop\n        /* \"#utility.yul\":23162:23255   */\n      tag_689\n        /* \"#utility.yul\":23251:23254   */\n      dup3\n        /* \"#utility.yul\":23162:23255   */\n      tag_448\n      jump\t// in\n    tag_689:\n        /* \"#utility.yul\":23280:23282   */\n      0x20\n        /* \"#utility.yul\":23275:23278   */\n      dup3\n        /* \"#utility.yul\":23271:23283   */\n      add\n        /* \"#utility.yul\":23264:23283   */\n      swap1\n      pop\n        /* \"#utility.yul\":22923:23289   */\n      swap2\n      swap1\n      pop\n      jump\t// out\n        /* \"#utility.yul\":23295:23714   */\n    tag_290:\n        /* \"#utility.yul\":23461:23465   */\n      0x00\n        /* \"#utility.yul\":23499:23501   */\n      0x20\n        /* \"#utility.yul\":23488:23497   */\n      dup3\n        /* \"#utility.yul\":23484:23502   */\n      add\n        /* \"#utility.yul\":23476:23502   */\n      swap1\n      pop\n        /* \"#utility.yul\":23548:23557   */\n      dup2\n        /* \"#utility.yul\":23542:23546   */\n      dup2\n        /* \"#utility.yul\":23538:23558   */\n      sub\n        /* \"#utility.yul\":23534:23535   */\n      0x00\n        /* \"#utility.yul\":23523:23532   */\n      dup4\n        /* \"#utility.yul\":23519:23536   */\n      add\n        /* \"#utility.yul\":23512:23559   */\n      mstore\n        /* \"#utility.yul\":23576:23707   */\n      tag_691\n        /* \"#utility.yul\":23702:23706   */\n      dup2\n        /* \"#utility.yul\":23576:23707   */\n      tag_449\n      jump\t// in\n    tag_691:\n        /* \"#utility.yul\":23568:23707   */\n      swap1\n      pop\n        /* \"#utility.yul\":23295:23714   */\n      swap2\n      swap1\n      pop\n      jump\t// out\n        /* \"#utility.yul\":23720:23895   */\n    tag_450:\n        /* \"#utility.yul\":23860:23887   */\n      0x4578636565647320746865205f6d61785478416d6f756e742e00000000000000\n        /* \"#utility.yul\":23856:23857   */\n      0x00\n        /* \"#utility.yul\":23848:23854   */\n      dup3\n        /* \"#utility.yul\":23844:23858   */\n      add\n        /* \"#utility.yul\":23837:23888   */\n      mstore\n        /* \"#utility.yul\":23720:23895   */\n      pop\n      jump\t// out\n        /* \"#utility.yul\":23901:24267   */\n    tag_451:\n        /* \"#utility.yul\":24043:24046   */\n      0x00\n        /* \"#utility.yul\":24064:24131   */\n      tag_694\n        /* \"#utility.yul\":24128:24130   */\n      0x19\n        /* \"#utility.yul\":24123:24126   */\n      dup4\n        /* \"#utility.yul\":24064:24131   */\n      tag_396\n      jump\t// in\n    tag_694:\n        /* \"#utility.yul\":24057:24131   */\n      swap2\n      pop\n        /* \"#utility.yul\":24140:24233   */\n      tag_695\n        /* \"#utility.yul\":24229:24232   */\n      dup3\n        /* \"#utility.yul\":24140:24233   */\n      tag_450\n      jump\t// in\n    tag_695:\n        /* \"#utility.yul\":24258:24260   */\n      0x20\n        /* \"#utility.yul\":24253:24256   */\n      dup3\n        /* \"#utility.yul\":24249:24261   */\n      add\n        /* \"#utility.yul\":24242:24261   */\n      swap1\n      pop\n        /* \"#utility.yul\":23901:24267   */\n      swap2\n      swap1\n      pop\n      jump\t// out\n        /* \"#utility.yul\":24273:24692   */\n    tag_296:\n        /* \"#utility.yul\":24439:24443   */\n      0x00\n        /* \"#utility.yul\":24477:24479   */\n      0x20\n        /* \"#utility.yul\":24466:24475   */\n      dup3\n        /* \"#utility.yul\":24462:24480   */\n      add\n        /* \"#utility.yul\":24454:24480   */\n      swap1\n      pop\n        /* \"#utility.yul\":24526:24535   */\n      dup2\n        /* \"#utility.yul\":24520:24524   */\n      dup2\n        /* \"#utility.yul\":24516:24536   */\n      sub\n        /* \"#utility.yul\":24512:24513   */\n      0x00\n        /* \"#utility.yul\":24501:24510   */\n      dup4\n        /* \"#utility.yul\":24497:24514   */\n      add\n        /* \"#utility.yul\":24490:24537   */\n      mstore\n        /* \"#utility.yul\":24554:24685   */\n      tag_697\n        /* \"#utility.yul\":24680:24684   */\n      dup2\n        /* \"#utility.yul\":24554:24685   */\n      tag_451\n      jump\t// in\n    tag_697:\n        /* \"#utility.yul\":24546:24685   */\n      swap1\n      pop\n        /* \"#utility.yul\":24273:24692   */\n      swap2\n      swap1\n      pop\n      jump\t// out\n        /* \"#utility.yul\":24698:24889   */\n    tag_299:\n        /* \"#utility.yul\":24738:24741   */\n      0x00\n        /* \"#utility.yul\":24757:24777   */\n      tag_699\n        /* \"#utility.yul\":24775:24776   */\n      dup3\n        /* \"#utility.yul\":24757:24777   */\n      tag_407\n      jump\t// in\n    tag_699:\n        /* \"#utility.yul\":24752:24777   */\n      swap2\n      pop\n        /* \"#utility.yul\":24791:24811   */\n      tag_700\n        /* \"#utility.yul\":24809:24810   */\n      dup4\n        /* \"#utility.yul\":24791:24811   */\n      tag_407\n      jump\t// in\n    tag_700:\n        /* \"#utility.yul\":24786:24811   */\n      swap3\n      pop\n        /* \"#utility.yul\":24834:24835   */\n      dup3\n        /* \"#utility.yul\":24831:24832   */\n      dup3\n        /* \"#utility.yul\":24827:24836   */\n      add\n        /* \"#utility.yul\":24820:24836   */\n      swap1\n      pop\n        /* \"#utility.yul\":24855:24858   */\n      dup1\n        /* \"#utility.yul\":24852:24853   */\n      dup3\n        /* \"#utility.yul\":24849:24859   */\n      gt\n        /* \"#utility.yul\":24846:24882   */\n      iszero\n      tag_701\n      jumpi\n        /* \"#utility.yul\":24862:24880   */\n      tag_702\n      tag_422\n      jump\t// in\n    tag_702:\n        /* \"#utility.yul\":24846:24882   */\n    tag_701:\n        /* \"#utility.yul\":24698:24889   */\n      swap3\n      swap2\n      pop\n      pop\n      jump\t// out\n        /* \"#utility.yul\":24895:25071   */\n    tag_452:\n        /* \"#utility.yul\":25035:25063   */\n      0x4578636565647320746865206d617857616c6c657453697a652e000000000000\n        /* \"#utility.yul\":25031:25032   */\n      0x00\n        /* \"#utility.yul\":25023:25029   */\n      dup3\n        /* \"#utility.yul\":25019:25033   */\n      add\n        /* \"#utility.yul\":25012:25064   */\n      mstore\n        /* \"#utility.yul\":24895:25071   */\n      pop\n      jump\t// out\n        /* \"#utility.yul\":25077:25443   */\n    tag_453:\n        /* \"#utility.yul\":25219:25222   */\n      0x00\n        /* \"#utility.yul\":25240:25307   */\n      tag_705\n        /* \"#utility.yul\":25304:25306   */\n      0x1a\n        /* \"#utility.yul\":25299:25302   */\n      dup4\n        /* \"#utility.yul\":25240:25307   */\n      tag_396\n      jump\t// in\n    tag_705:\n        /* \"#utility.yul\":25233:25307   */\n      swap2\n      pop\n        /* \"#utility.yul\":25316:25409   */\n      tag_706\n        /* \"#utility.yul\":25405:25408   */\n      dup3\n        /* \"#utility.yul\":25316:25409   */\n      tag_452\n      jump\t// in\n    tag_706:\n        /* \"#utility.yul\":25434:25436   */\n      0x20\n        /* \"#utility.yul\":25429:25432   */\n      dup3\n        /* \"#utility.yul\":25425:25437   */\n      add\n        /* \"#utility.yul\":25418:25437   */\n      swap1\n      pop\n        /* \"#utility.yul\":25077:25443   */\n      swap2\n      swap1\n      pop\n      jump\t// out\n        /* \"#utility.yul\":25449:25868   */\n    tag_302:\n        /* \"#utility.yul\":25615:25619   */\n      0x00\n        /* \"#utility.yul\":25653:25655   */\n      0x20\n        /* \"#utility.yul\":25642:25651   */\n      dup3\n        /* \"#utility.yul\":25638:25656   */\n      add\n        /* \"#utility.yul\":25630:25656   */\n      swap1\n      pop\n        /* \"#utility.yul\":25702:25711   */\n      dup2\n        /* \"#utility.yul\":25696:25700   */\n      dup2\n        /* \"#utility.yul\":25692:25712   */\n      sub\n        /* \"#utility.yul\":25688:25689   */\n      0x00\n        /* \"#utility.yul\":25677:25686   */\n      dup4\n        /* \"#utility.yul\":25673:25690   */\n      add\n        /* \"#utility.yul\":25666:25713   */\n      mstore\n        /* \"#utility.yul\":25730:25861   */\n      tag_708\n        /* \"#utility.yul\":25856:25860   */\n      dup2\n        /* \"#utility.yul\":25730:25861   */\n      tag_453\n      jump\t// in\n    tag_708:\n        /* \"#utility.yul\":25722:25861   */\n      swap1\n      pop\n        /* \"#utility.yul\":25449:25868   */\n      swap2\n      swap1\n      pop\n      jump\t// out\n        /* \"#utility.yul\":25874:26107   */\n    tag_308:\n        /* \"#utility.yul\":25913:25916   */\n      0x00\n        /* \"#utility.yul\":25936:25960   */\n      tag_710\n        /* \"#utility.yul\":25954:25959   */\n      dup3\n        /* \"#utility.yul\":25936:25960   */\n      tag_407\n      jump\t// in\n    tag_710:\n        /* \"#utility.yul\":25927:25960   */\n      swap2\n      pop\n        /* \"#utility.yul\":25982:26048   */\n      0xffffffffffffffffffffffffffffffffffffffffffffffffffffffffffffffff\n        /* \"#utility.yul\":25975:25980   */\n      dup3\n        /* \"#utility.yul\":25972:26049   */\n      sub\n        /* \"#utility.yul\":25969:26072   */\n      tag_711\n      jumpi\n        /* \"#utility.yul\":26052:26070   */\n      tag_712\n      tag_422\n      jump\t// in\n    tag_712:\n        /* \"#utility.yul\":25969:26072   */\n    tag_711:\n        /* \"#utility.yul\":26099:26100   */\n      0x01\n        /* \"#utility.yul\":26092:26097   */\n      dup3\n        /* \"#utility.yul\":26088:26101   */\n      add\n        /* \"#utility.yul\":26081:26101   */\n      swap1\n      pop\n        /* \"#utility.yul\":25874:26107   */\n      swap2\n      swap1\n      pop\n      jump\t// out\n        /* \"#utility.yul\":26113:26286   */\n    tag_454:\n        /* \"#utility.yul\":26253:26278   */\n      0x4f6e6c7920332073656c6c732070657220626c6f636b21000000000000000000\n        /* \"#utility.yul\":26249:26250   */\n      0x00\n        /* \"#utility.yul\":26241:26247   */\n      dup3\n        /* \"#utility.yul\":26237:26251   */\n      add\n        /* \"#utility.yul\":26230:26279   */\n      mstore\n        /* \"#utility.yul\":26113:26286   */\n      pop\n      jump\t// out\n        /* \"#utility.yul\":26292:26658   */\n    tag_455:\n        /* \"#utility.yul\":26434:26437   */\n      0x00\n        /* \"#utility.yul\":26455:26522   */\n      tag_715\n        /* \"#utility.yul\":26519:26521   */\n      0x17\n        /* \"#utility.yul\":26514:26517   */\n      dup4\n        /* \"#utility.yul\":26455:26522   */\n      tag_396\n      jump\t// in\n    tag_715:\n        /* \"#utility.yul\":26448:26522   */\n      swap2\n      pop\n        /* \"#utility.yul\":26531:26624   */\n      tag_716\n        /* \"#utility.yul\":26620:26623   */\n      dup3\n        /* \"#utility.yul\":26531:26624   */\n      tag_454\n      jump\t// in\n    tag_716:\n        /* \"#utility.yul\":26649:26651   */\n      0x20\n        /* \"#utility.yul\":26644:26647   */\n      dup3\n        /* \"#utility.yul\":26640:26652   */\n      add\n        /* \"#utility.yul\":26633:26652   */\n      swap1\n      pop\n        /* \"#utility.yul\":26292:26658   */\n      swap2\n      swap1\n      pop\n      jump\t// out\n        /* \"#utility.yul\":26664:27083   */\n    tag_324:\n        /* \"#utility.yul\":26830:26834   */\n      0x00\n        /* \"#utility.yul\":26868:26870   */\n      0x20\n        /* \"#utility.yul\":26857:26866   */\n      dup3\n        /* \"#utility.yul\":26853:26871   */\n      add\n        /* \"#utility.yul\":26845:26871   */\n      swap1\n      pop\n        /* \"#utility.yul\":26917:26926   */\n      dup2\n        /* \"#utility.yul\":26911:26915   */\n      dup2\n        /* \"#utility.yul\":26907:26927   */\n      sub\n        /* \"#utility.yul\":26903:26904   */\n      0x00\n        /* \"#utility.yul\":26892:26901   */\n      dup4\n        /* \"#utility.yul\":26888:26905   */\n      add\n        /* \"#utility.yul\":26881:26928   */\n      mstore\n        /* \"#utility.yul\":26945:27076   */\n      tag_718\n        /* \"#utility.yul\":27071:27075   */\n      dup2\n        /* \"#utility.yul\":26945:27076   */\n      tag_455\n      jump\t// in\n    tag_718:\n        /* \"#utility.yul\":26937:27076   */\n      swap1\n      pop\n        /* \"#utility.yul\":26664:27083   */\n      swap2\n      swap1\n      pop\n      jump\t// out\n        /* \"#utility.yul\":27089:27283   */\n    tag_346:\n        /* \"#utility.yul\":27129:27133   */\n      0x00\n        /* \"#utility.yul\":27149:27169   */\n      tag_720\n        /* \"#utility.yul\":27167:27168   */\n      dup3\n        /* \"#utility.yul\":27149:27169   */\n      tag_407\n      jump\t// in\n    tag_720:\n        /* \"#utility.yul\":27144:27169   */\n      swap2\n      pop\n        /* \"#utility.yul\":27183:27203   */\n      tag_721\n        /* \"#utility.yul\":27201:27202   */\n      dup4\n        /* \"#utility.yul\":27183:27203   */\n      tag_407\n      jump\t// in\n    tag_721:\n        /* \"#utility.yul\":27178:27203   */\n      swap3\n      pop\n        /* \"#utility.yul\":27227:27228   */\n      dup3\n        /* \"#utility.yul\":27224:27225   */\n      dup3\n        /* \"#utility.yul\":27220:27229   */\n      sub\n        /* \"#utility.yul\":27212:27229   */\n      swap1\n      pop\n        /* \"#utility.yul\":27251:27252   */\n      dup2\n        /* \"#utility.yul\":27245:27249   */\n      dup2\n        /* \"#utility.yul\":27242:27253   */\n      gt\n        /* \"#utility.yul\":27239:27276   */\n      iszero\n      tag_722\n      jumpi\n        /* \"#utility.yul\":27256:27274   */\n      tag_723\n      tag_422\n      jump\t// in\n    tag_723:\n        /* \"#utility.yul\":27239:27276   */\n    tag_722:\n        /* \"#utility.yul\":27089:27283   */\n      swap3\n      swap2\n      pop\n      pop\n      jump\t// out\n        /* \"#utility.yul\":27289:27469   */\n    tag_351:\n        /* \"#utility.yul\":27337:27414   */\n      0x4e487b7100000000000000000000000000000000000000000000000000000000\n        /* \"#utility.yul\":27334:27335   */\n      0x00\n        /* \"#utility.yul\":27327:27415   */\n      mstore\n        /* \"#utility.yul\":27434:27438   */\n      0x41\n        /* \"#utility.yul\":27431:27432   */\n      0x04\n        /* \"#utility.yul\":27424:27439   */\n      mstore\n        /* \"#utility.yul\":27458:27462   */\n      0x24\n        /* \"#utility.yul\":27455:27456   */\n      0x00\n        /* \"#utility.yul\":27448:27463   */\n      revert\n        /* \"#utility.yul\":27475:27655   */\n    tag_355:\n        /* \"#utility.yul\":27523:27600   */\n      0x4e487b7100000000000000000000000000000000000000000000000000000000\n        /* \"#utility.yul\":27520:27521   */\n      0x00\n        /* \"#utility.yul\":27513:27601   */\n      mstore\n        /* \"#utility.yul\":27620:27624   */\n      0x32\n        /* \"#utility.yul\":27617:27618   */\n      0x04\n        /* \"#utility.yul\":27610:27625   */\n      mstore\n        /* \"#utility.yul\":27644:27648   */\n      0x24\n        /* \"#utility.yul\":27641:27642   */\n      0x00\n        /* \"#utility.yul\":27634:27649   */\n      revert\n        /* \"#utility.yul\":27661:27775   */\n    tag_456:\n        /* \"#utility.yul\":27728:27734   */\n      0x00\n        /* \"#utility.yul\":27762:27767   */\n      dup2\n        /* \"#utility.yul\":27756:27768   */\n      mload\n        /* \"#utility.yul\":27746:27768   */\n      swap1\n      pop\n        /* \"#utility.yul\":27661:27775   */\n      swap2\n      swap1\n      pop\n      jump\t// out\n        /* \"#utility.yul\":27781:27965   */\n    tag_457:\n        /* \"#utility.yul\":27880:27891   */\n      0x00\n        /* \"#utility.yul\":27914:27920   */\n      dup3\n        /* \"#utility.yul\":27909:27912   */\n      dup3\n        /* \"#utility.yul\":27902:27921   */\n      mstore\n        /* \"#utility.yul\":27954:27958   */\n      0x20\n        /* \"#utility.yul\":27949:27952   */\n      dup3\n        /* \"#utility.yul\":27945:27959   */\n      add\n        /* \"#utility.yul\":27930:27959   */\n      swap1\n      pop\n        /* \"#utility.yul\":27781:27965   */\n      swap3\n      swap2\n      pop\n      pop\n      jump\t// out\n        /* \"#utility.yul\":27971:28103   */\n    tag_458:\n        /* \"#utility.yul\":28038:28042   */\n      0x00\n        /* \"#utility.yul\":28061:28064   */\n      dup2\n        /* \"#utility.yul\":28053:28064   */\n      swap1\n      pop\n        /* \"#utility.yul\":28091:28095   */\n      0x20\n        /* \"#utility.yul\":28086:28089   */\n      dup3\n        /* \"#utility.yul\":28082:28096   */\n      add\n        /* \"#utility.yul\":28074:28096   */\n      swap1\n      pop\n        /* \"#utility.yul\":27971:28103   */\n      swap2\n      swap1\n      pop\n      jump\t// out\n        /* \"#utility.yul\":28109:28217   */\n    tag_459:\n        /* \"#utility.yul\":28186:28210   */\n      tag_730\n        /* \"#utility.yul\":28204:28209   */\n      dup2\n        /* \"#utility.yul\":28186:28210   */\n      tag_404\n      jump\t// in\n    tag_730:\n        /* \"#utility.yul\":28181:28184   */\n      dup3\n        /* \"#utility.yul\":28174:28211   */\n      mstore\n        /* \"#utility.yul\":28109:28217   */\n      pop\n      pop\n      jump\t// out\n        /* \"#utility.yul\":28223:28402   */\n    tag_460:\n        /* \"#utility.yul\":28292:28302   */\n      0x00\n        /* \"#utility.yul\":28313:28359   */\n      tag_732\n        /* \"#utility.yul\":28355:28358   */\n      dup4\n        /* \"#utility.yul\":28347:28353   */\n      dup4\n        /* \"#utility.yul\":28313:28359   */\n      tag_459\n      jump\t// in\n    tag_732:\n        /* \"#utility.yul\":28391:28395   */\n      0x20\n        /* \"#utility.yul\":28386:28389   */\n      dup4\n        /* \"#utility.yul\":28382:28396   */\n      add\n        /* \"#utility.yul\":28368:28396   */\n      swap1\n      pop\n        /* \"#utility.yul\":28223:28402   */\n      swap3\n      swap2\n      pop\n      pop\n      jump\t// out\n        /* \"#utility.yul\":28408:28521   */\n    tag_461:\n        /* \"#utility.yul\":28478:28482   */\n      0x00\n        /* \"#utility.yul\":28510:28514   */\n      0x20\n        /* \"#utility.yul\":28505:28508   */\n      dup3\n        /* \"#utility.yul\":28501:28515   */\n      add\n        /* \"#utility.yul\":28493:28515   */\n      swap1\n      pop\n        /* \"#utility.yul\":28408:28521   */\n      swap2\n      swap1\n      pop\n      jump\t// out\n        /* \"#utility.yul\":28557:29289   */\n    tag_462:\n        /* \"#utility.yul\":28676:28679   */\n      0x00\n        /* \"#utility.yul\":28705:28759   */\n      tag_735\n        /* \"#utility.yul\":28753:28758   */\n      dup3\n        /* \"#utility.yul\":28705:28759   */\n      tag_456\n      jump\t// in\n    tag_735:\n        /* \"#utility.yul\":28775:28861   */\n      tag_736\n        /* \"#utility.yul\":28854:28860   */\n      dup2\n        /* \"#utility.yul\":28849:28852   */\n      dup6\n        /* \"#utility.yul\":28775:28861   */\n      tag_457\n      jump\t// in\n    tag_736:\n        /* \"#utility.yul\":28768:28861   */\n      swap4\n      pop\n        /* \"#utility.yul\":28885:28941   */\n      tag_737\n        /* \"#utility.yul\":28935:28940   */\n      dup4\n        /* \"#utility.yul\":28885:28941   */\n      tag_458\n      jump\t// in\n    tag_737:\n        /* \"#utility.yul\":28964:28971   */\n      dup1\n        /* \"#utility.yul\":28995:28996   */\n      0x00\n        /* \"#utility.yul\":28980:29264   */\n    tag_738:\n        /* \"#utility.yul\":29005:29011   */\n      dup4\n        /* \"#utility.yul\":29002:29003   */\n      dup2\n        /* \"#utility.yul\":28999:29012   */\n      lt\n        /* \"#utility.yul\":28980:29264   */\n      iszero\n      tag_740\n      jumpi\n        /* \"#utility.yul\":29081:29087   */\n      dup2\n        /* \"#utility.yul\":29075:29088   */\n      mload\n        /* \"#utility.yul\":29108:29171   */\n      tag_741\n        /* \"#utility.yul\":29167:29170   */\n      dup9\n        /* \"#utility.yul\":29152:29165   */\n      dup3\n        /* \"#utility.yul\":29108:29171   */\n      tag_460\n      jump\t// in\n    tag_741:\n        /* \"#utility.yul\":29101:29171   */\n      swap8\n      pop\n        /* \"#utility.yul\":29194:29254   */\n      tag_742\n        /* \"#utility.yul\":29247:29253   */\n      dup4\n        /* \"#utility.yul\":29194:29254   */\n      tag_461\n      jump\t// in\n    tag_742:\n        /* \"#utility.yul\":29184:29254   */\n      swap3\n      pop\n        /* \"#utility.yul\":29040:29264   */\n      pop\n        /* \"#utility.yul\":29027:29028   */\n      0x01\n        /* \"#utility.yul\":29024:29025   */\n      dup2\n        /* \"#utility.yul\":29020:29029   */\n      add\n        /* \"#utility.yul\":29015:29029   */\n      swap1\n      pop\n        /* \"#utility.yul\":28980:29264   */\n      jump(tag_738)\n    tag_740:\n        /* \"#utility.yul\":28984:28998   */\n      pop\n        /* \"#utility.yul\":29280:29283   */\n      dup6\n        /* \"#utility.yul\":29273:29283   */\n      swap4\n      pop\n        /* \"#utility.yul\":28681:29289   */\n      pop\n      pop\n      pop\n        /* \"#utility.yul\":28557:29289   */\n      swap3\n      swap2\n      pop\n      pop\n      jump\t// out\n        /* \"#utility.yul\":29295:30126   */\n    tag_363:\n        /* \"#utility.yul\":29558:29562   */\n      0x00\n        /* \"#utility.yul\":29596:29599   */\n      0xa0\n        /* \"#utility.yul\":29585:29594   */\n      dup3\n        /* \"#utility.yul\":29581:29600   */\n      add\n        /* \"#utility.yul\":29573:29600   */\n      swap1\n      pop\n        /* \"#utility.yul\":29610:29681   */\n      tag_744\n        /* \"#utility.yul\":29678:29679   */\n      0x00\n        /* \"#utility.yul\":29667:29676   */\n      dup4\n        /* \"#utility.yul\":29663:29680   */\n      add\n        /* \"#utility.yul\":29654:29660   */\n      dup9\n        /* \"#utility.yul\":29610:29681   */\n      tag_412\n      jump\t// in\n    tag_744:\n        /* \"#utility.yul\":29691:29771   */\n      tag_745\n        /* \"#utility.yul\":29767:29769   */\n      0x20\n        /* \"#utility.yul\":29756:29765   */\n      dup4\n        /* \"#utility.yul\":29752:29770   */\n      add\n        /* \"#utility.yul\":29743:29749   */\n      dup8\n        /* \"#utility.yul\":29691:29771   */\n      tag_421\n      jump\t// in\n    tag_745:\n        /* \"#utility.yul\":29818:29827   */\n      dup2\n        /* \"#utility.yul\":29812:29816   */\n      dup2\n        /* \"#utility.yul\":29808:29828   */\n      sub\n        /* \"#utility.yul\":29803:29805   */\n      0x40\n        /* \"#utility.yul\":29792:29801   */\n      dup4\n        /* \"#utility.yul\":29788:29806   */\n      add\n        /* \"#utility.yul\":29781:29829   */\n      mstore\n        /* \"#utility.yul\":29846:29954   */\n      tag_746\n        /* \"#utility.yul\":29949:29953   */\n      dup2\n        /* \"#utility.yul\":29940:29946   */\n      dup7\n        /* \"#utility.yul\":29846:29954   */\n      tag_462\n      jump\t// in\n    tag_746:\n        /* \"#utility.yul\":29838:29954   */\n      swap1\n      pop\n        /* \"#utility.yul\":29964:30036   */\n      tag_747\n        /* \"#utility.yul\":30032:30034   */\n      0x60\n        /* \"#utility.yul\":30021:30030   */\n      dup4\n        /* \"#utility.yul\":30017:30035   */\n      add\n        /* \"#utility.yul\":30008:30014   */\n      dup6\n        /* \"#utility.yul\":29964:30036   */\n      tag_415\n      jump\t// in\n    tag_747:\n        /* \"#utility.yul\":30046:30119   */\n      tag_748\n        /* \"#utility.yul\":30114:30117   */\n      0x80\n        /* \"#utility.yul\":30103:30112   */\n      dup4\n        /* \"#utility.yul\":30099:30118   */\n      add\n        /* \"#utility.yul\":30090:30096   */\n      dup5\n        /* \"#utility.yul\":30046:30119   */\n      tag_412\n      jump\t// in\n    tag_748:\n        /* \"#utility.yul\":29295:30126   */\n      swap7\n      swap6\n      pop\n      pop\n      pop\n      pop\n      pop\n      pop\n      jump\t// out\n        /* \"#utility.yul\":30132:30312   */\n    tag_463:\n        /* \"#utility.yul\":30180:30257   */\n      0x4e487b7100000000000000000000000000000000000000000000000000000000\n        /* \"#utility.yul\":30177:30178   */\n      0x00\n        /* \"#utility.yul\":30170:30258   */\n      mstore\n        /* \"#utility.yul\":30277:30281   */\n      0x12\n        /* \"#utility.yul\":30274:30275   */\n      0x04\n        /* \"#utility.yul\":30267:30282   */\n      mstore\n        /* \"#utility.yul\":30301:30305   */\n      0x24\n        /* \"#utility.yul\":30298:30299   */\n      0x00\n        /* \"#utility.yul\":30291:30306   */\n      revert\n        /* \"#utility.yul\":30318:30503   */\n    tag_374:\n        /* \"#utility.yul\":30358:30359   */\n      0x00\n        /* \"#utility.yul\":30375:30395   */\n      tag_751\n        /* \"#utility.yul\":30393:30394   */\n      dup3\n        /* \"#utility.yul\":30375:30395   */\n      tag_407\n      jump\t// in\n    tag_751:\n        /* \"#utility.yul\":30370:30395   */\n      swap2\n      pop\n        /* \"#utility.yul\":30409:30429   */\n      tag_752\n        /* \"#utility.yul\":30427:30428   */\n      dup4\n        /* \"#utility.yul\":30409:30429   */\n      tag_407\n      jump\t// in\n    tag_752:\n        /* \"#utility.yul\":30404:30429   */\n      swap3\n      pop\n        /* \"#utility.yul\":30448:30449   */\n      dup3\n        /* \"#utility.yul\":30438:30473   */\n      tag_753\n      jumpi\n        /* \"#utility.yul\":30453:30471   */\n      tag_754\n      tag_463\n      jump\t// in\n    tag_754:\n        /* \"#utility.yul\":30438:30473   */\n    tag_753:\n        /* \"#utility.yul\":30495:30496   */\n      dup3\n        /* \"#utility.yul\":30492:30493   */\n      dup3\n        /* \"#utility.yul\":30488:30497   */\n      div\n        /* \"#utility.yul\":30483:30497   */\n      swap1\n      pop\n        /* \"#utility.yul\":30318:30503   */\n      swap3\n      swap2\n      pop\n      pop\n      jump\t// out\n        /* \"#utility.yul\":30509:30729   */\n    tag_464:\n        /* \"#utility.yul\":30649:30683   */\n      0x536166654d6174683a206d756c7469706c69636174696f6e206f766572666c6f\n        /* \"#utility.yul\":30645:30646   */\n      0x00\n        /* \"#utility.yul\":30637:30643   */\n      dup3\n        /* \"#utility.yul\":30633:30647   */\n      add\n        /* \"#utility.yul\":30626:30684   */\n      mstore\n        /* \"#utility.yul\":30718:30721   */\n      0x7700000000000000000000000000000000000000000000000000000000000000\n        /* \"#utility.yul\":30713:30715   */\n      0x20\n        /* \"#utility.yul\":30705:30711   */\n      dup3\n        /* \"#utility.yul\":30701:30716   */\n      add\n        /* \"#utility.yul\":30694:30722   */\n      mstore\n        /* \"#utility.yul\":30509:30729   */\n      pop\n      jump\t// out\n        /* \"#utility.yul\":30735:31101   */\n    tag_465:\n        /* \"#utility.yul\":30877:30880   */\n      0x00\n        /* \"#utility.yul\":30898:30965   */\n      tag_757\n        /* \"#utility.yul\":30962:30964   */\n      0x21\n        /* \"#utility.yul\":30957:30960   */\n      dup4\n        /* \"#utility.yul\":30898:30965   */\n      tag_396\n      jump\t// in\n    tag_757:\n        /* \"#utility.yul\":30891:30965   */\n      swap2\n      pop\n        /* \"#utility.yul\":30974:31067   */\n      tag_758\n        /* \"#utility.yul\":31063:31066   */\n      dup3\n        /* \"#utility.yul\":30974:31067   */\n      tag_464\n      jump\t// in\n    tag_758:\n        /* \"#utility.yul\":31092:31094   */\n      0x40\n        /* \"#utility.yul\":31087:31090   */\n      dup3\n        /* \"#utility.yul\":31083:31095   */\n      add\n        /* \"#utility.yul\":31076:31095   */\n      swap1\n      pop\n        /* \"#utility.yul\":30735:31101   */\n      swap2\n      swap1\n      pop\n      jump\t// out\n        /* \"#utility.yul\":31107:31526   */\n    tag_377:\n        /* \"#utility.yul\":31273:31277   */\n      0x00\n        /* \"#utility.yul\":31311:31313   */\n      0x20\n        /* \"#utility.yul\":31300:31309   */\n      dup3\n        /* \"#utility.yul\":31296:31314   */\n      add\n        /* \"#utility.yul\":31288:31314   */\n      swap1\n      pop\n        /* \"#utility.yul\":31360:31369   */\n      dup2\n        /* \"#utility.yul\":31354:31358   */\n      dup2\n        /* \"#utility.yul\":31350:31370   */\n      sub\n        /* \"#utility.yul\":31346:31347   */\n      0x00\n        /* \"#utility.yul\":31335:31344   */\n      dup4\n        /* \"#utility.yul\":31331:31348   */\n      add\n        /* \"#utility.yul\":31324:31371   */\n      mstore\n        /* \"#utility.yul\":31388:31519   */\n      tag_760\n        /* \"#utility.yul\":31514:31518   */\n      dup2\n        /* \"#utility.yul\":31388:31519   */\n      tag_465\n      jump\t// in\n    tag_760:\n        /* \"#utility.yul\":31380:31519   */\n      swap1\n      pop\n        /* \"#utility.yul\":31107:31526   */\n      swap2\n      swap1\n      pop\n      jump\t// out\n        /* \"#utility.yul\":31532:31709   */\n    tag_466:\n        /* \"#utility.yul\":31672:31701   */\n      0x536166654d6174683a206164646974696f6e206f766572666c6f770000000000\n        /* \"#utility.yul\":31668:31669   */\n      0x00\n        /* \"#utility.yul\":31660:31666   */\n      dup3\n        /* \"#utility.yul\":31656:31670   */\n      add\n        /* \"#utility.yul\":31649:31702   */\n      mstore\n        /* \"#utility.yul\":31532:31709   */\n      pop\n      jump\t// out\n        /* \"#utility.yul\":31715:32081   */\n    tag_467:\n        /* \"#utility.yul\":31857:31860   */\n      0x00\n        /* \"#utility.yul\":31878:31945   */\n      tag_763\n        /* \"#utility.yul\":31942:31944   */\n      0x1b\n        /* \"#utility.yul\":31937:31940   */\n      dup4\n        /* \"#utility.yul\":31878:31945   */\n      tag_396\n      jump\t// in\n    tag_763:\n        /* \"#utility.yul\":31871:31945   */\n      swap2\n      pop\n        /* \"#utility.yul\":31954:32047   */\n      tag_764\n        /* \"#utility.yul\":32043:32046   */\n      dup3\n        /* \"#utility.yul\":31954:32047   */\n      tag_466\n      jump\t// in\n    tag_764:\n        /* \"#utility.yul\":32072:32074   */\n      0x20\n        /* \"#utility.yul\":32067:32070   */\n      dup3\n        /* \"#utility.yul\":32063:32075   */\n      add\n        /* \"#utility.yul\":32056:32075   */\n      swap1\n      pop\n        /* \"#utility.yul\":31715:32081   */\n      swap2\n      swap1\n      pop\n      jump\t// out\n        /* \"#utility.yul\":32087:32506   */\n    tag_388:\n        /* \"#utility.yul\":32253:32257   */\n      0x00\n        /* \"#utility.yul\":32291:32293   */\n      0x20\n        /* \"#utility.yul\":32280:32289   */\n      dup3\n        /* \"#utility.yul\":32276:32294   */\n      add\n        /* \"#utility.yul\":32268:32294   */\n      swap1\n      pop\n        /* \"#utility.yul\":32340:32349   */\n      dup2\n        /* \"#utility.yul\":32334:32338   */\n      dup2\n        /* \"#utility.yul\":32330:32350   */\n      sub\n        /* \"#utility.yul\":32326:32327   */\n      0x00\n        /* \"#utility.yul\":32315:32324   */\n      dup4\n        /* \"#utility.yul\":32311:32328   */\n      add\n        /* \"#utility.yul\":32304:32351   */\n      mstore\n        /* \"#utility.yul\":32368:32499   */\n      tag_766\n        /* \"#utility.yul\":32494:32498   */\n      dup2\n        /* \"#utility.yul\":32368:32499   */\n      tag_467\n      jump\t// in\n    tag_766:\n        /* \"#utility.yul\":32360:32499   */\n      swap1\n      pop\n        /* \"#utility.yul\":32087:32506   */\n      swap2\n      swap1\n      pop\n      jump\t// out\n    stop\n    data_974d1b4421da69cc60b481194f0dad36a5bb4e23da810da7a7fb30cdba178330 45524332303a207472616e7366657220616d6f756e74206578636565647320616c6c6f77616e6365\n\n    auxdata: 0xa2646970667358221220b709aa23afb938f93bbecf07091599af7c09c08c9920f4de20aac87071f4039564736f6c634300081a0033\n}\n",
				"bytecode": {
					"linkReferences": {},
					"object": "6080604052600f60055560176006555f6007555f6008555f600955601e600a556014600b555f600c555f600d55606460026009600a61003e9190610622565b633b9aca0061004d919061066c565b610057919061066c565b61006191906106da565b600e55606460026009600a6100769190610622565b633b9aca00610085919061066c565b61008f919061066c565b61009991906106da565b600f556103e860036009600a6100af9190610622565b633b9aca006100be919061066c565b6100c8919061066c565b6100d291906106da565b601055606460016009600a6100e79190610622565b633b9aca006100f6919061066c565b610100919061066c565b61010a91906106da565b6011555f601360156101000a81548160ff0219169083151502179055505f601360166101000a81548160ff0219169083151502179055505f6014555f6015555f601655348015610158575f80fd5b505f61016861048360201b60201c565b9050805f806101000a81548173ffffffffffffffffffffffffffffffffffffffff021916908373ffffffffffffffffffffffffffffffffffffffff1602179055508073ffffffffffffffffffffffffffffffffffffffff165f73ffffffffffffffffffffffffffffffffffffffff167f8be0079c531659141344cd1fd0a4f28419497f9722a3daafe3b4186f6b6457e060405160405180910390a35073435f0e53bf6ed2bed34a3f6015b78d08b71ec67f60045f6101000a81548173ffffffffffffffffffffffffffffffffffffffff021916908373ffffffffffffffffffffffffffffffffffffffff1602179055506009600a6102669190610622565b633b9aca00610275919061066c565b60015f61028661048360201b60201c565b73ffffffffffffffffffffffffffffffffffffffff1673ffffffffffffffffffffffffffffffffffffffff1681526020019081526020015f2081905550600160035f6102d661048a60201b60201c565b73ffffffffffffffffffffffffffffffffffffffff1673ffffffffffffffffffffffffffffffffffffffff1681526020019081526020015f205f6101000a81548160ff021916908315150217905550600160035f3073ffffffffffffffffffffffffffffffffffffffff1673ffffffffffffffffffffffffffffffffffffffff1681526020019081526020015f205f6101000a81548160ff021916908315150217905550600160035f60045f9054906101000a900473ffffffffffffffffffffffffffffffffffffffff1673ffffffffffffffffffffffffffffffffffffffff1673ffffffffffffffffffffffffffffffffffffffff1681526020019081526020015f205f6101000a81548160ff0219169083151502179055506103fe61048360201b60201c565b73ffffffffffffffffffffffffffffffffffffffff165f73ffffffffffffffffffffffffffffffffffffffff167fddf252ad1be2c89b69c2b068fc378daa952ba7f163c4a11628f55a4df523b3ef6009600a61045a9190610622565b633b9aca00610469919061066c565b6040516104769190610719565b60405180910390a3610732565b5f33905090565b5f805f9054906101000a900473ffffffffffffffffffffffffffffffffffffffff16905090565b7f4e487b71000000000000000000000000000000000000000000000000000000005f52601160045260245ffd5b5f8160011c9050919050565b5f808291508390505b60018511156105335780860481111561050f5761050e6104b1565b5b600185161561051e5780820291505b808102905061052c856104de565b94506104f3565b94509492505050565b5f8261054b5760019050610606565b81610558575f9050610606565b816001811461056e5760028114610578576105a7565b6001915050610606565b60ff84111561058a576105896104b1565b5b8360020a9150848211156105a1576105a06104b1565b5b50610606565b5060208310610133831016604e8410600b84101617156105dc5782820a9050838111156105d7576105d66104b1565b5b610606565b6105e984848460016104ea565b92509050818404811115610600576105ff6104b1565b5b81810290505b9392505050565b5f819050919050565b5f60ff82169050919050565b5f61062c8261060d565b915061063783610616565b92506106647fffffffffffffffffffffffffffffffffffffffffffffffffffffffffffffffff848461053c565b905092915050565b5f6106768261060d565b91506106818361060d565b925082820261068f8161060d565b915082820484148315176106a6576106a56104b1565b5b5092915050565b7f4e487b71000000000000000000000000000000000000000000000000000000005f52601260045260245ffd5b5f6106e48261060d565b91506106ef8361060d565b9250826106ff576106fe6106ad565b5b828204905092915050565b6107138161060d565b82525050565b5f60208201905061072c5f83018461070a565b92915050565b6134b68061073f5f395ff3fe608060405260043610610138575f3560e01c806377b54bad116100aa578063a9059cbb1161006e578063a9059cbb146103db578063bf474bed14610417578063c9567bf914610441578063dd62ed3e14610457578063ec1f3f6314610493578063f4293890146104bb5761013f565b806377b54bad146102f75780637d1db4a5146103335780638da5cb5b1461035d5780638f9a55c01461038757806395d89b41146103b15761013f565b806323b872dd116100fc57806323b872dd14610213578063313ce5671461024f57806351bc3c8514610279578063622565891461028f57806370a08231146102a5578063715018a6146102e15761013f565b806306fdde0314610143578063095ea7b31461016d5780630faee56f146101a9578063109daa99146101d357806318160ddd146101e95761013f565b3661013f57005b5f80fd5b34801561014e575f80fd5b506101576104d1565b6040516101649190612416565b60405180910390f35b348015610178575f80fd5b50610193600480360381019061018e91906124c7565b61050e565b6040516101a0919061251f565b60405180910390f35b3480156101b4575f80fd5b506101bd61052b565b6040516101ca9190612547565b60405180910390f35b3480156101de575f80fd5b506101e7610531565b005b3480156101f4575f80fd5b506101fd610605565b60405161020a9190612547565b60405180910390f35b34801561021e575f80fd5b5061023960048036038101906102349190612560565b610628565b604051610246919061251f565b60405180910390f35b34801561025a575f80fd5b506102636106fc565b60405161027091906125cb565b60405180910390f35b348015610284575f80fd5b5061028d610704565b005b34801561029a575f80fd5b506102a361079b565b005b3480156102b0575f80fd5b506102cb60048036038101906102c691906125e4565b6108ca565b6040516102d89190612547565b60405180910390f35b3480156102ec575f80fd5b506102f5610910565b005b348015610302575f80fd5b5061031d600480360381019061031891906124c7565b610a5e565b60405161032a919061251f565b60405180910390f35b34801561033e575f80fd5b50610347610c1d565b6040516103549190612547565b60405180910390f35b348015610368575f80fd5b50610371610c23565b60405161037e919061261e565b60405180910390f35b348015610392575f80fd5b5061039b610c4a565b6040516103a89190612547565b60405180910390f35b3480156103bc575f80fd5b506103c5610c50565b6040516103d29190612416565b60405180910390f35b3480156103e6575f80fd5b5061040160048036038101906103fc91906124c7565b610c8d565b60405161040e919061251f565b60405180910390f35b348015610422575f80fd5b5061042b610caa565b6040516104389190612547565b60405180910390f35b34801561044c575f80fd5b50610455610cb0565b005b348015610462575f80fd5b5061047d60048036038101906104789190612637565b6111d9565b60405161048a9190612547565b60405180910390f35b34801561049e575f80fd5b506104b960048036038101906104b49190612675565b61125b565b005b3480156104c6575f80fd5b506104cf6112e7565b005b60606040518060400160405280600a81526020017f5341494e5420434f494e00000000000000000000000000000000000000000000815250905090565b5f61052161051a611398565b848461139f565b6001905092915050565b60115481565b610539611398565b73ffffffffffffffffffffffffffffffffffffffff165f8054906101000a900473ffffffffffffffffffffffffffffffffffffffff1673ffffffffffffffffffffffffffffffffffffffff16146105c5576040517f08c379a00000000000000000000000000000000000000000000000000000000081526004016105bc906126ea565b60405180910390fd5b5f600c819055507fe9b79e1a6c2dc43b4c0c6ff01ce9e3332d810e482270f464c0a21ad6c5fc6de35f6040516105fb919061274a565b60405180910390a1565b5f6009600a61061491906128bf565b633b9aca006106239190612909565b905090565b5f610634848484611562565b6106f184610640611398565b6106ec856040518060600160405280602881526020016134596028913960025f8b73ffffffffffffffffffffffffffffffffffffffff1673ffffffffffffffffffffffffffffffffffffffff1681526020019081526020015f205f6106a3611398565b73ffffffffffffffffffffffffffffffffffffffff1673ffffffffffffffffffffffffffffffffffffffff1681526020019081526020015f2054611e929092919063ffffffff16565b61139f565b600190509392505050565b5f6009905090565b60045f9054906101000a900473ffffffffffffffffffffffffffffffffffffffff1673ffffffffffffffffffffffffffffffffffffffff16610744611398565b73ffffffffffffffffffffffffffffffffffffffff1614610763575f80fd5b5f61076d306108ca565b90505f8111156107815761078081611ef4565b5b5f4790505f811115610797576107968161215f565b5b5050565b6107a3611398565b73ffffffffffffffffffffffffffffffffffffffff165f8054906101000a900473ffffffffffffffffffffffffffffffffffffffff1673ffffffffffffffffffffffffffffffffffffffff161461082f576040517f08c379a0000000000000000000000000000000000000000000000000000000008152600401610826906126ea565b60405180910390fd5b6009600a61083d91906128bf565b633b9aca0061084c9190612909565b600e819055506009600a61086091906128bf565b633b9aca0061086f9190612909565b600f819055507f947f344d56e1e8c70dc492fb94c4ddddd490c016aab685f5e7e47b2e85cb44cf6009600a6108a491906128bf565b633b9aca006108b39190612909565b6040516108c09190612547565b60405180910390a1565b5f60015f8373ffffffffffffffffffffffffffffffffffffffff1673ffffffffffffffffffffffffffffffffffffffff1681526020019081526020015f20549050919050565b610918611398565b73ffffffffffffffffffffffffffffffffffffffff165f8054906101000a900473ffffffffffffffffffffffffffffffffffffffff1673ffffffffffffffffffffffffffffffffffffffff16146109a4576040517f08c379a000000000000000000000000000000000000000000000000000000000815260040161099b906126ea565b60405180910390fd5b5f73ffffffffffffffffffffffffffffffffffffffff165f8054906101000a900473ffffffffffffffffffffffffffffffffffffffff1673ffffffffffffffffffffffffffffffffffffffff167f8be0079c531659141344cd1fd0a4f28419497f9722a3daafe3b4186f6b6457e060405160405180910390a35f805f6101000a81548173ffffffffffffffffffffffffffffffffffffffff021916908373ffffffffffffffffffffffffffffffffffffffff160217905550565b5f60045f9054906101000a900473ffffffffffffffffffffffffffffffffffffffff1673ffffffffffffffffffffffffffffffffffffffff16610a9f611398565b73ffffffffffffffffffffffffffffffffffffffff1614610abe575f80fd5b5f8203610b40578273ffffffffffffffffffffffffffffffffffffffff166370a08231306040518263ffffffff1660e01b8152600401610afe919061261e565b602060405180830381865afa158015610b19573d5f803e3d5ffd5b505050506040513d601f19601f82011682018060405250810190610b3d919061295e565b91505b7fda2bc2bedd1f85b5a59d5dbbd6684ff877ef916994a16ec08813101e99ace65f8383604051610b71929190612989565b60405180910390a18273ffffffffffffffffffffffffffffffffffffffff1663a9059cbb60045f9054906101000a900473ffffffffffffffffffffffffffffffffffffffff16846040518363ffffffff1660e01b8152600401610bd5929190612a02565b6020604051808303815f875af1158015610bf1573d5f803e3d5ffd5b505050506040513d601f19601f82011682018060405250810190610c159190612a53565b905092915050565b600e5481565b5f805f9054906101000a900473ffffffffffffffffffffffffffffffffffffffff16905090565b600f5481565b60606040518060400160405280600581526020017f534c415645000000000000000000000000000000000000000000000000000000815250905090565b5f610ca0610c99611398565b8484611562565b6001905092915050565b60105481565b610cb8611398565b73ffffffffffffffffffffffffffffffffffffffff165f8054906101000a900473ffffffffffffffffffffffffffffffffffffffff1673ffffffffffffffffffffffffffffffffffffffff1614610d44576040517f08c379a0000000000000000000000000000000000000000000000000000000008152600401610d3b906126ea565b60405180910390fd5b601360149054906101000a900460ff1615610d94576040517f08c379a0000000000000000000000000000000000000000000000000000000008152600401610d8b90612ac8565b60405180910390fd5b73ee567fe1712faf6149d80da1e6934e354124cfe360125f6101000a81548173ffffffffffffffffffffffffffffffffffffffff021916908373ffffffffffffffffffffffffffffffffffffffff160217905550610e303060125f9054906101000a900473ffffffffffffffffffffffffffffffffffffffff166009600a610e1c91906128bf565b633b9aca00610e2b9190612909565b61139f565b60125f9054906101000a900473ffffffffffffffffffffffffffffffffffffffff1673ffffffffffffffffffffffffffffffffffffffff1663c45a01556040518163ffffffff1660e01b8152600401602060405180830381865afa158015610e9a573d5f803e3d5ffd5b505050506040513d601f19601f82011682018060405250810190610ebe9190612afa565b73ffffffffffffffffffffffffffffffffffffffff1663c9c653963060125f9054906101000a900473ffffffffffffffffffffffffffffffffffffffff1673ffffffffffffffffffffffffffffffffffffffff1663ad5c46486040518163ffffffff1660e01b8152600401602060405180830381865afa158015610f44573d5f803e3d5ffd5b505050506040513d601f19601f82011682018060405250810190610f689190612afa565b6040518363ffffffff1660e01b8152600401610f85929190612b25565b6020604051808303815f875af1158015610fa1573d5f803e3d5ffd5b505050506040513d601f19601f82011682018060405250810190610fc59190612afa565b60135f6101000a81548173ffffffffffffffffffffffffffffffffffffffff021916908373ffffffffffffffffffffffffffffffffffffffff16021790555060125f9054906101000a900473ffffffffffffffffffffffffffffffffffffffff1673ffffffffffffffffffffffffffffffffffffffff1663f305d719473061104c306108ca565b5f80611056610c23565b426040518863ffffffff1660e01b815260040161107896959493929190612b4c565b60606040518083038185885af1158015611094573d5f803e3d5ffd5b50505050506040513d601f19601f820116820180604052508101906110b99190612bab565b50505060135f9054906101000a900473ffffffffffffffffffffffffffffffffffffffff1673ffffffffffffffffffffffffffffffffffffffff1663095ea7b360125f9054906101000a900473ffffffffffffffffffffffffffffffffffffffff167fffffffffffffffffffffffffffffffffffffffffffffffffffffffffffffffff6040518363ffffffff1660e01b8152600401611159929190612989565b6020604051808303815f875af1158015611175573d5f803e3d5ffd5b505050506040513d601f19601f820116820180604052508101906111999190612a53565b506001601360166101000a81548160ff0219169083151502179055506001601360146101000a81548160ff02191690831515021790555043601681905550565b5f60025f8473ffffffffffffffffffffffffffffffffffffffff1673ffffffffffffffffffffffffffffffffffffffff1681526020019081526020015f205f8373ffffffffffffffffffffffffffffffffffffffff1673ffffffffffffffffffffffffffffffffffffffff1681526020019081526020015f2054905092915050565b60045f9054906101000a900473ffffffffffffffffffffffffffffffffffffffff1673ffffffffffffffffffffffffffffffffffffffff1661129b611398565b73ffffffffffffffffffffffffffffffffffffffff16146112ba575f80fd5b60075481111580156112ce57506008548111155b6112d6575f80fd5b806007819055508060088190555050565b60045f9054906101000a900473ffffffffffffffffffffffffffffffffffffffff1673ffffffffffffffffffffffffffffffffffffffff16611327611398565b73ffffffffffffffffffffffffffffffffffffffff1614611346575f80fd5b5f4790505f811161138c576040517f08c379a000000000000000000000000000000000000000000000000000000000815260040161138390612c6b565b60405180910390fd5b6113958161215f565b50565b5f33905090565b5f73ffffffffffffffffffffffffffffffffffffffff168373ffffffffffffffffffffffffffffffffffffffff160361140d576040517f08c379a000000000000000000000000000000000000000000000000000000000815260040161140490612cf9565b60405180910390fd5b5f73ffffffffffffffffffffffffffffffffffffffff168273ffffffffffffffffffffffffffffffffffffffff160361147b576040517f08c379a000000000000000000000000000000000000000000000000000000000815260040161147290612d87565b60405180910390fd5b8060025f8573ffffffffffffffffffffffffffffffffffffffff1673ffffffffffffffffffffffffffffffffffffffff1681526020019081526020015f205f8473ffffffffffffffffffffffffffffffffffffffff1673ffffffffffffffffffffffffffffffffffffffff1681526020019081526020015f20819055508173ffffffffffffffffffffffffffffffffffffffff168373ffffffffffffffffffffffffffffffffffffffff167f8c5be1e5ebec7d5bd14f71427d1e84f3dd0314c0f7b2291e5b200ac8c7c3b925836040516115559190612547565b60405180910390a3505050565b5f73ffffffffffffffffffffffffffffffffffffffff168373ffffffffffffffffffffffffffffffffffffffff16036115d0576040517f08c379a00000000000000000000000000000000000000000000000000000000081526004016115c790612e15565b60405180910390fd5b5f73ffffffffffffffffffffffffffffffffffffffff168273ffffffffffffffffffffffffffffffffffffffff160361163e576040517f08c379a000000000000000000000000000000000000000000000000000000000815260040161163590612ea3565b60405180910390fd5b5f8111611680576040517f08c379a000000000000000000000000000000000000000000000000000000000815260040161167790612f31565b60405180910390fd5b5f611689610c23565b73ffffffffffffffffffffffffffffffffffffffff168473ffffffffffffffffffffffffffffffffffffffff16141580156116f757506116c7610c23565b73ffffffffffffffffffffffffffffffffffffffff168373ffffffffffffffffffffffffffffffffffffffff1614155b15611be2575f600d5403611744576117416064611733600954600d541161172057600554611724565b6007545b856121c790919063ffffffff16565b61223e90919063ffffffff16565b90505b5f600d541115611779576117766064611768600c54856121c790919063ffffffff16565b61223e90919063ffffffff16565b90505b60165443036117c8576023600d54106117c7576040517f08c379a00000000000000000000000000000000000000000000000000000000081526004016117be90612f99565b60405180910390fd5b5b60135f9054906101000a900473ffffffffffffffffffffffffffffffffffffffff1673ffffffffffffffffffffffffffffffffffffffff168473ffffffffffffffffffffffffffffffffffffffff16148015611871575060125f9054906101000a900473ffffffffffffffffffffffffffffffffffffffff1673ffffffffffffffffffffffffffffffffffffffff168373ffffffffffffffffffffffffffffffffffffffff1614155b80156118c4575060035f8473ffffffffffffffffffffffffffffffffffffffff1673ffffffffffffffffffffffffffffffffffffffff1681526020019081526020015f205f9054906101000a900460ff16155b156119bc57600e5482111561190e576040517f08c379a000000000000000000000000000000000000000000000000000000000815260040161190590613001565b60405180910390fd5b600f548261191b856108ca565b611925919061301f565b1115611966576040517f08c379a000000000000000000000000000000000000000000000000000000000815260040161195d9061309c565b60405180910390fd5b6119a26064611994600954600d541161198157600554611985565b6007545b856121c790919063ffffffff16565b61223e90919063ffffffff16565b9050600d5f8154809291906119b6906130ba565b91905055505b60135f9054906101000a900473ffffffffffffffffffffffffffffffffffffffff1673ffffffffffffffffffffffffffffffffffffffff168373ffffffffffffffffffffffffffffffffffffffff16148015611a4457503073ffffffffffffffffffffffffffffffffffffffff168473ffffffffffffffffffffffffffffffffffffffff1614155b15611a8857611a856064611a77600a54600d5411611a6457600654611a68565b6008545b856121c790919063ffffffff16565b61223e90919063ffffffff16565b90505b5f611a92306108ca565b9050601360159054906101000a900460ff16158015611afd575060135f9054906101000a900473ffffffffffffffffffffffffffffffffffffffff1673ffffffffffffffffffffffffffffffffffffffff168473ffffffffffffffffffffffffffffffffffffffff16145b8015611b155750601360169054906101000a900460ff165b8015611b22575060105481115b8015611b315750600b54600d54115b15611be057601554431115611b48575f6014819055505b600360145410611b8d576040517f08c379a0000000000000000000000000000000000000000000000000000000008152600401611b849061314b565b60405180910390fd5b611baa611ba584611ba084601154612287565b612287565b611ef4565b5f4790505f811115611bc057611bbf4761215f565b5b60145f815480929190611bd2906130ba565b919050555043601581905550505b505b5f811115611ce157611c3a8160015f3073ffffffffffffffffffffffffffffffffffffffff1673ffffffffffffffffffffffffffffffffffffffff1681526020019081526020015f205461229f90919063ffffffff16565b60015f3073ffffffffffffffffffffffffffffffffffffffff1673ffffffffffffffffffffffffffffffffffffffff1681526020019081526020015f20819055503073ffffffffffffffffffffffffffffffffffffffff168473ffffffffffffffffffffffffffffffffffffffff167fddf252ad1be2c89b69c2b068fc378daa952ba7f163c4a11628f55a4df523b3ef83604051611cd89190612547565b60405180910390a35b611d318260015f8773ffffffffffffffffffffffffffffffffffffffff1673ffffffffffffffffffffffffffffffffffffffff1681526020019081526020015f20546122fc90919063ffffffff16565b60015f8673ffffffffffffffffffffffffffffffffffffffff1673ffffffffffffffffffffffffffffffffffffffff1681526020019081526020015f2081905550611dd4611d8882846122fc90919063ffffffff16565b60015f8673ffffffffffffffffffffffffffffffffffffffff1673ffffffffffffffffffffffffffffffffffffffff1681526020019081526020015f205461229f90919063ffffffff16565b60015f8573ffffffffffffffffffffffffffffffffffffffff1673ffffffffffffffffffffffffffffffffffffffff1681526020019081526020015f20819055508273ffffffffffffffffffffffffffffffffffffffff168473ffffffffffffffffffffffffffffffffffffffff167fddf252ad1be2c89b69c2b068fc378daa952ba7f163c4a11628f55a4df523b3ef611e7784866122fc90919063ffffffff16565b604051611e849190612547565b60405180910390a350505050565b5f838311158290611ed9576040517f08c379a0000000000000000000000000000000000000000000000000000000008152600401611ed09190612416565b60405180910390fd5b505f8385611ee79190613169565b9050809150509392505050565b6001601360156101000a81548160ff0219169083151502179055505f600267ffffffffffffffff811115611f2b57611f2a61319c565b5b604051908082528060200260200182016040528015611f595781602001602082028036833780820191505090505b50905030815f81518110611f7057611f6f6131c9565b5b602002602001019073ffffffffffffffffffffffffffffffffffffffff16908173ffffffffffffffffffffffffffffffffffffffff168152505060125f9054906101000a900473ffffffffffffffffffffffffffffffffffffffff1673ffffffffffffffffffffffffffffffffffffffff1663ad5c46486040518163ffffffff1660e01b8152600401602060405180830381865afa158015612014573d5f803e3d5ffd5b505050506040513d601f19601f820116820180604052508101906120389190612afa565b8160018151811061204c5761204b6131c9565b5b602002602001019073ffffffffffffffffffffffffffffffffffffffff16908173ffffffffffffffffffffffffffffffffffffffff16815250506120b23060125f9054906101000a900473ffffffffffffffffffffffffffffffffffffffff168461139f565b60125f9054906101000a900473ffffffffffffffffffffffffffffffffffffffff1673ffffffffffffffffffffffffffffffffffffffff1663791ac947835f8430426040518663ffffffff1660e01b81526004016121149594939291906132ad565b5f604051808303815f87803b15801561212b575f80fd5b505af115801561213d573d5f803e3d5ffd5b50505050505f601360156101000a81548160ff02191690831515021790555050565b60045f9054906101000a900473ffffffffffffffffffffffffffffffffffffffff1673ffffffffffffffffffffffffffffffffffffffff166108fc8290811502906040515f60405180830381858888f193505050501580156121c3573d5f803e3d5ffd5b5050565b5f8083036121d7575f9050612238565b5f82846121e49190612909565b90508284826121f39190613332565b14612233576040517f08c379a000000000000000000000000000000000000000000000000000000000815260040161222a906133d2565b60405180910390fd5b809150505b92915050565b5f61227f83836040518060400160405280601a81526020017f536166654d6174683a206469766973696f6e206279207a65726f000000000000815250612345565b905092915050565b5f8183116122955782612297565b815b905092915050565b5f8082846122ad919061301f565b9050838110156122f2576040517f08c379a00000000000000000000000000000000000000000000000000000000081526004016122e99061343a565b60405180910390fd5b8091505092915050565b5f61233d83836040518060400160405280601e81526020017f536166654d6174683a207375627472616374696f6e206f766572666c6f770000815250611e92565b905092915050565b5f808311829061238b576040517f08c379a00000000000000000000000000000000000000000000000000000000081526004016123829190612416565b60405180910390fd5b505f83856123999190613332565b9050809150509392505050565b5f81519050919050565b5f82825260208201905092915050565b8281835e5f83830152505050565b5f601f19601f8301169050919050565b5f6123e8826123a6565b6123f281856123b0565b93506124028185602086016123c0565b61240b816123ce565b840191505092915050565b5f6020820190508181035f83015261242e81846123de565b905092915050565b5f80fd5b5f73ffffffffffffffffffffffffffffffffffffffff82169050919050565b5f6124638261243a565b9050919050565b61247381612459565b811461247d575f80fd5b50565b5f8135905061248e8161246a565b92915050565b5f819050919050565b6124a681612494565b81146124b0575f80fd5b50565b5f813590506124c18161249d565b92915050565b5f80604083850312156124dd576124dc612436565b5b5f6124ea85828601612480565b92505060206124fb858286016124b3565b9150509250929050565b5f8115159050919050565b61251981612505565b82525050565b5f6020820190506125325f830184612510565b92915050565b61254181612494565b82525050565b5f60208201905061255a5f830184612538565b92915050565b5f805f6060848603121561257757612576612436565b5b5f61258486828701612480565b935050602061259586828701612480565b92505060406125a6868287016124b3565b9150509250925092565b5f60ff82169050919050565b6125c5816125b0565b82525050565b5f6020820190506125de5f8301846125bc565b92915050565b5f602082840312156125f9576125f8612436565b5b5f61260684828501612480565b91505092915050565b61261881612459565b82525050565b5f6020820190506126315f83018461260f565b92915050565b5f806040838503121561264d5761264c612436565b5b5f61265a85828601612480565b925050602061266b85828601612480565b9150509250929050565b5f6020828403121561268a57612689612436565b5b5f612697848285016124b3565b91505092915050565b7f4f776e61626c653a2063616c6c6572206973206e6f7420746865206f776e65725f82015250565b5f6126d46020836123b0565b91506126df826126a0565b602082019050919050565b5f6020820190508181035f830152612701816126c8565b9050919050565b5f819050919050565b5f819050919050565b5f61273461272f61272a84612708565b612711565b612494565b9050919050565b6127448161271a565b82525050565b5f60208201905061275d5f83018461273b565b92915050565b7f4e487b71000000000000000000000000000000000000000000000000000000005f52601160045260245ffd5b5f8160011c9050919050565b5f808291508390505b60018511156127e5578086048111156127c1576127c0612763565b5b60018516156127d05780820291505b80810290506127de85612790565b94506127a5565b94509492505050565b5f826127fd57600190506128b8565b8161280a575f90506128b8565b8160018114612820576002811461282a57612859565b60019150506128b8565b60ff84111561283c5761283b612763565b5b8360020a91508482111561285357612852612763565b5b506128b8565b5060208310610133831016604e8410600b841016171561288e5782820a90508381111561288957612888612763565b5b6128b8565b61289b848484600161279c565b925090508184048111156128b2576128b1612763565b5b81810290505b9392505050565b5f6128c982612494565b91506128d4836125b0565b92506129017fffffffffffffffffffffffffffffffffffffffffffffffffffffffffffffffff84846127ee565b905092915050565b5f61291382612494565b915061291e83612494565b925082820261292c81612494565b9150828204841483151761294357612942612763565b5b5092915050565b5f815190506129588161249d565b92915050565b5f6020828403121561297357612972612436565b5b5f6129808482850161294a565b91505092915050565b5f60408201905061299c5f83018561260f565b6129a96020830184612538565b9392505050565b5f6129ca6129c56129c08461243a565b612711565b61243a565b9050919050565b5f6129db826129b0565b9050919050565b5f6129ec826129d1565b9050919050565b6129fc816129e2565b82525050565b5f604082019050612a155f8301856129f3565b612a226020830184612538565b9392505050565b612a3281612505565b8114612a3c575f80fd5b50565b5f81519050612a4d81612a29565b92915050565b5f60208284031215612a6857612a67612436565b5b5f612a7584828501612a3f565b91505092915050565b7f74726164696e6720697320616c7265616479206f70656e0000000000000000005f82015250565b5f612ab26017836123b0565b9150612abd82612a7e565b602082019050919050565b5f6020820190508181035f830152612adf81612aa6565b9050919050565b5f81519050612af48161246a565b92915050565b5f60208284031215612b0f57612b0e612436565b5b5f612b1c84828501612ae6565b91505092915050565b5f604082019050612b385f83018561260f565b612b45602083018461260f565b9392505050565b5f60c082019050612b5f5f83018961260f565b612b6c6020830188612538565b612b79604083018761273b565b612b86606083018661273b565b612b93608083018561260f565b612ba060a0830184612538565b979650505050505050565b5f805f60608486031215612bc257612bc1612436565b5b5f612bcf8682870161294a565b9350506020612be08682870161294a565b9250506040612bf18682870161294a565b9150509250925092565b7f436f6e74726163742062616c616e6365206d75737420626520677265617465725f8201527f207468616e207a65726f00000000000000000000000000000000000000000000602082015250565b5f612c55602a836123b0565b9150612c6082612bfb565b604082019050919050565b5f6020820190508181035f830152612c8281612c49565b9050919050565b7f45524332303a20617070726f76652066726f6d20746865207a65726f206164645f8201527f7265737300000000000000000000000000000000000000000000000000000000602082015250565b5f612ce36024836123b0565b9150612cee82612c89565b604082019050919050565b5f6020820190508181035f830152612d1081612cd7565b9050919050565b7f45524332303a20617070726f766520746f20746865207a65726f2061646472655f8201527f7373000000000000000000000000000000000000000000000000000000000000602082015250565b5f612d716022836123b0565b9150612d7c82612d17565b604082019050919050565b5f6020820190508181035f830152612d9e81612d65565b9050919050565b7f45524332303a207472616e736665722066726f6d20746865207a65726f2061645f8201527f6472657373000000000000000000000000000000000000000000000000000000602082015250565b5f612dff6025836123b0565b9150612e0a82612da5565b604082019050919050565b5f6020820190508181035f830152612e2c81612df3565b9050919050565b7f45524332303a207472616e7366657220746f20746865207a65726f20616464725f8201527f6573730000000000000000000000000000000000000000000000000000000000602082015250565b5f612e8d6023836123b0565b9150612e9882612e33565b604082019050919050565b5f6020820190508181035f830152612eba81612e81565b9050919050565b7f5472616e7366657220616d6f756e74206d7573742062652067726561746572205f8201527f7468616e207a65726f0000000000000000000000000000000000000000000000602082015250565b5f612f1b6029836123b0565b9150612f2682612ec1565b604082019050919050565b5f6020820190508181035f830152612f4881612f0f565b9050919050565b7f457863656564732062757973206f6e2074686520666972737420626c6f636b2e5f82015250565b5f612f836020836123b0565b9150612f8e82612f4f565b602082019050919050565b5f6020820190508181035f830152612fb081612f77565b9050919050565b7f4578636565647320746865205f6d61785478416d6f756e742e000000000000005f82015250565b5f612feb6019836123b0565b9150612ff682612fb7565b602082019050919050565b5f6020820190508181035f83015261301881612fdf565b9050919050565b5f61302982612494565b915061303483612494565b925082820190508082111561304c5761304b612763565b5b92915050565b7f4578636565647320746865206d617857616c6c657453697a652e0000000000005f82015250565b5f613086601a836123b0565b915061309182613052565b602082019050919050565b5f6020820190508181035f8301526130b38161307a565b9050919050565b5f6130c482612494565b91507fffffffffffffffffffffffffffffffffffffffffffffffffffffffffffffffff82036130f6576130f5612763565b5b600182019050919050565b7f4f6e6c7920332073656c6c732070657220626c6f636b210000000000000000005f82015250565b5f6131356017836123b0565b915061314082613101565b602082019050919050565b5f6020820190508181035f83015261316281613129565b9050919050565b5f61317382612494565b915061317e83612494565b925082820390508181111561319657613195612763565b5b92915050565b7f4e487b71000000000000000000000000000000000000000000000000000000005f52604160045260245ffd5b7f4e487b71000000000000000000000000000000000000000000000000000000005f52603260045260245ffd5b5f81519050919050565b5f82825260208201905092915050565b5f819050602082019050919050565b61322881612459565b82525050565b5f613239838361321f565b60208301905092915050565b5f602082019050919050565b5f61325b826131f6565b6132658185613200565b935061327083613210565b805f5b838110156132a0578151613287888261322e565b975061329283613245565b925050600181019050613273565b5085935050505092915050565b5f60a0820190506132c05f830188612538565b6132cd602083018761273b565b81810360408301526132df8186613251565b90506132ee606083018561260f565b6132fb6080830184612538565b9695505050505050565b7f4e487b71000000000000000000000000000000000000000000000000000000005f52601260045260245ffd5b5f61333c82612494565b915061334783612494565b92508261335757613356613305565b5b828204905092915050565b7f536166654d6174683a206d756c7469706c69636174696f6e206f766572666c6f5f8201527f7700000000000000000000000000000000000000000000000000000000000000602082015250565b5f6133bc6021836123b0565b91506133c782613362565b604082019050919050565b5f6020820190508181035f8301526133e9816133b0565b9050919050565b7f536166654d6174683a206164646974696f6e206f766572666c6f7700000000005f82015250565b5f613424601b836123b0565b915061342f826133f0565b602082019050919050565b5f6020820190508181035f83015261345181613418565b905091905056fe45524332303a207472616e7366657220616d6f756e74206578636565647320616c6c6f77616e6365a2646970667358221220b709aa23afb938f93bbecf07091599af7c09c08c9920f4de20aac87071f4039564736f6c634300081a0033",
					"opcodes": "PUSH1 0x80 PUSH1 0x40 MSTORE PUSH1 0xF PUSH1 0x5 SSTORE PUSH1 0x17 PUSH1 0x6 SSTORE PUSH0 PUSH1 0x7 SSTORE PUSH0 PUSH1 0x8 SSTORE PUSH0 PUSH1 0x9 SSTORE PUSH1 0x1E PUSH1 0xA SSTORE PUSH1 0x14 PUSH1 0xB SSTORE PUSH0 PUSH1 0xC SSTORE PUSH0 PUSH1 0xD SSTORE PUSH1 0x64 PUSH1 0x2 PUSH1 0x9 PUSH1 0xA PUSH2 0x3E SWAP2 SWAP1 PUSH2 0x622 JUMP JUMPDEST PUSH4 0x3B9ACA00 PUSH2 0x4D SWAP2 SWAP1 PUSH2 0x66C JUMP JUMPDEST PUSH2 0x57 SWAP2 SWAP1 PUSH2 0x66C JUMP JUMPDEST PUSH2 0x61 SWAP2 SWAP1 PUSH2 0x6DA JUMP JUMPDEST PUSH1 0xE SSTORE PUSH1 0x64 PUSH1 0x2 PUSH1 0x9 PUSH1 0xA PUSH2 0x76 SWAP2 SWAP1 PUSH2 0x622 JUMP JUMPDEST PUSH4 0x3B9ACA00 PUSH2 0x85 SWAP2 SWAP1 PUSH2 0x66C JUMP JUMPDEST PUSH2 0x8F SWAP2 SWAP1 PUSH2 0x66C JUMP JUMPDEST PUSH2 0x99 SWAP2 SWAP1 PUSH2 0x6DA JUMP JUMPDEST PUSH1 0xF SSTORE PUSH2 0x3E8 PUSH1 0x3 PUSH1 0x9 PUSH1 0xA PUSH2 0xAF SWAP2 SWAP1 PUSH2 0x622 JUMP JUMPDEST PUSH4 0x3B9ACA00 PUSH2 0xBE SWAP2 SWAP1 PUSH2 0x66C JUMP JUMPDEST PUSH2 0xC8 SWAP2 SWAP1 PUSH2 0x66C JUMP JUMPDEST PUSH2 0xD2 SWAP2 SWAP1 PUSH2 0x6DA JUMP JUMPDEST PUSH1 0x10 SSTORE PUSH1 0x64 PUSH1 0x1 PUSH1 0x9 PUSH1 0xA PUSH2 0xE7 SWAP2 SWAP1 PUSH2 0x622 JUMP JUMPDEST PUSH4 0x3B9ACA00 PUSH2 0xF6 SWAP2 SWAP1 PUSH2 0x66C JUMP JUMPDEST PUSH2 0x100 SWAP2 SWAP1 PUSH2 0x66C JUMP JUMPDEST PUSH2 0x10A SWAP2 SWAP1 PUSH2 0x6DA JUMP JUMPDEST PUSH1 0x11 SSTORE PUSH0 PUSH1 0x13 PUSH1 0x15 PUSH2 0x100 EXP DUP2 SLOAD DUP2 PUSH1 0xFF MUL NOT AND SWAP1 DUP4 ISZERO ISZERO MUL OR SWAP1 SSTORE POP PUSH0 PUSH1 0x13 PUSH1 0x16 PUSH2 0x100 EXP DUP2 SLOAD DUP2 PUSH1 0xFF MUL NOT AND SWAP1 DUP4 ISZERO ISZERO MUL OR SWAP1 SSTORE POP PUSH0 PUSH1 0x14 SSTORE PUSH0 PUSH1 0x15 SSTORE PUSH0 PUSH1 0x16 SSTORE CALLVALUE DUP1 ISZERO PUSH2 0x158 JUMPI PUSH0 DUP1 REVERT JUMPDEST POP PUSH0 PUSH2 0x168 PUSH2 0x483 PUSH1 0x20 SHL PUSH1 0x20 SHR JUMP JUMPDEST SWAP1 POP DUP1 PUSH0 DUP1 PUSH2 0x100 EXP DUP2 SLOAD DUP2 PUSH20 0xFFFFFFFFFFFFFFFFFFFFFFFFFFFFFFFFFFFFFFFF MUL NOT AND SWAP1 DUP4 PUSH20 0xFFFFFFFFFFFFFFFFFFFFFFFFFFFFFFFFFFFFFFFF AND MUL OR SWAP1 SSTORE POP DUP1 PUSH20 0xFFFFFFFFFFFFFFFFFFFFFFFFFFFFFFFFFFFFFFFF AND PUSH0 PUSH20 0xFFFFFFFFFFFFFFFFFFFFFFFFFFFFFFFFFFFFFFFF AND PUSH32 0x8BE0079C531659141344CD1FD0A4F28419497F9722A3DAAFE3B4186F6B6457E0 PUSH1 0x40 MLOAD PUSH1 0x40 MLOAD DUP1 SWAP2 SUB SWAP1 LOG3 POP PUSH20 0x435F0E53BF6ED2BED34A3F6015B78D08B71EC67F PUSH1 0x4 PUSH0 PUSH2 0x100 EXP DUP2 SLOAD DUP2 PUSH20 0xFFFFFFFFFFFFFFFFFFFFFFFFFFFFFFFFFFFFFFFF MUL NOT AND SWAP1 DUP4 PUSH20 0xFFFFFFFFFFFFFFFFFFFFFFFFFFFFFFFFFFFFFFFF AND MUL OR SWAP1 SSTORE POP PUSH1 0x9 PUSH1 0xA PUSH2 0x266 SWAP2 SWAP1 PUSH2 0x622 JUMP JUMPDEST PUSH4 0x3B9ACA00 PUSH2 0x275 SWAP2 SWAP1 PUSH2 0x66C JUMP JUMPDEST PUSH1 0x1 PUSH0 PUSH2 0x286 PUSH2 0x483 PUSH1 0x20 SHL PUSH1 0x20 SHR JUMP JUMPDEST PUSH20 0xFFFFFFFFFFFFFFFFFFFFFFFFFFFFFFFFFFFFFFFF AND PUSH20 0xFFFFFFFFFFFFFFFFFFFFFFFFFFFFFFFFFFFFFFFF AND DUP2 MSTORE PUSH1 0x20 ADD SWAP1 DUP2 MSTORE PUSH1 0x20 ADD PUSH0 KECCAK256 DUP2 SWAP1 SSTORE POP PUSH1 0x1 PUSH1 0x3 PUSH0 PUSH2 0x2D6 PUSH2 0x48A PUSH1 0x20 SHL PUSH1 0x20 SHR JUMP JUMPDEST PUSH20 0xFFFFFFFFFFFFFFFFFFFFFFFFFFFFFFFFFFFFFFFF AND PUSH20 0xFFFFFFFFFFFFFFFFFFFFFFFFFFFFFFFFFFFFFFFF AND DUP2 MSTORE PUSH1 0x20 ADD SWAP1 DUP2 MSTORE PUSH1 0x20 ADD PUSH0 KECCAK256 PUSH0 PUSH2 0x100 EXP DUP2 SLOAD DUP2 PUSH1 0xFF MUL NOT AND SWAP1 DUP4 ISZERO ISZERO MUL OR SWAP1 SSTORE POP PUSH1 0x1 PUSH1 0x3 PUSH0 ADDRESS PUSH20 0xFFFFFFFFFFFFFFFFFFFFFFFFFFFFFFFFFFFFFFFF AND PUSH20 0xFFFFFFFFFFFFFFFFFFFFFFFFFFFFFFFFFFFFFFFF AND DUP2 MSTORE PUSH1 0x20 ADD SWAP1 DUP2 MSTORE PUSH1 0x20 ADD PUSH0 KECCAK256 PUSH0 PUSH2 0x100 EXP DUP2 SLOAD DUP2 PUSH1 0xFF MUL NOT AND SWAP1 DUP4 ISZERO ISZERO MUL OR SWAP1 SSTORE POP PUSH1 0x1 PUSH1 0x3 PUSH0 PUSH1 0x4 PUSH0 SWAP1 SLOAD SWAP1 PUSH2 0x100 EXP SWAP1 DIV PUSH20 0xFFFFFFFFFFFFFFFFFFFFFFFFFFFFFFFFFFFFFFFF AND PUSH20 0xFFFFFFFFFFFFFFFFFFFFFFFFFFFFFFFFFFFFFFFF AND PUSH20 0xFFFFFFFFFFFFFFFFFFFFFFFFFFFFFFFFFFFFFFFF AND DUP2 MSTORE PUSH1 0x20 ADD SWAP1 DUP2 MSTORE PUSH1 0x20 ADD PUSH0 KECCAK256 PUSH0 PUSH2 0x100 EXP DUP2 SLOAD DUP2 PUSH1 0xFF MUL NOT AND SWAP1 DUP4 ISZERO ISZERO MUL OR SWAP1 SSTORE POP PUSH2 0x3FE PUSH2 0x483 PUSH1 0x20 SHL PUSH1 0x20 SHR JUMP JUMPDEST PUSH20 0xFFFFFFFFFFFFFFFFFFFFFFFFFFFFFFFFFFFFFFFF AND PUSH0 PUSH20 0xFFFFFFFFFFFFFFFFFFFFFFFFFFFFFFFFFFFFFFFF AND PUSH32 0xDDF252AD1BE2C89B69C2B068FC378DAA952BA7F163C4A11628F55A4DF523B3EF PUSH1 0x9 PUSH1 0xA PUSH2 0x45A SWAP2 SWAP1 PUSH2 0x622 JUMP JUMPDEST PUSH4 0x3B9ACA00 PUSH2 0x469 SWAP2 SWAP1 PUSH2 0x66C JUMP JUMPDEST PUSH1 0x40 MLOAD PUSH2 0x476 SWAP2 SWAP1 PUSH2 0x719 JUMP JUMPDEST PUSH1 0x40 MLOAD DUP1 SWAP2 SUB SWAP1 LOG3 PUSH2 0x732 JUMP JUMPDEST PUSH0 CALLER SWAP1 POP SWAP1 JUMP JUMPDEST PUSH0 DUP1 PUSH0 SWAP1 SLOAD SWAP1 PUSH2 0x100 EXP SWAP1 DIV PUSH20 0xFFFFFFFFFFFFFFFFFFFFFFFFFFFFFFFFFFFFFFFF AND SWAP1 POP SWAP1 JUMP JUMPDEST PUSH32 0x4E487B7100000000000000000000000000000000000000000000000000000000 PUSH0 MSTORE PUSH1 0x11 PUSH1 0x4 MSTORE PUSH1 0x24 PUSH0 REVERT JUMPDEST PUSH0 DUP2 PUSH1 0x1 SHR SWAP1 POP SWAP2 SWAP1 POP JUMP JUMPDEST PUSH0 DUP1 DUP3 SWAP2 POP DUP4 SWAP1 POP JUMPDEST PUSH1 0x1 DUP6 GT ISZERO PUSH2 0x533 JUMPI DUP1 DUP7 DIV DUP2 GT ISZERO PUSH2 0x50F JUMPI PUSH2 0x50E PUSH2 0x4B1 JUMP JUMPDEST JUMPDEST PUSH1 0x1 DUP6 AND ISZERO PUSH2 0x51E JUMPI DUP1 DUP3 MUL SWAP2 POP JUMPDEST DUP1 DUP2 MUL SWAP1 POP PUSH2 0x52C DUP6 PUSH2 0x4DE JUMP JUMPDEST SWAP5 POP PUSH2 0x4F3 JUMP JUMPDEST SWAP5 POP SWAP5 SWAP3 POP POP POP JUMP JUMPDEST PUSH0 DUP3 PUSH2 0x54B JUMPI PUSH1 0x1 SWAP1 POP PUSH2 0x606 JUMP JUMPDEST DUP2 PUSH2 0x558 JUMPI PUSH0 SWAP1 POP PUSH2 0x606 JUMP JUMPDEST DUP2 PUSH1 0x1 DUP2 EQ PUSH2 0x56E JUMPI PUSH1 0x2 DUP2 EQ PUSH2 0x578 JUMPI PUSH2 0x5A7 JUMP JUMPDEST PUSH1 0x1 SWAP2 POP POP PUSH2 0x606 JUMP JUMPDEST PUSH1 0xFF DUP5 GT ISZERO PUSH2 0x58A JUMPI PUSH2 0x589 PUSH2 0x4B1 JUMP JUMPDEST JUMPDEST DUP4 PUSH1 0x2 EXP SWAP2 POP DUP5 DUP3 GT ISZERO PUSH2 0x5A1 JUMPI PUSH2 0x5A0 PUSH2 0x4B1 JUMP JUMPDEST JUMPDEST POP PUSH2 0x606 JUMP JUMPDEST POP PUSH1 0x20 DUP4 LT PUSH2 0x133 DUP4 LT AND PUSH1 0x4E DUP5 LT PUSH1 0xB DUP5 LT AND OR ISZERO PUSH2 0x5DC JUMPI DUP3 DUP3 EXP SWAP1 POP DUP4 DUP2 GT ISZERO PUSH2 0x5D7 JUMPI PUSH2 0x5D6 PUSH2 0x4B1 JUMP JUMPDEST JUMPDEST PUSH2 0x606 JUMP JUMPDEST PUSH2 0x5E9 DUP5 DUP5 DUP5 PUSH1 0x1 PUSH2 0x4EA JUMP JUMPDEST SWAP3 POP SWAP1 POP DUP2 DUP5 DIV DUP2 GT ISZERO PUSH2 0x600 JUMPI PUSH2 0x5FF PUSH2 0x4B1 JUMP JUMPDEST JUMPDEST DUP2 DUP2 MUL SWAP1 POP JUMPDEST SWAP4 SWAP3 POP POP POP JUMP JUMPDEST PUSH0 DUP2 SWAP1 POP SWAP2 SWAP1 POP JUMP JUMPDEST PUSH0 PUSH1 0xFF DUP3 AND SWAP1 POP SWAP2 SWAP1 POP JUMP JUMPDEST PUSH0 PUSH2 0x62C DUP3 PUSH2 0x60D JUMP JUMPDEST SWAP2 POP PUSH2 0x637 DUP4 PUSH2 0x616 JUMP JUMPDEST SWAP3 POP PUSH2 0x664 PUSH32 0xFFFFFFFFFFFFFFFFFFFFFFFFFFFFFFFFFFFFFFFFFFFFFFFFFFFFFFFFFFFFFFFF DUP5 DUP5 PUSH2 0x53C JUMP JUMPDEST SWAP1 POP SWAP3 SWAP2 POP POP JUMP JUMPDEST PUSH0 PUSH2 0x676 DUP3 PUSH2 0x60D JUMP JUMPDEST SWAP2 POP PUSH2 0x681 DUP4 PUSH2 0x60D JUMP JUMPDEST SWAP3 POP DUP3 DUP3 MUL PUSH2 0x68F DUP2 PUSH2 0x60D JUMP JUMPDEST SWAP2 POP DUP3 DUP3 DIV DUP5 EQ DUP4 ISZERO OR PUSH2 0x6A6 JUMPI PUSH2 0x6A5 PUSH2 0x4B1 JUMP JUMPDEST JUMPDEST POP SWAP3 SWAP2 POP POP JUMP JUMPDEST PUSH32 0x4E487B7100000000000000000000000000000000000000000000000000000000 PUSH0 MSTORE PUSH1 0x12 PUSH1 0x4 MSTORE PUSH1 0x24 PUSH0 REVERT JUMPDEST PUSH0 PUSH2 0x6E4 DUP3 PUSH2 0x60D JUMP JUMPDEST SWAP2 POP PUSH2 0x6EF DUP4 PUSH2 0x60D JUMP JUMPDEST SWAP3 POP DUP3 PUSH2 0x6FF JUMPI PUSH2 0x6FE PUSH2 0x6AD JUMP JUMPDEST JUMPDEST DUP3 DUP3 DIV SWAP1 POP SWAP3 SWAP2 POP POP JUMP JUMPDEST PUSH2 0x713 DUP2 PUSH2 0x60D JUMP JUMPDEST DUP3 MSTORE POP POP JUMP JUMPDEST PUSH0 PUSH1 0x20 DUP3 ADD SWAP1 POP PUSH2 0x72C PUSH0 DUP4 ADD DUP5 PUSH2 0x70A JUMP JUMPDEST SWAP3 SWAP2 POP POP JUMP JUMPDEST PUSH2 0x34B6 DUP1 PUSH2 0x73F PUSH0 CODECOPY PUSH0 RETURN INVALID PUSH1 0x80 PUSH1 0x40 MSTORE PUSH1 0x4 CALLDATASIZE LT PUSH2 0x138 JUMPI PUSH0 CALLDATALOAD PUSH1 0xE0 SHR DUP1 PUSH4 0x77B54BAD GT PUSH2 0xAA JUMPI DUP1 PUSH4 0xA9059CBB GT PUSH2 0x6E JUMPI DUP1 PUSH4 0xA9059CBB EQ PUSH2 0x3DB JUMPI DUP1 PUSH4 0xBF474BED EQ PUSH2 0x417 JUMPI DUP1 PUSH4 0xC9567BF9 EQ PUSH2 0x441 JUMPI DUP1 PUSH4 0xDD62ED3E EQ PUSH2 0x457 JUMPI DUP1 PUSH4 0xEC1F3F63 EQ PUSH2 0x493 JUMPI DUP1 PUSH4 0xF4293890 EQ PUSH2 0x4BB JUMPI PUSH2 0x13F JUMP JUMPDEST DUP1 PUSH4 0x77B54BAD EQ PUSH2 0x2F7 JUMPI DUP1 PUSH4 0x7D1DB4A5 EQ PUSH2 0x333 JUMPI DUP1 PUSH4 0x8DA5CB5B EQ PUSH2 0x35D JUMPI DUP1 PUSH4 0x8F9A55C0 EQ PUSH2 0x387 JUMPI DUP1 PUSH4 0x95D89B41 EQ PUSH2 0x3B1 JUMPI PUSH2 0x13F JUMP JUMPDEST DUP1 PUSH4 0x23B872DD GT PUSH2 0xFC JUMPI DUP1 PUSH4 0x23B872DD EQ PUSH2 0x213 JUMPI DUP1 PUSH4 0x313CE567 EQ PUSH2 0x24F JUMPI DUP1 PUSH4 0x51BC3C85 EQ PUSH2 0x279 JUMPI DUP1 PUSH4 0x62256589 EQ PUSH2 0x28F JUMPI DUP1 PUSH4 0x70A08231 EQ PUSH2 0x2A5 JUMPI DUP1 PUSH4 0x715018A6 EQ PUSH2 0x2E1 JUMPI PUSH2 0x13F JUMP JUMPDEST DUP1 PUSH4 0x6FDDE03 EQ PUSH2 0x143 JUMPI DUP1 PUSH4 0x95EA7B3 EQ PUSH2 0x16D JUMPI DUP1 PUSH4 0xFAEE56F EQ PUSH2 0x1A9 JUMPI DUP1 PUSH4 0x109DAA99 EQ PUSH2 0x1D3 JUMPI DUP1 PUSH4 0x18160DDD EQ PUSH2 0x1E9 JUMPI PUSH2 0x13F JUMP JUMPDEST CALLDATASIZE PUSH2 0x13F JUMPI STOP JUMPDEST PUSH0 DUP1 REVERT JUMPDEST CALLVALUE DUP1 ISZERO PUSH2 0x14E JUMPI PUSH0 DUP1 REVERT JUMPDEST POP PUSH2 0x157 PUSH2 0x4D1 JUMP JUMPDEST PUSH1 0x40 MLOAD PUSH2 0x164 SWAP2 SWAP1 PUSH2 0x2416 JUMP JUMPDEST PUSH1 0x40 MLOAD DUP1 SWAP2 SUB SWAP1 RETURN JUMPDEST CALLVALUE DUP1 ISZERO PUSH2 0x178 JUMPI PUSH0 DUP1 REVERT JUMPDEST POP PUSH2 0x193 PUSH1 0x4 DUP1 CALLDATASIZE SUB DUP2 ADD SWAP1 PUSH2 0x18E SWAP2 SWAP1 PUSH2 0x24C7 JUMP JUMPDEST PUSH2 0x50E JUMP JUMPDEST PUSH1 0x40 MLOAD PUSH2 0x1A0 SWAP2 SWAP1 PUSH2 0x251F JUMP JUMPDEST PUSH1 0x40 MLOAD DUP1 SWAP2 SUB SWAP1 RETURN JUMPDEST CALLVALUE DUP1 ISZERO PUSH2 0x1B4 JUMPI PUSH0 DUP1 REVERT JUMPDEST POP PUSH2 0x1BD PUSH2 0x52B JUMP JUMPDEST PUSH1 0x40 MLOAD PUSH2 0x1CA SWAP2 SWAP1 PUSH2 0x2547 JUMP JUMPDEST PUSH1 0x40 MLOAD DUP1 SWAP2 SUB SWAP1 RETURN JUMPDEST CALLVALUE DUP1 ISZERO PUSH2 0x1DE JUMPI PUSH0 DUP1 REVERT JUMPDEST POP PUSH2 0x1E7 PUSH2 0x531 JUMP JUMPDEST STOP JUMPDEST CALLVALUE DUP1 ISZERO PUSH2 0x1F4 JUMPI PUSH0 DUP1 REVERT JUMPDEST POP PUSH2 0x1FD PUSH2 0x605 JUMP JUMPDEST PUSH1 0x40 MLOAD PUSH2 0x20A SWAP2 SWAP1 PUSH2 0x2547 JUMP JUMPDEST PUSH1 0x40 MLOAD DUP1 SWAP2 SUB SWAP1 RETURN JUMPDEST CALLVALUE DUP1 ISZERO PUSH2 0x21E JUMPI PUSH0 DUP1 REVERT JUMPDEST POP PUSH2 0x239 PUSH1 0x4 DUP1 CALLDATASIZE SUB DUP2 ADD SWAP1 PUSH2 0x234 SWAP2 SWAP1 PUSH2 0x2560 JUMP JUMPDEST PUSH2 0x628 JUMP JUMPDEST PUSH1 0x40 MLOAD PUSH2 0x246 SWAP2 SWAP1 PUSH2 0x251F JUMP JUMPDEST PUSH1 0x40 MLOAD DUP1 SWAP2 SUB SWAP1 RETURN JUMPDEST CALLVALUE DUP1 ISZERO PUSH2 0x25A JUMPI PUSH0 DUP1 REVERT JUMPDEST POP PUSH2 0x263 PUSH2 0x6FC JUMP JUMPDEST PUSH1 0x40 MLOAD PUSH2 0x270 SWAP2 SWAP1 PUSH2 0x25CB JUMP JUMPDEST PUSH1 0x40 MLOAD DUP1 SWAP2 SUB SWAP1 RETURN JUMPDEST CALLVALUE DUP1 ISZERO PUSH2 0x284 JUMPI PUSH0 DUP1 REVERT JUMPDEST POP PUSH2 0x28D PUSH2 0x704 JUMP JUMPDEST STOP JUMPDEST CALLVALUE DUP1 ISZERO PUSH2 0x29A JUMPI PUSH0 DUP1 REVERT JUMPDEST POP PUSH2 0x2A3 PUSH2 0x79B JUMP JUMPDEST STOP JUMPDEST CALLVALUE DUP1 ISZERO PUSH2 0x2B0 JUMPI PUSH0 DUP1 REVERT JUMPDEST POP PUSH2 0x2CB PUSH1 0x4 DUP1 CALLDATASIZE SUB DUP2 ADD SWAP1 PUSH2 0x2C6 SWAP2 SWAP1 PUSH2 0x25E4 JUMP JUMPDEST PUSH2 0x8CA JUMP JUMPDEST PUSH1 0x40 MLOAD PUSH2 0x2D8 SWAP2 SWAP1 PUSH2 0x2547 JUMP JUMPDEST PUSH1 0x40 MLOAD DUP1 SWAP2 SUB SWAP1 RETURN JUMPDEST CALLVALUE DUP1 ISZERO PUSH2 0x2EC JUMPI PUSH0 DUP1 REVERT JUMPDEST POP PUSH2 0x2F5 PUSH2 0x910 JUMP JUMPDEST STOP JUMPDEST CALLVALUE DUP1 ISZERO PUSH2 0x302 JUMPI PUSH0 DUP1 REVERT JUMPDEST POP PUSH2 0x31D PUSH1 0x4 DUP1 CALLDATASIZE SUB DUP2 ADD SWAP1 PUSH2 0x318 SWAP2 SWAP1 PUSH2 0x24C7 JUMP JUMPDEST PUSH2 0xA5E JUMP JUMPDEST PUSH1 0x40 MLOAD PUSH2 0x32A SWAP2 SWAP1 PUSH2 0x251F JUMP JUMPDEST PUSH1 0x40 MLOAD DUP1 SWAP2 SUB SWAP1 RETURN JUMPDEST CALLVALUE DUP1 ISZERO PUSH2 0x33E JUMPI PUSH0 DUP1 REVERT JUMPDEST POP PUSH2 0x347 PUSH2 0xC1D JUMP JUMPDEST PUSH1 0x40 MLOAD PUSH2 0x354 SWAP2 SWAP1 PUSH2 0x2547 JUMP JUMPDEST PUSH1 0x40 MLOAD DUP1 SWAP2 SUB SWAP1 RETURN JUMPDEST CALLVALUE DUP1 ISZERO PUSH2 0x368 JUMPI PUSH0 DUP1 REVERT JUMPDEST POP PUSH2 0x371 PUSH2 0xC23 JUMP JUMPDEST PUSH1 0x40 MLOAD PUSH2 0x37E SWAP2 SWAP1 PUSH2 0x261E JUMP JUMPDEST PUSH1 0x40 MLOAD DUP1 SWAP2 SUB SWAP1 RETURN JUMPDEST CALLVALUE DUP1 ISZERO PUSH2 0x392 JUMPI PUSH0 DUP1 REVERT JUMPDEST POP PUSH2 0x39B PUSH2 0xC4A JUMP JUMPDEST PUSH1 0x40 MLOAD PUSH2 0x3A8 SWAP2 SWAP1 PUSH2 0x2547 JUMP JUMPDEST PUSH1 0x40 MLOAD DUP1 SWAP2 SUB SWAP1 RETURN JUMPDEST CALLVALUE DUP1 ISZERO PUSH2 0x3BC JUMPI PUSH0 DUP1 REVERT JUMPDEST POP PUSH2 0x3C5 PUSH2 0xC50 JUMP JUMPDEST PUSH1 0x40 MLOAD PUSH2 0x3D2 SWAP2 SWAP1 PUSH2 0x2416 JUMP JUMPDEST PUSH1 0x40 MLOAD DUP1 SWAP2 SUB SWAP1 RETURN JUMPDEST CALLVALUE DUP1 ISZERO PUSH2 0x3E6 JUMPI PUSH0 DUP1 REVERT JUMPDEST POP PUSH2 0x401 PUSH1 0x4 DUP1 CALLDATASIZE SUB DUP2 ADD SWAP1 PUSH2 0x3FC SWAP2 SWAP1 PUSH2 0x24C7 JUMP JUMPDEST PUSH2 0xC8D JUMP JUMPDEST PUSH1 0x40 MLOAD PUSH2 0x40E SWAP2 SWAP1 PUSH2 0x251F JUMP JUMPDEST PUSH1 0x40 MLOAD DUP1 SWAP2 SUB SWAP1 RETURN JUMPDEST CALLVALUE DUP1 ISZERO PUSH2 0x422 JUMPI PUSH0 DUP1 REVERT JUMPDEST POP PUSH2 0x42B PUSH2 0xCAA JUMP JUMPDEST PUSH1 0x40 MLOAD PUSH2 0x438 SWAP2 SWAP1 PUSH2 0x2547 JUMP JUMPDEST PUSH1 0x40 MLOAD DUP1 SWAP2 SUB SWAP1 RETURN JUMPDEST CALLVALUE DUP1 ISZERO PUSH2 0x44C JUMPI PUSH0 DUP1 REVERT JUMPDEST POP PUSH2 0x455 PUSH2 0xCB0 JUMP JUMPDEST STOP JUMPDEST CALLVALUE DUP1 ISZERO PUSH2 0x462 JUMPI PUSH0 DUP1 REVERT JUMPDEST POP PUSH2 0x47D PUSH1 0x4 DUP1 CALLDATASIZE SUB DUP2 ADD SWAP1 PUSH2 0x478 SWAP2 SWAP1 PUSH2 0x2637 JUMP JUMPDEST PUSH2 0x11D9 JUMP JUMPDEST PUSH1 0x40 MLOAD PUSH2 0x48A SWAP2 SWAP1 PUSH2 0x2547 JUMP JUMPDEST PUSH1 0x40 MLOAD DUP1 SWAP2 SUB SWAP1 RETURN JUMPDEST CALLVALUE DUP1 ISZERO PUSH2 0x49E JUMPI PUSH0 DUP1 REVERT JUMPDEST POP PUSH2 0x4B9 PUSH1 0x4 DUP1 CALLDATASIZE SUB DUP2 ADD SWAP1 PUSH2 0x4B4 SWAP2 SWAP1 PUSH2 0x2675 JUMP JUMPDEST PUSH2 0x125B JUMP JUMPDEST STOP JUMPDEST CALLVALUE DUP1 ISZERO PUSH2 0x4C6 JUMPI PUSH0 DUP1 REVERT JUMPDEST POP PUSH2 0x4CF PUSH2 0x12E7 JUMP JUMPDEST STOP JUMPDEST PUSH1 0x60 PUSH1 0x40 MLOAD DUP1 PUSH1 0x40 ADD PUSH1 0x40 MSTORE DUP1 PUSH1 0xA DUP2 MSTORE PUSH1 0x20 ADD PUSH32 0x5341494E5420434F494E00000000000000000000000000000000000000000000 DUP2 MSTORE POP SWAP1 POP SWAP1 JUMP JUMPDEST PUSH0 PUSH2 0x521 PUSH2 0x51A PUSH2 0x1398 JUMP JUMPDEST DUP5 DUP5 PUSH2 0x139F JUMP JUMPDEST PUSH1 0x1 SWAP1 POP SWAP3 SWAP2 POP POP JUMP JUMPDEST PUSH1 0x11 SLOAD DUP2 JUMP JUMPDEST PUSH2 0x539 PUSH2 0x1398 JUMP JUMPDEST PUSH20 0xFFFFFFFFFFFFFFFFFFFFFFFFFFFFFFFFFFFFFFFF AND PUSH0 DUP1 SLOAD SWAP1 PUSH2 0x100 EXP SWAP1 DIV PUSH20 0xFFFFFFFFFFFFFFFFFFFFFFFFFFFFFFFFFFFFFFFF AND PUSH20 0xFFFFFFFFFFFFFFFFFFFFFFFFFFFFFFFFFFFFFFFF AND EQ PUSH2 0x5C5 JUMPI PUSH1 0x40 MLOAD PUSH32 0x8C379A000000000000000000000000000000000000000000000000000000000 DUP2 MSTORE PUSH1 0x4 ADD PUSH2 0x5BC SWAP1 PUSH2 0x26EA JUMP JUMPDEST PUSH1 0x40 MLOAD DUP1 SWAP2 SUB SWAP1 REVERT JUMPDEST PUSH0 PUSH1 0xC DUP2 SWAP1 SSTORE POP PUSH32 0xE9B79E1A6C2DC43B4C0C6FF01CE9E3332D810E482270F464C0A21AD6C5FC6DE3 PUSH0 PUSH1 0x40 MLOAD PUSH2 0x5FB SWAP2 SWAP1 PUSH2 0x274A JUMP JUMPDEST PUSH1 0x40 MLOAD DUP1 SWAP2 SUB SWAP1 LOG1 JUMP JUMPDEST PUSH0 PUSH1 0x9 PUSH1 0xA PUSH2 0x614 SWAP2 SWAP1 PUSH2 0x28BF JUMP JUMPDEST PUSH4 0x3B9ACA00 PUSH2 0x623 SWAP2 SWAP1 PUSH2 0x2909 JUMP JUMPDEST SWAP1 POP SWAP1 JUMP JUMPDEST PUSH0 PUSH2 0x634 DUP5 DUP5 DUP5 PUSH2 0x1562 JUMP JUMPDEST PUSH2 0x6F1 DUP5 PUSH2 0x640 PUSH2 0x1398 JUMP JUMPDEST PUSH2 0x6EC DUP6 PUSH1 0x40 MLOAD DUP1 PUSH1 0x60 ADD PUSH1 0x40 MSTORE DUP1 PUSH1 0x28 DUP2 MSTORE PUSH1 0x20 ADD PUSH2 0x3459 PUSH1 0x28 SWAP2 CODECOPY PUSH1 0x2 PUSH0 DUP12 PUSH20 0xFFFFFFFFFFFFFFFFFFFFFFFFFFFFFFFFFFFFFFFF AND PUSH20 0xFFFFFFFFFFFFFFFFFFFFFFFFFFFFFFFFFFFFFFFF AND DUP2 MSTORE PUSH1 0x20 ADD SWAP1 DUP2 MSTORE PUSH1 0x20 ADD PUSH0 KECCAK256 PUSH0 PUSH2 0x6A3 PUSH2 0x1398 JUMP JUMPDEST PUSH20 0xFFFFFFFFFFFFFFFFFFFFFFFFFFFFFFFFFFFFFFFF AND PUSH20 0xFFFFFFFFFFFFFFFFFFFFFFFFFFFFFFFFFFFFFFFF AND DUP2 MSTORE PUSH1 0x20 ADD SWAP1 DUP2 MSTORE PUSH1 0x20 ADD PUSH0 KECCAK256 SLOAD PUSH2 0x1E92 SWAP1 SWAP3 SWAP2 SWAP1 PUSH4 0xFFFFFFFF AND JUMP JUMPDEST PUSH2 0x139F JUMP JUMPDEST PUSH1 0x1 SWAP1 POP SWAP4 SWAP3 POP POP POP JUMP JUMPDEST PUSH0 PUSH1 0x9 SWAP1 POP SWAP1 JUMP JUMPDEST PUSH1 0x4 PUSH0 SWAP1 SLOAD SWAP1 PUSH2 0x100 EXP SWAP1 DIV PUSH20 0xFFFFFFFFFFFFFFFFFFFFFFFFFFFFFFFFFFFFFFFF AND PUSH20 0xFFFFFFFFFFFFFFFFFFFFFFFFFFFFFFFFFFFFFFFF AND PUSH2 0x744 PUSH2 0x1398 JUMP JUMPDEST PUSH20 0xFFFFFFFFFFFFFFFFFFFFFFFFFFFFFFFFFFFFFFFF AND EQ PUSH2 0x763 JUMPI PUSH0 DUP1 REVERT JUMPDEST PUSH0 PUSH2 0x76D ADDRESS PUSH2 0x8CA JUMP JUMPDEST SWAP1 POP PUSH0 DUP2 GT ISZERO PUSH2 0x781 JUMPI PUSH2 0x780 DUP2 PUSH2 0x1EF4 JUMP JUMPDEST JUMPDEST PUSH0 SELFBALANCE SWAP1 POP PUSH0 DUP2 GT ISZERO PUSH2 0x797 JUMPI PUSH2 0x796 DUP2 PUSH2 0x215F JUMP JUMPDEST JUMPDEST POP POP JUMP JUMPDEST PUSH2 0x7A3 PUSH2 0x1398 JUMP JUMPDEST PUSH20 0xFFFFFFFFFFFFFFFFFFFFFFFFFFFFFFFFFFFFFFFF AND PUSH0 DUP1 SLOAD SWAP1 PUSH2 0x100 EXP SWAP1 DIV PUSH20 0xFFFFFFFFFFFFFFFFFFFFFFFFFFFFFFFFFFFFFFFF AND PUSH20 0xFFFFFFFFFFFFFFFFFFFFFFFFFFFFFFFFFFFFFFFF AND EQ PUSH2 0x82F JUMPI PUSH1 0x40 MLOAD PUSH32 0x8C379A000000000000000000000000000000000000000000000000000000000 DUP2 MSTORE PUSH1 0x4 ADD PUSH2 0x826 SWAP1 PUSH2 0x26EA JUMP JUMPDEST PUSH1 0x40 MLOAD DUP1 SWAP2 SUB SWAP1 REVERT JUMPDEST PUSH1 0x9 PUSH1 0xA PUSH2 0x83D SWAP2 SWAP1 PUSH2 0x28BF JUMP JUMPDEST PUSH4 0x3B9ACA00 PUSH2 0x84C SWAP2 SWAP1 PUSH2 0x2909 JUMP JUMPDEST PUSH1 0xE DUP2 SWAP1 SSTORE POP PUSH1 0x9 PUSH1 0xA PUSH2 0x860 SWAP2 SWAP1 PUSH2 0x28BF JUMP JUMPDEST PUSH4 0x3B9ACA00 PUSH2 0x86F SWAP2 SWAP1 PUSH2 0x2909 JUMP JUMPDEST PUSH1 0xF DUP2 SWAP1 SSTORE POP PUSH32 0x947F344D56E1E8C70DC492FB94C4DDDDD490C016AAB685F5E7E47B2E85CB44CF PUSH1 0x9 PUSH1 0xA PUSH2 0x8A4 SWAP2 SWAP1 PUSH2 0x28BF JUMP JUMPDEST PUSH4 0x3B9ACA00 PUSH2 0x8B3 SWAP2 SWAP1 PUSH2 0x2909 JUMP JUMPDEST PUSH1 0x40 MLOAD PUSH2 0x8C0 SWAP2 SWAP1 PUSH2 0x2547 JUMP JUMPDEST PUSH1 0x40 MLOAD DUP1 SWAP2 SUB SWAP1 LOG1 JUMP JUMPDEST PUSH0 PUSH1 0x1 PUSH0 DUP4 PUSH20 0xFFFFFFFFFFFFFFFFFFFFFFFFFFFFFFFFFFFFFFFF AND PUSH20 0xFFFFFFFFFFFFFFFFFFFFFFFFFFFFFFFFFFFFFFFF AND DUP2 MSTORE PUSH1 0x20 ADD SWAP1 DUP2 MSTORE PUSH1 0x20 ADD PUSH0 KECCAK256 SLOAD SWAP1 POP SWAP2 SWAP1 POP JUMP JUMPDEST PUSH2 0x918 PUSH2 0x1398 JUMP JUMPDEST PUSH20 0xFFFFFFFFFFFFFFFFFFFFFFFFFFFFFFFFFFFFFFFF AND PUSH0 DUP1 SLOAD SWAP1 PUSH2 0x100 EXP SWAP1 DIV PUSH20 0xFFFFFFFFFFFFFFFFFFFFFFFFFFFFFFFFFFFFFFFF AND PUSH20 0xFFFFFFFFFFFFFFFFFFFFFFFFFFFFFFFFFFFFFFFF AND EQ PUSH2 0x9A4 JUMPI PUSH1 0x40 MLOAD PUSH32 0x8C379A000000000000000000000000000000000000000000000000000000000 DUP2 MSTORE PUSH1 0x4 ADD PUSH2 0x99B SWAP1 PUSH2 0x26EA JUMP JUMPDEST PUSH1 0x40 MLOAD DUP1 SWAP2 SUB SWAP1 REVERT JUMPDEST PUSH0 PUSH20 0xFFFFFFFFFFFFFFFFFFFFFFFFFFFFFFFFFFFFFFFF AND PUSH0 DUP1 SLOAD SWAP1 PUSH2 0x100 EXP SWAP1 DIV PUSH20 0xFFFFFFFFFFFFFFFFFFFFFFFFFFFFFFFFFFFFFFFF AND PUSH20 0xFFFFFFFFFFFFFFFFFFFFFFFFFFFFFFFFFFFFFFFF AND PUSH32 0x8BE0079C531659141344CD1FD0A4F28419497F9722A3DAAFE3B4186F6B6457E0 PUSH1 0x40 MLOAD PUSH1 0x40 MLOAD DUP1 SWAP2 SUB SWAP1 LOG3 PUSH0 DUP1 PUSH0 PUSH2 0x100 EXP DUP2 SLOAD DUP2 PUSH20 0xFFFFFFFFFFFFFFFFFFFFFFFFFFFFFFFFFFFFFFFF MUL NOT AND SWAP1 DUP4 PUSH20 0xFFFFFFFFFFFFFFFFFFFFFFFFFFFFFFFFFFFFFFFF AND MUL OR SWAP1 SSTORE POP JUMP JUMPDEST PUSH0 PUSH1 0x4 PUSH0 SWAP1 SLOAD SWAP1 PUSH2 0x100 EXP SWAP1 DIV PUSH20 0xFFFFFFFFFFFFFFFFFFFFFFFFFFFFFFFFFFFFFFFF AND PUSH20 0xFFFFFFFFFFFFFFFFFFFFFFFFFFFFFFFFFFFFFFFF AND PUSH2 0xA9F PUSH2 0x1398 JUMP JUMPDEST PUSH20 0xFFFFFFFFFFFFFFFFFFFFFFFFFFFFFFFFFFFFFFFF AND EQ PUSH2 0xABE JUMPI PUSH0 DUP1 REVERT JUMPDEST PUSH0 DUP3 SUB PUSH2 0xB40 JUMPI DUP3 PUSH20 0xFFFFFFFFFFFFFFFFFFFFFFFFFFFFFFFFFFFFFFFF AND PUSH4 0x70A08231 ADDRESS PUSH1 0x40 MLOAD DUP3 PUSH4 0xFFFFFFFF AND PUSH1 0xE0 SHL DUP2 MSTORE PUSH1 0x4 ADD PUSH2 0xAFE SWAP2 SWAP1 PUSH2 0x261E JUMP JUMPDEST PUSH1 0x20 PUSH1 0x40 MLOAD DUP1 DUP4 SUB DUP2 DUP7 GAS STATICCALL ISZERO DUP1 ISZERO PUSH2 0xB19 JUMPI RETURNDATASIZE PUSH0 DUP1 RETURNDATACOPY RETURNDATASIZE PUSH0 REVERT JUMPDEST POP POP POP POP PUSH1 0x40 MLOAD RETURNDATASIZE PUSH1 0x1F NOT PUSH1 0x1F DUP3 ADD AND DUP3 ADD DUP1 PUSH1 0x40 MSTORE POP DUP2 ADD SWAP1 PUSH2 0xB3D SWAP2 SWAP1 PUSH2 0x295E JUMP JUMPDEST SWAP2 POP JUMPDEST PUSH32 0xDA2BC2BEDD1F85B5A59D5DBBD6684FF877EF916994A16EC08813101E99ACE65F DUP4 DUP4 PUSH1 0x40 MLOAD PUSH2 0xB71 SWAP3 SWAP2 SWAP1 PUSH2 0x2989 JUMP JUMPDEST PUSH1 0x40 MLOAD DUP1 SWAP2 SUB SWAP1 LOG1 DUP3 PUSH20 0xFFFFFFFFFFFFFFFFFFFFFFFFFFFFFFFFFFFFFFFF AND PUSH4 0xA9059CBB PUSH1 0x4 PUSH0 SWAP1 SLOAD SWAP1 PUSH2 0x100 EXP SWAP1 DIV PUSH20 0xFFFFFFFFFFFFFFFFFFFFFFFFFFFFFFFFFFFFFFFF AND DUP5 PUSH1 0x40 MLOAD DUP4 PUSH4 0xFFFFFFFF AND PUSH1 0xE0 SHL DUP2 MSTORE PUSH1 0x4 ADD PUSH2 0xBD5 SWAP3 SWAP2 SWAP1 PUSH2 0x2A02 JUMP JUMPDEST PUSH1 0x20 PUSH1 0x40 MLOAD DUP1 DUP4 SUB DUP2 PUSH0 DUP8 GAS CALL ISZERO DUP1 ISZERO PUSH2 0xBF1 JUMPI RETURNDATASIZE PUSH0 DUP1 RETURNDATACOPY RETURNDATASIZE PUSH0 REVERT JUMPDEST POP POP POP POP PUSH1 0x40 MLOAD RETURNDATASIZE PUSH1 0x1F NOT PUSH1 0x1F DUP3 ADD AND DUP3 ADD DUP1 PUSH1 0x40 MSTORE POP DUP2 ADD SWAP1 PUSH2 0xC15 SWAP2 SWAP1 PUSH2 0x2A53 JUMP JUMPDEST SWAP1 POP SWAP3 SWAP2 POP POP JUMP JUMPDEST PUSH1 0xE SLOAD DUP2 JUMP JUMPDEST PUSH0 DUP1 PUSH0 SWAP1 SLOAD SWAP1 PUSH2 0x100 EXP SWAP1 DIV PUSH20 0xFFFFFFFFFFFFFFFFFFFFFFFFFFFFFFFFFFFFFFFF AND SWAP1 POP SWAP1 JUMP JUMPDEST PUSH1 0xF SLOAD DUP2 JUMP JUMPDEST PUSH1 0x60 PUSH1 0x40 MLOAD DUP1 PUSH1 0x40 ADD PUSH1 0x40 MSTORE DUP1 PUSH1 0x5 DUP2 MSTORE PUSH1 0x20 ADD PUSH32 0x534C415645000000000000000000000000000000000000000000000000000000 DUP2 MSTORE POP SWAP1 POP SWAP1 JUMP JUMPDEST PUSH0 PUSH2 0xCA0 PUSH2 0xC99 PUSH2 0x1398 JUMP JUMPDEST DUP5 DUP5 PUSH2 0x1562 JUMP JUMPDEST PUSH1 0x1 SWAP1 POP SWAP3 SWAP2 POP POP JUMP JUMPDEST PUSH1 0x10 SLOAD DUP2 JUMP JUMPDEST PUSH2 0xCB8 PUSH2 0x1398 JUMP JUMPDEST PUSH20 0xFFFFFFFFFFFFFFFFFFFFFFFFFFFFFFFFFFFFFFFF AND PUSH0 DUP1 SLOAD SWAP1 PUSH2 0x100 EXP SWAP1 DIV PUSH20 0xFFFFFFFFFFFFFFFFFFFFFFFFFFFFFFFFFFFFFFFF AND PUSH20 0xFFFFFFFFFFFFFFFFFFFFFFFFFFFFFFFFFFFFFFFF AND EQ PUSH2 0xD44 JUMPI PUSH1 0x40 MLOAD PUSH32 0x8C379A000000000000000000000000000000000000000000000000000000000 DUP2 MSTORE PUSH1 0x4 ADD PUSH2 0xD3B SWAP1 PUSH2 0x26EA JUMP JUMPDEST PUSH1 0x40 MLOAD DUP1 SWAP2 SUB SWAP1 REVERT JUMPDEST PUSH1 0x13 PUSH1 0x14 SWAP1 SLOAD SWAP1 PUSH2 0x100 EXP SWAP1 DIV PUSH1 0xFF AND ISZERO PUSH2 0xD94 JUMPI PUSH1 0x40 MLOAD PUSH32 0x8C379A000000000000000000000000000000000000000000000000000000000 DUP2 MSTORE PUSH1 0x4 ADD PUSH2 0xD8B SWAP1 PUSH2 0x2AC8 JUMP JUMPDEST PUSH1 0x40 MLOAD DUP1 SWAP2 SUB SWAP1 REVERT JUMPDEST PUSH20 0xEE567FE1712FAF6149D80DA1E6934E354124CFE3 PUSH1 0x12 PUSH0 PUSH2 0x100 EXP DUP2 SLOAD DUP2 PUSH20 0xFFFFFFFFFFFFFFFFFFFFFFFFFFFFFFFFFFFFFFFF MUL NOT AND SWAP1 DUP4 PUSH20 0xFFFFFFFFFFFFFFFFFFFFFFFFFFFFFFFFFFFFFFFF AND MUL OR SWAP1 SSTORE POP PUSH2 0xE30 ADDRESS PUSH1 0x12 PUSH0 SWAP1 SLOAD SWAP1 PUSH2 0x100 EXP SWAP1 DIV PUSH20 0xFFFFFFFFFFFFFFFFFFFFFFFFFFFFFFFFFFFFFFFF AND PUSH1 0x9 PUSH1 0xA PUSH2 0xE1C SWAP2 SWAP1 PUSH2 0x28BF JUMP JUMPDEST PUSH4 0x3B9ACA00 PUSH2 0xE2B SWAP2 SWAP1 PUSH2 0x2909 JUMP JUMPDEST PUSH2 0x139F JUMP JUMPDEST PUSH1 0x12 PUSH0 SWAP1 SLOAD SWAP1 PUSH2 0x100 EXP SWAP1 DIV PUSH20 0xFFFFFFFFFFFFFFFFFFFFFFFFFFFFFFFFFFFFFFFF AND PUSH20 0xFFFFFFFFFFFFFFFFFFFFFFFFFFFFFFFFFFFFFFFF AND PUSH4 0xC45A0155 PUSH1 0x40 MLOAD DUP2 PUSH4 0xFFFFFFFF AND PUSH1 0xE0 SHL DUP2 MSTORE PUSH1 0x4 ADD PUSH1 0x20 PUSH1 0x40 MLOAD DUP1 DUP4 SUB DUP2 DUP7 GAS STATICCALL ISZERO DUP1 ISZERO PUSH2 0xE9A JUMPI RETURNDATASIZE PUSH0 DUP1 RETURNDATACOPY RETURNDATASIZE PUSH0 REVERT JUMPDEST POP POP POP POP PUSH1 0x40 MLOAD RETURNDATASIZE PUSH1 0x1F NOT PUSH1 0x1F DUP3 ADD AND DUP3 ADD DUP1 PUSH1 0x40 MSTORE POP DUP2 ADD SWAP1 PUSH2 0xEBE SWAP2 SWAP1 PUSH2 0x2AFA JUMP JUMPDEST PUSH20 0xFFFFFFFFFFFFFFFFFFFFFFFFFFFFFFFFFFFFFFFF AND PUSH4 0xC9C65396 ADDRESS PUSH1 0x12 PUSH0 SWAP1 SLOAD SWAP1 PUSH2 0x100 EXP SWAP1 DIV PUSH20 0xFFFFFFFFFFFFFFFFFFFFFFFFFFFFFFFFFFFFFFFF AND PUSH20 0xFFFFFFFFFFFFFFFFFFFFFFFFFFFFFFFFFFFFFFFF AND PUSH4 0xAD5C4648 PUSH1 0x40 MLOAD DUP2 PUSH4 0xFFFFFFFF AND PUSH1 0xE0 SHL DUP2 MSTORE PUSH1 0x4 ADD PUSH1 0x20 PUSH1 0x40 MLOAD DUP1 DUP4 SUB DUP2 DUP7 GAS STATICCALL ISZERO DUP1 ISZERO PUSH2 0xF44 JUMPI RETURNDATASIZE PUSH0 DUP1 RETURNDATACOPY RETURNDATASIZE PUSH0 REVERT JUMPDEST POP POP POP POP PUSH1 0x40 MLOAD RETURNDATASIZE PUSH1 0x1F NOT PUSH1 0x1F DUP3 ADD AND DUP3 ADD DUP1 PUSH1 0x40 MSTORE POP DUP2 ADD SWAP1 PUSH2 0xF68 SWAP2 SWAP1 PUSH2 0x2AFA JUMP JUMPDEST PUSH1 0x40 MLOAD DUP4 PUSH4 0xFFFFFFFF AND PUSH1 0xE0 SHL DUP2 MSTORE PUSH1 0x4 ADD PUSH2 0xF85 SWAP3 SWAP2 SWAP1 PUSH2 0x2B25 JUMP JUMPDEST PUSH1 0x20 PUSH1 0x40 MLOAD DUP1 DUP4 SUB DUP2 PUSH0 DUP8 GAS CALL ISZERO DUP1 ISZERO PUSH2 0xFA1 JUMPI RETURNDATASIZE PUSH0 DUP1 RETURNDATACOPY RETURNDATASIZE PUSH0 REVERT JUMPDEST POP POP POP POP PUSH1 0x40 MLOAD RETURNDATASIZE PUSH1 0x1F NOT PUSH1 0x1F DUP3 ADD AND DUP3 ADD DUP1 PUSH1 0x40 MSTORE POP DUP2 ADD SWAP1 PUSH2 0xFC5 SWAP2 SWAP1 PUSH2 0x2AFA JUMP JUMPDEST PUSH1 0x13 PUSH0 PUSH2 0x100 EXP DUP2 SLOAD DUP2 PUSH20 0xFFFFFFFFFFFFFFFFFFFFFFFFFFFFFFFFFFFFFFFF MUL NOT AND SWAP1 DUP4 PUSH20 0xFFFFFFFFFFFFFFFFFFFFFFFFFFFFFFFFFFFFFFFF AND MUL OR SWAP1 SSTORE POP PUSH1 0x12 PUSH0 SWAP1 SLOAD SWAP1 PUSH2 0x100 EXP SWAP1 DIV PUSH20 0xFFFFFFFFFFFFFFFFFFFFFFFFFFFFFFFFFFFFFFFF AND PUSH20 0xFFFFFFFFFFFFFFFFFFFFFFFFFFFFFFFFFFFFFFFF AND PUSH4 0xF305D719 SELFBALANCE ADDRESS PUSH2 0x104C ADDRESS PUSH2 0x8CA JUMP JUMPDEST PUSH0 DUP1 PUSH2 0x1056 PUSH2 0xC23 JUMP JUMPDEST TIMESTAMP PUSH1 0x40 MLOAD DUP9 PUSH4 0xFFFFFFFF AND PUSH1 0xE0 SHL DUP2 MSTORE PUSH1 0x4 ADD PUSH2 0x1078 SWAP7 SWAP6 SWAP5 SWAP4 SWAP3 SWAP2 SWAP1 PUSH2 0x2B4C JUMP JUMPDEST PUSH1 0x60 PUSH1 0x40 MLOAD DUP1 DUP4 SUB DUP2 DUP6 DUP9 GAS CALL ISZERO DUP1 ISZERO PUSH2 0x1094 JUMPI RETURNDATASIZE PUSH0 DUP1 RETURNDATACOPY RETURNDATASIZE PUSH0 REVERT JUMPDEST POP POP POP POP POP PUSH1 0x40 MLOAD RETURNDATASIZE PUSH1 0x1F NOT PUSH1 0x1F DUP3 ADD AND DUP3 ADD DUP1 PUSH1 0x40 MSTORE POP DUP2 ADD SWAP1 PUSH2 0x10B9 SWAP2 SWAP1 PUSH2 0x2BAB JUMP JUMPDEST POP POP POP PUSH1 0x13 PUSH0 SWAP1 SLOAD SWAP1 PUSH2 0x100 EXP SWAP1 DIV PUSH20 0xFFFFFFFFFFFFFFFFFFFFFFFFFFFFFFFFFFFFFFFF AND PUSH20 0xFFFFFFFFFFFFFFFFFFFFFFFFFFFFFFFFFFFFFFFF AND PUSH4 0x95EA7B3 PUSH1 0x12 PUSH0 SWAP1 SLOAD SWAP1 PUSH2 0x100 EXP SWAP1 DIV PUSH20 0xFFFFFFFFFFFFFFFFFFFFFFFFFFFFFFFFFFFFFFFF AND PUSH32 0xFFFFFFFFFFFFFFFFFFFFFFFFFFFFFFFFFFFFFFFFFFFFFFFFFFFFFFFFFFFFFFFF PUSH1 0x40 MLOAD DUP4 PUSH4 0xFFFFFFFF AND PUSH1 0xE0 SHL DUP2 MSTORE PUSH1 0x4 ADD PUSH2 0x1159 SWAP3 SWAP2 SWAP1 PUSH2 0x2989 JUMP JUMPDEST PUSH1 0x20 PUSH1 0x40 MLOAD DUP1 DUP4 SUB DUP2 PUSH0 DUP8 GAS CALL ISZERO DUP1 ISZERO PUSH2 0x1175 JUMPI RETURNDATASIZE PUSH0 DUP1 RETURNDATACOPY RETURNDATASIZE PUSH0 REVERT JUMPDEST POP POP POP POP PUSH1 0x40 MLOAD RETURNDATASIZE PUSH1 0x1F NOT PUSH1 0x1F DUP3 ADD AND DUP3 ADD DUP1 PUSH1 0x40 MSTORE POP DUP2 ADD SWAP1 PUSH2 0x1199 SWAP2 SWAP1 PUSH2 0x2A53 JUMP JUMPDEST POP PUSH1 0x1 PUSH1 0x13 PUSH1 0x16 PUSH2 0x100 EXP DUP2 SLOAD DUP2 PUSH1 0xFF MUL NOT AND SWAP1 DUP4 ISZERO ISZERO MUL OR SWAP1 SSTORE POP PUSH1 0x1 PUSH1 0x13 PUSH1 0x14 PUSH2 0x100 EXP DUP2 SLOAD DUP2 PUSH1 0xFF MUL NOT AND SWAP1 DUP4 ISZERO ISZERO MUL OR SWAP1 SSTORE POP NUMBER PUSH1 0x16 DUP2 SWAP1 SSTORE POP JUMP JUMPDEST PUSH0 PUSH1 0x2 PUSH0 DUP5 PUSH20 0xFFFFFFFFFFFFFFFFFFFFFFFFFFFFFFFFFFFFFFFF AND PUSH20 0xFFFFFFFFFFFFFFFFFFFFFFFFFFFFFFFFFFFFFFFF AND DUP2 MSTORE PUSH1 0x20 ADD SWAP1 DUP2 MSTORE PUSH1 0x20 ADD PUSH0 KECCAK256 PUSH0 DUP4 PUSH20 0xFFFFFFFFFFFFFFFFFFFFFFFFFFFFFFFFFFFFFFFF AND PUSH20 0xFFFFFFFFFFFFFFFFFFFFFFFFFFFFFFFFFFFFFFFF AND DUP2 MSTORE PUSH1 0x20 ADD SWAP1 DUP2 MSTORE PUSH1 0x20 ADD PUSH0 KECCAK256 SLOAD SWAP1 POP SWAP3 SWAP2 POP POP JUMP JUMPDEST PUSH1 0x4 PUSH0 SWAP1 SLOAD SWAP1 PUSH2 0x100 EXP SWAP1 DIV PUSH20 0xFFFFFFFFFFFFFFFFFFFFFFFFFFFFFFFFFFFFFFFF AND PUSH20 0xFFFFFFFFFFFFFFFFFFFFFFFFFFFFFFFFFFFFFFFF AND PUSH2 0x129B PUSH2 0x1398 JUMP JUMPDEST PUSH20 0xFFFFFFFFFFFFFFFFFFFFFFFFFFFFFFFFFFFFFFFF AND EQ PUSH2 0x12BA JUMPI PUSH0 DUP1 REVERT JUMPDEST PUSH1 0x7 SLOAD DUP2 GT ISZERO DUP1 ISZERO PUSH2 0x12CE JUMPI POP PUSH1 0x8 SLOAD DUP2 GT ISZERO JUMPDEST PUSH2 0x12D6 JUMPI PUSH0 DUP1 REVERT JUMPDEST DUP1 PUSH1 0x7 DUP2 SWAP1 SSTORE POP DUP1 PUSH1 0x8 DUP2 SWAP1 SSTORE POP POP JUMP JUMPDEST PUSH1 0x4 PUSH0 SWAP1 SLOAD SWAP1 PUSH2 0x100 EXP SWAP1 DIV PUSH20 0xFFFFFFFFFFFFFFFFFFFFFFFFFFFFFFFFFFFFFFFF AND PUSH20 0xFFFFFFFFFFFFFFFFFFFFFFFFFFFFFFFFFFFFFFFF AND PUSH2 0x1327 PUSH2 0x1398 JUMP JUMPDEST PUSH20 0xFFFFFFFFFFFFFFFFFFFFFFFFFFFFFFFFFFFFFFFF AND EQ PUSH2 0x1346 JUMPI PUSH0 DUP1 REVERT JUMPDEST PUSH0 SELFBALANCE SWAP1 POP PUSH0 DUP2 GT PUSH2 0x138C JUMPI PUSH1 0x40 MLOAD PUSH32 0x8C379A000000000000000000000000000000000000000000000000000000000 DUP2 MSTORE PUSH1 0x4 ADD PUSH2 0x1383 SWAP1 PUSH2 0x2C6B JUMP JUMPDEST PUSH1 0x40 MLOAD DUP1 SWAP2 SUB SWAP1 REVERT JUMPDEST PUSH2 0x1395 DUP2 PUSH2 0x215F JUMP JUMPDEST POP JUMP JUMPDEST PUSH0 CALLER SWAP1 POP SWAP1 JUMP JUMPDEST PUSH0 PUSH20 0xFFFFFFFFFFFFFFFFFFFFFFFFFFFFFFFFFFFFFFFF AND DUP4 PUSH20 0xFFFFFFFFFFFFFFFFFFFFFFFFFFFFFFFFFFFFFFFF AND SUB PUSH2 0x140D JUMPI PUSH1 0x40 MLOAD PUSH32 0x8C379A000000000000000000000000000000000000000000000000000000000 DUP2 MSTORE PUSH1 0x4 ADD PUSH2 0x1404 SWAP1 PUSH2 0x2CF9 JUMP JUMPDEST PUSH1 0x40 MLOAD DUP1 SWAP2 SUB SWAP1 REVERT JUMPDEST PUSH0 PUSH20 0xFFFFFFFFFFFFFFFFFFFFFFFFFFFFFFFFFFFFFFFF AND DUP3 PUSH20 0xFFFFFFFFFFFFFFFFFFFFFFFFFFFFFFFFFFFFFFFF AND SUB PUSH2 0x147B JUMPI PUSH1 0x40 MLOAD PUSH32 0x8C379A000000000000000000000000000000000000000000000000000000000 DUP2 MSTORE PUSH1 0x4 ADD PUSH2 0x1472 SWAP1 PUSH2 0x2D87 JUMP JUMPDEST PUSH1 0x40 MLOAD DUP1 SWAP2 SUB SWAP1 REVERT JUMPDEST DUP1 PUSH1 0x2 PUSH0 DUP6 PUSH20 0xFFFFFFFFFFFFFFFFFFFFFFFFFFFFFFFFFFFFFFFF AND PUSH20 0xFFFFFFFFFFFFFFFFFFFFFFFFFFFFFFFFFFFFFFFF AND DUP2 MSTORE PUSH1 0x20 ADD SWAP1 DUP2 MSTORE PUSH1 0x20 ADD PUSH0 KECCAK256 PUSH0 DUP5 PUSH20 0xFFFFFFFFFFFFFFFFFFFFFFFFFFFFFFFFFFFFFFFF AND PUSH20 0xFFFFFFFFFFFFFFFFFFFFFFFFFFFFFFFFFFFFFFFF AND DUP2 MSTORE PUSH1 0x20 ADD SWAP1 DUP2 MSTORE PUSH1 0x20 ADD PUSH0 KECCAK256 DUP2 SWAP1 SSTORE POP DUP2 PUSH20 0xFFFFFFFFFFFFFFFFFFFFFFFFFFFFFFFFFFFFFFFF AND DUP4 PUSH20 0xFFFFFFFFFFFFFFFFFFFFFFFFFFFFFFFFFFFFFFFF AND PUSH32 0x8C5BE1E5EBEC7D5BD14F71427D1E84F3DD0314C0F7B2291E5B200AC8C7C3B925 DUP4 PUSH1 0x40 MLOAD PUSH2 0x1555 SWAP2 SWAP1 PUSH2 0x2547 JUMP JUMPDEST PUSH1 0x40 MLOAD DUP1 SWAP2 SUB SWAP1 LOG3 POP POP POP JUMP JUMPDEST PUSH0 PUSH20 0xFFFFFFFFFFFFFFFFFFFFFFFFFFFFFFFFFFFFFFFF AND DUP4 PUSH20 0xFFFFFFFFFFFFFFFFFFFFFFFFFFFFFFFFFFFFFFFF AND SUB PUSH2 0x15D0 JUMPI PUSH1 0x40 MLOAD PUSH32 0x8C379A000000000000000000000000000000000000000000000000000000000 DUP2 MSTORE PUSH1 0x4 ADD PUSH2 0x15C7 SWAP1 PUSH2 0x2E15 JUMP JUMPDEST PUSH1 0x40 MLOAD DUP1 SWAP2 SUB SWAP1 REVERT JUMPDEST PUSH0 PUSH20 0xFFFFFFFFFFFFFFFFFFFFFFFFFFFFFFFFFFFFFFFF AND DUP3 PUSH20 0xFFFFFFFFFFFFFFFFFFFFFFFFFFFFFFFFFFFFFFFF AND SUB PUSH2 0x163E JUMPI PUSH1 0x40 MLOAD PUSH32 0x8C379A000000000000000000000000000000000000000000000000000000000 DUP2 MSTORE PUSH1 0x4 ADD PUSH2 0x1635 SWAP1 PUSH2 0x2EA3 JUMP JUMPDEST PUSH1 0x40 MLOAD DUP1 SWAP2 SUB SWAP1 REVERT JUMPDEST PUSH0 DUP2 GT PUSH2 0x1680 JUMPI PUSH1 0x40 MLOAD PUSH32 0x8C379A000000000000000000000000000000000000000000000000000000000 DUP2 MSTORE PUSH1 0x4 ADD PUSH2 0x1677 SWAP1 PUSH2 0x2F31 JUMP JUMPDEST PUSH1 0x40 MLOAD DUP1 SWAP2 SUB SWAP1 REVERT JUMPDEST PUSH0 PUSH2 0x1689 PUSH2 0xC23 JUMP JUMPDEST PUSH20 0xFFFFFFFFFFFFFFFFFFFFFFFFFFFFFFFFFFFFFFFF AND DUP5 PUSH20 0xFFFFFFFFFFFFFFFFFFFFFFFFFFFFFFFFFFFFFFFF AND EQ ISZERO DUP1 ISZERO PUSH2 0x16F7 JUMPI POP PUSH2 0x16C7 PUSH2 0xC23 JUMP JUMPDEST PUSH20 0xFFFFFFFFFFFFFFFFFFFFFFFFFFFFFFFFFFFFFFFF AND DUP4 PUSH20 0xFFFFFFFFFFFFFFFFFFFFFFFFFFFFFFFFFFFFFFFF AND EQ ISZERO JUMPDEST ISZERO PUSH2 0x1BE2 JUMPI PUSH0 PUSH1 0xD SLOAD SUB PUSH2 0x1744 JUMPI PUSH2 0x1741 PUSH1 0x64 PUSH2 0x1733 PUSH1 0x9 SLOAD PUSH1 0xD SLOAD GT PUSH2 0x1720 JUMPI PUSH1 0x5 SLOAD PUSH2 0x1724 JUMP JUMPDEST PUSH1 0x7 SLOAD JUMPDEST DUP6 PUSH2 0x21C7 SWAP1 SWAP2 SWAP1 PUSH4 0xFFFFFFFF AND JUMP JUMPDEST PUSH2 0x223E SWAP1 SWAP2 SWAP1 PUSH4 0xFFFFFFFF AND JUMP JUMPDEST SWAP1 POP JUMPDEST PUSH0 PUSH1 0xD SLOAD GT ISZERO PUSH2 0x1779 JUMPI PUSH2 0x1776 PUSH1 0x64 PUSH2 0x1768 PUSH1 0xC SLOAD DUP6 PUSH2 0x21C7 SWAP1 SWAP2 SWAP1 PUSH4 0xFFFFFFFF AND JUMP JUMPDEST PUSH2 0x223E SWAP1 SWAP2 SWAP1 PUSH4 0xFFFFFFFF AND JUMP JUMPDEST SWAP1 POP JUMPDEST PUSH1 0x16 SLOAD NUMBER SUB PUSH2 0x17C8 JUMPI PUSH1 0x23 PUSH1 0xD SLOAD LT PUSH2 0x17C7 JUMPI PUSH1 0x40 MLOAD PUSH32 0x8C379A000000000000000000000000000000000000000000000000000000000 DUP2 MSTORE PUSH1 0x4 ADD PUSH2 0x17BE SWAP1 PUSH2 0x2F99 JUMP JUMPDEST PUSH1 0x40 MLOAD DUP1 SWAP2 SUB SWAP1 REVERT JUMPDEST JUMPDEST PUSH1 0x13 PUSH0 SWAP1 SLOAD SWAP1 PUSH2 0x100 EXP SWAP1 DIV PUSH20 0xFFFFFFFFFFFFFFFFFFFFFFFFFFFFFFFFFFFFFFFF AND PUSH20 0xFFFFFFFFFFFFFFFFFFFFFFFFFFFFFFFFFFFFFFFF AND DUP5 PUSH20 0xFFFFFFFFFFFFFFFFFFFFFFFFFFFFFFFFFFFFFFFF AND EQ DUP1 ISZERO PUSH2 0x1871 JUMPI POP PUSH1 0x12 PUSH0 SWAP1 SLOAD SWAP1 PUSH2 0x100 EXP SWAP1 DIV PUSH20 0xFFFFFFFFFFFFFFFFFFFFFFFFFFFFFFFFFFFFFFFF AND PUSH20 0xFFFFFFFFFFFFFFFFFFFFFFFFFFFFFFFFFFFFFFFF AND DUP4 PUSH20 0xFFFFFFFFFFFFFFFFFFFFFFFFFFFFFFFFFFFFFFFF AND EQ ISZERO JUMPDEST DUP1 ISZERO PUSH2 0x18C4 JUMPI POP PUSH1 0x3 PUSH0 DUP5 PUSH20 0xFFFFFFFFFFFFFFFFFFFFFFFFFFFFFFFFFFFFFFFF AND PUSH20 0xFFFFFFFFFFFFFFFFFFFFFFFFFFFFFFFFFFFFFFFF AND DUP2 MSTORE PUSH1 0x20 ADD SWAP1 DUP2 MSTORE PUSH1 0x20 ADD PUSH0 KECCAK256 PUSH0 SWAP1 SLOAD SWAP1 PUSH2 0x100 EXP SWAP1 DIV PUSH1 0xFF AND ISZERO JUMPDEST ISZERO PUSH2 0x19BC JUMPI PUSH1 0xE SLOAD DUP3 GT ISZERO PUSH2 0x190E JUMPI PUSH1 0x40 MLOAD PUSH32 0x8C379A000000000000000000000000000000000000000000000000000000000 DUP2 MSTORE PUSH1 0x4 ADD PUSH2 0x1905 SWAP1 PUSH2 0x3001 JUMP JUMPDEST PUSH1 0x40 MLOAD DUP1 SWAP2 SUB SWAP1 REVERT JUMPDEST PUSH1 0xF SLOAD DUP3 PUSH2 0x191B DUP6 PUSH2 0x8CA JUMP JUMPDEST PUSH2 0x1925 SWAP2 SWAP1 PUSH2 0x301F JUMP JUMPDEST GT ISZERO PUSH2 0x1966 JUMPI PUSH1 0x40 MLOAD PUSH32 0x8C379A000000000000000000000000000000000000000000000000000000000 DUP2 MSTORE PUSH1 0x4 ADD PUSH2 0x195D SWAP1 PUSH2 0x309C JUMP JUMPDEST PUSH1 0x40 MLOAD DUP1 SWAP2 SUB SWAP1 REVERT JUMPDEST PUSH2 0x19A2 PUSH1 0x64 PUSH2 0x1994 PUSH1 0x9 SLOAD PUSH1 0xD SLOAD GT PUSH2 0x1981 JUMPI PUSH1 0x5 SLOAD PUSH2 0x1985 JUMP JUMPDEST PUSH1 0x7 SLOAD JUMPDEST DUP6 PUSH2 0x21C7 SWAP1 SWAP2 SWAP1 PUSH4 0xFFFFFFFF AND JUMP JUMPDEST PUSH2 0x223E SWAP1 SWAP2 SWAP1 PUSH4 0xFFFFFFFF AND JUMP JUMPDEST SWAP1 POP PUSH1 0xD PUSH0 DUP2 SLOAD DUP1 SWAP3 SWAP2 SWAP1 PUSH2 0x19B6 SWAP1 PUSH2 0x30BA JUMP JUMPDEST SWAP2 SWAP1 POP SSTORE POP JUMPDEST PUSH1 0x13 PUSH0 SWAP1 SLOAD SWAP1 PUSH2 0x100 EXP SWAP1 DIV PUSH20 0xFFFFFFFFFFFFFFFFFFFFFFFFFFFFFFFFFFFFFFFF AND PUSH20 0xFFFFFFFFFFFFFFFFFFFFFFFFFFFFFFFFFFFFFFFF AND DUP4 PUSH20 0xFFFFFFFFFFFFFFFFFFFFFFFFFFFFFFFFFFFFFFFF AND EQ DUP1 ISZERO PUSH2 0x1A44 JUMPI POP ADDRESS PUSH20 0xFFFFFFFFFFFFFFFFFFFFFFFFFFFFFFFFFFFFFFFF AND DUP5 PUSH20 0xFFFFFFFFFFFFFFFFFFFFFFFFFFFFFFFFFFFFFFFF AND EQ ISZERO JUMPDEST ISZERO PUSH2 0x1A88 JUMPI PUSH2 0x1A85 PUSH1 0x64 PUSH2 0x1A77 PUSH1 0xA SLOAD PUSH1 0xD SLOAD GT PUSH2 0x1A64 JUMPI PUSH1 0x6 SLOAD PUSH2 0x1A68 JUMP JUMPDEST PUSH1 0x8 SLOAD JUMPDEST DUP6 PUSH2 0x21C7 SWAP1 SWAP2 SWAP1 PUSH4 0xFFFFFFFF AND JUMP JUMPDEST PUSH2 0x223E SWAP1 SWAP2 SWAP1 PUSH4 0xFFFFFFFF AND JUMP JUMPDEST SWAP1 POP JUMPDEST PUSH0 PUSH2 0x1A92 ADDRESS PUSH2 0x8CA JUMP JUMPDEST SWAP1 POP PUSH1 0x13 PUSH1 0x15 SWAP1 SLOAD SWAP1 PUSH2 0x100 EXP SWAP1 DIV PUSH1 0xFF AND ISZERO DUP1 ISZERO PUSH2 0x1AFD JUMPI POP PUSH1 0x13 PUSH0 SWAP1 SLOAD SWAP1 PUSH2 0x100 EXP SWAP1 DIV PUSH20 0xFFFFFFFFFFFFFFFFFFFFFFFFFFFFFFFFFFFFFFFF AND PUSH20 0xFFFFFFFFFFFFFFFFFFFFFFFFFFFFFFFFFFFFFFFF AND DUP5 PUSH20 0xFFFFFFFFFFFFFFFFFFFFFFFFFFFFFFFFFFFFFFFF AND EQ JUMPDEST DUP1 ISZERO PUSH2 0x1B15 JUMPI POP PUSH1 0x13 PUSH1 0x16 SWAP1 SLOAD SWAP1 PUSH2 0x100 EXP SWAP1 DIV PUSH1 0xFF AND JUMPDEST DUP1 ISZERO PUSH2 0x1B22 JUMPI POP PUSH1 0x10 SLOAD DUP2 GT JUMPDEST DUP1 ISZERO PUSH2 0x1B31 JUMPI POP PUSH1 0xB SLOAD PUSH1 0xD SLOAD GT JUMPDEST ISZERO PUSH2 0x1BE0 JUMPI PUSH1 0x15 SLOAD NUMBER GT ISZERO PUSH2 0x1B48 JUMPI PUSH0 PUSH1 0x14 DUP2 SWAP1 SSTORE POP JUMPDEST PUSH1 0x3 PUSH1 0x14 SLOAD LT PUSH2 0x1B8D JUMPI PUSH1 0x40 MLOAD PUSH32 0x8C379A000000000000000000000000000000000000000000000000000000000 DUP2 MSTORE PUSH1 0x4 ADD PUSH2 0x1B84 SWAP1 PUSH2 0x314B JUMP JUMPDEST PUSH1 0x40 MLOAD DUP1 SWAP2 SUB SWAP1 REVERT JUMPDEST PUSH2 0x1BAA PUSH2 0x1BA5 DUP5 PUSH2 0x1BA0 DUP5 PUSH1 0x11 SLOAD PUSH2 0x2287 JUMP JUMPDEST PUSH2 0x2287 JUMP JUMPDEST PUSH2 0x1EF4 JUMP JUMPDEST PUSH0 SELFBALANCE SWAP1 POP PUSH0 DUP2 GT ISZERO PUSH2 0x1BC0 JUMPI PUSH2 0x1BBF SELFBALANCE PUSH2 0x215F JUMP JUMPDEST JUMPDEST PUSH1 0x14 PUSH0 DUP2 SLOAD DUP1 SWAP3 SWAP2 SWAP1 PUSH2 0x1BD2 SWAP1 PUSH2 0x30BA JUMP JUMPDEST SWAP2 SWAP1 POP SSTORE POP NUMBER PUSH1 0x15 DUP2 SWAP1 SSTORE POP POP JUMPDEST POP JUMPDEST PUSH0 DUP2 GT ISZERO PUSH2 0x1CE1 JUMPI PUSH2 0x1C3A DUP2 PUSH1 0x1 PUSH0 ADDRESS PUSH20 0xFFFFFFFFFFFFFFFFFFFFFFFFFFFFFFFFFFFFFFFF AND PUSH20 0xFFFFFFFFFFFFFFFFFFFFFFFFFFFFFFFFFFFFFFFF AND DUP2 MSTORE PUSH1 0x20 ADD SWAP1 DUP2 MSTORE PUSH1 0x20 ADD PUSH0 KECCAK256 SLOAD PUSH2 0x229F SWAP1 SWAP2 SWAP1 PUSH4 0xFFFFFFFF AND JUMP JUMPDEST PUSH1 0x1 PUSH0 ADDRESS PUSH20 0xFFFFFFFFFFFFFFFFFFFFFFFFFFFFFFFFFFFFFFFF AND PUSH20 0xFFFFFFFFFFFFFFFFFFFFFFFFFFFFFFFFFFFFFFFF AND DUP2 MSTORE PUSH1 0x20 ADD SWAP1 DUP2 MSTORE PUSH1 0x20 ADD PUSH0 KECCAK256 DUP2 SWAP1 SSTORE POP ADDRESS PUSH20 0xFFFFFFFFFFFFFFFFFFFFFFFFFFFFFFFFFFFFFFFF AND DUP5 PUSH20 0xFFFFFFFFFFFFFFFFFFFFFFFFFFFFFFFFFFFFFFFF AND PUSH32 0xDDF252AD1BE2C89B69C2B068FC378DAA952BA7F163C4A11628F55A4DF523B3EF DUP4 PUSH1 0x40 MLOAD PUSH2 0x1CD8 SWAP2 SWAP1 PUSH2 0x2547 JUMP JUMPDEST PUSH1 0x40 MLOAD DUP1 SWAP2 SUB SWAP1 LOG3 JUMPDEST PUSH2 0x1D31 DUP3 PUSH1 0x1 PUSH0 DUP8 PUSH20 0xFFFFFFFFFFFFFFFFFFFFFFFFFFFFFFFFFFFFFFFF AND PUSH20 0xFFFFFFFFFFFFFFFFFFFFFFFFFFFFFFFFFFFFFFFF AND DUP2 MSTORE PUSH1 0x20 ADD SWAP1 DUP2 MSTORE PUSH1 0x20 ADD PUSH0 KECCAK256 SLOAD PUSH2 0x22FC SWAP1 SWAP2 SWAP1 PUSH4 0xFFFFFFFF AND JUMP JUMPDEST PUSH1 0x1 PUSH0 DUP7 PUSH20 0xFFFFFFFFFFFFFFFFFFFFFFFFFFFFFFFFFFFFFFFF AND PUSH20 0xFFFFFFFFFFFFFFFFFFFFFFFFFFFFFFFFFFFFFFFF AND DUP2 MSTORE PUSH1 0x20 ADD SWAP1 DUP2 MSTORE PUSH1 0x20 ADD PUSH0 KECCAK256 DUP2 SWAP1 SSTORE POP PUSH2 0x1DD4 PUSH2 0x1D88 DUP3 DUP5 PUSH2 0x22FC SWAP1 SWAP2 SWAP1 PUSH4 0xFFFFFFFF AND JUMP JUMPDEST PUSH1 0x1 PUSH0 DUP7 PUSH20 0xFFFFFFFFFFFFFFFFFFFFFFFFFFFFFFFFFFFFFFFF AND PUSH20 0xFFFFFFFFFFFFFFFFFFFFFFFFFFFFFFFFFFFFFFFF AND DUP2 MSTORE PUSH1 0x20 ADD SWAP1 DUP2 MSTORE PUSH1 0x20 ADD PUSH0 KECCAK256 SLOAD PUSH2 0x229F SWAP1 SWAP2 SWAP1 PUSH4 0xFFFFFFFF AND JUMP JUMPDEST PUSH1 0x1 PUSH0 DUP6 PUSH20 0xFFFFFFFFFFFFFFFFFFFFFFFFFFFFFFFFFFFFFFFF AND PUSH20 0xFFFFFFFFFFFFFFFFFFFFFFFFFFFFFFFFFFFFFFFF AND DUP2 MSTORE PUSH1 0x20 ADD SWAP1 DUP2 MSTORE PUSH1 0x20 ADD PUSH0 KECCAK256 DUP2 SWAP1 SSTORE POP DUP3 PUSH20 0xFFFFFFFFFFFFFFFFFFFFFFFFFFFFFFFFFFFFFFFF AND DUP5 PUSH20 0xFFFFFFFFFFFFFFFFFFFFFFFFFFFFFFFFFFFFFFFF AND PUSH32 0xDDF252AD1BE2C89B69C2B068FC378DAA952BA7F163C4A11628F55A4DF523B3EF PUSH2 0x1E77 DUP5 DUP7 PUSH2 0x22FC SWAP1 SWAP2 SWAP1 PUSH4 0xFFFFFFFF AND JUMP JUMPDEST PUSH1 0x40 MLOAD PUSH2 0x1E84 SWAP2 SWAP1 PUSH2 0x2547 JUMP JUMPDEST PUSH1 0x40 MLOAD DUP1 SWAP2 SUB SWAP1 LOG3 POP POP POP POP JUMP JUMPDEST PUSH0 DUP4 DUP4 GT ISZERO DUP3 SWAP1 PUSH2 0x1ED9 JUMPI PUSH1 0x40 MLOAD PUSH32 0x8C379A000000000000000000000000000000000000000000000000000000000 DUP2 MSTORE PUSH1 0x4 ADD PUSH2 0x1ED0 SWAP2 SWAP1 PUSH2 0x2416 JUMP JUMPDEST PUSH1 0x40 MLOAD DUP1 SWAP2 SUB SWAP1 REVERT JUMPDEST POP PUSH0 DUP4 DUP6 PUSH2 0x1EE7 SWAP2 SWAP1 PUSH2 0x3169 JUMP JUMPDEST SWAP1 POP DUP1 SWAP2 POP POP SWAP4 SWAP3 POP POP POP JUMP JUMPDEST PUSH1 0x1 PUSH1 0x13 PUSH1 0x15 PUSH2 0x100 EXP DUP2 SLOAD DUP2 PUSH1 0xFF MUL NOT AND SWAP1 DUP4 ISZERO ISZERO MUL OR SWAP1 SSTORE POP PUSH0 PUSH1 0x2 PUSH8 0xFFFFFFFFFFFFFFFF DUP2 GT ISZERO PUSH2 0x1F2B JUMPI PUSH2 0x1F2A PUSH2 0x319C JUMP JUMPDEST JUMPDEST PUSH1 0x40 MLOAD SWAP1 DUP1 DUP3 MSTORE DUP1 PUSH1 0x20 MUL PUSH1 0x20 ADD DUP3 ADD PUSH1 0x40 MSTORE DUP1 ISZERO PUSH2 0x1F59 JUMPI DUP2 PUSH1 0x20 ADD PUSH1 0x20 DUP3 MUL DUP1 CALLDATASIZE DUP4 CALLDATACOPY DUP1 DUP3 ADD SWAP2 POP POP SWAP1 POP JUMPDEST POP SWAP1 POP ADDRESS DUP2 PUSH0 DUP2 MLOAD DUP2 LT PUSH2 0x1F70 JUMPI PUSH2 0x1F6F PUSH2 0x31C9 JUMP JUMPDEST JUMPDEST PUSH1 0x20 MUL PUSH1 0x20 ADD ADD SWAP1 PUSH20 0xFFFFFFFFFFFFFFFFFFFFFFFFFFFFFFFFFFFFFFFF AND SWAP1 DUP2 PUSH20 0xFFFFFFFFFFFFFFFFFFFFFFFFFFFFFFFFFFFFFFFF AND DUP2 MSTORE POP POP PUSH1 0x12 PUSH0 SWAP1 SLOAD SWAP1 PUSH2 0x100 EXP SWAP1 DIV PUSH20 0xFFFFFFFFFFFFFFFFFFFFFFFFFFFFFFFFFFFFFFFF AND PUSH20 0xFFFFFFFFFFFFFFFFFFFFFFFFFFFFFFFFFFFFFFFF AND PUSH4 0xAD5C4648 PUSH1 0x40 MLOAD DUP2 PUSH4 0xFFFFFFFF AND PUSH1 0xE0 SHL DUP2 MSTORE PUSH1 0x4 ADD PUSH1 0x20 PUSH1 0x40 MLOAD DUP1 DUP4 SUB DUP2 DUP7 GAS STATICCALL ISZERO DUP1 ISZERO PUSH2 0x2014 JUMPI RETURNDATASIZE PUSH0 DUP1 RETURNDATACOPY RETURNDATASIZE PUSH0 REVERT JUMPDEST POP POP POP POP PUSH1 0x40 MLOAD RETURNDATASIZE PUSH1 0x1F NOT PUSH1 0x1F DUP3 ADD AND DUP3 ADD DUP1 PUSH1 0x40 MSTORE POP DUP2 ADD SWAP1 PUSH2 0x2038 SWAP2 SWAP1 PUSH2 0x2AFA JUMP JUMPDEST DUP2 PUSH1 0x1 DUP2 MLOAD DUP2 LT PUSH2 0x204C JUMPI PUSH2 0x204B PUSH2 0x31C9 JUMP JUMPDEST JUMPDEST PUSH1 0x20 MUL PUSH1 0x20 ADD ADD SWAP1 PUSH20 0xFFFFFFFFFFFFFFFFFFFFFFFFFFFFFFFFFFFFFFFF AND SWAP1 DUP2 PUSH20 0xFFFFFFFFFFFFFFFFFFFFFFFFFFFFFFFFFFFFFFFF AND DUP2 MSTORE POP POP PUSH2 0x20B2 ADDRESS PUSH1 0x12 PUSH0 SWAP1 SLOAD SWAP1 PUSH2 0x100 EXP SWAP1 DIV PUSH20 0xFFFFFFFFFFFFFFFFFFFFFFFFFFFFFFFFFFFFFFFF AND DUP5 PUSH2 0x139F JUMP JUMPDEST PUSH1 0x12 PUSH0 SWAP1 SLOAD SWAP1 PUSH2 0x100 EXP SWAP1 DIV PUSH20 0xFFFFFFFFFFFFFFFFFFFFFFFFFFFFFFFFFFFFFFFF AND PUSH20 0xFFFFFFFFFFFFFFFFFFFFFFFFFFFFFFFFFFFFFFFF AND PUSH4 0x791AC947 DUP4 PUSH0 DUP5 ADDRESS TIMESTAMP PUSH1 0x40 MLOAD DUP7 PUSH4 0xFFFFFFFF AND PUSH1 0xE0 SHL DUP2 MSTORE PUSH1 0x4 ADD PUSH2 0x2114 SWAP6 SWAP5 SWAP4 SWAP3 SWAP2 SWAP1 PUSH2 0x32AD JUMP JUMPDEST PUSH0 PUSH1 0x40 MLOAD DUP1 DUP4 SUB DUP2 PUSH0 DUP8 DUP1 EXTCODESIZE ISZERO DUP1 ISZERO PUSH2 0x212B JUMPI PUSH0 DUP1 REVERT JUMPDEST POP GAS CALL ISZERO DUP1 ISZERO PUSH2 0x213D JUMPI RETURNDATASIZE PUSH0 DUP1 RETURNDATACOPY RETURNDATASIZE PUSH0 REVERT JUMPDEST POP POP POP POP POP PUSH0 PUSH1 0x13 PUSH1 0x15 PUSH2 0x100 EXP DUP2 SLOAD DUP2 PUSH1 0xFF MUL NOT AND SWAP1 DUP4 ISZERO ISZERO MUL OR SWAP1 SSTORE POP POP JUMP JUMPDEST PUSH1 0x4 PUSH0 SWAP1 SLOAD SWAP1 PUSH2 0x100 EXP SWAP1 DIV PUSH20 0xFFFFFFFFFFFFFFFFFFFFFFFFFFFFFFFFFFFFFFFF AND PUSH20 0xFFFFFFFFFFFFFFFFFFFFFFFFFFFFFFFFFFFFFFFF AND PUSH2 0x8FC DUP3 SWAP1 DUP2 ISZERO MUL SWAP1 PUSH1 0x40 MLOAD PUSH0 PUSH1 0x40 MLOAD DUP1 DUP4 SUB DUP2 DUP6 DUP9 DUP9 CALL SWAP4 POP POP POP POP ISZERO DUP1 ISZERO PUSH2 0x21C3 JUMPI RETURNDATASIZE PUSH0 DUP1 RETURNDATACOPY RETURNDATASIZE PUSH0 REVERT JUMPDEST POP POP JUMP JUMPDEST PUSH0 DUP1 DUP4 SUB PUSH2 0x21D7 JUMPI PUSH0 SWAP1 POP PUSH2 0x2238 JUMP JUMPDEST PUSH0 DUP3 DUP5 PUSH2 0x21E4 SWAP2 SWAP1 PUSH2 0x2909 JUMP JUMPDEST SWAP1 POP DUP3 DUP5 DUP3 PUSH2 0x21F3 SWAP2 SWAP1 PUSH2 0x3332 JUMP JUMPDEST EQ PUSH2 0x2233 JUMPI PUSH1 0x40 MLOAD PUSH32 0x8C379A000000000000000000000000000000000000000000000000000000000 DUP2 MSTORE PUSH1 0x4 ADD PUSH2 0x222A SWAP1 PUSH2 0x33D2 JUMP JUMPDEST PUSH1 0x40 MLOAD DUP1 SWAP2 SUB SWAP1 REVERT JUMPDEST DUP1 SWAP2 POP POP JUMPDEST SWAP3 SWAP2 POP POP JUMP JUMPDEST PUSH0 PUSH2 0x227F DUP4 DUP4 PUSH1 0x40 MLOAD DUP1 PUSH1 0x40 ADD PUSH1 0x40 MSTORE DUP1 PUSH1 0x1A DUP2 MSTORE PUSH1 0x20 ADD PUSH32 0x536166654D6174683A206469766973696F6E206279207A65726F000000000000 DUP2 MSTORE POP PUSH2 0x2345 JUMP JUMPDEST SWAP1 POP SWAP3 SWAP2 POP POP JUMP JUMPDEST PUSH0 DUP2 DUP4 GT PUSH2 0x2295 JUMPI DUP3 PUSH2 0x2297 JUMP JUMPDEST DUP2 JUMPDEST SWAP1 POP SWAP3 SWAP2 POP POP JUMP JUMPDEST PUSH0 DUP1 DUP3 DUP5 PUSH2 0x22AD SWAP2 SWAP1 PUSH2 0x301F JUMP JUMPDEST SWAP1 POP DUP4 DUP2 LT ISZERO PUSH2 0x22F2 JUMPI PUSH1 0x40 MLOAD PUSH32 0x8C379A000000000000000000000000000000000000000000000000000000000 DUP2 MSTORE PUSH1 0x4 ADD PUSH2 0x22E9 SWAP1 PUSH2 0x343A JUMP JUMPDEST PUSH1 0x40 MLOAD DUP1 SWAP2 SUB SWAP1 REVERT JUMPDEST DUP1 SWAP2 POP POP SWAP3 SWAP2 POP POP JUMP JUMPDEST PUSH0 PUSH2 0x233D DUP4 DUP4 PUSH1 0x40 MLOAD DUP1 PUSH1 0x40 ADD PUSH1 0x40 MSTORE DUP1 PUSH1 0x1E DUP2 MSTORE PUSH1 0x20 ADD PUSH32 0x536166654D6174683A207375627472616374696F6E206F766572666C6F770000 DUP2 MSTORE POP PUSH2 0x1E92 JUMP JUMPDEST SWAP1 POP SWAP3 SWAP2 POP POP JUMP JUMPDEST PUSH0 DUP1 DUP4 GT DUP3 SWAP1 PUSH2 0x238B JUMPI PUSH1 0x40 MLOAD PUSH32 0x8C379A000000000000000000000000000000000000000000000000000000000 DUP2 MSTORE PUSH1 0x4 ADD PUSH2 0x2382 SWAP2 SWAP1 PUSH2 0x2416 JUMP JUMPDEST PUSH1 0x40 MLOAD DUP1 SWAP2 SUB SWAP1 REVERT JUMPDEST POP PUSH0 DUP4 DUP6 PUSH2 0x2399 SWAP2 SWAP1 PUSH2 0x3332 JUMP JUMPDEST SWAP1 POP DUP1 SWAP2 POP POP SWAP4 SWAP3 POP POP POP JUMP JUMPDEST PUSH0 DUP2 MLOAD SWAP1 POP SWAP2 SWAP1 POP JUMP JUMPDEST PUSH0 DUP3 DUP3 MSTORE PUSH1 0x20 DUP3 ADD SWAP1 POP SWAP3 SWAP2 POP POP JUMP JUMPDEST DUP3 DUP2 DUP4 MCOPY PUSH0 DUP4 DUP4 ADD MSTORE POP POP POP JUMP JUMPDEST PUSH0 PUSH1 0x1F NOT PUSH1 0x1F DUP4 ADD AND SWAP1 POP SWAP2 SWAP1 POP JUMP JUMPDEST PUSH0 PUSH2 0x23E8 DUP3 PUSH2 0x23A6 JUMP JUMPDEST PUSH2 0x23F2 DUP2 DUP6 PUSH2 0x23B0 JUMP JUMPDEST SWAP4 POP PUSH2 0x2402 DUP2 DUP6 PUSH1 0x20 DUP7 ADD PUSH2 0x23C0 JUMP JUMPDEST PUSH2 0x240B DUP2 PUSH2 0x23CE JUMP JUMPDEST DUP5 ADD SWAP2 POP POP SWAP3 SWAP2 POP POP JUMP JUMPDEST PUSH0 PUSH1 0x20 DUP3 ADD SWAP1 POP DUP2 DUP2 SUB PUSH0 DUP4 ADD MSTORE PUSH2 0x242E DUP2 DUP5 PUSH2 0x23DE JUMP JUMPDEST SWAP1 POP SWAP3 SWAP2 POP POP JUMP JUMPDEST PUSH0 DUP1 REVERT JUMPDEST PUSH0 PUSH20 0xFFFFFFFFFFFFFFFFFFFFFFFFFFFFFFFFFFFFFFFF DUP3 AND SWAP1 POP SWAP2 SWAP1 POP JUMP JUMPDEST PUSH0 PUSH2 0x2463 DUP3 PUSH2 0x243A JUMP JUMPDEST SWAP1 POP SWAP2 SWAP1 POP JUMP JUMPDEST PUSH2 0x2473 DUP2 PUSH2 0x2459 JUMP JUMPDEST DUP2 EQ PUSH2 0x247D JUMPI PUSH0 DUP1 REVERT JUMPDEST POP JUMP JUMPDEST PUSH0 DUP2 CALLDATALOAD SWAP1 POP PUSH2 0x248E DUP2 PUSH2 0x246A JUMP JUMPDEST SWAP3 SWAP2 POP POP JUMP JUMPDEST PUSH0 DUP2 SWAP1 POP SWAP2 SWAP1 POP JUMP JUMPDEST PUSH2 0x24A6 DUP2 PUSH2 0x2494 JUMP JUMPDEST DUP2 EQ PUSH2 0x24B0 JUMPI PUSH0 DUP1 REVERT JUMPDEST POP JUMP JUMPDEST PUSH0 DUP2 CALLDATALOAD SWAP1 POP PUSH2 0x24C1 DUP2 PUSH2 0x249D JUMP JUMPDEST SWAP3 SWAP2 POP POP JUMP JUMPDEST PUSH0 DUP1 PUSH1 0x40 DUP4 DUP6 SUB SLT ISZERO PUSH2 0x24DD JUMPI PUSH2 0x24DC PUSH2 0x2436 JUMP JUMPDEST JUMPDEST PUSH0 PUSH2 0x24EA DUP6 DUP3 DUP7 ADD PUSH2 0x2480 JUMP JUMPDEST SWAP3 POP POP PUSH1 0x20 PUSH2 0x24FB DUP6 DUP3 DUP7 ADD PUSH2 0x24B3 JUMP JUMPDEST SWAP2 POP POP SWAP3 POP SWAP3 SWAP1 POP JUMP JUMPDEST PUSH0 DUP2 ISZERO ISZERO SWAP1 POP SWAP2 SWAP1 POP JUMP JUMPDEST PUSH2 0x2519 DUP2 PUSH2 0x2505 JUMP JUMPDEST DUP3 MSTORE POP POP JUMP JUMPDEST PUSH0 PUSH1 0x20 DUP3 ADD SWAP1 POP PUSH2 0x2532 PUSH0 DUP4 ADD DUP5 PUSH2 0x2510 JUMP JUMPDEST SWAP3 SWAP2 POP POP JUMP JUMPDEST PUSH2 0x2541 DUP2 PUSH2 0x2494 JUMP JUMPDEST DUP3 MSTORE POP POP JUMP JUMPDEST PUSH0 PUSH1 0x20 DUP3 ADD SWAP1 POP PUSH2 0x255A PUSH0 DUP4 ADD DUP5 PUSH2 0x2538 JUMP JUMPDEST SWAP3 SWAP2 POP POP JUMP JUMPDEST PUSH0 DUP1 PUSH0 PUSH1 0x60 DUP5 DUP7 SUB SLT ISZERO PUSH2 0x2577 JUMPI PUSH2 0x2576 PUSH2 0x2436 JUMP JUMPDEST JUMPDEST PUSH0 PUSH2 0x2584 DUP7 DUP3 DUP8 ADD PUSH2 0x2480 JUMP JUMPDEST SWAP4 POP POP PUSH1 0x20 PUSH2 0x2595 DUP7 DUP3 DUP8 ADD PUSH2 0x2480 JUMP JUMPDEST SWAP3 POP POP PUSH1 0x40 PUSH2 0x25A6 DUP7 DUP3 DUP8 ADD PUSH2 0x24B3 JUMP JUMPDEST SWAP2 POP POP SWAP3 POP SWAP3 POP SWAP3 JUMP JUMPDEST PUSH0 PUSH1 0xFF DUP3 AND SWAP1 POP SWAP2 SWAP1 POP JUMP JUMPDEST PUSH2 0x25C5 DUP2 PUSH2 0x25B0 JUMP JUMPDEST DUP3 MSTORE POP POP JUMP JUMPDEST PUSH0 PUSH1 0x20 DUP3 ADD SWAP1 POP PUSH2 0x25DE PUSH0 DUP4 ADD DUP5 PUSH2 0x25BC JUMP JUMPDEST SWAP3 SWAP2 POP POP JUMP JUMPDEST PUSH0 PUSH1 0x20 DUP3 DUP5 SUB SLT ISZERO PUSH2 0x25F9 JUMPI PUSH2 0x25F8 PUSH2 0x2436 JUMP JUMPDEST JUMPDEST PUSH0 PUSH2 0x2606 DUP5 DUP3 DUP6 ADD PUSH2 0x2480 JUMP JUMPDEST SWAP2 POP POP SWAP3 SWAP2 POP POP JUMP JUMPDEST PUSH2 0x2618 DUP2 PUSH2 0x2459 JUMP JUMPDEST DUP3 MSTORE POP POP JUMP JUMPDEST PUSH0 PUSH1 0x20 DUP3 ADD SWAP1 POP PUSH2 0x2631 PUSH0 DUP4 ADD DUP5 PUSH2 0x260F JUMP JUMPDEST SWAP3 SWAP2 POP POP JUMP JUMPDEST PUSH0 DUP1 PUSH1 0x40 DUP4 DUP6 SUB SLT ISZERO PUSH2 0x264D JUMPI PUSH2 0x264C PUSH2 0x2436 JUMP JUMPDEST JUMPDEST PUSH0 PUSH2 0x265A DUP6 DUP3 DUP7 ADD PUSH2 0x2480 JUMP JUMPDEST SWAP3 POP POP PUSH1 0x20 PUSH2 0x266B DUP6 DUP3 DUP7 ADD PUSH2 0x2480 JUMP JUMPDEST SWAP2 POP POP SWAP3 POP SWAP3 SWAP1 POP JUMP JUMPDEST PUSH0 PUSH1 0x20 DUP3 DUP5 SUB SLT ISZERO PUSH2 0x268A JUMPI PUSH2 0x2689 PUSH2 0x2436 JUMP JUMPDEST JUMPDEST PUSH0 PUSH2 0x2697 DUP5 DUP3 DUP6 ADD PUSH2 0x24B3 JUMP JUMPDEST SWAP2 POP POP SWAP3 SWAP2 POP POP JUMP JUMPDEST PUSH32 0x4F776E61626C653A2063616C6C6572206973206E6F7420746865206F776E6572 PUSH0 DUP3 ADD MSTORE POP JUMP JUMPDEST PUSH0 PUSH2 0x26D4 PUSH1 0x20 DUP4 PUSH2 0x23B0 JUMP JUMPDEST SWAP2 POP PUSH2 0x26DF DUP3 PUSH2 0x26A0 JUMP JUMPDEST PUSH1 0x20 DUP3 ADD SWAP1 POP SWAP2 SWAP1 POP JUMP JUMPDEST PUSH0 PUSH1 0x20 DUP3 ADD SWAP1 POP DUP2 DUP2 SUB PUSH0 DUP4 ADD MSTORE PUSH2 0x2701 DUP2 PUSH2 0x26C8 JUMP JUMPDEST SWAP1 POP SWAP2 SWAP1 POP JUMP JUMPDEST PUSH0 DUP2 SWAP1 POP SWAP2 SWAP1 POP JUMP JUMPDEST PUSH0 DUP2 SWAP1 POP SWAP2 SWAP1 POP JUMP JUMPDEST PUSH0 PUSH2 0x2734 PUSH2 0x272F PUSH2 0x272A DUP5 PUSH2 0x2708 JUMP JUMPDEST PUSH2 0x2711 JUMP JUMPDEST PUSH2 0x2494 JUMP JUMPDEST SWAP1 POP SWAP2 SWAP1 POP JUMP JUMPDEST PUSH2 0x2744 DUP2 PUSH2 0x271A JUMP JUMPDEST DUP3 MSTORE POP POP JUMP JUMPDEST PUSH0 PUSH1 0x20 DUP3 ADD SWAP1 POP PUSH2 0x275D PUSH0 DUP4 ADD DUP5 PUSH2 0x273B JUMP JUMPDEST SWAP3 SWAP2 POP POP JUMP JUMPDEST PUSH32 0x4E487B7100000000000000000000000000000000000000000000000000000000 PUSH0 MSTORE PUSH1 0x11 PUSH1 0x4 MSTORE PUSH1 0x24 PUSH0 REVERT JUMPDEST PUSH0 DUP2 PUSH1 0x1 SHR SWAP1 POP SWAP2 SWAP1 POP JUMP JUMPDEST PUSH0 DUP1 DUP3 SWAP2 POP DUP4 SWAP1 POP JUMPDEST PUSH1 0x1 DUP6 GT ISZERO PUSH2 0x27E5 JUMPI DUP1 DUP7 DIV DUP2 GT ISZERO PUSH2 0x27C1 JUMPI PUSH2 0x27C0 PUSH2 0x2763 JUMP JUMPDEST JUMPDEST PUSH1 0x1 DUP6 AND ISZERO PUSH2 0x27D0 JUMPI DUP1 DUP3 MUL SWAP2 POP JUMPDEST DUP1 DUP2 MUL SWAP1 POP PUSH2 0x27DE DUP6 PUSH2 0x2790 JUMP JUMPDEST SWAP5 POP PUSH2 0x27A5 JUMP JUMPDEST SWAP5 POP SWAP5 SWAP3 POP POP POP JUMP JUMPDEST PUSH0 DUP3 PUSH2 0x27FD JUMPI PUSH1 0x1 SWAP1 POP PUSH2 0x28B8 JUMP JUMPDEST DUP2 PUSH2 0x280A JUMPI PUSH0 SWAP1 POP PUSH2 0x28B8 JUMP JUMPDEST DUP2 PUSH1 0x1 DUP2 EQ PUSH2 0x2820 JUMPI PUSH1 0x2 DUP2 EQ PUSH2 0x282A JUMPI PUSH2 0x2859 JUMP JUMPDEST PUSH1 0x1 SWAP2 POP POP PUSH2 0x28B8 JUMP JUMPDEST PUSH1 0xFF DUP5 GT ISZERO PUSH2 0x283C JUMPI PUSH2 0x283B PUSH2 0x2763 JUMP JUMPDEST JUMPDEST DUP4 PUSH1 0x2 EXP SWAP2 POP DUP5 DUP3 GT ISZERO PUSH2 0x2853 JUMPI PUSH2 0x2852 PUSH2 0x2763 JUMP JUMPDEST JUMPDEST POP PUSH2 0x28B8 JUMP JUMPDEST POP PUSH1 0x20 DUP4 LT PUSH2 0x133 DUP4 LT AND PUSH1 0x4E DUP5 LT PUSH1 0xB DUP5 LT AND OR ISZERO PUSH2 0x288E JUMPI DUP3 DUP3 EXP SWAP1 POP DUP4 DUP2 GT ISZERO PUSH2 0x2889 JUMPI PUSH2 0x2888 PUSH2 0x2763 JUMP JUMPDEST JUMPDEST PUSH2 0x28B8 JUMP JUMPDEST PUSH2 0x289B DUP5 DUP5 DUP5 PUSH1 0x1 PUSH2 0x279C JUMP JUMPDEST SWAP3 POP SWAP1 POP DUP2 DUP5 DIV DUP2 GT ISZERO PUSH2 0x28B2 JUMPI PUSH2 0x28B1 PUSH2 0x2763 JUMP JUMPDEST JUMPDEST DUP2 DUP2 MUL SWAP1 POP JUMPDEST SWAP4 SWAP3 POP POP POP JUMP JUMPDEST PUSH0 PUSH2 0x28C9 DUP3 PUSH2 0x2494 JUMP JUMPDEST SWAP2 POP PUSH2 0x28D4 DUP4 PUSH2 0x25B0 JUMP JUMPDEST SWAP3 POP PUSH2 0x2901 PUSH32 0xFFFFFFFFFFFFFFFFFFFFFFFFFFFFFFFFFFFFFFFFFFFFFFFFFFFFFFFFFFFFFFFF DUP5 DUP5 PUSH2 0x27EE JUMP JUMPDEST SWAP1 POP SWAP3 SWAP2 POP POP JUMP JUMPDEST PUSH0 PUSH2 0x2913 DUP3 PUSH2 0x2494 JUMP JUMPDEST SWAP2 POP PUSH2 0x291E DUP4 PUSH2 0x2494 JUMP JUMPDEST SWAP3 POP DUP3 DUP3 MUL PUSH2 0x292C DUP2 PUSH2 0x2494 JUMP JUMPDEST SWAP2 POP DUP3 DUP3 DIV DUP5 EQ DUP4 ISZERO OR PUSH2 0x2943 JUMPI PUSH2 0x2942 PUSH2 0x2763 JUMP JUMPDEST JUMPDEST POP SWAP3 SWAP2 POP POP JUMP JUMPDEST PUSH0 DUP2 MLOAD SWAP1 POP PUSH2 0x2958 DUP2 PUSH2 0x249D JUMP JUMPDEST SWAP3 SWAP2 POP POP JUMP JUMPDEST PUSH0 PUSH1 0x20 DUP3 DUP5 SUB SLT ISZERO PUSH2 0x2973 JUMPI PUSH2 0x2972 PUSH2 0x2436 JUMP JUMPDEST JUMPDEST PUSH0 PUSH2 0x2980 DUP5 DUP3 DUP6 ADD PUSH2 0x294A JUMP JUMPDEST SWAP2 POP POP SWAP3 SWAP2 POP POP JUMP JUMPDEST PUSH0 PUSH1 0x40 DUP3 ADD SWAP1 POP PUSH2 0x299C PUSH0 DUP4 ADD DUP6 PUSH2 0x260F JUMP JUMPDEST PUSH2 0x29A9 PUSH1 0x20 DUP4 ADD DUP5 PUSH2 0x2538 JUMP JUMPDEST SWAP4 SWAP3 POP POP POP JUMP JUMPDEST PUSH0 PUSH2 0x29CA PUSH2 0x29C5 PUSH2 0x29C0 DUP5 PUSH2 0x243A JUMP JUMPDEST PUSH2 0x2711 JUMP JUMPDEST PUSH2 0x243A JUMP JUMPDEST SWAP1 POP SWAP2 SWAP1 POP JUMP JUMPDEST PUSH0 PUSH2 0x29DB DUP3 PUSH2 0x29B0 JUMP JUMPDEST SWAP1 POP SWAP2 SWAP1 POP JUMP JUMPDEST PUSH0 PUSH2 0x29EC DUP3 PUSH2 0x29D1 JUMP JUMPDEST SWAP1 POP SWAP2 SWAP1 POP JUMP JUMPDEST PUSH2 0x29FC DUP2 PUSH2 0x29E2 JUMP JUMPDEST DUP3 MSTORE POP POP JUMP JUMPDEST PUSH0 PUSH1 0x40 DUP3 ADD SWAP1 POP PUSH2 0x2A15 PUSH0 DUP4 ADD DUP6 PUSH2 0x29F3 JUMP JUMPDEST PUSH2 0x2A22 PUSH1 0x20 DUP4 ADD DUP5 PUSH2 0x2538 JUMP JUMPDEST SWAP4 SWAP3 POP POP POP JUMP JUMPDEST PUSH2 0x2A32 DUP2 PUSH2 0x2505 JUMP JUMPDEST DUP2 EQ PUSH2 0x2A3C JUMPI PUSH0 DUP1 REVERT JUMPDEST POP JUMP JUMPDEST PUSH0 DUP2 MLOAD SWAP1 POP PUSH2 0x2A4D DUP2 PUSH2 0x2A29 JUMP JUMPDEST SWAP3 SWAP2 POP POP JUMP JUMPDEST PUSH0 PUSH1 0x20 DUP3 DUP5 SUB SLT ISZERO PUSH2 0x2A68 JUMPI PUSH2 0x2A67 PUSH2 0x2436 JUMP JUMPDEST JUMPDEST PUSH0 PUSH2 0x2A75 DUP5 DUP3 DUP6 ADD PUSH2 0x2A3F JUMP JUMPDEST SWAP2 POP POP SWAP3 SWAP2 POP POP JUMP JUMPDEST PUSH32 0x74726164696E6720697320616C7265616479206F70656E000000000000000000 PUSH0 DUP3 ADD MSTORE POP JUMP JUMPDEST PUSH0 PUSH2 0x2AB2 PUSH1 0x17 DUP4 PUSH2 0x23B0 JUMP JUMPDEST SWAP2 POP PUSH2 0x2ABD DUP3 PUSH2 0x2A7E JUMP JUMPDEST PUSH1 0x20 DUP3 ADD SWAP1 POP SWAP2 SWAP1 POP JUMP JUMPDEST PUSH0 PUSH1 0x20 DUP3 ADD SWAP1 POP DUP2 DUP2 SUB PUSH0 DUP4 ADD MSTORE PUSH2 0x2ADF DUP2 PUSH2 0x2AA6 JUMP JUMPDEST SWAP1 POP SWAP2 SWAP1 POP JUMP JUMPDEST PUSH0 DUP2 MLOAD SWAP1 POP PUSH2 0x2AF4 DUP2 PUSH2 0x246A JUMP JUMPDEST SWAP3 SWAP2 POP POP JUMP JUMPDEST PUSH0 PUSH1 0x20 DUP3 DUP5 SUB SLT ISZERO PUSH2 0x2B0F JUMPI PUSH2 0x2B0E PUSH2 0x2436 JUMP JUMPDEST JUMPDEST PUSH0 PUSH2 0x2B1C DUP5 DUP3 DUP6 ADD PUSH2 0x2AE6 JUMP JUMPDEST SWAP2 POP POP SWAP3 SWAP2 POP POP JUMP JUMPDEST PUSH0 PUSH1 0x40 DUP3 ADD SWAP1 POP PUSH2 0x2B38 PUSH0 DUP4 ADD DUP6 PUSH2 0x260F JUMP JUMPDEST PUSH2 0x2B45 PUSH1 0x20 DUP4 ADD DUP5 PUSH2 0x260F JUMP JUMPDEST SWAP4 SWAP3 POP POP POP JUMP JUMPDEST PUSH0 PUSH1 0xC0 DUP3 ADD SWAP1 POP PUSH2 0x2B5F PUSH0 DUP4 ADD DUP10 PUSH2 0x260F JUMP JUMPDEST PUSH2 0x2B6C PUSH1 0x20 DUP4 ADD DUP9 PUSH2 0x2538 JUMP JUMPDEST PUSH2 0x2B79 PUSH1 0x40 DUP4 ADD DUP8 PUSH2 0x273B JUMP JUMPDEST PUSH2 0x2B86 PUSH1 0x60 DUP4 ADD DUP7 PUSH2 0x273B JUMP JUMPDEST PUSH2 0x2B93 PUSH1 0x80 DUP4 ADD DUP6 PUSH2 0x260F JUMP JUMPDEST PUSH2 0x2BA0 PUSH1 0xA0 DUP4 ADD DUP5 PUSH2 0x2538 JUMP JUMPDEST SWAP8 SWAP7 POP POP POP POP POP POP POP JUMP JUMPDEST PUSH0 DUP1 PUSH0 PUSH1 0x60 DUP5 DUP7 SUB SLT ISZERO PUSH2 0x2BC2 JUMPI PUSH2 0x2BC1 PUSH2 0x2436 JUMP JUMPDEST JUMPDEST PUSH0 PUSH2 0x2BCF DUP7 DUP3 DUP8 ADD PUSH2 0x294A JUMP JUMPDEST SWAP4 POP POP PUSH1 0x20 PUSH2 0x2BE0 DUP7 DUP3 DUP8 ADD PUSH2 0x294A JUMP JUMPDEST SWAP3 POP POP PUSH1 0x40 PUSH2 0x2BF1 DUP7 DUP3 DUP8 ADD PUSH2 0x294A JUMP JUMPDEST SWAP2 POP POP SWAP3 POP SWAP3 POP SWAP3 JUMP JUMPDEST PUSH32 0x436F6E74726163742062616C616E6365206D7573742062652067726561746572 PUSH0 DUP3 ADD MSTORE PUSH32 0x207468616E207A65726F00000000000000000000000000000000000000000000 PUSH1 0x20 DUP3 ADD MSTORE POP JUMP JUMPDEST PUSH0 PUSH2 0x2C55 PUSH1 0x2A DUP4 PUSH2 0x23B0 JUMP JUMPDEST SWAP2 POP PUSH2 0x2C60 DUP3 PUSH2 0x2BFB JUMP JUMPDEST PUSH1 0x40 DUP3 ADD SWAP1 POP SWAP2 SWAP1 POP JUMP JUMPDEST PUSH0 PUSH1 0x20 DUP3 ADD SWAP1 POP DUP2 DUP2 SUB PUSH0 DUP4 ADD MSTORE PUSH2 0x2C82 DUP2 PUSH2 0x2C49 JUMP JUMPDEST SWAP1 POP SWAP2 SWAP1 POP JUMP JUMPDEST PUSH32 0x45524332303A20617070726F76652066726F6D20746865207A65726F20616464 PUSH0 DUP3 ADD MSTORE PUSH32 0x7265737300000000000000000000000000000000000000000000000000000000 PUSH1 0x20 DUP3 ADD MSTORE POP JUMP JUMPDEST PUSH0 PUSH2 0x2CE3 PUSH1 0x24 DUP4 PUSH2 0x23B0 JUMP JUMPDEST SWAP2 POP PUSH2 0x2CEE DUP3 PUSH2 0x2C89 JUMP JUMPDEST PUSH1 0x40 DUP3 ADD SWAP1 POP SWAP2 SWAP1 POP JUMP JUMPDEST PUSH0 PUSH1 0x20 DUP3 ADD SWAP1 POP DUP2 DUP2 SUB PUSH0 DUP4 ADD MSTORE PUSH2 0x2D10 DUP2 PUSH2 0x2CD7 JUMP JUMPDEST SWAP1 POP SWAP2 SWAP1 POP JUMP JUMPDEST PUSH32 0x45524332303A20617070726F766520746F20746865207A65726F206164647265 PUSH0 DUP3 ADD MSTORE PUSH32 0x7373000000000000000000000000000000000000000000000000000000000000 PUSH1 0x20 DUP3 ADD MSTORE POP JUMP JUMPDEST PUSH0 PUSH2 0x2D71 PUSH1 0x22 DUP4 PUSH2 0x23B0 JUMP JUMPDEST SWAP2 POP PUSH2 0x2D7C DUP3 PUSH2 0x2D17 JUMP JUMPDEST PUSH1 0x40 DUP3 ADD SWAP1 POP SWAP2 SWAP1 POP JUMP JUMPDEST PUSH0 PUSH1 0x20 DUP3 ADD SWAP1 POP DUP2 DUP2 SUB PUSH0 DUP4 ADD MSTORE PUSH2 0x2D9E DUP2 PUSH2 0x2D65 JUMP JUMPDEST SWAP1 POP SWAP2 SWAP1 POP JUMP JUMPDEST PUSH32 0x45524332303A207472616E736665722066726F6D20746865207A65726F206164 PUSH0 DUP3 ADD MSTORE PUSH32 0x6472657373000000000000000000000000000000000000000000000000000000 PUSH1 0x20 DUP3 ADD MSTORE POP JUMP JUMPDEST PUSH0 PUSH2 0x2DFF PUSH1 0x25 DUP4 PUSH2 0x23B0 JUMP JUMPDEST SWAP2 POP PUSH2 0x2E0A DUP3 PUSH2 0x2DA5 JUMP JUMPDEST PUSH1 0x40 DUP3 ADD SWAP1 POP SWAP2 SWAP1 POP JUMP JUMPDEST PUSH0 PUSH1 0x20 DUP3 ADD SWAP1 POP DUP2 DUP2 SUB PUSH0 DUP4 ADD MSTORE PUSH2 0x2E2C DUP2 PUSH2 0x2DF3 JUMP JUMPDEST SWAP1 POP SWAP2 SWAP1 POP JUMP JUMPDEST PUSH32 0x45524332303A207472616E7366657220746F20746865207A65726F2061646472 PUSH0 DUP3 ADD MSTORE PUSH32 0x6573730000000000000000000000000000000000000000000000000000000000 PUSH1 0x20 DUP3 ADD MSTORE POP JUMP JUMPDEST PUSH0 PUSH2 0x2E8D PUSH1 0x23 DUP4 PUSH2 0x23B0 JUMP JUMPDEST SWAP2 POP PUSH2 0x2E98 DUP3 PUSH2 0x2E33 JUMP JUMPDEST PUSH1 0x40 DUP3 ADD SWAP1 POP SWAP2 SWAP1 POP JUMP JUMPDEST PUSH0 PUSH1 0x20 DUP3 ADD SWAP1 POP DUP2 DUP2 SUB PUSH0 DUP4 ADD MSTORE PUSH2 0x2EBA DUP2 PUSH2 0x2E81 JUMP JUMPDEST SWAP1 POP SWAP2 SWAP1 POP JUMP JUMPDEST PUSH32 0x5472616E7366657220616D6F756E74206D757374206265206772656174657220 PUSH0 DUP3 ADD MSTORE PUSH32 0x7468616E207A65726F0000000000000000000000000000000000000000000000 PUSH1 0x20 DUP3 ADD MSTORE POP JUMP JUMPDEST PUSH0 PUSH2 0x2F1B PUSH1 0x29 DUP4 PUSH2 0x23B0 JUMP JUMPDEST SWAP2 POP PUSH2 0x2F26 DUP3 PUSH2 0x2EC1 JUMP JUMPDEST PUSH1 0x40 DUP3 ADD SWAP1 POP SWAP2 SWAP1 POP JUMP JUMPDEST PUSH0 PUSH1 0x20 DUP3 ADD SWAP1 POP DUP2 DUP2 SUB PUSH0 DUP4 ADD MSTORE PUSH2 0x2F48 DUP2 PUSH2 0x2F0F JUMP JUMPDEST SWAP1 POP SWAP2 SWAP1 POP JUMP JUMPDEST PUSH32 0x457863656564732062757973206F6E2074686520666972737420626C6F636B2E PUSH0 DUP3 ADD MSTORE POP JUMP JUMPDEST PUSH0 PUSH2 0x2F83 PUSH1 0x20 DUP4 PUSH2 0x23B0 JUMP JUMPDEST SWAP2 POP PUSH2 0x2F8E DUP3 PUSH2 0x2F4F JUMP JUMPDEST PUSH1 0x20 DUP3 ADD SWAP1 POP SWAP2 SWAP1 POP JUMP JUMPDEST PUSH0 PUSH1 0x20 DUP3 ADD SWAP1 POP DUP2 DUP2 SUB PUSH0 DUP4 ADD MSTORE PUSH2 0x2FB0 DUP2 PUSH2 0x2F77 JUMP JUMPDEST SWAP1 POP SWAP2 SWAP1 POP JUMP JUMPDEST PUSH32 0x4578636565647320746865205F6D61785478416D6F756E742E00000000000000 PUSH0 DUP3 ADD MSTORE POP JUMP JUMPDEST PUSH0 PUSH2 0x2FEB PUSH1 0x19 DUP4 PUSH2 0x23B0 JUMP JUMPDEST SWAP2 POP PUSH2 0x2FF6 DUP3 PUSH2 0x2FB7 JUMP JUMPDEST PUSH1 0x20 DUP3 ADD SWAP1 POP SWAP2 SWAP1 POP JUMP JUMPDEST PUSH0 PUSH1 0x20 DUP3 ADD SWAP1 POP DUP2 DUP2 SUB PUSH0 DUP4 ADD MSTORE PUSH2 0x3018 DUP2 PUSH2 0x2FDF JUMP JUMPDEST SWAP1 POP SWAP2 SWAP1 POP JUMP JUMPDEST PUSH0 PUSH2 0x3029 DUP3 PUSH2 0x2494 JUMP JUMPDEST SWAP2 POP PUSH2 0x3034 DUP4 PUSH2 0x2494 JUMP JUMPDEST SWAP3 POP DUP3 DUP3 ADD SWAP1 POP DUP1 DUP3 GT ISZERO PUSH2 0x304C JUMPI PUSH2 0x304B PUSH2 0x2763 JUMP JUMPDEST JUMPDEST SWAP3 SWAP2 POP POP JUMP JUMPDEST PUSH32 0x4578636565647320746865206D617857616C6C657453697A652E000000000000 PUSH0 DUP3 ADD MSTORE POP JUMP JUMPDEST PUSH0 PUSH2 0x3086 PUSH1 0x1A DUP4 PUSH2 0x23B0 JUMP JUMPDEST SWAP2 POP PUSH2 0x3091 DUP3 PUSH2 0x3052 JUMP JUMPDEST PUSH1 0x20 DUP3 ADD SWAP1 POP SWAP2 SWAP1 POP JUMP JUMPDEST PUSH0 PUSH1 0x20 DUP3 ADD SWAP1 POP DUP2 DUP2 SUB PUSH0 DUP4 ADD MSTORE PUSH2 0x30B3 DUP2 PUSH2 0x307A JUMP JUMPDEST SWAP1 POP SWAP2 SWAP1 POP JUMP JUMPDEST PUSH0 PUSH2 0x30C4 DUP3 PUSH2 0x2494 JUMP JUMPDEST SWAP2 POP PUSH32 0xFFFFFFFFFFFFFFFFFFFFFFFFFFFFFFFFFFFFFFFFFFFFFFFFFFFFFFFFFFFFFFFF DUP3 SUB PUSH2 0x30F6 JUMPI PUSH2 0x30F5 PUSH2 0x2763 JUMP JUMPDEST JUMPDEST PUSH1 0x1 DUP3 ADD SWAP1 POP SWAP2 SWAP1 POP JUMP JUMPDEST PUSH32 0x4F6E6C7920332073656C6C732070657220626C6F636B21000000000000000000 PUSH0 DUP3 ADD MSTORE POP JUMP JUMPDEST PUSH0 PUSH2 0x3135 PUSH1 0x17 DUP4 PUSH2 0x23B0 JUMP JUMPDEST SWAP2 POP PUSH2 0x3140 DUP3 PUSH2 0x3101 JUMP JUMPDEST PUSH1 0x20 DUP3 ADD SWAP1 POP SWAP2 SWAP1 POP JUMP JUMPDEST PUSH0 PUSH1 0x20 DUP3 ADD SWAP1 POP DUP2 DUP2 SUB PUSH0 DUP4 ADD MSTORE PUSH2 0x3162 DUP2 PUSH2 0x3129 JUMP JUMPDEST SWAP1 POP SWAP2 SWAP1 POP JUMP JUMPDEST PUSH0 PUSH2 0x3173 DUP3 PUSH2 0x2494 JUMP JUMPDEST SWAP2 POP PUSH2 0x317E DUP4 PUSH2 0x2494 JUMP JUMPDEST SWAP3 POP DUP3 DUP3 SUB SWAP1 POP DUP2 DUP2 GT ISZERO PUSH2 0x3196 JUMPI PUSH2 0x3195 PUSH2 0x2763 JUMP JUMPDEST JUMPDEST SWAP3 SWAP2 POP POP JUMP JUMPDEST PUSH32 0x4E487B7100000000000000000000000000000000000000000000000000000000 PUSH0 MSTORE PUSH1 0x41 PUSH1 0x4 MSTORE PUSH1 0x24 PUSH0 REVERT JUMPDEST PUSH32 0x4E487B7100000000000000000000000000000000000000000000000000000000 PUSH0 MSTORE PUSH1 0x32 PUSH1 0x4 MSTORE PUSH1 0x24 PUSH0 REVERT JUMPDEST PUSH0 DUP2 MLOAD SWAP1 POP SWAP2 SWAP1 POP JUMP JUMPDEST PUSH0 DUP3 DUP3 MSTORE PUSH1 0x20 DUP3 ADD SWAP1 POP SWAP3 SWAP2 POP POP JUMP JUMPDEST PUSH0 DUP2 SWAP1 POP PUSH1 0x20 DUP3 ADD SWAP1 POP SWAP2 SWAP1 POP JUMP JUMPDEST PUSH2 0x3228 DUP2 PUSH2 0x2459 JUMP JUMPDEST DUP3 MSTORE POP POP JUMP JUMPDEST PUSH0 PUSH2 0x3239 DUP4 DUP4 PUSH2 0x321F JUMP JUMPDEST PUSH1 0x20 DUP4 ADD SWAP1 POP SWAP3 SWAP2 POP POP JUMP JUMPDEST PUSH0 PUSH1 0x20 DUP3 ADD SWAP1 POP SWAP2 SWAP1 POP JUMP JUMPDEST PUSH0 PUSH2 0x325B DUP3 PUSH2 0x31F6 JUMP JUMPDEST PUSH2 0x3265 DUP2 DUP6 PUSH2 0x3200 JUMP JUMPDEST SWAP4 POP PUSH2 0x3270 DUP4 PUSH2 0x3210 JUMP JUMPDEST DUP1 PUSH0 JUMPDEST DUP4 DUP2 LT ISZERO PUSH2 0x32A0 JUMPI DUP2 MLOAD PUSH2 0x3287 DUP9 DUP3 PUSH2 0x322E JUMP JUMPDEST SWAP8 POP PUSH2 0x3292 DUP4 PUSH2 0x3245 JUMP JUMPDEST SWAP3 POP POP PUSH1 0x1 DUP2 ADD SWAP1 POP PUSH2 0x3273 JUMP JUMPDEST POP DUP6 SWAP4 POP POP POP POP SWAP3 SWAP2 POP POP JUMP JUMPDEST PUSH0 PUSH1 0xA0 DUP3 ADD SWAP1 POP PUSH2 0x32C0 PUSH0 DUP4 ADD DUP9 PUSH2 0x2538 JUMP JUMPDEST PUSH2 0x32CD PUSH1 0x20 DUP4 ADD DUP8 PUSH2 0x273B JUMP JUMPDEST DUP2 DUP2 SUB PUSH1 0x40 DUP4 ADD MSTORE PUSH2 0x32DF DUP2 DUP7 PUSH2 0x3251 JUMP JUMPDEST SWAP1 POP PUSH2 0x32EE PUSH1 0x60 DUP4 ADD DUP6 PUSH2 0x260F JUMP JUMPDEST PUSH2 0x32FB PUSH1 0x80 DUP4 ADD DUP5 PUSH2 0x2538 JUMP JUMPDEST SWAP7 SWAP6 POP POP POP POP POP POP JUMP JUMPDEST PUSH32 0x4E487B7100000000000000000000000000000000000000000000000000000000 PUSH0 MSTORE PUSH1 0x12 PUSH1 0x4 MSTORE PUSH1 0x24 PUSH0 REVERT JUMPDEST PUSH0 PUSH2 0x333C DUP3 PUSH2 0x2494 JUMP JUMPDEST SWAP2 POP PUSH2 0x3347 DUP4 PUSH2 0x2494 JUMP JUMPDEST SWAP3 POP DUP3 PUSH2 0x3357 JUMPI PUSH2 0x3356 PUSH2 0x3305 JUMP JUMPDEST JUMPDEST DUP3 DUP3 DIV SWAP1 POP SWAP3 SWAP2 POP POP JUMP JUMPDEST PUSH32 0x536166654D6174683A206D756C7469706C69636174696F6E206F766572666C6F PUSH0 DUP3 ADD MSTORE PUSH32 0x7700000000000000000000000000000000000000000000000000000000000000 PUSH1 0x20 DUP3 ADD MSTORE POP JUMP JUMPDEST PUSH0 PUSH2 0x33BC PUSH1 0x21 DUP4 PUSH2 0x23B0 JUMP JUMPDEST SWAP2 POP PUSH2 0x33C7 DUP3 PUSH2 0x3362 JUMP JUMPDEST PUSH1 0x40 DUP3 ADD SWAP1 POP SWAP2 SWAP1 POP JUMP JUMPDEST PUSH0 PUSH1 0x20 DUP3 ADD SWAP1 POP DUP2 DUP2 SUB PUSH0 DUP4 ADD MSTORE PUSH2 0x33E9 DUP2 PUSH2 0x33B0 JUMP JUMPDEST SWAP1 POP SWAP2 SWAP1 POP JUMP JUMPDEST PUSH32 0x536166654D6174683A206164646974696F6E206F766572666C6F770000000000 PUSH0 DUP3 ADD MSTORE POP JUMP JUMPDEST PUSH0 PUSH2 0x3424 PUSH1 0x1B DUP4 PUSH2 0x23B0 JUMP JUMPDEST SWAP2 POP PUSH2 0x342F DUP3 PUSH2 0x33F0 JUMP JUMPDEST PUSH1 0x20 DUP3 ADD SWAP1 POP SWAP2 SWAP1 POP JUMP JUMPDEST PUSH0 PUSH1 0x20 DUP3 ADD SWAP1 POP DUP2 DUP2 SUB PUSH0 DUP4 ADD MSTORE PUSH2 0x3451 DUP2 PUSH2 0x3418 JUMP JUMPDEST SWAP1 POP SWAP2 SWAP1 POP JUMP INVALID GASLIMIT MSTORE NUMBER ORIGIN ADDRESS GASPRICE KECCAK256 PUSH21 0x72616E7366657220616D6F756E7420657863656564 PUSH20 0x20616C6C6F77616E6365A2646970667358221220 0xB7 MULMOD 0xAA 0x23 0xAF 0xB9 CODESIZE 0xF9 EXTCODESIZE 0xBE 0xCF SMOD MULMOD ISZERO SWAP10 0xAF PUSH29 0x9C08C9920F4DE20AAC87071F4039564736F6C634300081A0033000000 "
				},
				"gasEstimates": {
					"creation": {
						"codeDepositCost": "2698800",
						"executionCost": "infinite",
						"totalCost": "infinite"
					},
					"external": {
						"_maxTaxSwap()": "2493",
						"_maxTxAmount()": "2470",
						"_maxWalletSize()": "2514",
						"_taxSwapThreshold()": "2469",
						"allowance(address,address)": "infinite",
						"approve(address,uint256)": "infinite",
						"balanceOf(address)": "2940",
						"clearStuckToken(address,uint256)": "infinite",
						"decimals()": "383",
						"manualSend()": "infinite",
						"manualSwap()": "infinite",
						"name()": "infinite",
						"openTrading()": "infinite",
						"owner()": "2582",
						"reduceFee(uint256)": "51202",
						"removeLimit()": "infinite",
						"removeTransferTax()": "8759",
						"renounceOwnership()": "30417",
						"symbol()": "infinite",
						"totalSupply()": "infinite",
						"transfer(address,uint256)": "infinite",
						"transferFrom(address,address,uint256)": "infinite"
					},
					"internal": {
						"_approve(address,address,uint256)": "infinite",
						"_transfer(address,address,uint256)": "infinite",
						"min(uint256,uint256)": "63",
						"sendETHToFee(uint256)": "infinite",
						"swapTokensForEth(uint256)": "infinite"
					}
				},
				"methodIdentifiers": {
					"_maxTaxSwap()": "0faee56f",
					"_maxTxAmount()": "7d1db4a5",
					"_maxWalletSize()": "8f9a55c0",
					"_taxSwapThreshold()": "bf474bed",
					"allowance(address,address)": "dd62ed3e",
					"approve(address,uint256)": "095ea7b3",
					"balanceOf(address)": "70a08231",
					"clearStuckToken(address,uint256)": "77b54bad",
					"decimals()": "313ce567",
					"manualSend()": "f4293890",
					"manualSwap()": "51bc3c85",
					"name()": "06fdde03",
					"openTrading()": "c9567bf9",
					"owner()": "8da5cb5b",
					"reduceFee(uint256)": "ec1f3f63",
					"removeLimit()": "62256589",
					"removeTransferTax()": "109daa99",
					"renounceOwnership()": "715018a6",
					"symbol()": "95d89b41",
					"totalSupply()": "18160ddd",
					"transfer(address,uint256)": "a9059cbb",
					"transferFrom(address,address,uint256)": "23b872dd"
				}
			},
			"storageLayout": {
				"storage": [
					{
						"astId": 228,
						"contract": "contracts/Dog/SLAVE.sol:SLAVE",
						"label": "_owner",
						"offset": 0,
						"slot": "0",
						"type": "t_address"
					},
					{
						"astId": 366,
						"contract": "contracts/Dog/SLAVE.sol:SLAVE",
						"label": "_balances",
						"offset": 0,
						"slot": "1",
						"type": "t_mapping(t_address,t_uint256)"
					},
					{
						"astId": 372,
						"contract": "contracts/Dog/SLAVE.sol:SLAVE",
						"label": "_allowances",
						"offset": 0,
						"slot": "2",
						"type": "t_mapping(t_address,t_mapping(t_address,t_uint256))"
					},
					{
						"astId": 376,
						"contract": "contracts/Dog/SLAVE.sol:SLAVE",
						"label": "_isExcludedFromFee",
						"offset": 0,
						"slot": "3",
						"type": "t_mapping(t_address,t_bool)"
					},
					{
						"astId": 378,
						"contract": "contracts/Dog/SLAVE.sol:SLAVE",
						"label": "_taxWallet",
						"offset": 0,
						"slot": "4",
						"type": "t_address_payable"
					},
					{
						"astId": 381,
						"contract": "contracts/Dog/SLAVE.sol:SLAVE",
						"label": "_initialBuyTax",
						"offset": 0,
						"slot": "5",
						"type": "t_uint256"
					},
					{
						"astId": 384,
						"contract": "contracts/Dog/SLAVE.sol:SLAVE",
						"label": "_initialSellTax",
						"offset": 0,
						"slot": "6",
						"type": "t_uint256"
					},
					{
						"astId": 387,
						"contract": "contracts/Dog/SLAVE.sol:SLAVE",
						"label": "_finalBuyTax",
						"offset": 0,
						"slot": "7",
						"type": "t_uint256"
					},
					{
						"astId": 390,
						"contract": "contracts/Dog/SLAVE.sol:SLAVE",
						"label": "_finalSellTax",
						"offset": 0,
						"slot": "8",
						"type": "t_uint256"
					},
					{
						"astId": 393,
						"contract": "contracts/Dog/SLAVE.sol:SLAVE",
						"label": "_reduceBuyTaxAt",
						"offset": 0,
						"slot": "9",
						"type": "t_uint256"
					},
					{
						"astId": 396,
						"contract": "contracts/Dog/SLAVE.sol:SLAVE",
						"label": "_reduceSellTaxAt",
						"offset": 0,
						"slot": "10",
						"type": "t_uint256"
					},
					{
						"astId": 399,
						"contract": "contracts/Dog/SLAVE.sol:SLAVE",
						"label": "_preventSwapBefore",
						"offset": 0,
						"slot": "11",
						"type": "t_uint256"
					},
					{
						"astId": 402,
						"contract": "contracts/Dog/SLAVE.sol:SLAVE",
						"label": "_transferTax",
						"offset": 0,
						"slot": "12",
						"type": "t_uint256"
					},
					{
						"astId": 405,
						"contract": "contracts/Dog/SLAVE.sol:SLAVE",
						"label": "_buyCount",
						"offset": 0,
						"slot": "13",
						"type": "t_uint256"
					},
					{
						"astId": 429,
						"contract": "contracts/Dog/SLAVE.sol:SLAVE",
						"label": "_maxTxAmount",
						"offset": 0,
						"slot": "14",
						"type": "t_uint256"
					},
					{
						"astId": 437,
						"contract": "contracts/Dog/SLAVE.sol:SLAVE",
						"label": "_maxWalletSize",
						"offset": 0,
						"slot": "15",
						"type": "t_uint256"
					},
					{
						"astId": 445,
						"contract": "contracts/Dog/SLAVE.sol:SLAVE",
						"label": "_taxSwapThreshold",
						"offset": 0,
						"slot": "16",
						"type": "t_uint256"
					},
					{
						"astId": 453,
						"contract": "contracts/Dog/SLAVE.sol:SLAVE",
						"label": "_maxTaxSwap",
						"offset": 0,
						"slot": "17",
						"type": "t_uint256"
					},
					{
						"astId": 456,
						"contract": "contracts/Dog/SLAVE.sol:SLAVE",
						"label": "uniswapV2Router",
						"offset": 0,
						"slot": "18",
						"type": "t_contract(IUniswapV2Router02)353"
					},
					{
						"astId": 458,
						"contract": "contracts/Dog/SLAVE.sol:SLAVE",
						"label": "uniswapV2Pair",
						"offset": 0,
						"slot": "19",
						"type": "t_address"
					},
					{
						"astId": 460,
						"contract": "contracts/Dog/SLAVE.sol:SLAVE",
						"label": "tradingOpen",
						"offset": 20,
						"slot": "19",
						"type": "t_bool"
					},
					{
						"astId": 463,
						"contract": "contracts/Dog/SLAVE.sol:SLAVE",
						"label": "inSwap",
						"offset": 21,
						"slot": "19",
						"type": "t_bool"
					},
					{
						"astId": 466,
						"contract": "contracts/Dog/SLAVE.sol:SLAVE",
						"label": "swapEnabled",
						"offset": 22,
						"slot": "19",
						"type": "t_bool"
					},
					{
						"astId": 469,
						"contract": "contracts/Dog/SLAVE.sol:SLAVE",
						"label": "sellCount",
						"offset": 0,
						"slot": "20",
						"type": "t_uint256"
					},
					{
						"astId": 472,
						"contract": "contracts/Dog/SLAVE.sol:SLAVE",
						"label": "lastSellBlock",
						"offset": 0,
						"slot": "21",
						"type": "t_uint256"
					},
					{
						"astId": 475,
						"contract": "contracts/Dog/SLAVE.sol:SLAVE",
						"label": "firstBlock",
						"offset": 0,
						"slot": "22",
						"type": "t_uint256"
					}
				],
				"types": {
					"t_address": {
						"encoding": "inplace",
						"label": "address",
						"numberOfBytes": "20"
					},
					"t_address_payable": {
						"encoding": "inplace",
						"label": "address payable",
						"numberOfBytes": "20"
					},
					"t_bool": {
						"encoding": "inplace",
						"label": "bool",
						"numberOfBytes": "1"
					},
					"t_contract(IUniswapV2Router02)353": {
						"encoding": "inplace",
						"label": "contract IUniswapV2Router02",
						"numberOfBytes": "20"
					},
					"t_mapping(t_address,t_bool)": {
						"encoding": "mapping",
						"key": "t_address",
						"label": "mapping(address => bool)",
						"numberOfBytes": "32",
						"value": "t_bool"
					},
					"t_mapping(t_address,t_mapping(t_address,t_uint256))": {
						"encoding": "mapping",
						"key": "t_address",
						"label": "mapping(address => mapping(address => uint256))",
						"numberOfBytes": "32",
						"value": "t_mapping(t_address,t_uint256)"
					},
					"t_mapping(t_address,t_uint256)": {
						"encoding": "mapping",
						"key": "t_address",
						"label": "mapping(address => uint256)",
						"numberOfBytes": "32",
						"value": "t_uint256"
					},
					"t_uint256": {
						"encoding": "inplace",
						"label": "uint256",
						"numberOfBytes": "32"
					}
				}
			},
			"userdoc": {
				"kind": "user",
				"methods": {},
				"version": 1
			}
		}
	}
}